:020000040800F2
:1000000038E600202D02000857320008671A000861
:10001000ED310008E90D0008E3C50008000000000C
:1000200000000000000000000000000089770008C8
:1000300035110008000000002F0800089D78000816
:10004000470200084702000847020008470200086C
:10005000470200084702000847020008470200085C
:10006000470200084702000847020008470200084C
:10007000470200084702000847020008470200083C
:10008000470200084702000847020008470200082C
:10009000470200084702000847020008470200081C
:1000A000470200084702000847020008470200080C
:1000B00047020008D5B40008EDB400084702000864
:1000C00047020008470200084702000847020008EC
:1000D000470200081DC30008470200084702000845
:1000E00047020008470200084702000847020008CC
:1000F00047020008470200084702000847020008BC
:1001000047020008470200084702000847020008AB
:10011000470200084702000829B500084702000806
:10012000470200084702000847020008470200088B
:1001300000F002F800F06BF80AA090E8000C82448E
:100140008344AAF10107DA4501D100F060F8AFF26B
:10015000090EBAE80F0013F0010F18BFFB1A43F0A5
:1001600001031847F0090100100A01000A444FF08A
:10017000000C10F8013B13F0070408BF10F8014B06
:100180001D1108BF10F8015B641E05D010F8016B4B
:10019000641E01F8016BF9D113F0080F1EBF10F8AF
:1001A000014BAD1C0C1B09D16D1E58BF01F801CBD2
:1001B000FAD505E014F8016B01F8016B6D1EF9D555
:1001C0009142D6D37047000000230024002500266A
:1001D000103A28BF78C1FBD8520728BF30C148BFAA
:1001E0000B607047642900F0B980752900F0B68073
:1001F000782900F0EF80632900F08E82732900F0E7
:100200009382002070471FB51FBD10B510BD00F0D0
:10021000C5FA1146FFF7F7FF0CF0BEFA00F0E3FA5B
:1002200003B4FFF7F2FF03BC0CF0E4F90948804780
:1002300009480047FEE7FEE7FEE7FEE7FEE7FEE7C8
:10024000FEE7FEE7FEE7FEE704480549054A064BE0
:1002500070470000B97800083101000838E000203C
:1002600038E6002038E2002038E2002072B67047FD
:1002700062B67047EFF3108072B6704780F3108853
:10028000704730BF704720BF7047B0FA80F07047AA
:1002900090FAA0F0B0FA80F0704790FAA0F07047A2
:1002A000704700000FB4044910B503AA029800F08B
:1002B0003FFA10BC5DF814FB6800002070B50446DE
:1002C00085690068C10601D5302600E02026C007F8
:1002D00007D070BDD4E9012130469047206A401C08
:1002E00020626D1EF6D570BD70B504468569007834
:1002F000C00707D170BDD4E9012120209047206AB2
:10030000401C20626D1EF6D570BD70B50C460546CA
:10031000012A05D02878800600D5EA69002302E08A
:10032000012305E05B1C934202D2E05C0028F9D176
:10033000A869E618C01AA861286A184428622846E5
:10034000FFF7BCFF04E0D5E9012114F8010B904749
:10035000B442F8D32846FFF7C7FF70BD2DE9F0413E
:100360000646002410687529314616A510D0AFF353
:100370000080002802DA404213A507E031688A07AE
:1003800001D512A502E0490704D511A5012401E019
:10039000AFF3008000210A2206F1240709E0B0FB38
:1003A000F2FCB0FBF2F302FB1C003030785418462C
:1003B000491C0028F3D123462A463046BDE8F041C7
:1003C00000F047B9000000002D0000002B000000E5
:1003D0002000000070B504460D4621461068AFF3BA
:1003E00000802188090502D50F4A7A4402E00E4AAE
:1003F0007A440E32002104F1240305E000F00F06D8
:100400000009965D5E54491C0028F7D1207800232E
:10041000000704D5702D02D009B102231132204605
:10042000BDE8704000F015B9E60501002DE9F05F68
:10043000894604464FF0000ADFF874B1FB44C0F867
:1004400020A02046E1688847002874D0252806D0DF
:10045000D4E901219047206A401C2062F1E7002680
:100460005F462046E16888472028054607DB312D96
:1004700005D2781910F8200C08B10643F1E7B0074F
:1004800001D526F00406C4F81CA00027C4F818A063
:100490002A2D09D028460CF0A6F838B304EB8708BB
:1004A000303DC8F8185019E059F8041B204604EBF9
:1004B00087029161E1688847012F054618D1E069FC
:1004C000002820DA26F020061DE0D8F8180000EBFE
:1004D000800005EB40003038C8F818002046E1687D
:1004E000884705460CF07FF80028EED1012F0AD08E
:1004F0002E2D08D12046E16888477F1C0546022F33
:1005000046F02006C4DBA069002803DA404246F02A
:100510000106A061F00701D026F010066C2D0BD06B
:10052000682D09D04C2D39D06A2D35D0742D35D099
:100530007A2D33D016E038E0E1682F462046884710
:10054000B842054609D16C2F26D04FF48060E1688F
:10055000064320468847054604E06C2F1AD04FF426
:10056000807006430DB3A5F14100192802D820354B
:1005700046F400664A462946204626604E46FFF766
:1005800031FE80B101280BD0F61D26F0070000F1E6
:10059000080956E74020E4E78020D8E70020D6E7A6
:1005A00006F104094DE7284652E7206ABDE8F09FAE
:1005B000BC0501004FF0013C50F8042B51F8043BFE
:1005C0009A4221D1A2EB0C03934313EACC1317D127
:1005D00050F8042B51F8043B9A4215D1A2EB0C03BE
:1005E000934313EACC130BD150F8042B51F8043B7E
:1005F0009A4209D1A2EB0C03934313EACC13DBD04C
:100600004FF00000704700BFD01A01BAB1FA81F173
:1006100001F0180122FA01F0CB40C1F12001DBB258
:10062000C0B2C01A2CFA01F3D11A914311EAC311D6
:10063000E6D17047704770477047704710B500F0BB
:1006400089F8006810BD10B5044600F083F8046016
:1006500010BD2DE9F0470D4699469246044600F13B
:1006600024080168880604D5E06921F010012160A2
:1006700000E00120A84201DD471B00E00027A1693E
:100680007A1902EB0900081AA0612078C00602D48A
:100690002046FFF713FE002608E0D4E901211AF8EE
:1006A00006009047206A401C761C20624E45F4DB11
:1006B0002078C0060AD52046FFF700FE06E0D4E900
:1006C000012130209047206A401C2062381EA7F18B
:1006D0000107F4DC07E0D4E9012118F80500904790
:1006E000206A401C2062281EA5F10105F3DC20468B
:1006F000FFF7FAFD2078000602D50220BDE8F0875A
:100700000120FBE710B5436913B1AFF3008001E0AE
:10071000FFF7FBFD012010BD127800F124010A70E3
:1007200000224A700122EDE711684FF0FF32E9E73D
:10073000074B70B50D467B4400F015F8044628467B
:1007400000F024F810B14FF0FF3070BD204670BDAE
:1007500003C0000000487047D4DF002001694A1C34
:1007600002610878704700B58FB0CDE901310021F2
:10077000059105497944CDE9031011466846FFF714
:1007800055FE0FB000BD0000E5FFFFFF007B00F04D
:100790008000704700487047D4DF00207546FFF79F
:1007A000F9FFAE4605006946534620F0070085462E
:1007B00018B020B5FFF748FDBDE820404FF0000617
:1007C0004FF000074FF000084FF0000B21F0070139
:1007D000AC46ACE8C009ACE8C009ACE8C009ACE87C
:1007E000C0098D46704710B50446AFF3008020461F
:1007F000BDE81040FFF714BD1D484FF6FF710170B2
:10080000002080F309881B48016881F308881A4892
:100810004FF08051016062B6FEE717484FF08051FB
:100820000160704714484FF080510160704772B604
:10083000EFF3098028B1203880E8F00F0F490968EC
:10084000086000B50E4880475DF804EB0D480E497E
:100850000A78027009480D490A680260106890E839
:10086000F00F203080F309884EF0040E62B6704716
:1008700022ED00E0AC02002004ED00E0A402002024
:10088000654400083202002033020020A802002044
:1008900021B1826842F00102826003E0826822F0A6
:1008A000010282607047000010B50446124884427D
:1008B00008D10121401506F0EDFE0021601506F07B
:1008C000E9FE17E00D48844208D10121001506F029
:1008D000E1FE0021201506F0DDFE0BE00848844211
:1008E00008D10121C80306F0D5FE00214FF40040D5
:1008F00006F0D0FE10BD0000002401400028014099
:10090000003C0140014600208A6802F004020AB15E
:10091000012000E0002070470146C86C80B270479B
:100920000246002013680B400BB1012000E00020BC
:100930007047014600208A6802F008020AB10120CF
:1009400000E000207047000030B502460020002380
:1009500050680F4C20400D790C6844EA0524204370
:10096000506090680B4C2040D1E902542C434D79E3
:1009700044EA450420439060D06A20F470000C7C67
:10098000641EE4B2234340EA0350D06230BD00004D
:10099000FFFEF0FFFDF7F1FFF0B504460D46002025
:1009A0000021092D11DDE068A5F10A0606EB4607D6
:1009B000072606FA07F18843A5F10A0606EB460664
:1009C00003FA06F10843E0600CE0206905EB4507F7
:1009D000072606FA07F1884305EB450603FA06F1F8
:1009E00008432061072A0FDA606B561E06EB860764
:1009F0001F2606FA07F18843561E06EB860605FAFF
:100A000006F10843606322E00D2A0FDA206BD61F3F
:100A100006EB86071F2606FA07F18843D61F06EB6A
:100A2000860605FA06F10843206310E0E06AA2F1A9
:100A30000D0606EB86071F2606FA07F18843A2F18A
:100A40000D0606EB860605FA06F10843E062F0BDE6
:100A5000816841F008018160704721B1826842F4E9
:100A6000A002826003E0826822F4A00282607047E4
:100A7000816841F004018160704700001CB500BF2F
:100A8000B9E00A21012000F0D7FF5B49088000206F
:100A900010210423CDE900105748028882219C20B0
:100AA00002F0E5FA544800880EF0DCF883460DF0B9
:100AB00035FF80464FF06632504B0DF01FFC064666
:100AC00000224F4B0DF01AFC04460DF045F94D493C
:100AD0000860084600680EF08DF84749088000203D
:100AE00010210223CDE900104348028896218C2072
:100AF00002F0BDFA404800880EF0B4F804464148C0
:100B0000016820460EF08EF93E4908603E493D4896
:100B100000680EF0BBF83B4908603C4800680EF0E6
:100B200069F804468020102103232246CDE90010F5
:100B30009621A42002F09BFA0A21022000F07CFFFB
:100B40002D490880002010210423CDE900102A48F7
:100B50000288AA219C2002F08AFA274800880EF019
:100B600081F883460DF0DAFE06464FF06632234BDD
:100B70000DF0C4FB804600224FF080430DF0D2F907
:100B800004460DF0E9F821490860084600680EF0B7
:100B900031F819490880002010210223CDE9001006
:100BA00015480288BE218C2002F061FA12480088A4
:100BB0000EF058F804461548016820460EF032F948
:100BC000124908601049114800680EF05FF80F499B
:100BD0000860084600680EF00DF8044680201021D9
:100BE00003232246CDE90010BE21A42002F03FFAE3
:100BF00007A0FFF757FB44E70000002066664A3F66
:100C0000000026400800002000007A440400002074
:100C10003E3E414443205441534B2E0D0A000000F8
:100C200010B500F04BFF10BD2DE9F04107460C4612
:100C30000026002509E036023919491B491E88B2F1
:100C400000F008F80644681CC5B2A542F3DB304644
:100C5000BDE8F08170B50446002600F0E3FF2546AC
:100C6000E11704EB11610912A02202EB4101C8B2A5
:100C700000F0A4FF01F022F8E11704EB1161091262
:100C8000A4EB0121C8B200F099FF01F017F800F0C1
:100C9000C9FFA12000F092FF01F010F8002000F041
:100CA00055FF064600F0E4FF304670BD2DE9F041E7
:100CB00005460E461746002409E0E20026FA02F235
:100CC000D1B22A1990B200F006F8601CC4B2BC423E
:100CD000F3DBBDE8F08170B504460E4600F0A2FFDC
:100CE0002546E11704EB11610912A02202EB410134
:100CF000C8B200F063FF00F0E1FFE11704EB1161FF
:100D00000912A4EB0121C8B200F058FF00F0D6FF91
:100D1000304600F053FF00F0D1FF00F0A9FF0A2099
:100D20000BF0A4FC70BD000000B587B001214FF4AA
:100D3000017006F09FFC4FF4004006F06FFC0220AB
:100D4000ADF8040000208DF8070001A9204800F04C
:100D50008EFB0420ADF8040000208DF8070001A9E7
:100D60001B4800F084FB1B48FFF79EFD002002900B
:100D70008DF80C008DF80D004FF4602004900020D9
:100D8000059001208DF8180002A91248FFF7DCFD3C
:100D900002208DF8180002A90E48FFF7D5FD0121A9
:100DA0000C48FFF775FD0B48FFF752FE00BF0948DE
:100DB000FFF7BFFD0028FAD10648FFF759FE00BF34
:100DC0000448FFF79FFD0028FAD107B000BD0000DE
:100DD000000801400024014000B585B0684606F0D7
:100DE00069FC019805B000BD00BFFEE710B500F03A
:100DF0001FF800F019F810BD10B5002400BF00BFA7
:100E0000FFF738FA044600BF00BF1021054802F082
:100E1000EFF900BF00BF2046FFF730FA00BF00BF68
:100E200010BD000054C4002010B5FFF7E5FF10BD51
:100E300010B500200249086000F00AF810BD00005B
:100E4000D80100200149086070470000D801002047
:100E500010B5FFF7C1FF04460848006840F08070F5
:100E6000064908600020064948600846006840F0CE
:100E7000010008602046FFF7E5FF10BDFCED00E033
:100E8000001000E00149486870470000001000E0D1
:100E900010B50A200BF024FC10BD000010B5002096
:100EA0000E4908600E48006820F470400C49086044
:100EB0000846006840F44050086000200949C1F825
:100EC0008C01FFF7E5FF012004490860FFF7E0FF10
:100ED00000200449C1F8800110BD000080012242B9
:100EE00000100140000022420F48806940F01000CD
:100EF0000D4988610D4800684FF20F0188430B4986
:100F000008600846006843F2030108430749086087
:100F10000846C06840F00200C8600846C06840F05B
:100F20000800C86070470000001002400010014037
:100F300010B500200E4908600E48006820F470408B
:100F40000C4908600846006840F4405008600120E1
:100F50000949C1F88C01FFF79BFF01200449086093
:100F6000FFF796FF00200449C1F8800110BD000082
:100F700080012242001001400000224270B5054667
:100F800000241548006820F47040134908600846A2
:100F9000006840F400400860002613E000200F497C
:100FA00008601E200BF09CFB01200D49C1F8800158
:100FB0006006040E09487438006808B1601CC4B2A9
:100FC000701CC6B2082EE9DB15B9FFF7B1FF01E0CE
:100FD000FFF764FF204670BD0010014080012242EF
:100FE0000000224270B504461248006820F47040A8
:100FF000104908600846006840F44050086000202E
:101000000D490860002512E0E0090B490C31086029
:101010006006040E01200949C1F88001FFF738FF7E
:10102000002005490860FFF733FF681CC5B2082D92
:10103000EADB70BD00100140800122420000224224
:1010400010B50E48006820F470400C49086008464E
:10105000006840F4405008600120094908600949CF
:10106000C1F88001FFF714FF002005490860FFF771
:101070000FFF00200349C1F8800110BD001001409E
:101080008C0122420000224210B50E48006820F474
:1010900070400C4908600846006840F44050086001
:1010A0000020094908600949C1F88C01FFF7F0FEEA
:1010B000012005490860FFF7EBFE01200349C1F854
:1010C0008C0110BD0010014080012242000022422C
:1010D00010B500241448006820F4704012490860DC
:1010E0000846006840F40040086001200F4908608D
:1010F0000BF0F6FA01200E49C1F880010BF0F0FA6E
:1011000007E0601CC4B2FA2C03DDFFF7BDFF01202D
:1011100010BD0648803800680028F2D103490C3918
:10112000086000BFF4E70000001001408C0122427B
:1011300000002242704700001CB50121102006F07B
:1011400099FA4FF40050ADF8000010208DF803001C
:1011500003208DF8020069462D4800F088F94FF40D
:1011600000512B4800F058FA0220ADF8000048204A
:101170008DF803006946264800F079F902212448D9
:1011800000F04AFAFFF7B0FE002022490860142060
:101190000BF06CFA01202049C1F8B40132200BF0A9
:1011A00065FA00208DF80400012201A900F036F94B
:1011B000012201A9A42000F031F916208DF80400C5
:1011C000012201A9802000F029F90C208DF80400EB
:1011D000012201A9882000F021F9022201A9A12001
:1011E00000F022F89DF8040030280ED19DF805008B
:1011F00003280AD19DF805009DF8042000EB022188
:1012000006A0FFF74FF800201CBD0120FCE70000FE
:1012100000100140B40122420000224243545020F9
:1012200049443A25780D0A002DE9F04106460F465B
:101230001546FFF705FF7020FFF7D4FEFFF748FFC4
:10124000F0B2FFF7CFFEFFF743FFFFF7F9FE712083
:10125000FFF7C8FEFFF73CFF00240BE0691EA14228
:1012600001D0012100E000210846FFF787FE385534
:10127000601CC4B2AC42F1DBFFF706FFBDE8F081B1
:1012800071B581B00024002661480078401C604997
:101290000870084600780A2190FBF1F201FB120069
:1012A00018B15B4800780A2867DA012201A90220F8
:1012B000FFF7BAFF9DF8040000F00F0000287ED071
:1012C0009DF8040000F00F00062878DA9DF804006D
:1012D00000F00F01FF208840C5B2E843C0B240F0E3
:1012E000C0004C4981F8200000245AE0494890F899
:1012F00020000121A1400840F0B3474931F8140013
:1013000004226946FFF790FF424890F8300000F051
:101310000100C0B19DF801009DF8001001F00F011F
:1013200000EB01203B49163121F814009DF8030021
:101330009DF8021001F00F0100EB012135480C303F
:1013400020F814101DE09DF801009DF8001001F038
:101350000F0100EB0120C0F5F07081B22D480C3078
:1013600020F814109DF803009DF8021001F00F0101
:1013700000EB0121274801E011E020E0163020F8C1
:1013800014109DF8000000F0F000802807D0002124
:101390002048163020F814100A3820F81410601C69
:1013A000C4B2052CA2DB01261A48808920B919484D
:1013B000C08A08B9002001900020154908709DF8E6
:1013C000040000F01F00D0B9124890F8200000F08F
:1013D000800040B10F4890F8200020F080000D49B7
:1013E00081F820000BE04FF6FF700A498881C8821F
:1013F000084690F8200000F0E00081F82000044842
:101400000078F02802DD0A200149087030467CBDD2
:101410006000002020000020EE0601082DE9F041C8
:1014200005460E4617464FF00008FFF709FE7020EC
:10143000FFF7D8FDFFF74CFEE8B2FFF7D3FDFFF74B
:1014400047FE00240BE0305DFFF7CCFDFFF740FEC8
:101450008046B8F1000F00D003E0601CC4B2BC426B
:10146000F1DB00BFFFF710FE4046BDE8F0812DE93B
:10147000F04102460025002600200023002400271A
:1014800091F803C00CF00F0591F803C00CF0100C9C
:10149000BCF1000F03D091F802C04CEA050591F8A9
:1014A00000C0BCF1000F31D0146800202BE04FF0D9
:1014B000010C0CFA00F3B1F800C00CEA03069E42DE
:1014C00020D183004FF00F0C0CFA03F7BC4305FA50
:1014D00003FC4CEA040491F803C0BCF1280F06D1C8
:1014E0004FF0010C0CFA00FCC2F814C00AE091F8AD
:1014F00003C0BCF1480F05D14FF0010C0CFA00FC01
:10150000C2F810C0401C0828D1D31460B1F800C044
:10151000BCF1FF0F34DD546800202EE000F1080C10
:101520004FF0010808FA0CF3B1F800C00CEA03060A
:101530009E4221D183004FF00F0C0CFA03F7BC43FD
:1015400005FA03FC4CEA040491F803C0BCF1280F2F
:1015500005D100F1080C08FA0CF8C2F8148091F8D3
:1015600003C0BCF1480F07D100F1080C4FF001088F
:1015700008FA0CF8C2F81080401C0828CED354603A
:10158000BDE8F081F0B50A460023002400210025C3
:1015900000F00046B6F1004F02D11D4EF16901E0A6
:1015A0001B4E7168C0F3034583B200F44016B6F5D4
:1015B000401F08D121F07061154E766826F07066E4
:1015C000134F7E6012E000F48016B6F5801F06D13E
:1015D000032606FA05F4A14341F0706106E0460DCA
:1015E000360103FA06F6B14341F0706122B1460DAF
:1015F000360103FA06F6314300F00046B6F1004F1B
:1016000002D1034EF16101E0014E7160F0BD0000B6
:101610000000014041617047016170470EB5012132
:10162000102006F027F842F20200ADF8000010206A
:101630008DF8030003208DF8020069463448FFF757
:1016400016FF02213248FFF7E7FF4FF40051304800
:10165000FFF7E2FFFFF748FC00202E4908600A2050
:101660000BF004F801202C49C1F8B4010A200AF05B
:10167000FDFF0220ADF8000028208DF80300694628
:101680002348FFF7F4FE02212148FFF7C3FF64203F
:101690000AF0ECFF042201A948F2401000F052F8D1
:1016A00000208DF8080001A91CA0FEF7FBFD1EA17B
:1016B00001A8FEF77FFF40BB02208DF80400012245
:1016C00001A948F2400000F06FF9012201A948F297
:1016D000470000F037F89DF80400602807DA9DF80D
:1016E000041013A0FEF7DEFD012000F02FF90A2000
:1016F0000AF0BCFF00208DF80400012201A948F285
:10170000400000F051F900200EBD0120FCE7000070
:1017100000100140B40122420000224243545020F4
:1017200049443A25730D0A0039313437000000006E
:1017300044656661756C74205665723A25640D0ABD
:10174000000000002DE9F04105460F461646FFF760
:1017500077FC2820FFF746FCFFF7BAFC2812FFF7BA
:1017600041FCFFF7B5FCE8B2FFF73CFCFFF7B0FC2B
:10177000FFF766FC2920FFF735FCFFF7A9FC0024E2
:101780000BE0711EA14201D0012100E000210846BA
:10179000FFF7F4FB3855601CC4B2B442F1DBFFF72D
:1017A00073FCBDE8F081000031B582B00024002553
:1017B00063480078401C62490870084600780A2196
:1017C00090FBF1F201FB120018B15D4800780A2885
:1017D0007DDA012202A948F24E10FFF7B3FF9DF80F
:1017E000080000F00F0000286BD09DF8080000F002
:1017F0000F00062865DA9DF8080000F00F01FF20B1
:101800008840C0B200909DF80000C043C0B240F0D4
:10181000C0004C4981F82000002444E0494890F879
:1018200020000121A140084020B3474931F81400AD
:10183000042201A9FFF786FF424890F8300000F02B
:101840000100C0B19DF804009DF8051000EB0120D7
:1018500081B23C48163020F814109DF806009DF81F
:10186000071000EB0120C0F5487081B235480C30FC
:1018700020F8141015E09DF804009DF8051000EB09
:10188000012081B22F480C3020F814109DF806007A
:101890009DF8071000EB012081B22A48163020F88D
:1018A0001410601CC4B2052CB8DB012525488089C2
:1018B00020B92448C08A08B900200290002020499D
:1018C00008709DF8080000F0800000B100E00DE015
:1018D0009DF8080000F00F00062807DA00200090AD
:1018E0000122694648F24E1000F05EF89DF80800AB
:1018F00000F08F0080281AD1124890F8200000F0E4
:10190000800040B10F4890F8200020F080000D4981
:1019100081F820000BE04FF6FF700A498881C882E9
:10192000084690F8200000F0E00081F8200004480C
:101930000078F02802DD0A200149087028463EBDE3
:101940006100002020000020B007010838B50546DE
:10195000002400208DF800008DF8015000BF09E040
:101960009DF800000F49095D0844C0B28DF80000E1
:10197000601CC4B2B82CF3D39DF80000C043401CD7
:10198000C0B28DF80000B822064948F2470000F0C6
:101990000BF80222694648F2FF0000F005F800202B
:1019A00038BD0000F80601082DE9F04104460E4656
:1019B00017464FF00008FFF743FB2820FFF712FB04
:1019C000FFF786FB2012FFF70DFBFFF781FBE0B26C
:1019D000FFF708FBFFF77CFB00250BE0705DFFF7CE
:1019E00001FBFFF775FB8046B8F1000F00D003E064
:1019F000681CC5B2BD42F1DB00BFFFF745FB4046A6
:101A0000BDE8F08110B504460723012221460948AC
:101A1000FEF7C2FF01210748FFF71FF800BF0221B0
:101A20000448FEF77DFF0028F9D00248FEF774FF56
:101A300010BD0000002401402DE9F04107460C468E
:101A40000025002608E03846FFF7DCFF05440520A6
:101A50000AF00CFE701CC6B2A642F4DBB5FBF4F033
:101A600080B2BDE8F08100BFFEE7000010B50020A5
:101A70000F4908600F48406820F470400D494860E5
:101A80000846406840F44050486000200A49C1F8C8
:101A9000AC0102200AF024FE012005490860022062
:101AA0000AF01EFE00200449C1F8B00110BD00007C
:101AB000B0012242001001400000224208B501217D
:101AC000102005F0D7FD4FF4C050ADF800001020F5
:101AD0008DF8030003208DF8020069460448FFF7E3
:101AE000C6FC0120034908600349C1F8AC0108BDE8
:101AF00000100140B00122420000224210B5002037
:101B00000F4908600F48406820F470400D49486054
:101B10000846406840F44050486001200A49C1F836
:101B2000AC0102200AF0DCFD01200549086002201A
:101B30000AF0D6FD00200449C1F8B00110BD000034
:101B4000B0012242001001400000224270B505465B
:101B500000241748406820F4704015494860084642
:101B6000406840F400404860002616E0002011491B
:101B7000086002200AF0B4FD01200F49C1F8B0014D
:101B80006006040E0B488438006808B1601CC4B2BB
:101B900001200AF0A5FD701CC6B2082EE6DB15B9BF
:101BA000FFF7ACFF01E0FFF761FF204670BD0000CA
:101BB00000100140B00122420000224270B50446EC
:101BC0001548406820F47040134948600846406852
:101BD00040F440504860002010490860002517E09C
:101BE000E0090E49091F08606006040E02200AF091
:101BF00077FD01200A49C1F8B00102200AF070FD0A
:101C000000200649086002200AF06AFD681CC5B27F
:101C1000082DE5DB70BD000000100140B00122423C
:101C20000000224210B50F48406820F470400D4972
:101C300048600846406840F44050486001200A4926
:101C400008600A49C1F8B00104200AF049FD0020EB
:101C50000549086004200AF043FD00200349C1F84B
:101C6000B00110BD00100140AC0122420000224230
:101C700010B50F48406820F470400D494860084690
:101C8000406840F44050486000200A4908600A4912
:101C9000C1F8AC0104200AF023FD012005490860C9
:101CA0000549C1F8AC0104200AF01AFD10BD00007E
:101CB00000100140B00122420000224210B5002471
:101CC0001448406820F47040124948600846406853
:101CD00040F40040486001200F4908600AF000FD10
:101CE00001200E49C1F8B0010AF0FAFC07E0601CBF
:101CF000C4B2FA2C03DDFFF7BBFF012010BD06487C
:101D0000803800680028F2D10349091D086000BF2F
:101D1000F4E7000000100140AC0122420000224222
:101D200008B50121342005F0A5FC01211648FFF774
:101D300029FC0120ADF8000028208DF80300694639
:101D40001248FFF794FB4FF41040ADF80000482014
:101D50008DF8030069460D48FFF789FB3020ADF888
:101D6000000048208DF8030069460948FFF77FFB13
:101D70000420ADF8000048208DF8030069460548AE
:101D8000FFF775FB08BD00000002300000080140AD
:101D9000001001400014014070B5044600261D48A3
:101DA0000588408845431B48808846F604018842E0
:101DB00016D118488079012812D100201549887160
:101DC0002A2048812B2088810021084600F060FEEF
:101DD0000120104988712B2048812A20888103E046
:101DE0000021084600F054FE01F0C4F900260DE081
:101DF0004FF480700849086140004861074804605A
:101E000080204861086180000861761CAE42EFD3F3
:101E100070BD0000FC100020001001400C0C0140BF
:101E200010B50446002C66D16C498871F0200880FA
:101E30004FF4A07048800846808849F241318842BA
:101E40000BD06648808846F60401884205D0634876
:101E5000808845F2103188421AD12C205F490881D0
:101E60002A2048812B2088810846808846F6040174
:101E7000884205D05948808845F21031884206D101
:101E80004FF4A070554908804FF4F0704880A1E0ED
:101E90005248808845F21051884210D14FF430509A
:101EA0004E4908814FF4285048814FF42C508881C6
:101EB0004FF4F07008804FF4487048808AE047483B
:101EC000808841F6631188420DD12C204349088156
:101ED0002B2048812A2088814FF4F07008804FF42D
:101EE0004870488076E022203C49088120204881C3
:101EF000212088816EE00120384988714FF4A0705C
:101F00000880F02048800846808849F241318842A4
:101F100005D03248808845F21031884207D12C2004
:101F20002E4908812A2048812B2088813FE02B48B8
:101F3000808846F60401884207D12C202749088171
:101F40002B2048812A20888131E02448808845F26E
:101F50001051884210D14FF43050204908814FF47D
:101F6000285048814FF42C5088814FF448700880E5
:101F70004FF4F07048801AE01848808841F66311E9
:101F800088420DD12C20154908812A2048812B2018
:101F900088814FF4487008804FF4F070488006E064
:101FA00022200E49088121204881202088810B4869
:101FB000808846F60401884205D00848808845F2AA
:101FC0001031884206D14FF4F070044908804FF474
:101FD000A0704880002000F02FFB10BDFC100020F6
:101FE0002DE9FF4F84B081468A460020039002907D
:101FF0000698A0EB09050798A0EB0A06CDF8049017
:10200000CDF800A0002D01DD012705E00DB9002766
:1020100002E04FF0FF376D42002E02DD4FF0010865
:1020200006E016B94FF0000802E04FF0FF387642A4
:10203000B54201DD2C4600E034464FF0000B21E0B4
:10204000009A91B2019A90B200F022F803982844C5
:1020500003900298304402900398A04205DD039853
:10206000001B03900198384401900298A04205DDBE
:102070000298001B02900098404400900BF1010070
:102080001FFA80FB601C8345DADD08B0BDE8F08FE5
:1020900030B504460D462946204600F0F9FC01F013
:1020A00069F84FF4807007490861400048610648AC
:1020B0000088064908608020024948610861800064
:1020C000086130BD001001405C0000200C0C014094
:1020D0002DE9F04306460F4690460024454603206E
:1020E000A0EB48093CE07A1B91B2321990B2FFF79D
:1020F000CFFF3A1B91B2721990B2FFF7C9FF3A199C
:1021000091B2721990B2FFF7C3FF7A1991B23219E6
:1021100090B2FFF7BDFF7A1991B2321B90B2FFF770
:10212000B7FF3A1991B2721B90B2FFF7B1FF7A1B59
:1021300091B2321B90B2FFF7ABFF3A1B91B2721B08
:1021400090B2FFF7A5FF641CB9F1000F03DAA000FD
:10215000801D814404E0601B80000A3081446D1EB4
:10216000AC42C0DDBDE8F08370B504460D461646AE
:10217000D348808849F24131884205D0D0488088D0
:1021800045F21031884240D1CD49488900F0E0FF46
:102190004FF48070CB490861400048612012CA4961
:1021A00008608020C74948610861800008614010CC
:1021B000086140004861E0B2C34908608020C1491D
:1021C0004861086180000861BD49888900F0C0FF4E
:1021D0004FF48070BB490861400048612812BA4939
:1021E00008608020B749486108618000086140109C
:1021F000086140004861E8B2B34908608020B149F5
:1022000048610861800008613DE1AD48808845F281
:102210001051884250D1AA49488900F099FF4FF4E3
:102220008070A8490861400048612012A6490860F2
:102230008020A4494861086180000861A04949895B
:10224000491C88B200F084FF4FF480709D490861FA
:1022500040004861E0B29C4908608020994948618B
:102260000861800008619649888900F071FF4FF489
:1022700080709449086140004861281292490860C2
:102280008020904948610861800008618C498989F3
:10229000491C88B200F05CFF4FF4807089490861E6
:1022A00040004861E8B2884908608020854948615B
:1022B000086180000861E6E08148808841F663118A
:1022C00088427DD17E48807920B97D480088401EB3
:1022D000001B84B27A49488900F03AFF4FF48070BD
:1022E00078490861400048612012774908608020E1
:1022F000744948610861800008614010086140002D
:102300004861E0B27049086080206E494861086108
:1023100080000861401008614000486120126A494D
:1023200008608020674948610861800008614010AA
:10233000086140004861E0B263490860802061495B
:1023400048610861800008615D49888900F000FFEC
:102350004FF480705B4908614000486128125A4977
:10236000086080205749486108618000086140107A
:10237000086140004861E8B2534908608020514933
:1023800048610861800008614010086140004861B0
:1023900028124D49086080204A4948610861800040
:1023A00008614010086140004861E8B24649086091
:1023B00080204449486108618000086163E0FFE7CC
:1023C0003F48808846F60401884249D13C488079DC
:1023D000012804D13A480088401E001B84B23849C5
:1023E000488900F0B5FE4FF480703649086140001E
:1023F00048612012344908608020324948610861F0
:10240000800008614010086140004861E0B22E4938
:10241000086080202B4948610861800008612849D4
:10242000888900F095FE4FF48070264908614000CD
:1024300048612812244908608020224948610861C7
:10244000800008614010086140004861E8B21E4900
:10245000086080201B49486108618000086112E023
:1024600017488079012804D115480088401E001BB8
:1024700084B213494889214600F084FE10498889B6
:10248000294600F07FFE4FF480700E4948614000FD
:1024900048610B4800890C4908608020094948615F
:1024A00008618000086140100861400048610648EA
:1024B00006608020486108618000086170BD0000EE
:1024C000FC100020001001400C0C014010B5024629
:1024D000012000E050430B1EA1F10104E1B2F9D14B
:1024E00010BD000010B54FF0883017490860091D75
:1024F0000860002014490C310860881513490861F0
:1025000040004861402048611148808848F68911A0
:10251000884202D102200AF0E3F80B480830006834
:1025200084B2402009490861C00008614FF033308F
:1025300005490860091D08604FF6FF7002490C311B
:102540000860204610BD0000000C01400010014052
:10255000FC10002010B50446204600F0F9FDFFF7FE
:10256000C1FF10BD2DE9F0410446BE2000F0F0FD92
:102570004FF480702D4908614000486105202C49C6
:102580000860802029494861086180000861401086
:1025900008614000486120460BF060FE05464FF0A0
:1025A0006632244B0BF0AAFE07460BF013FE2049BF
:1025B000086080201D494861086180000861401062
:1025C00008614000486101201949086080201749CE
:1025D000486108618000086140100861400048615E
:1025E000FF2013490860802010494861086180007D
:1025F0000861401008614000486100200C490860F3
:1026000080200A4948610861800008614010086123
:102610004000486100200649086080200349486165
:10262000086180000861BDE8F081000000100140F1
:102630000C0C014066660440F0B5054600240027F6
:10264000FC48807901280BD1FA48808846F60401BD
:10265000884205D0F748808841F66311884208D146
:10266000F4488079F0B9F348808841F663118842D4
:1026700018D1082D15D2DFE805F00406080A0C0E63
:10268000101206250DE007250BE0042509E00525BD
:1026900007E0012505E0002503E0032501E0022510
:1026A00000BF00BFE348808849F24131884217D01B
:1026B000E048808846F60401884211D0DD488088D1
:1026C00045F2103188420BD0DA48808845F210512B
:1026D000884205D0D748808841F6631188427DD171
:1026E000082D1CD2DFE805F00406090C0F1215189E
:1026F00000BF14E044F0800411E044F040040EE018
:1027000044F0C0040BE044F0200408E044F060040E
:1027100005E044F0A00402E044F0E00400BF00BF84
:10272000C448808845F21051884202D14FF458576E
:1027300000E03627BF48808845F2103188420DD02E
:10274000BC48808845F21051884207D0B94880883B
:1027500041F66311884201D044F00804B5488088EE
:1027600046F60401884201D144F00204214638466D
:1027700000F008FDAF48808841F6631188421DD003
:1027800004F0200068B1AB480088AA494988884213
:1027900014DAA84806884088A6490880084646807A
:1027A0000CE0A4480088A3494988884206DDA14876
:1027B000068840889F490880084646809D48808852
:1027C00045F2105188427DD19A49488900F0C0FCF9
:1027D0004FF4807098490861400000E030E14861A2
:1027E0000020964908608020934948610861800074
:1027F000086190494989491C88B200F0A9FC4FF44E
:1028000080708D4908614000486100208B49086054
:1028100080208949486108618000086185494989AB
:10282000891C88B200F094FC4FF4807082490861E2
:10283000400048617F480088401E00127F490860C0
:1028400080207D4948610861800008617949498993
:10285000C91C88B200F07CFC4FF480707649086196
:102860004000486173480078401EC0B27349086058
:102870008020714948610861800008616D4988893C
:1028800000F066FC4FF480706B49086140004861BD
:1028900000206A490860802067494861086180001B
:1028A000086164498989491C88B200F051FC4FF4E1
:1028B0008070614908614000486100205F490860FC
:1028C000802000E035E05C494861086180000861D3
:1028D00058498989891C88B200F03AFC4FF480700D
:1028E000554908614000486152484088401E001226
:1028F00052490860802050494861086180000861A1
:102900004C498989C91C88B200F022FC4FF48070C0
:10291000494908614000486146488078401EC0B27D
:102920004649086080204449486108618000086188
:10293000ADE04049488900F00BFC4FF480703E49FF
:1029400008614000486100203C49086080203A4905
:1029500048610861800008614010086140004861DA
:1029600000203649086080203349486108618000B2
:10297000086140100861400048612E480088401EF0
:1029800000122E49086080202B49486108618000B0
:102990000861401008614000486126480078401EE8
:1029A000C0B2264908608020234948610861800040
:1029B00008612049888900F0CBFB4FF480701E49E4
:1029C00008614000486100201C49086080201A49C5
:1029D000486108618000086140100861400048615A
:1029E0000020164908608020134948610861800072
:1029F000086140100861400048610E484088401E50
:102A000000120E49086080200B494861086180006F
:102A10000861401008614000486106488078401E07
:102A2000C0B20649086080200349486108618000FF
:102A300008612CE0FC100020001001400C0C01404B
:102A4000082D1CD2DFE805F004070A0D0F12151837
:102A500044F0300413E044F0100410E044F020048B
:102A60000DE000BF0BE044F0380408E044F0280417
:102A700005E044F0180402E044F0080400BF00BF81
:102A8000032744F480542146384600F07BFBF0BD18
:102A900030B504460D46EA48808849F24131884203
:102AA00005D0E748808845F21031884240D1E4499A
:102AB000488900F04DFB4FF48070E2490861400006
:102AC00048612012E04908608020DE4948610861C1
:102AD000800008614010086140004861E0B2DA49B6
:102AE00008608020D7494861086180000861D449A6
:102AF000888900F02DFB4FF48070D24908614000B6
:102B000048612812D04908608020CE494861086198
:102B1000800008614010086140004861E8B2CA497D
:102B200008608020C749486108618000086186E12B
:102B3000C348808846F60401884249D1C04880795C
:102B4000012804D1BE480088401E001B84B2BC4945
:102B5000488900F0FDFA4FF48070BA4908614000DE
:102B600048612012B84908608020B6494861086170
:102B7000800008614010086140004861E0B2B2493D
:102B800008608020AF494861086180000861AC4955
:102B9000888900F0DDFA4FF48070AA49086140008E
:102BA00048612812A84908608020A6494861086148
:102BB000800008614010086140004861E8B2A24905
:102BC000086080209F49486108618000086136E103
:102BD0009B48808841F6631188427DD1984880796E
:102BE00000283FD196480088401E001B84B29449BB
:102BF000488900F0ADFA4FF48070924908614000B6
:102C0000486100209049086080208E494861086131
:102C100080000861401008614000486100208A4936
:102C20000860802087494861086180000861401081
:102C30000861400048612012834908608020814972
:102C400048610861800008614010086140004861E7
:102C5000E0B27D49086080207A49486108618000BF
:102C6000086141E07649488900F072FA4FF48070BB
:102C7000744908614000486120127349086080204F
:102C80007049486108618000086140100861400097
:102C90004861E0B26C49086080206A494861086177
:102CA0008000086140100861400048616448008865
:102CB000401E001264490860802062494861086132
:102CC0008000086140100861400048615C4800785D
:102CD000401EC0B25C4900E047E0086080205949CE
:102CE00048610861800008615549888900F030FA20
:102CF0004FF48070534908614000486128125249DE
:102D0000086080204F4948610861800008614010D8
:102D1000086140004861E8B24B4908608020494999
:102D20004861086180000861401008614000486106
:102D300043484088401E00124349086080204149B2
:102D400048610861800008614010086140004861E6
:102D50003B488078401EC0B23B490860802039491A
:102D6000486108618000086169E03548808845F263
:102D70001051884250D13249488900F0E9F94FF4A6
:102D80008070304908614000486120122E49086077
:102D900080202C49486108618000086128494989E0
:102DA000491C88B200F0D4F94FF4807025490861BD
:102DB00040004861E0B22449086080202149486110
:102DC0000861800008611E49888900F0C1F94FF44C
:102DD00080701C4908614000486128121A49086047
:102DE0008020184948610861800008611449898978
:102DF000491C88B200F0ACF94FF4807011490861A9
:102E000040004861E8B21049086080200D494861DF
:102E100008618000086112E009488079012804D126
:102E200007480088401E001B84B205494889214696
:102E300000F0A8F902498889294600F0A3F930BDBD
:102E4000FC100020001001400C0C01402DE9F84F4F
:102E500080460E4617461C46B3462046E31704EB51
:102E60005373DB1021464FEAE47C04EB5C7C4FEAB1
:102E7000EC0CA4EBCC0CBCF1000F02D04FF0010C19
:102E800001E04FF0000C6344224604EBD27C4FEA91
:102E90006C0C03FB0CF3DBB20093A7F12000C7B26C
:102EA000002556E00C2C07D107EB47002B4901EB1E
:102EB000800010F8059013E0102C05D1284800EB95
:102EC000071010F805900BE0182C07D107EBC7008E
:102ED000244901EB800010F8059001E0BDE8F88F6F
:102EE0004FF0000A2FE009F0800030B11E48028840
:102EF00031464046FFF738F907E00A9828B91B48E1
:102F0000028831464046FFF72FF94FEA49604FEA01
:102F10001069701C86B216484088B04200DCDDE7BC
:102F2000A6EB0B00A0420AD15E4608F101001FFA91
:102F300080F80F480088404500DCCFE706E00AF142
:102F4000010000F0FF0ABAF1080FCCDB00BF681CDB
:102F5000C5B200988542A5DB00BFBFE72EEF000891
:102F6000A2F3000892F900085C0000205E00002037
:102F7000FC1000202DE9FF4F81B0074691461E4608
:102F80000E9D4FF0000A002439E0301B401EC1B2F4
:102F90000A20FFF79BFAB9FBF0F00A21B0FBF1F22F
:102FA00001FB1208BAF1000F16D1701EA04213DD0A
:102FB000B8F1000F0ED10020AB4605EBDB714910D4
:102FC00001FB0471009088B22B4620220299FFF782
:102FD0003DFF12E04FF0010A0020AB4605EBDB712C
:102FE000491001FB0471009088B208F13001CAB2A7
:102FF0002B460299FFF72AFF00BF601CC4B2B442FF
:10300000C3DB05B0BDE8F08F2DE9F84704460D4657
:1030100090469946DDE9096704F0FF0A08EB0400D1
:103020001FFA80F809EB05001FFA80F916E0444505
:1030300002DB5446A81985B24D4500DB14E00020A0
:1030400000903A78334629462046FFF7FFFE304687
:1030500006EBD07104EB61018CB27F1C38787E28BE
:1030600002DC38782028E2DA00BFBDE8F8872DE9D5
:10307000FF4F82B0064692461F46DDE90F4800200A
:10308000019000254DE0781B401EC1B20A20FFF7D9
:103090001DFABAFBF0F00A21B0FBF1F201FB1209B4
:1030A000019850BB781EA84227DDB9F1000F22D14C
:1030B00008F0800078B108F00100A34604EBDB7152
:1030C000491001FB0561009088B223463022039924
:1030D000FFF7BCFE0EE008F00100A34604EBDB7135
:1030E000491001FB0561009088B223462022039914
:1030F000FFF7ACFE13E00120019008F00100A346A9
:1031000004EBDB71491001FB0561009088B209F105
:103110003001CAB223460399FFF798FE00BF681C2E
:10312000C5B2BD42AFDB06B0BDE8F08F4FF4807191
:10313000054A1161490051610449086080215161CB
:103140001161890011617047001001400C0C0140B1
:103150004FF48071054A516149005161044908608A
:103160008021516111618900116170470010014097
:103170000C0C014000B502490889FFF7E9FF00BDCA
:10318000FC10002010B504460B462046FFF7E0FF78
:103190004FF48070054908614000486104480360AD
:1031A0008020486108618000086110BD0010014066
:1031B0000C0C014008B50121042004F05BFA4FF427
:1031C0008070ADF8000010208DF8030003208DF80A
:1031D000020069460448FEF74AF94FF4807102483C
:1031E000FEF71AFA08BD00000008014000BFFEE724
:1031F00030B505460C4622460021284600F001F86D
:1032000030BD2DE9F04105460B46944600270024C9
:1032100002E03F021F43641C042CFAD3604605F011
:103220000306294646B1344603E001F8013B401E3F
:10323000641C08B1042CF8D30A4601E080C2001FC8
:103240000428FBD2114602E001F8013B401E002891
:10325000FAD1BDE8F081704770B5002100230F223C
:10326000C47804B3154C246804F4E064C4F5E06445
:10327000210AC1F10403CA40447804FA03F18478B6
:103280001440214309010E4C0678A155047804F03E
:103290001F050124AC4005786D11AD0005F1E02556
:1032A000C5F8004109E0047804F01F050124AC4092
:1032B000044D0678761145F8264070BD0CED00E00F
:1032C00000E400E080E100E002490143024A1160AD
:1032D000704700000000FA050CED00E015481648A4
:1032E00016481748174818481848194819481A48DE
:1032F0001A481B481B481C481C481D481D481E48AE
:103300001E481F481F48204820482148214822487D
:10331000224823482348244824482548254826484D
:10332000264827482748284828482948294800BFD0
:103330007047000064080108C4070108C8070108B5
:10334000CC070108D0070108D4070108D8070108F5
:10335000DC070108E0070108E4070108E8070108A5
:10336000EC070108F0070108F4070108F807010855
:10337000FC07010800080108040801080808010802
:103380000C080108100801081408010818080108B1
:103390001C08010820080108240801082808010861
:1033A0002C08010830080108340801083808010811
:1033B0003C080108400801084408010848080108C1
:1033C0004C08010850080108540801085808010871
:1033D0005C0801086008010810B50348006810B1D6
:1033E00001480068804710BDF001002070B5044618
:1033F00000F0C2F800204849087048490870484960
:1034000008704849086048490860484908704849B8
:1034100008704849087048490860484908604849A8
:10342000086048490870484800680A21B0FBF1F07C
:10343000464908604648006858B14648056845B1A5
:103440004348066803E0761E002028602D1D002EEC
:10345000F9D10020404908604049086040490860AF
:103460004049086040490860404908604049086098
:103470004049087002F036F802F016F9204601F0D3
:10348000C5F9208800B170BD204601F0A7FD208855
:1034900000B1F8E7204601F0C9FD208800B1F2E74D
:1034A000204601F095FE208800B1ECE7204602F0AE
:1034B00049F8208800B1E6E7204602F06DFA20883E
:1034C00000B1E0E7204602F08FFD208800B1DAE786
:1034D000204601F0EFFC208800B1D4E7204601F03F
:1034E00007FB208800B1CEE7204603F0EDFC2088E2
:1034F00000B1C8E7204602F0BBFC208800B1C2E75B
:10350000204603F03DFD208800B1BCE701F0A6F89D
:10351000FFF7E4FE00BFB6E704020020050200202A
:103520004C020020A4020020A80200203202002049
:103530003302002034020020400200204402002018
:1035400048020020540200202408010850020020F4
:10355000F4070108F0070108E4010020E801002059
:10356000EC010020F0010020F4010020F80100200F
:10357000FC010020820200200A4A1168002002E0BB
:10358000002204C1401C084A12689042F8D3054A40
:103590001268054B1B6802EB8302121F034B1A6073
:1035A00070470000F0070108F4070108AC02002092
:1035B00008480078012800D0704707480078FA28AA
:1035C00000DBF9E704480078401C0349087000BF9D
:1035D000F2E70000050200200402002010B50024DC
:1035E0002E480078012800D010BD00BFFCF742FE35
:1035F000044600BF2A48007828B900BF2046FCF7DF
:103600003DFE00BFF0E726480078401E24490870C0
:1036100008460078002805DD00BF2046FCF72EFE96
:1036200000BFE1E71F480078002805DD00BF204605
:10363000FCF724FE00BFD7E701F040FF1A490870ED
:103640000846007800EB4000184951F8200018495E
:1036500008600846006817490968884205D100BF1C
:103660002046FCF70BFE00BFBEE711480068D0F80B
:103670009000401C0E490968C1F890000E4800688F
:10368000401C0D4908604FF080500C49086000BF95
:103690002046FCF7F3FD00BF00BFA5E705020020B0
:1036A000040200204C0200203302002088DA0020AF
:1036B000A8020020A40200207802002004ED00E00F
:1036C00010B5002420480078002800DD10BD1F48F8
:1036D0000078002800DDF9E700BFFCF7CBFD0446C9
:1036E00000BF01F0EBFE1A4908700846007800EBB5
:1036F0004000184951F82000174908600846006842
:1037000016490968884205D100BF2046FCF7B6FD7E
:1037100000BFDBE710480068D0F89000401C0E495D
:103720000968C1F890000E480068401C0C49086008
:103730004FF080500B49086000BF2046FCF79EFD0B
:1037400000BF00BFC2E70000040200204C020020BE
:103750003302002088DA0020A8020020A402002002
:103760007802002004ED00E070B5044600251848FA
:103770000078002803DD46F66250208070BD1548B1
:103780000078012803D045F689602080F6E71248CA
:103790000078FA2803DB45F209202080EEE700BF1D
:1037A00000BFFCF767FD054600BF00BF0A48007870
:1037B000401C0949087002F05BF800BF00BF2846B2
:1037C000FCF75CFD00BF00BF0020208000BFD5E7F4
:1037D00004020020050200204C0200202DE9F041E7
:1037E00005460C461646002700BF00BFFCF742FD09
:1037F000074600BF00BF012D03D000200D4908700F
:1038000002E001200B49087014B10B48046006E087
:103810000A4800680A21B0FBF1F00749086000BFC0
:1038200000BF3846FCF72AFD00BF00BF00203080F3
:10383000BDE8F08154020020500200202408010855
:1038400070B50446002520480078002803DD46F6C0
:103850006550208070BD1D480078012803D045F6D2
:1038600089602080F6E71A48007818B946F6645057
:103870002080EFE700BF00BFFCF7FCFC054600BF5F
:1038800000BF13480078401E1149087008460078B0
:1038900000280ADD00BF00BF2846FCF7EFFC00BF90
:1038A00000BF46F663502080D4E701F0EFFF00BF71
:1038B00000BF2846FCF7E2FC00BF00BFFFF700FF97
:1038C0000020208000BFC5E7040200200502002080
:1038D0004C02002010B5044612480078E8B901F007
:1038E000EDFD1149087008460078104908700E482F
:1038F000007800EB40000E4951F820000D490860A7
:10390000084600680C490860012006490870FCF769
:1039100073FF43F69920208002E045F68A602080FC
:1039200010BD0000050200203302002032020020FA
:1039300088DA0020A8020020A40200202DE9F0412E
:1039400007464FF0000800BF00BFFCF793FC80461D
:1039500000BF00BF00203D4908603D4908803D4947
:1039600008803D4908603D4908603D4908603D497F
:1039700008603D49088100BF00BF4046FCF77EFC5F
:1039800000BF00BF00BF00BFFCF774FC804600BF53
:1039900000BF3648046800BF00BF4046FCF76EFC1D
:1039A00000BF00BF21E000BF00BFFCF763FC804602
:1039B00000BF00BF00207834E06320602063A06176
:1039C000A082E0826062A062FDF75CFA2062783C2F
:1039D00004F164060020B081D4F8BC4000BF00BFF1
:1039E0004046FCF74BFC00BF00BF002CDBD100BF02
:1039F00000BFFCF73FFC804600BF00BF1C480568C5
:103A000000BF00BF4046FCF739FC00BF00BF12E01A
:103A100000BF00BFFCF72EFC804600BF00BF05F1D1
:103A200020060020B081AD6900BF00BF4046FCF712
:103A300025FC00BF00BF002DEAD103F021F903F0FF
:103A40009BFB00203880BDE8F081000018020020B8
:103A5000120200206202002074020020880200206E
:103A600094020020440200207CDA00207C02002026
:103A700038020020F8B5044600266946324800F0B6
:103A8000C1FCBDF8000018B1BDF800002080F8BDF1
:103A90006A460021022000F029FDBDF8000018B19F
:103AA000BDF800002080F2E700BF00BFFCF7E2FB9A
:103AB000064600BF00BF00202449086000BF00BFC9
:103AC0003046FCF7DBFB00BF00BF00252048006844
:103AD00020490968884205D91D4800681D490968C0
:103AE000B0FBF1F525B91A4800680A21B0FBF1F5E1
:103AF0006A460021284600F0F9FC6946124800F0A9
:103B000063FABDF8000018B1BDF800002080BEE7E0
:103B100000BF00BFFCF7AEFB064600BF00BF0020A1
:103B20000D490860094800680C49086001200C49EB
:103B3000087000BF00BF3046FCF7A0FB00BF00BF0D
:103B40000020208000BFA2E710DF002064020020D8
:103B5000240801080C0801087402002068020020F3
:103B60007002002010B50348006810B101480068D9
:103B7000804710BDF40100202DE9FF4F87B00446B7
:103B80009046DDE91BA5DDE91496179F0020039000
:103B900087480078002805DD47F24A1028800BB0DE
:103BA000BDE8F08F1CB947F2AD102880F7E7B8F1F7
:103BB000000F03D147F24F102880F0E71EB946F6F8
:103BC0002F602880EBE77B480068874203D246F6E7
:103BD00030602880E3E71698B84203D346F6316098
:103BE0002880DCE7B9F1400F03D346F27320288028
:103BF000D5E7B9F1000F06D16F48844203D046F2F1
:103C000073202880CBE7B9F13F0F06D16B4884427F
:103C100003D046F273202880C1E7204602F0F4F971
:103C2000002028800AF0010090B10AF0020078B16B
:103C300005960020069008E000210598016005988F
:103C4000001D05900698401C06900698B842F3D3D4
:103C5000169806EB80000490CDE9007A3246404683
:103C6000049B0A9900F06EFB0590C4F828800A981E
:103C7000E0620898206284F83790059820600498E4
:103C8000A06019986065199818B94D480068A0653A
:103C900001E01998A0651A9860606662A763A4F8AD
:103CA0003CA04FF0000B08E0002104F17C0040F83C
:103CB0002B100BF1010000F0FF0BBBF1000FF3D054
:103CC00004F16400189901F0FDF9204600F082F833
:103CD00000BF00BF00BFFCF7CDFA039000BF00BFDC
:103CE00038480078401C3749087000BF00BF03986F
:103CF000FCF7C4FA00BF00BF00BF94F8370001F022
:103D0000FDFB204601F018FD204602F033F92E4855
:103D10000088401C2C4908802C48007801282DD0B0
:103D200000BF00BF00BFFCF7A5FA039000BF00BFB3
:103D300024480078401E2349087008460078A0B93E
:103D400023480088002809DD00BF00BF0398FCF766
:103D500095FA00BF00BF01F05DFD0DE000BF00BFA0
:103D60000398FCF78BFA00BF06E000BF00BF039882
:103D7000FCF784FA00BF00BF00BF10E700BF00BF20
:103D800000BFFCF777FA039000BF00BF0D48007832
:103D9000401E0C49087000BF00BF0398FCF76EFA84
:103DA00000BF00BF00BFFFF78BFC00BFF7E60000BD
:103DB0000402002020080108B8D90020F4D800200F
:103DC000500200204C02002080020020050200204A
:103DD0001002002010B504460348006818B12046C0
:103DE00001490968884710BDE401002070B5044608
:103DF0000D46002667480078002803DD47F24E1084
:103E0000288070BD6448844203D147F24C1028805A
:103E1000F7E76248844203D147F24D102880F0E76B
:103E20007CB900BF00BFFCF725FA064600BF00BF03
:103E30005B48046800BF00BF3046FCF71FFA00BFB4
:103E400000BF00BF00BF00BFFCF714FA064600BF6A
:103E500000BF54480078401C5249087000BF00BFA2
:103E60003046FCF70BFA00BF00BF00BF94F83600E5
:103E700008282DD2DFE800F004090E10080A0F11FF
:103E8000204601F099FC54E053E000BF204602F0C8
:103E9000DBFE4EE000BF00BF00BF204602F0D4FEB4
:103EA00094F83400082810D2DFE800F00407050871
:103EB000090A0B0600BF00BF08E000BF00BF00BF3B
:103EC00000BF204601F04BFA00E000BF00BF30E029
:103ED00000BF00BF00BFFCF7CDF9064600BF00BF22
:103EE00030480078401E2F49087008460078A0B975
:103EF0002D480088002809DD00BF00BF3046FCF7D0
:103F0000BDF900BF00BF01F085FC0DE000BF00BFA0
:103F10003046FCF7B3F900BF06E000BF00BF3046F3
:103F2000FCF7ACF900BF00BF00BF46F62D6028804B
:103F300067E700BF04F1640001F0A2F8204600F03A
:103F400037F8204602F02EF818480088401E17491E
:103F50000880204602F058F8FF2084F8360000BFA1
:103F600000BF00BFFCF786F9064600BF00BF0D4842
:103F70000078401E0B49087000BF00BF3046FCF7B8
:103F80007DF900BF00BF00BF00202880FFF798FB2D
:103F900000BF36E704020020F4D80020B8D9002082
:103FA000A40200204C020020100200208002002009
:103FB00010B504460348006818B120460149096855
:103FC000884710BDE80100207FB504460D46002655
:103FD00000BF00BFFCF74EF9064600BF00BF1CB192
:103FE0001548006884420AD100BF00BF3046FCF784
:103FF00045F900BF00BF47F2571028807FBD00BFC2
:1040000000BF3046FCF73AF900BF00BF0B4800780C
:1040100000280BDD00200090019003460246214657
:10402000CDE90205064800F09BFDE7E7294620465A
:1040300002F062F900BFE1E7A402002004020020C0
:104040005452455310B504460348006818B1204641
:1040500001490968884710BDEC0100202DE9F047AF
:1040600080460E4614461D464FF000097D480078F4
:10407000002805DD46F2AE1028800020BDE8F0875C
:104080001EB1B6F5004F02D100E000BF04E045F6D6
:10409000256028800020F1E700BF0CB100202060DF
:1040A00000BF00BFFCF7E6F8814600BF00BF6E48C6
:1040B0000068406CA8B36C480068406C401E6A49B8
:1040C0000968486468480068476C1CB16648006825
:1040D000006C2060FCF7D6FE63490968096C401A41
:1040E00061490968C1F8A4005F480068D0F8A800D9
:1040F0005D490968D1F8A410884207D25A4800687F
:10410000D0F8A40058490968C1F8A80000BF00BF52
:104110004846FCF7B3F800BF00BF002028803846AF
:10412000ACE7FFE706F4004058B100BF00BF4846C7
:10413000FCF7A4F800BF00BF46F2B01028800020B2
:104140009CE74A48007800280BDD00BF00BF4846C6
:10415000FCF794F800BF00BF46F6635028800020AB
:104160008CE700BF41480078401C4049087000BF00
:1041700000BF4846FCF782F800BF00BF00BF4346BF
:1041800007220021084601F02FF800BF00BF00BF42
:10419000FCF770F8814600BF00BF34480078401E2D
:1041A0003249087000BF00BF4846FCF767F800BFFF
:1041B00000BF00BFFFF784FA00BF00BFFCF75AF84A
:1041C000814600BF00BF2848006890F8350020B144
:1041D000012826D0032834D12CE0FCB12248006805
:1041E000006C2060FCF74EFE1F490968096C401AFC
:1041F0001D490968C1F8A4001B480068D0F8A80050
:1042000019490968D1F8A410884207D216480068F5
:10421000D0F8A40014490968C1F8A800002028803B
:1042200013E01CB110480068006C206046F2A91031
:1042300028800AE00CB10020206047F2D9202880B5
:1042400003E046F62E60288000BF00BF06480068E5
:10425000476C00BF00BF4846FCF710F800BF00BF26
:1042600038460BE704020020A40200204C02002084
:104270002DE9F04705460E4617461C464FF0000A4A
:104280002E480078002804DD47F259102080BDE850
:10429000F0871EB946F2D5202080F8E71FB946F214
:1042A000D5202080F3E700BF00BFFBF7E3FF824685
:1042B00000BF00BF0DB922480568286868B900BF73
:1042C00000BF5046FBF7DAFF00BF00BF00203060A0
:1042D000386047F252102080D9E795F83C0000F092
:1042E000010068B900BF00BF5046FBF7C7FF00BF21
:1042F00000BF00203060386047F254102080C6E7CD
:1043000000BF00BF5046FBF7B9FF00BF00BF4FF032
:104310000008D5F8249003E009F1040908F1010828
:10432000D9F800000028F7D0C6F80080A86BA0EBF1
:10433000080038600020208000BFA8E704020020A9
:10434000A4020020F0B50446DDE9055602EB850025
:104350004FF0807C071F3846C7F800C0071F38465B
:104360003C60DFF89CC0071F3846C7F800C04FF01C
:10437000123C071F3846C7F800C04FF0033C071F28
:104380003846C7F800C04FF0023C071F3846C7F850
:1043900000C0071F38463B60071F384639604FF0A2
:1043A000113C071F3846C7F800C04FF0103C071FEC
:1043B0003846C7F800C04FF0093C071F3846C7F819
:1043C00000C04FF0083C071F3846C7F800C04FF048
:1043D000073C071F3846C7F800C04FF0063C071FD0
:1043E0003846C7F800C04FF0053C071F3846C7F8ED
:1043F00000C04FF0043C071F3846C7F800C0F0BDAE
:10440000396400087FB505460C461248854203D141
:1044100047F25B1020807FBD0F48854203D147F2F1
:104420005C102080F7E70D48007800280BDD0020A5
:1044300000900190034602462946CDE9020408484F
:1044400000F08EFBE7E72146284602F063FA00BF42
:10445000E1E70000F4D80020B8D9002004020020D1
:104460005453555310B51D48006810B11B480068DF
:104470008047FCF707FD0446194800681949096898
:10448000884215D016480068D0F89800201A1449C0
:104490000968C1F8940012480068D0F89C001049DF
:1044A0000968D1F8941008440D490968C1F89C00C6
:1044B0000C480068C0F8984009480068D0F8B4007B
:1044C00009490968884205D2074800680449096813
:1044D000C1F8B40000200449086010BDF8010020B4
:1044E000A4020020A8020020480200202DE9F0418B
:1044F00005460E46144600273F480078002804DD94
:1045000047F275202080BDE8F0813C480078002803
:1045100003DD46F663502080F5E736B1022E05D064
:10452000042E0AD0082E09D101E000BF00BF1DB93A
:1045300047F27E202080E6E704E003E045F62560B0
:104540002080E0E700BF00BF00BF00BFFBF792FE86
:10455000074600BF00BF29480078401C2749087063
:1045600000BF00BF3846FBF789FE00BF00BF00BF99
:1045700001202349096881F836002346324629463E
:104580001F48006802F082FA2088A8B100BF00BF6F
:1045900000BFFBF76FFE074600BF00BF174800785B
:1045A000401E1649087000BF00BF3846FBF766FE84
:1045B00000BF00BF00BFA6E71148006801F0FCF88B
:1045C00000BF00BF00BFFBF755FE074600BF00BF9E
:1045D0000A480078401E0949087000BF00BF3846ED
:1045E000FBF74CFE00BF00BF00BFFFF769F80020DB
:1045F000208000BF87E70000040200204C0200205A
:10460000A402002010B586B000F01EF8FCF73AFCBA
:10461000044605A800210091CDE901140390074844
:10462000007800EB4000064A02EB800100231A46A6
:10463000044800F095FA06B010BD000032020020D8
:1046400088DA00205449434B10B50348006810B184
:1046500001480068804710BDFC010020244825481F
:1046600025482648264827482748284828482948D2
:1046700029482A482A482B482B482C482C482D48A2
:104680002D482E482E482F482F4830483048314872
:104690003148324832483348334834483448354842
:1046A0003548364836483748374838483848394812
:1046B00039483A483A483B483B483C483C483D48E2
:1046C0003D483E483E483F483F48404840484148B2
:1046D0004148424842484348434844484448454882
:1046E0004548464846484748474800BF704700008D
:1046F00068080108D00901086A0801086B08010868
:104700006C080108700801087408010871080108A4
:104710009C0801089D0801089E080108A0080108DE
:10472000A2080108A4080108A6080108A8080108B1
:10473000C8080108CA080108CC080108CE08010809
:10474000D0080108D2080108D408010800090108AE
:104750000109010802090108040901080609010804
:1047600007090108080901080A0901080C090108DC
:104770000E090108100901081209010814090108AD
:1047800044090108450901084609010847090108CB
:10479000480901084A0901084C090108740901087F
:1047A00075090108760901087709010878090108E7
:1047B0007A0901087C0901088009010881090108BA
:1047C0008209010883090108840901088509010893
:1047D0008609010887090108880901088A09010872
:1047E0008B0901088C0901088E090108900901084C
:1047F0009109010894090108C8090108C9090108BB
:10480000CA090108CC090108CE0901080021034AA0
:104810001160034A11800180704700001C020020D3
:10482000200200202DE9F04F85B0044689469246CB
:104830009B46DDF838800020009000BF00BFFBF7EA
:1048400019FD009000BF00BFBAF1000F0AD0BAF105
:10485000010F0DD0BAF5004F05D06FF40040504461
:1048600060B906E000BF206A40EA0900206214E057
:1048700000BF206A20EA090020620EE000BF00BFEE
:104880000098FBF7FBFC00BF00BF45F62560A8F8C9
:104890000000002005B0BDE8F08F00BFC4F824B0D0
:1048A00004F1080001900198008958B900BF00BFC9
:1048B0000098FBF7E3FC00BF00BF0020A8F8000051
:1048C000206AE7E700BF61480078401C5F49087034
:1048D00000BF00BF0098FBF7D1FC00BF00BF00BFC6
:1048E00001980768BD687FE07868029095F88800B5
:1048F00000F00F0003900398012821D002282ED049
:10490000042802D0082836D10EE0206AD5F880109D
:1049100000EA0106D5F88000B04204D15A4631467B
:10492000284600F097F859E0206AD5F8801000EA90
:10493000010626B15A463146284600F08BF84DE074
:10494000D5F88000216A20EA0106D5F88000B0423F
:1049500004D15A463146284600F07CF83EE0D5F8AE
:104960008000216A20EA010626B15A4631462846CF
:1049700000F070F832E000BF00BF00BFFBF77AFC28
:10498000009000BF00BF31480078401E2F490870DA
:1049900008460078A0B92E480088002809DD00BF2D
:1049A00000BF0098FBF76AFC00BF00BF00F032FFB9
:1049B0000DE000BF00BF0098FBF760FC00BF06E001
:1049C00000BF00BF0098FBF759FC00BF00BF00BF4D
:1049D00043F6FF20A8F8000000205BE700BF029F1D
:1049E0000FB1BD6800E00025002D7FF47DAF00BF52
:1049F00000BF00BFFBF73EFC009000BF00BF1348A4
:104A00000078401E1149087000BF00BF0098FBF7F6
:104A100035FC00BF00BF00BF0AF4004008B9FEF734
:104A20004FFE00BF00BFFBF725FC009000BF00BF9A
:104A3000206A049000BF00BF0098FBF71FFC00BF76
:104A400000BF0020A8F80000049823E74C020020D3
:104A50001002002070B504460E4615463434266513
:104A6000002060702070E560A078343C082816D2E1
:104A7000DFE800F0040508090706101100BF00BFB9
:104A800000BF0DE000BF204601F028FC002084F8A4
:104A9000360005E000BF042084F8360000E000BFC7
:104AA00000BF204600F05BFC70BD0000002400BF8A
:104AB00019E000BF00BFFBF7DDFB044600BF00BFED
:104AC00009480068401C0849086008480068401C04
:104AD0000649086000BF00BF2046FBF7CFFB00BFC0
:104AE00000BFFEF779FCE4E700020020640200202A
:104AF00010B58AB0044600200E4908600B20002142
:104B00000591CDE90704069108460B4909680B4A4F
:104B100012680B4B1B68CDE90132CDE903103F2031
:104B20000023084A08A100900C48FFF725F80AB0B6
:104B300010BD000000020020CC070108C8070108D2
:104B4000C4070108AD4A000875432F4F532D49494A
:104B5000492049646C65205461736B00F4D80020CF
:104B60002DE9F84F04460D4616461F46DDE90BAB0E
:104B7000DDF82890DDF834800020009000BF00BFF1
:104B8000FBF778FB009000BF00BF2B4800882B4943
:104B9000098888423EDA28480088401C2649088057
:104BA000274800880988884203DA23480088244976
:104BB0000880244800680460224800688560214815
:104BC0000068C6601F48006807821E480068C0F879
:104BD00014901C480068A0F818A01A480068C0F893
:104BE0001CB0184800684068164908600120164942
:104BF0000881164808604860002000F07FFC1448D7
:104C0000007818B112480078124908700020A8F8FE
:104C1000000008E010480088401C0F49088044F25A
:104C20005360A8F8000000BF00BF0098FBF726FB08
:104C300000BF00BFBDE8F88F10020020D8070108B0
:104C4000120200200802002088DA0020B8D90020D3
:104C50003202002034020020140200203EB55948E0
:104C600000680068584A811A904279D00FDC574991
:104C7000084400283ED056490844A8B15549084484
:104C8000002860D05449084400286AD13FE05348C6
:104C90000844002850D052490844002862D05149A5
:104CA00008440028F1D110E002A8464D00902D687C
:104CB000EB69444D2D682A8B424D2D686969414D41
:104CC0002D68A868FFF7AEFD7AE002A93D480068AC
:104CD000C0693C4DCDE900012D682B8B394D2D6805
:104CE0002A8A384D2D68E968364D2D68A86800F08D
:104CF00035FC65E0334B1B68DA69324B1B68198B56
:104D0000304B1B68986802AB00F052FE58E002A9D5
:104D10002C480068C0692B4DCDE900012D682B8B14
:104D2000284D2D682A8A274D2D68E968254D2D6864
:104D3000A86801F0CDF943E022490968886802A912
:104D400001F0DAFA3CE01F4B1B68DA691D4B1B6867
:104D5000198B1C4B1B68986802AB01F079FB2FE0A4
:104D600007E02CE017490968886802A901F0D2FD24
:104D700026E01D49097801EB41011C4A02EB810044
:104D800000F0A2FD0F48006802AB0021C26918487C
:104D900001F05EFB17480068401E1649086008468F
:104DA000006858B9144800680860FCF76BF80446BE
:104DB00002AB22460021114801F04AFB00E000BF8F
:104DC00000BF3EBD0C0200205449434BADBAB2BEF9
:104DD0000DF90BFAF2F8F7FF0006F6FF00F7FDF702
:104DE00000FFEFFF03FE0FFE3402002088DA0020F0
:104DF0004CDE0020A00200209C02002010DF0020DA
:104E0000002700BF4CE0002648E000BF00BFFBF7D2
:104E100031FA074600BF00BF2248008888B9002049
:104E2000214908810860486000F07AFB00BF00BF9C
:104E30003846FBF723FA00BF00BFFEF741FC01260E
:104E40002CE000BF00BF3846FBF718FA00BF00BFD8
:104E5000FCF718F80546FFF701FFFCF713F8441BB1
:104E600012480068A04201D21048046000BF00BF91
:104E7000FBF700FA074600BF00BF0D480068406816
:104E80000B49086007480088401E0649088000BF9B
:104E900000BF3846FBF7F2F900BF00BF002EB4D0C8
:104EA000B1E700001002002088DA0020180200207C
:104EB0000C020020F0B589B0054600203149088079
:104EC0003148006820B944F25260288009B0F0BD32
:104ED0002E480088022803DA44F254602880F5E75F
:104EE00000202B4908602848046826462036002701
:104EF0000CE0284820600020A060E0602082606113
:104F00002083666020342036781C87B21F480088D2
:104F10008742EEDB203C1C48066866601E4806603F
:104F20001E48066000201E4908801E4908801E4851
:104F3000006818B944F255602880C7E71B4800682C
:104F40001B490968884203D244F256602880BDE7B5
:104F5000032000210591CDE907050691134800685B
:104F6000144A1268104B1B68CDE90301CDE90132E8
:104F700000910B46104A11A11748FEF7FDFD00BF36
:104F8000A4E7000014020020D4070108D807010894
:104F9000180200204E4F4E45080200200C0200204F
:104FA0001002002012020020E0070108E8070108B3
:104FB00020080108E4070108014E000875432F4F3F
:104FC000532D494949204953522051756575652033
:104FD0005461736B00000000B8D900200021034A1F
:104FE0001160034A118001807047000024020020F4
:104FF0002802002070B502460B46104611461031BB
:105000005E1EB5B2002408E00160002646600681FD
:10501000C66010301031661CB4B2AC42F4DB00261E
:10502000066046600681C66070BD000010B504468B
:105030001048006818B945F21E70208010BD0E4857
:10504000008818B945F21D702080F7E70A480188EA
:1050500008480068FFF7CEFF064800680749086067
:105060000548008888800020C8800881208000BF13
:10507000E4E7000004080108FC0701087CDA0020CE
:1050800010B5014648894B89002B17DD0A680C4B87
:105090001B6813600A4C4B6823602346DB884C89ED
:1050A0001B1B074CE38023469B884C892344044CFC
:1050B000A38000234B818B810B604B6010BD0000EF
:1050C0007CDA0020018100224281828102604260FC
:1050D000704700002DE9F0410D46DDE90674B0F897
:1050E0000AC0B0F80880C44505DB46F2935CA4F81A
:1050F00000C0BDE8F081DFF8D4C0BCF804C0BCF14A
:10510000000F04D145F21D7CA4F800C0F1E7DFF8E0
:10511000BCC0DCF80010DFF8B480D1F800C0C8F8DB
:1051200000C0C446BCF804C0ACF1010CA8F804C02F
:10513000C446BCF806C00CF1010CA8F806C0C44671
:10514000BCF808C0B8F80680C44507DADFF87CC0B0
:10515000BCF806C0DFF87480A8F808C0B0F80AC030
:10516000BCF1000F06D1016041604FF0010CA0F8C6
:105170000AC017E003F0100CBCF1000F07D106685D
:1051800031604FF0000CC1F800C0016004E0D0F8BD
:1051900004C0C1F800C04160B0F80AC00CF1010CB5
:1051A000A0F80AC0B0F80CC0B0F80A80C44503DA11
:1051B000B0F80AC0A0F80CC04D600A81CF604FF073
:1051C000000CA4F800C000BF93E700007CDA0020C8
:1051D0000021034A1160034A1180018070470000DA
:1051E0002C020020300200202DE9F04105460C463B
:1051F00016461F461548006880F8346000201349A1
:10520000096881F8350039461048006800F096FEBC
:105210006CB104F10808EC60012229460B480068D3
:1052200000F016F82946404600F066F806E0002037
:1052300006490968C8870549096808630348016881
:10524000204600F019F8BDE8F0810000A40200201B
:1052500010B5C287016300230AE000244C600C6093
:105260000C614C610C83CC61886020315C1CA3B262
:105270009342F2DB10BD000030B548B14568C1F87B
:10528000C05000F10804226893681D6AC56113E0EC
:1052900091F83450022D02D0072D08D103E007A564
:1052A000C1F8C05007E007A5C1F8C05003E008A549
:1052B000C1F8C05000BF00BF30BD00005461736B27
:1052C000205100005461736B2053656D0000000095
:1052D0002000000030B507A5C1F8C05000F1080457
:1052E00022681AB193681D6AC56101E001A5C56114
:1052F00030BD000020000000F0B58E6896F83750F1
:1053000007893FB90127078100274F600F600160BF
:10531000416023E007897F1C0781026806E09468EA
:1053200094F83770AF4200DD02E05268002AF6D1EF
:1053300000BF32B900274F6043680B60596041607D
:105340000CE017682FB9116000270F604A600160F8
:1053500004E013680B604A6059601160F0BD2DE9EC
:10536000F0410446256BE68F0AE0D5F80C8008F181
:1053700008072946384600F00AF82035701E86B224
:10538000002EF2DC0020E0872063BDE8F08110B53C
:105390000489012C03D100240460446011E00C68EE
:1053A00024B94A680024146002600AE04C6824B9F9
:1053B0000B6800245C60436003E00B684A685A6035
:1053C00013600489641E048100244C600C6010BDCD
:1053D0002DE9F84306460C4617469846089D94F872
:1053E0003600082850D2DFE800F004050809060757
:1053F0002B2C00BF00BF00BF47E000BF94F8340073
:10540000032807D143463A4621463046009500F02E
:105410003FF803E0E765A4F86080256436B12046D4
:10542000FFF79DFF21463046FFF754FF204600F06E
:1054300055FF00203434A070607004F8340924E073
:1054400000BF94F83400032807D143463A4621466A
:105450003046009500F01CF803E0E765A4F8608092
:105460002564204601F0F0FB36B12046FFF777FFB8
:1054700021463046FFF72EFF04203434A070002070
:10548000607004F8340900E000BF00BFBDE8F88395
:10549000F0B50446059E086BCD8F0AE0C768A742A9
:1054A00004D1046142610383C66104E020306F1EB1
:1054B000BDB2002DF2DC00BFF0BD000070B50025CC
:1054C000074C03E005F12000C5B2241D2068002828
:1054D000F8D02068FAF7D9FE2844C5B2284670BD36
:1054E000DC010020002004E00021034A42F82010E3
:1054F000401C0228F8D37047DC01002030B5420977
:1055000000F01F030121C3F11F04A140034C54F814
:1055100022400C43014D45F8224030BDDC01002003
:1055200030B5420900F01F030121C3F11F04A1405F
:10553000034C54F822408C43014D45F8224030BDC5
:10554000DC0100200021034A1160034A1180018020
:1055500070470000380200203C0200202DE9F04F87
:1055600085B007468A4693461C460020029000BF3D
:1055700000BF00BFFAF77EFE029000BF00BF4848A0
:105580000078401C4649087000BF00BF0298FAF737
:1055900075FE00BF00BF00BF07F108063089002874
:1055A00042D104F0100010B94FF0000801E04FF0B4
:1055B0001008DDE90E0143465A46CDE90001514687
:1055C00007F12000FFF786FD00BF00BF00BFFAF71C
:1055D00051FE029000BF00BF31480078401E3049A4
:1055E000087008460078A0B92E480088002809DD18
:1055F00000BF00BF0298FAF741FE00BF00BF00F0F5
:1056000009F90DE000BF00BF0298FAF737FE00BFAE
:1056100006E000BF00BF0298FAF730FE00BF00BFEF
:1056200000BF05B0BDE8F08F04F4007008B1358903
:1056300000E00125D6F8009011E0D9F808000390A9
:10564000D9F8040004900E985B4652460090384604
:105650000399FFF7BDFEDDF81090681E85B2002D9E
:10566000EBD100BF00BF00BFFAF704FE029000BFFD
:1056700000BF0B480078401E0949087000BF00BFFA
:105680000298FAF7FBFD00BF00BF00BF04F4004022
:1056900008B9FEF715F800210F98018000BFC0E798
:1056A0004C0200201002002000210AE001EB410220
:1056B000054B03EB820000220281026042604A1C1B
:1056C000D1B24029F2D3704788DA002010B50446E1
:1056D00094F83700FFF712FF94F83700054909786E
:1056E000884203D1204600F027F802E0204600F06F
:1056F00003F810BD3202002010B590F8373003EBEC
:1057000043030C4C04EB83010B893BB901230B8150
:105710000023C36003610860486009E00B895B1CDB
:105720000B810B68C360002303610A681061086085
:1057300010BD000088DA002010B590F8373003EB78
:1057400043030B4C04EB83010B893BB901230B8111
:105750000023C36003610860486008E00B895B1C9C
:105760000B810023C3604A680261D060486010BDAD
:1057700088DA002010B501460C8924B1012C03D031
:10578000022C0CD101E000BF14E008684A680261F5
:105790000024C4601461D0600A6048600AE00868B0
:1057A0004A68C36800241C61C4600261D0600B6059
:1057B000486000BF00BF10BD2DE9F041054695F8D7
:1057C000370000EB4000124901EB80042F69EE68BE
:1057D00087B946B9002020812060606095F83700C5
:1057E000FFF79EFE0EE02089401E208100203061E0
:1057F000266007E02089401E2081FE600EB96760A8
:1058000000E0376100202861E860BDE8F081000019
:1058100088DA002010B5002400BFFAF72BFD0446FB
:1058200000BF00200D4908700D480E490860084669
:105830000068D0F89000401C0968C1F890000A4840
:105840000068401C084908604FF080500749086014
:1058500000BF2046FAF712FD00BF10BD3302002042
:10586000B8D90020A80200207802002004ED00E052
:1058700010B504480078012803D1FBF703FB024967
:10588000086010BD4C0200204002002010B50A48FC
:10589000007880B9FBF7F6FA08490968441A084805
:1058A0000068A04201D20648046006480068A04291
:1058B00001D20448046010BD4C02002040020020C8
:1058C000440200204802002070B5054600262E48FC
:1058D0000078012800D070BD00BF00BFFAF7CAFCF5
:1058E000064600BF00BF2C683CB900BF00BF304671
:1058F000FAF7C4FC00BF00BFEDE72448844207D19B
:1059000000BF00BF3046FAF7B9FC00BF00BFE2E7B6
:10591000A06D10B1A06D401EA065A06D38B100BF94
:1059200000BF3046FAF7AAFC00BF00BFD3E72889C2
:10593000022807DA00BF00BF3046FAF79FFC00BF1D
:1059400000BFC8E712480078002807DD00BF00BF8D
:105950003046FAF793FC00BF00BFBCE72846FFF7CC
:1059600009FF2C68606D18B90A480068A06501E05D
:10597000606DA06500BF00BF3046FAF77FFC00BF36
:1059800000BF00BFA7E7000054020020F4D80020A9
:105990004C020020500200200021034A1160034AFB
:1059A0001180018070470000580200205C02002036
:1059B0002DE9FF5F0446884691461D460020019070
:1059C00000BF00BFFAF756FC019000BF00BF04F112
:1059D0000807388900284FD10420012804D0022864
:1059E00014D0042834D123E0206AFF280DD100BF51
:1059F00000BF0198FAF742FC00BF00BF46F6C55051
:105A00002880002004B0BDE8F09F22E04FF6FF712F
:105A1000206A88420BD100BF00BF0198FAF72EFC24
:105A200000BF00BF46F6C55028800020EAE710E01E
:105A3000206A401C58B900BF00BF0198FAF71EFC4D
:105A400000BF00BF46F6C55028800020DAE700E01E
:105A500000BF00BF206A401C2062D4F820A0C4F818
:105A6000249000BF00BF0198FAF708FC00BF00BFF8
:105A7000002028805046C5E700BF25480078401C1C
:105A80002349087000BF00BF0198FAF7F7FB00BF79
:105A900000BF00BF08F4007008B13E8900E0012695
:105AA000D7F800B011E0DBF808000290DBF8040042
:105AB000039000231A46CDF8009020460299FFF784
:105AC00087FCDDF80CB0701E86B2002EEBD1D4F846
:105AD00020A000BF00BF00BFFAF7CCFB019000BFC1
