:020000040800F2
:1000000058C900202D020008213100089719000866
:100010001D310008BD0D0008A3900008000000007D
:10002000000000000000000000000000E5420008A1
:100030006510000800000000BB020008F94300083A
:10004000470200084702000847020008470200086C
:10005000470200084702000847020008470200085C
:10006000470200084702000847020008470200084C
:10007000470200084702000847020008470200083C
:10008000470200084702000847020008470200082C
:10009000470200084702000847020008470200081C
:1000A000470200084702000847020008470200080C
:1000B0004702000831800008498000084702000814
:1000C00047020008470200084702000847020008EC
:1000D00047020008798E000847020008470200081E
:1000E00047020008470200084702000847020008CC
:1000F00047020008470200084702000847020008BC
:1001000047020008470200084702000847020008AB
:1001100047020008470200088580000847020008DF
:10012000470200084702000847020008470200088B
:1001300000F002F800F06BF80AA090E8000C82448E
:100140008344AAF10107DA4501D100F060F8AFF26B
:10015000090EBAE80F0013F0010F18BFFB1A43F0A5
:1001600001031847B0D10000D0D100000A444FF07D
:10017000000C10F8013B13F0070408BF10F8014B06
:100180001D1108BF10F8015B641E05D010F8016B4B
:10019000641E01F8016BF9D113F0080F1EBF10F8AF
:1001A000014BAD1C0C1B09D16D1E58BF01F801CBD2
:1001B000FAD505E014F8016B01F8016B6D1EF9D555
:1001C0009142D6D37047000000230024002500266A
:1001D000103A28BF78C1FBD8520728BF30C148BFAA
:1001E0000B607047642900F0F980752900F0F680F3
:1001F000782900F02F81632900F0CE82732900F066
:10020000D382002070471FB51FBD10B510BD00F090
:1002100005FB1146FFF7F7FF09F010F800F023FB8C
:1002200003B4FFF7F2FF03BC08F044FF094880471E
:1002300009480047FEE7FEE7FEE7FEE7FEE7FEE7C8
:10024000FEE7FEE7FEE7FEE704480549054A064BE0
:1002500070470000154400083101000858C3002011
:1002600058C9002058C5002058C50020EFF3108061
:1002700072B6704780F310887047204C204D25607F
:100280004FF0000484F309881E4C4FF001052570DF
:100290001D4C4FF08055256062B6FEE730B41A4C15
:1002A0004FF08055256030BC704730B4164C4FF08D
:1002B0008055256030BC704700BF72B6EFF30980EF
:1002C00028B1203880E8F00F10490968086000B5AF
:1002D0000F4880475DF804EB0E480F490A7802701A
:1002E0000A480E490A680260106890E8F00F203052
:1002F00080F309884EF0040E62B6704720ED00E0EE
:100300000000FFFFFE01002004ED00E004020020D9
:1003100019370008F3010020F40100200C0200202E
:10032000704700000FB4044910B503AA029800F00A
:100330003FFA10BC5DF814FB6800002070B504465D
:1003400085690068C10601D5302600E02026C00777
:1003500007D070BDD4E9012130469047206A401C87
:1003600020626D1EF6D570BD70B5044685690078B3
:10037000C00707D170BDD4E9012120209047206A31
:10038000401C20626D1EF6D570BD70B50C4605464A
:10039000012A05D02878800600D5EA69002302E00A
:1003A000012305E05B1C934202D2E05C0028F9D1F6
:1003B000A869E618C01AA861286A18442862284665
:1003C000FFF7BCFF04E0D5E9012114F8010B9047C9
:1003D000B442F8D32846FFF7C7FF70BD2DE9F041BE
:1003E0000646002410687529314616A510D0AFF3D3
:1003F0000080002802DA404213A507E031688A072E
:1004000001D512A502E0490704D511A5012401E098
:10041000AFF3008000210A2206F1240709E0B0FBB7
:10042000F2FCB0FBF2F302FB1C00303078541846AB
:10043000491C0028F3D123462A463046BDE8F04146
:1004400000F047B9000000002D0000002B00000064
:100450002000000070B504460D4621461068AFF339
:1004600000802188090502D50F4A7A4402E00E4A2D
:100470007A440E32002104F1240305E000F00F0657
:100480000009965D5E54491C0028F7D120780023AE
:10049000000704D5702D02D009B102231132204685
:1004A000BDE8704000F015B926CD00002DE9F05FE1
:1004B000894604464FF0000ADFF874B1FB44C0F8E7
:1004C00020A02046E1688847002874D0252806D05F
:1004D000D4E901219047206A401C2062F1E7002600
:1004E0005F462046E16888472028054607DB312D16
:1004F00005D2781910F8200C08B10643F1E7B007CF
:1005000001D526F00406C4F81CA00027C4F818A0E2
:100510002A2D09D0284608F0C6FD38B304EB870819
:10052000303DC8F8185019E059F8041B204604EB78
:1005300087029161E1688847012F054618D1E0697B
:10054000002820DA26F020061DE0D8F8180000EB7D
:10055000800005EB40003038C8F818002046E168FC
:100560008847054608F09FFD0028EED1012F0AD0EC
:100570002E2D08D12046E16888477F1C0546022FB2
:1005800046F02006C4DBA069002803DA404246F0AA
:100590000106A061F00701D026F010066C2D0BD0EB
:1005A000682D09D04C2D39D06A2D35D0742D35D019
:1005B0007A2D33D016E038E0E1682F462046884790
:1005C000B842054609D16C2F26D04FF48060E1680F
:1005D000064320468847054604E06C2F1AD04FF4A6
:1005E000807006430DB3A5F14100192802D82035CB
:1005F00046F400664A462946204626604E46FFF7E6
:10060000F1FD80B101280BD0F61D26F0070000F1A6
:10061000080956E74020E4E78020D8E70020D6E725
:1006200006F104094DE7284652E7206ABDE8F09F2D
:10063000FCCC00004FF0013C50F8042B51F8043B77
:100640009A4221D1A2EB0C03934313EACC1317D1A6
:1006500050F8042B51F8043B9A4215D1A2EB0C033D
:10066000934313EACC130BD150F8042B51F8043BFD
:100670009A4209D1A2EB0C03934313EACC13DBD0CB
:100680004FF00000704700BFD01A01BAB1FA81F1F3
:1006900001F0180122FA01F0CB40C1F12001DBB2D8
:1006A000C0B2C01A2CFA01F3D11A914311EAC31156
:1006B000E6D17047704770477047704710B500F03B
:1006C00089F8006810BD10B5044600F083F8046096
:1006D00010BD2DE9F0470D4699469246044600F1BB
:1006E00024080168880604D5E06921F01001216022
:1006F00000E00120A84201DD471B00E00027A169BE
:100700007A1902EB0900081AA0612078C00602D409
:100710002046FFF713FE002608E0D4E901211AF86D
:1007200006009047206A401C761C20624E45F4DB90
:100730002078C0060AD52046FFF700FE06E0D4E97F
:10074000012130209047206A401C2062381EA7F10A
:100750000107F4DC07E0D4E9012118F8050090470F
:10076000206A401C2062281EA5F10105F3DC20460A
:10077000FFF7FAFD2078000602D50220BDE8F087D9
:100780000120FBE710B5436913B1AFF3008001E02E
:10079000FFF7FBFD012010BD127800F124010A7063
:1007A00000224A700122EDE711684FF0FF32E9E7BD
:1007B000074B70B50D467B4400F015F804462846FB
:1007C00000F024F810B14FF0FF3070BD204670BD2E
:1007D000278A000000487047F8C2002001694A1CBF
:1007E00002610878704700B58FB0CDE90131002172
:1007F000059105497944CDE9031011466846FFF794
:1008000055FE0FB000BD0000E5FFFFFF007B00F0CC
:100810008000704700487047F8C200207546FFF717
:10082000F9FFAE4605006946534620F007008546AD
:1008300018B020B5FFF708FDBDE820404FF00006D6
:100840004FF000074FF000084FF0000B21F00701B8
:10085000AC46ACE8C009ACE8C009ACE8C009ACE8FB
:10086000C0098D46704710B50446AFF3008020469E
:10087000BDE81040FFF7D4BC21B1826842F001020C
:10088000826003E0826822F001028260704700000B
:1008900010B504461248844208D10121401503F0E6
:1008A000A7FC0021601503F0A3FC17E00D4884426B
:1008B00008D10121001503F09BFC0021201503F055
:1008C00097FC0BE00848844208D10121C80303F0DB
:1008D0008FFC00214FF4004003F08AFC10BD0000A3
:1008E0000024014000280140003C01400146002056
:1008F0008A6802F004020AB1012000E0002070477B
:100900000146C86C80B270470246002013680B4055
:100910000BB1012000E000207047014600208A68EA
:1009200002F008020AB1012000E000207047000038
:1009300030B502460020002350680F4C20400D794E
:100940000C6844EA05242043506090680B4C20401A
:10095000D1E902542C434D7944EA45042043906088
:10096000D06A20F470000C7C641EE4B2234340EA99
:100970000350D06230BD0000FFFEF0FFFDF7F1FF35
:10098000F0B504460D4600200021092D11DDE06878
:10099000A5F10A0606EB4607072606FA07F1884383
:1009A000A5F10A0606EB460603FA06F10843E060E5
:1009B0000CE0206905EB4507072606FA07F1884396
:1009C00005EB450603FA06F108432061072A0FDA12
:1009D000606B561E06EB86071F2606FA07F1884352
:1009E000561E06EB860605FA06F10843606322E010
:1009F0000D2A0FDA206BD61F06EB86071F2606FA94
:100A000007F18843D61F06EB860605FA06F1084370
:100A1000206310E0E06AA2F10D0606EB86071F26B0
:100A200006FA07F18843A2F10D0606EB860605FAE1
:100A300006F10843E062F0BD816841F00801816081
:100A4000704721B1826842F4A002826003E08268AC
:100A500022F4A00282607047816841F00401816045
:100A6000704710B500F0C2FF10BD2DE9F0410746F8
:100A70000C460026002509E036023919491B491E9B
:100A800088B200F008F80644681CC5B2A542F3DB42
:100A90003046BDE8F08170B50446002601F05AF8F2
:100AA0002546E11704EB11610912A02202EB410176
:100AB000C8B201F01BF801F099F8E11704EB1161DD
:100AC0000912A4EB0121C8B201F010F801F08EF870
:100AD00001F040F8A12001F009F801F087F80020AA
:100AE00000F0CCFF064601F05BF8304670BD2DE902
:100AF000F04105460E461746002409E0E20026FABA
:100B000002F2D1B22A1990B200F006F8601CC4B209
:100B1000BC42F3DBBDE8F08170B504460E4601F03F
:100B200019F82546E11704EB11610912A02202EB26
:100B30004101C8B200F0DAFF01F058F8E11704EB08
:100B400011610912A4EB0121C8B200F0CFFF01F03E
:100B50004DF8304600F0CAFF01F048F801F020F8E7
:100B60000A2008F0D9FA70BD00B587B001214FF412
:100B7000017003F02DFB4FF4004003F00DFB022049
:100B8000ADF8040000208DF8070001A9204800F00E
:100B900006FC0420ADF8040000208DF8070001A930
:100BA0001B4800F0FCFB1B48FFF772FE0020029080
:100BB0008DF80C008DF80D004FF46020049000209B
:100BC000059001208DF8180002A91248FFF7B0FE29
:100BD00002208DF8180002A90E48FFF7A9FE012196
:100BE0000C48FFF749FE0B48FFF726FF00BF0948F6
:100BF000FFF793FE0028FAD10648FFF72DFF00BF4C
:100C00000448FFF773FE0028FAD107B000BD0000CA
:100C100000080140002401401CB5B9E00A21012070
:100C200000F0A2FE5B490880002010210423CDE9DA
:100C300000105848028882219C2002F0B0F95548E3
:100C400000880AF077FC82460AF0D0FA06464FF098
:100C50006632514B09F0BAFF044600224F4B09F0AF
:100C6000B5FF804609F0E0FC4D4908600846006881
:100C70000AF028FC47490880002010210223CDE912
:100C800000104448028896218C2002F088F94148DF
:100C900000880AF04FFC04464148016820460AF0EB
:100CA00029FD3F4908603F493D4800680AF056FC6D
:100CB0003B4908603C4800680AF004FC0446802078
:100CC000102103232246CDE900109621A42002F032
:100CD00066F90A21022000F047FE2E490880002014
:100CE00010210423CDE900102A480288AA219C2063
:100CF00002F055F9274800880AF01CFC82460AF0E9
:100D000075FA80464FF06632234B09F05FFF0646C6
:100D100000224FF0804309F06DFD044609F084FC89
:100D200021490860084600680AF0CCFB1949088090
:100D3000002010210223CDE9001016480288BE21B0
:100D40008C2002F02CF9134800880AF0F3FB0446CB
:100D50001548016820460AF0CDFC13490860114986
:100D6000114800680AF0FAFB0F490860084600685D
:100D70000AF0A8FB04468020102103232246CDE977
:100D80000010BE21A42002F00AF908A0FFF7CAFA59
:100D900044E700000000002066664A3F000026404D
:100DA0000800002000007A44040000203E3E414438
:100DB00043205441534B2E0D0A00000000BFFEE7B4
:100DC00010B50A2008F0DEF910BD000010B50020B3
:100DD0000E4908600E48006820F470400C49086015
:100DE0000846006840F44050086000200949C1F8F6
:100DF0008C01FFF7E5FF012004490860FFF7E0FFE1
:100E000000200449C1F8800110BD00008001224289
:100E100000100140000022420F48806940F010009D
:100E20000D4988610D4800684FF20F0188430B4956
:100E300008600846006843F2030108430749086058
:100E40000846C06840F00200C8600846C06840F02C
:100E50000800C86070470000001002400010014008
:100E600010B500200E4908600E48006820F470405C
:100E70000C4908600846006840F4405008600120B2
:100E80000949C1F88C01FFF79BFF01200449086064
:100E9000FFF796FF00200449C1F8800110BD000053
:100EA00080012242001001400000224270B5054638
:100EB00000241548006820F4704013490860084673
:100EC000006840F400400860002613E000200F494D
:100ED00008601E2008F056F901200D49C1F8800174
:100EE0006006040E09487438006808B1601CC4B27A
:100EF000701CC6B2082EE9DB15B9FFF7B1FF01E09F
:100F0000FFF764FF204670BD0010014080012242BF
:100F10000000224270B504461248006820F4704078
:100F2000104908600846006840F4405008600020FE
:100F30000D490860002512E0E0090B490C310860FA
:100F40006006040E01200949C1F88001FFF738FF4F
:100F5000002005490860FFF733FF681CC5B2082D63
:100F6000EADB70BD001001408001224200002242F5
:100F700010B50E48006820F470400C49086008461F
:100F8000006840F4405008600120094908600949A0
:100F9000C1F88001FFF714FF002005490860FFF742
:100FA0000FFF00200349C1F8800110BD001001406F
:100FB0008C0122420000224210B50E48006820F445
:100FC00070400C4908600846006840F440500860D2
:100FD0000020094908600949C1F88C01FFF7F0FEBB
:100FE000012005490860FFF7EBFE01200349C1F825
:100FF0008C0110BD001001408001224200002242FD
:1010000010B500241448006820F4704012490860AC
:101010000846006840F40040086001200F4908605D
:1010200008F0B0F801200E49C1F8800108F0AAF8D4
:1010300007E0601CC4B2FA2C03DDFFF7BDFF0120FE
:1010400010BD0648803800680028F2D103490C39E9
:10105000086000BFF4E70000001001408C0122424C
:1010600000002242704700001CB50121102003F04F
:10107000AFF84FF40050ADF8000010208DF80300D9
:1010800003208DF8020069462D4800F088F94FF4DE
:1010900000512B4800F058FA0220ADF8000048201B
:1010A0008DF803006946264800F079F902212448AA
:1010B00000F04AFAFFF7B0FE002022490860142031
:1010C00008F02AF801202049C1F8B401322008F0C4
:1010D00023F800208DF80400012201A900F036F960
:1010E000012201A9A42000F031F916208DF8040096
:1010F000012201A9802000F029F90C208DF80400BC
:10110000012201A9882000F021F9022201A9A120D1
:1011100000F022F89DF8040030280ED19DF805005B
:1011200003280AD19DF805009DF8042000EB022158
:1011300006A0FFF7F7F800201CBD0120FCE7000027
:1011400000100140B40122420000224243545020CA
:1011500049443A25780D0A002DE9F04106460F462C
:101160001546FFF705FF7020FFF7D4FEFFF748FF95
:10117000F0B2FFF7CFFEFFF743FFFFF7F9FE712054
:10118000FFF7C8FEFFF73CFF00240BE0691EA142F9
:1011900001D0012100E000210846FFF787FE385505
:1011A000601CC4B2AC42F1DBFFF706FFBDE8F08182
:1011B00071B581B00024002661480078401C604968
:1011C0000870084600780A2190FBF1F201FB12003A
:1011D00018B15B4800780A2867DA012201A90220C9
:1011E000FFF7BAFF9DF8040000F00F0000287ED042
:1011F0009DF8040000F00F00062878DA9DF804003E
:1012000000F00F01FF208840C5B2E843C0B240F0B3
:10121000C0004C4981F8200000245AE0494890F869
:1012200020000121A1400840F0B3474931F81400E3
:1012300004226946FFF790FF424890F8300000F022
:101240000100C0B19DF801009DF8001001F00F01F0
:1012500000EB01203B49163121F814009DF80300F2
:101260009DF8021001F00F0100EB012135480C3010
:1012700020F814101DE09DF801009DF8001001F009
:101280000F0100EB0120C0F5F07081B22D480C3049
:1012900020F814109DF803009DF8021001F00F01D2
:1012A00000EB0121274801E011E020E0163020F892
:1012B00014109DF8000000F0F000802807D00021F5
:1012C0002048163020F814100A3820F81410601C3A
:1012D000C4B2052CA2DB01261A48808920B919481E
:1012E000C08A08B9002001900020154908709DF8B7
:1012F000040000F01F00D0B9124890F8200000F060
:10130000800040B10F4890F8200020F080000D4987
:1013100081F820000BE04FF6FF700A498881C882EF
:10132000084690F8200000F0E00081F82000044812
:101330000078F02802DD0A200149087030467CBDA3
:101340006000002020000020BECF00082DE9F04101
:1013500005460E4617464FF00008FFF709FE7020BD
:10136000FFF7D8FDFFF74CFEE8B2FFF7D3FDFFF71C
:1013700047FE00240BE0305DFFF7CCFDFFF740FE99
:101380008046B8F1000F00D003E0601CC4B2BC423C
:10139000F1DB00BFFFF710FE4046BDE8F0812DE90C
:1013A000F0410246002500260020002300240027EB
:1013B00091F803C00CF00F0591F803C00CF0100C6D
:1013C000BCF1000F03D091F802C04CEA050591F87A
:1013D00000C0BCF1000F31D0146800202BE04FF0AA
:1013E000010C0CFA00F3B1F800C00CEA03069E42AF
:1013F00020D183004FF00F0C0CFA03F7BC4305FA21
:1014000003FC4CEA040491F803C0BCF1280F06D198
:101410004FF0010C0CFA00FCC2F814C00AE091F87D
:1014200003C0BCF1480F05D14FF0010C0CFA00FCD1
:10143000C2F810C0401C0828D1D31460B1F800C015
:10144000BCF1FF0F34DD546800202EE000F1080CE1
:101450004FF0010808FA0CF3B1F800C00CEA0306DB
:101460009E4221D183004FF00F0C0CFA03F7BC43CE
:1014700005FA03FC4CEA040491F803C0BCF1280F00
:1014800005D100F1080C08FA0CF8C2F8148091F8A4
:1014900003C0BCF1480F07D100F1080C4FF0010860
:1014A00008FA0CF8C2F81080401C0828CED354600B
:1014B000BDE8F081F0B50A46002300240021002594
:1014C00000F00046B6F1004F02D11D4EF16901E077
:1014D0001B4E7168C0F3034583B200F44016B6F5A5
:1014E000401F08D121F07061154E766826F07066B5
:1014F000134F7E6012E000F48016B6F5801F06D10F
:10150000032606FA05F4A14341F0706106E0460D9A
:10151000360103FA06F6B14341F0706122B1460D7F
:10152000360103FA06F6314300F00046B6F1004FEB
:1015300002D1034EF16101E0014E7160F0BD000087
:101540000000014041617047016170470EB5012103
:10155000102002F03DFE42F20200ADF80000102023
:101560008DF8030003208DF8020069463448FFF728
:1015700016FF02213248FFF7E7FF4FF400513048D1
:10158000FFF7E2FFFFF748FC00202E4908600A2021
:1015900007F0C2FD01202C49C1F8B4010A2007F070
:1015A000BBFD0220ADF8000028208DF8030069463D
:1015B0002348FFF7F4FE02212148FFF7C3FF642010
:1015C00007F0AAFD042201A948F2401000F052F8E9
:1015D00000208DF8080001A91CA0FEF7A3FE1EA1A3
:1015E00001A8FFF727F840BB02208DF80400012274
:1015F00001A948F2400000F06FF9012201A948F268
:10160000470000F037F89DF80400602807DA9DF8DD
:10161000041013A0FEF786FE012000F02FF90A2027
:1016200007F07AFD00208DF80400012201A948F29C
:10163000400000F051F900200EBD0120FCE7000041
:1016400000100140B40122420000224243545020C5
:1016500049443A25730D0A0039313437000000003F
:1016600044656661756C74205665723A25640D0A8E
:10167000000000002DE9F04105460F461646FFF731
:1016800077FC2820FFF746FCFFF7BAFC2812FFF78B
:1016900041FCFFF7B5FCE8B2FFF73CFCFFF7B0FCFC
:1016A000FFF766FC2920FFF735FCFFF7A9FC0024B3
:1016B0000BE0711EA14201D0012100E0002108468B
:1016C000FFF7F4FB3855601CC4B2B442F1DBFFF7FE
:1016D00073FCBDE8F081000031B582B00024002524
:1016E00063480078401C62490870084600780A2167
:1016F00090FBF1F201FB120018B15D4800780A2856
:101700007DDA012202A948F24E10FFF7B3FF9DF8DF
:10171000080000F00F0000286BD09DF8080000F0D2
:101720000F00062865DA9DF8080000F00F01FF2081
:101730008840C0B200909DF80000C043C0B240F0A5
:10174000C0004C4981F82000002444E0494890F84A
:1017500020000121A140084020B3474931F814007E
:10176000042201A9FFF786FF424890F8300000F0FC
:101770000100C0B19DF804009DF8051000EB0120A8
:1017800081B23C48163020F814109DF806009DF8F0
:10179000071000EB0120C0F5487081B235480C30CD
:1017A00020F8141015E09DF804009DF8051000EBDA
:1017B000012081B22F480C3020F814109DF806004B
:1017C0009DF8071000EB012081B22A48163020F85E
:1017D0001410601CC4B2052CB8DB01252548808993
:1017E00020B92448C08A08B900200290002020496E
:1017F00008709DF8080000F0800000B100E00DE0E6
:101800009DF8080000F00F00062807DA002000907D
:101810000122694648F24E1000F05EF89DF808007B
:1018200000F08F0080281AD1124890F8200000F0B4
:10183000800040B10F4890F8200020F080000D4952
:1018400081F820000BE04FF6FF700A498881C882BA
:10185000084690F8200000F0E00081F820000448DD
:101860000078F02802DD0A200149087028463EBDB4
:10187000610000202000002080D0000838B5054617
:10188000002400208DF800008DF8015000BF09E011
:101890009DF800000F49095D0844C0B28DF80000B2
:1018A000601CC4B2B82CF3D39DF80000C043401CA8
:1018B000C0B28DF80000B822064948F2470000F097
:1018C0000BF80222694648F2FF0000F005F80020FC
:1018D00038BD0000C8CF00082DE9F04104460E468F
:1018E00017464FF00008FFF743FB2820FFF712FBD5
:1018F000FFF786FB2012FFF70DFBFFF781FBE0B23D
:10190000FFF708FBFFF77CFB00250BE0705DFFF79E
:1019100001FBFFF775FB8046B8F1000F00D003E034
:10192000681CC5B2BD42F1DB00BFFFF745FB404676
:10193000BDE8F08110B5044607230122214609487D
:10194000FFF71EF801210748FFF77BF800BF0221CF
:101950000448FEF7D9FF0028F9D00248FEF7D0FF6F
:1019600010BD0000002401402DE9F04107460C465F
:101970000025002608E03846FFF7DCFF0544052077
:1019800007F0CAFB701CC6B2A642F4DBB5FBF4F04C
:1019900080B2BDE8F08100BFFEE7000010B5002076
:1019A0000F4908600F48406820F470400D494860B6
:1019B0000846406840F44050486000200A49C1F899
:1019C000AC01022007F0DEFB01200549086002207F
:1019D00007F0D8FB00200449C1F8B00110BD000099
:1019E000B0012242001001400000224208B501214E
:1019F000102002F0EDFB4FF4C050ADF800001020B5
:101A00008DF8030003208DF8020069460448FFF7B3
:101A1000C6FC0120034908600349C1F8AC0108BDB8
:101A200000100140B00122420000224210B5002007
:101A30000F4908600F48406820F470400D49486025
:101A40000846406840F44050486001200A49C1F807
:101A5000AC01022007F096FB012005490860022036
:101A600007F090FB00200449C1F8B00110BD000050
:101A7000B0012242001001400000224270B505462C
:101A800000241748406820F4704015494860084613
:101A9000406840F400404860002616E000201149EC
:101AA0000860022007F06EFB01200F49C1F8B00169
:101AB0006006040E0B488438006808B1601CC4B28C
:101AC000012007F05FFB701CC6B2082EE6DB15B9DB
:101AD000FFF7ACFF01E0FFF761FF204670BD00009B
:101AE00000100140B00122420000224270B50446BD
:101AF0001548406820F47040134948600846406823
:101B000040F440504860002010490860002517E06C
:101B1000E0090E49091F08606006040E022007F064
:101B200031FB01200A49C1F8B001022007F02AFB6D
:101B3000002006490860022007F024FB681CC5B29B
:101B4000082DE5DB70BD000000100140B00122420D
:101B50000000224210B50F48406820F470400D4943
:101B600048600846406840F44050486001200A49F7
:101B700008600A49C1F8B001042007F003FB002007
:101B800005490860042007F0FDFA00200349C1F868
:101B9000B00110BD00100140AC0122420000224201
:101BA00010B50F48406820F470400D494860084661
:101BB000406840F44050486000200A4908600A49E3
:101BC000C1F8AC01042007F0DDFA012005490860E6
:101BD0000549C1F8AC01042007F0D4FA10BD00009B
:101BE00000100140B00122420000224210B5002442
:101BF0001448406820F47040124948600846406824
:101C000040F40040486001200F49086007F0BAFA2C
:101C100001200E49C1F8B00107F0B4FA07E0601CDA
:101C2000C4B2FA2C03DDFFF7BBFF012010BD06484C
:101C3000803800680028F2D10349091D086000BF00
:101C4000F4E7000000100140AC01224200002242F3
:101C500008B50121342002F0BBFA01211648FFF734
:101C600029FC0120ADF8000028208DF8030069460A
:101C70001248FFF794FB4FF41040ADF800004820E5
:101C80008DF8030069460D48FFF789FB3020ADF859
:101C9000000048208DF8030069460948FFF77FFBE4
:101CA0000420ADF8000048208DF80300694605487F
:101CB000FFF775FB08BD000000023000000801407E
:101CC000001001400014014070B5044600261D4874
:101CD0000588408845431B48808846F604018842B1
:101CE00016D118488079012812D100201549887131
:101CF0002A2048812B2088810021084600F060FEC0
:101D00000120104988712B2048812A20888103E016
:101D10000021084600F054FE01F0C4F900260DE051
:101D20004FF480700849086140004861074804602A
:101D300080204861086180000861761CAE42EFD3C4
:101D400070BD000020050020001001400C0C014077
:101D500010B50446002C66D16C498871F0200880CB
:101D60004FF4A07048800846808849F2413188428B
:101D70000BD06648808846F60401884205D0634847
:101D8000808845F2103188421AD12C205F490881A1
:101D90002A2048812B2088810846808846F6040145
:101DA000884205D05948808845F21031884206D1D2
:101DB0004FF4A070554908804FF4F0704880A1E0BE
:101DC0005248808845F21051884210D14FF430506B
:101DD0004E4908814FF4285048814FF42C50888197
:101DE0004FF4F07008804FF4487048808AE047480C
:101DF000808841F6631188420DD12C204349088127
:101E00002B2048812A2088814FF4F07008804FF4FD
:101E10004870488076E022203C4908812020488193
:101E2000212088816EE00120384988714FF4A0702C
:101E30000880F02048800846808849F24131884275
:101E400005D03248808845F21031884207D12C20D5
:101E50002E4908812A2048812B2088813FE02B4889
:101E6000808846F60401884207D12C202749088142
:101E70002B2048812A20888131E02448808845F23F
:101E80001051884210D14FF43050204908814FF44E
:101E9000285048814FF42C5088814FF448700880B6
:101EA0004FF4F07048801AE01848808841F66311BA
:101EB00088420DD12C20154908812A2048812B20E9
:101EC00088814FF4487008804FF4F070488006E035
:101ED00022200E49088121204881202088810B483A
:101EE000808846F60401884205D00848808845F27B
:101EF0001031884206D14FF4F070044908804FF445
:101F0000A0704880002000F02FFB10BD20050020AD
:101F10002DE9FF4F84B081468A460020039002904D
:101F20000698A0EB09050798A0EB0A06CDF80490E7
:101F3000CDF800A0002D01DD012705E00DB9002737
:101F400002E04FF0FF376D42002E02DD4FF0010836
:101F500006E016B94FF0000802E04FF0FF38764275
:101F6000B54201DD2C4600E034464FF0000B21E085
:101F7000009A91B2019A90B200F022F80398284496
:101F800003900298304402900398A04205DD039824
:101F9000001B03900198384401900298A04205DD8F
:101FA0000298001B02900098404400900BF1010041
:101FB0001FFA80FB601C8345DADD08B0BDE8F08FB6
:101FC00030B504460D462946204600F0F9FC01F0E4
:101FD00069F84FF48070074908614000486106487D
:101FE0000088064908608020024948610861800035
:101FF000086130BD001001405C0000200C0C014065
:102000002DE9F04306460F4690460024454603203E
:10201000A0EB48093CE07A1B91B2321990B2FFF76D
:10202000CFFF3A1B91B2721990B2FFF7C9FF3A196C
:1020300091B2721990B2FFF7C3FF7A1991B23219B7
:1020400090B2FFF7BDFF7A1991B2321B90B2FFF741
:10205000B7FF3A1991B2721B90B2FFF7B1FF7A1B2A
:1020600091B2321B90B2FFF7ABFF3A1B91B2721BD9
:1020700090B2FFF7A5FF641CB9F1000F03DAA000CE
:10208000801D814404E0601B80000A3081446D1E85
:10209000AC42C0DDBDE8F08370B504460D4616467F
:1020A000D348808849F24131884205D0D0488088A1
:1020B00045F21031884240D1CD49488900F0E0FF17
:1020C0004FF48070CB490861400048612012CA4932
:1020D00008608020C749486108618000086140109D
:1020E000086140004861E0B2C34908608020C149EE
:1020F0004861086180000861BD49888900F0C0FF1F
:102100004FF48070BB490861400048612812BA4909
:1021100008608020B749486108618000086140106C
:10212000086140004861E8B2B34908608020B149C5
:1021300048610861800008613DE1AD48808845F252
:102140001051884250D1AA49488900F099FF4FF4B4
:102150008070A8490861400048612012A6490860C3
:102160008020A4494861086180000861A04949892C
:10217000491C88B200F084FF4FF480709D490861CB
:1021800040004861E0B29C4908608020994948615C
:102190000861800008619649888900F071FF4FF45A
:1021A0008070944908614000486128129249086093
:1021B0008020904948610861800008618C498989C4
:1021C000491C88B200F05CFF4FF4807089490861B7
:1021D00040004861E8B2884908608020854948612C
:1021E000086180000861E6E08148808841F663115B
:1021F00088427DD17E48807920B97D480088401E84
:10220000001B84B27A49488900F03AFF4FF480708D
:1022100078490861400048612012774908608020B1
:1022200074494861086180000861401008614000FD
:102230004861E0B27049086080206E4948610861D9
:1022400080000861401008614000486120126A491E
:10225000086080206749486108618000086140107B
:10226000086140004861E0B263490860802061492C
:1022700048610861800008615D49888900F000FFBD
:102280004FF480705B4908614000486128125A4948
:10229000086080205749486108618000086140104B
:1022A000086140004861E8B2534908608020514904
:1022B0004861086180000861401008614000486181
:1022C00028124D49086080204A4948610861800011
:1022D00008614010086140004861E8B24649086062
:1022E00080204449486108618000086163E0FFE79D
:1022F0003F48808846F60401884249D13C488079AD
:10230000012804D13A480088401E001B84B2384995
:10231000488900F0B5FE4FF48070364908614000EE
:1023200048612012344908608020324948610861C0
:10233000800008614010086140004861E0B22E4909
:10234000086080202B4948610861800008612849A5
:10235000888900F095FE4FF480702649086140009E
:102360004861281224490860802022494861086198
:10237000800008614010086140004861E8B21E49D1
:10238000086080201B49486108618000086112E0F4
:1023900017488079012804D115480088401E001B89
:1023A00084B213494889214600F084FE1049888987
:1023B000294600F07FFE4FF480700E4948614000CE
:1023C00048610B4800890C49086080200949486130
:1023D00008618000086140100861400048610648BB
:1023E00006608020486108618000086170BD0000BF
:1023F00020050020001001400C0C014010B50246E1
:10240000012000E050430B1EA1F10104E1B2F9D11B
:1024100010BD000010B54FF0883017490860091D45
:102420000860002014490C310860881513490861C0
:1024300040004861402048611148808848F6891171
:10244000884202D1022006F09DFE0B480830006849
:1024500084B2402009490861C00008614FF0333060
:1024600005490860091D08604FF6FF7002490C31EC
:102470000860204610BD0000000C01400010014023
:102480002005002010B50446204600F0F9FDFFF7B6
:10249000C1FF10BD2DE9F0410446BE2000F0F0FD63
:1024A0004FF480702D4908614000486105202C4997
:1024B0000860802029494861086180000861401057
:1024C000086140004861204608F030FB05464FF0A7
:1024D0006632244B08F07AFB074608F0E3FA2049FD
:1024E000086080201D494861086180000861401033
:1024F000086140004861012019490860802017499F
:10250000486108618000086140100861400048612E
:10251000FF2013490860802010494861086180004D
:102520000861401008614000486100200C490860C3
:1025300080200A49486108618000086140100861F4
:102540004000486100200649086080200349486136
:10255000086180000861BDE8F081000000100140C2
:102560000C0C014066660440F0B5054600240027C7
:10257000FC48807901280BD1FA48808846F604018E
:10258000884205D0F748808841F66311884208D117
:10259000F4488079F0B9F348808841F663118842A5
:1025A00018D1082D15D2DFE805F00406080A0C0E34
:1025B000101206250DE007250BE0042509E005258E
:1025C00007E0012505E0002503E0032501E00225E1
:1025D00000BF00BFE348808849F24131884217D0EC
:1025E000E048808846F60401884211D0DD488088A2
:1025F00045F2103188420BD0DA48808845F21051FC
:10260000884205D0D748808841F6631188427DD141
:10261000082D1CD2DFE805F00406090C0F1215186E
:1026200000BF14E044F0800411E044F040040EE0E8
:1026300044F0C0040BE044F0200408E044F06004DF
:1026400005E044F0A00402E044F0E00400BF00BF55
:10265000C448808845F21051884202D14FF458573F
:1026600000E03627BF48808845F2103188420DD0FF
:10267000BC48808845F21051884207D0B94880880C
:1026800041F66311884201D044F00804B5488088BF
:1026900046F60401884201D144F00204214638463E
:1026A00000F008FDAF48808841F6631188421DD0D4
:1026B00004F0200068B1AB480088AA4949888842E4
:1026C00014DAA84806884088A6490880084646804B
:1026D0000CE0A4480088A3494988884206DDA14847
:1026E000068840889F490880084646809D48808823
:1026F00045F2105188427DD19A49488900F0C0FCCA
:102700004FF4807098490861400000E030E1486172
:102710000020964908608020934948610861800044
:10272000086190494989491C88B200F0A9FC4FF41E
:1027300080708D4908614000486100208B49086025
:10274000802089494861086180000861854949897C
:10275000891C88B200F094FC4FF4807082490861B3
:10276000400048617F480088401E00127F49086091
:1027700080207D4948610861800008617949498964
:10278000C91C88B200F07CFC4FF480707649086167
:102790004000486173480078401EC0B27349086029
:1027A0008020714948610861800008616D4988890D
:1027B00000F066FC4FF480706B490861400048618E
:1027C00000206A49086080206749486108618000EC
:1027D000086164498989491C88B200F051FC4FF4B2
:1027E0008070614908614000486100205F490860CD
:1027F000802000E035E05C494861086180000861A4
:1028000058498989891C88B200F03AFC4FF48070DD
:10281000554908614000486152484088401E0012F6
:102820005249086080205049486108618000086171
:102830004C498989C91C88B200F022FC4FF4807091
:10284000494908614000486146488078401EC0B24E
:102850004649086080204449486108618000086159
:10286000ADE04049488900F00BFC4FF480703E49D0
:1028700008614000486100203C49086080203A49D6
:1028800048610861800008614010086140004861AB
:102890000020364908608020334948610861800083
:1028A000086140100861400048612E480088401EC1
:1028B00000122E49086080202B4948610861800081
:1028C0000861401008614000486126480078401EB9
:1028D000C0B2264908608020234948610861800011
:1028E00008612049888900F0CBFB4FF480701E49B5
:1028F00008614000486100201C49086080201A4996
:10290000486108618000086140100861400048612A
:102910000020164908608020134948610861800042
:10292000086140100861400048610E484088401E20
:1029300000120E49086080200B4948610861800040
:102940000861401008614000486106488078401ED8
:10295000C0B20649086080200349486108618000D0
:1029600008612CE020050020001001400C0C014003
:10297000082D1CD2DFE805F004070A0D0F12151808
:1029800044F0300413E044F0100410E044F020045C
:102990000DE000BF0BE044F0380408E044F02804E8
:1029A00005E044F0180402E044F0080400BF00BF52
:1029B000032744F480542146384600F07BFBF0BDE9
:1029C00030B504460D46EA48808849F241318842D4
:1029D00005D0E748808845F21031884240D1E4496B
:1029E000488900F04DFB4FF48070E24908614000D7
:1029F00048612012E04908608020DE494861086192
:102A0000800008614010086140004861E0B2DA4986
:102A100008608020D7494861086180000861D44976
:102A2000888900F02DFB4FF48070D2490861400086
:102A300048612812D04908608020CE494861086169
:102A4000800008614010086140004861E8B2CA494E
:102A500008608020C749486108618000086186E1FC
:102A6000C348808846F60401884249D1C04880792D
:102A7000012804D1BE480088401E001B84B2BC4916
:102A8000488900F0FDFA4FF48070BA4908614000AF
:102A900048612012B84908608020B6494861086141
:102AA000800008614010086140004861E0B2B2490E
:102AB00008608020AF494861086180000861AC4926
:102AC000888900F0DDFA4FF48070AA49086140005F
:102AD00048612812A84908608020A6494861086119
:102AE000800008614010086140004861E8B2A249D6
:102AF000086080209F49486108618000086136E1D4
:102B00009B48808841F6631188427DD1984880793E
:102B100000283FD196480088401E001B84B294498B
:102B2000488900F0ADFA4FF4807092490861400086
:102B3000486100209049086080208E494861086102
:102B400080000861401008614000486100208A4907
:102B50000860802087494861086180000861401052
:102B60000861400048612012834908608020814943
:102B700048610861800008614010086140004861B8
:102B8000E0B27D49086080207A4948610861800090
:102B9000086141E07649488900F072FA4FF480708C
:102BA0007449086140004861201273490860802020
:102BB0007049486108618000086140100861400068
:102BC0004861E0B26C49086080206A494861086148
:102BD0008000086140100861400048616448008836
:102BE000401E001264490860802062494861086103
:102BF0008000086140100861400048615C4800782E
:102C0000401EC0B25C4900E047E00860802059499E
:102C100048610861800008615549888900F030FAF0
:102C20004FF48070534908614000486128125249AE
:102C3000086080204F4948610861800008614010A9
:102C4000086140004861E8B24B490860802049496A
:102C500048610861800008614010086140004861D7
:102C600043484088401E0012434908608020414983
:102C700048610861800008614010086140004861B7
:102C80003B488078401EC0B23B49086080203949EB
:102C9000486108618000086169E03548808845F234
:102CA0001051884250D13249488900F0E9F94FF477
:102CB0008070304908614000486120122E49086048
:102CC00080202C49486108618000086128494989B1
:102CD000491C88B200F0D4F94FF48070254908618E
:102CE00040004861E0B224490860802021494861E1
:102CF0000861800008611E49888900F0C1F94FF41D
:102D000080701C4908614000486128121A49086017
:102D10008020184948610861800008611449898948
:102D2000491C88B200F0ACF94FF480701149086179
:102D300040004861E8B21049086080200D494861B0
:102D400008618000086112E009488079012804D1F7
:102D500007480088401E001B84B205494889214667
:102D600000F0A8F902498889294600F0A3F930BD8E
:102D700020050020001001400C0C01402DE9F84F07
:102D800080460E4617461C46B3462046E31704EB22
:102D90005373DB1021464FEAE47C04EB5C7C4FEA82
:102DA000EC0CA4EBCC0CBCF1000F02D04FF0010CEA
:102DB00001E04FF0000C6344224604EBD27C4FEA62
:102DC0006C0C03FB0CF3DBB20093A7F12000C7B23D
:102DD000002556E00C2C07D107EB47002B4901EBEF
:102DE000800010F8059013E0102C05D1284800EB66
:102DF000071010F805900BE0182C07D107EBC7005F
:102E0000244901EB800010F8059001E0BDE8F88F3F
:102E10004FF0000A2FE009F0800030B11E48028810
:102E200031464046FFF738F907E00A9828B91B48B1
:102E3000028831464046FFF72FF94FEA49604FEAD2
:102E40001069701C86B216484088B04200DCDDE78D
:102E5000A6EB0B00A0420AD15E4608F101001FFA62
:102E600080F80F480088404500DCCFE706E00AF113
:102E7000010000F0FF0ABAF1080FCCDB00BF681CAC
:102E8000C5B200988542A5DB00BFBFE7FEB70008CA
:102E900072BC000862C200085C0000205E000020D6
:102EA000200500202DE9FF4F81B0074691461E46C0
:102EB0000E9D4FF0000A002439E0301B401EC1B2C5
:102EC0000A20FFF79BFAB9FBF0F00A21B0FBF1F200
:102ED00001FB1208BAF1000F16D1701EA04213DDDB
:102EE000B8F1000F0ED10020AB4605EBDB714910A5
:102EF00001FB0471009088B22B4620220299FFF753
:102F00003DFF12E04FF0010A0020AB4605EBDB71FC
:102F1000491001FB0471009088B208F13001CAB277
:102F20002B460299FFF72AFF00BF601CC4B2B442CF
:102F3000C3DB05B0BDE8F08F2DE9F84704460D4628
:102F400090469946DDE9096704F0FF0A08EB0400A2
:102F50001FFA80F809EB05001FFA80F916E04445D6
:102F600002DB5446A81985B24D4500DB14E0002071
:102F700000903A78334629462046FFF7FFFE304658
:102F800006EBD07104EB61018CB27F1C38787E288F
:102F900002DC38782028E2DA00BFBDE8F8872DE9A6
:102FA000FF4F82B0064692461F46DDE90F480020DB
:102FB000019000254DE0781B401EC1B20A20FFF7AA
:102FC0001DFABAFBF0F00A21B0FBF1F201FB120985
:102FD000019850BB781EA84227DDB9F1000F22D11D
:102FE00008F0800078B108F00100A34604EBDB7123
:102FF000491001FB0561009088B2234630220399F5
:10300000FFF7BCFE0EE008F00100A34604EBDB7105
:10301000491001FB0561009088B2234620220399E4
:10302000FFF7ACFE13E00120019008F00100A34679
:1030300004EBDB71491001FB0561009088B209F1D6
:103040003001CAB223460399FFF798FE00BF681CFF
:10305000C5B2BD42AFDB06B0BDE8F08F4FF4807162
:10306000054A11614900516104490860802151619C
:103070001161890011617047001001400C0C014082
:103080004FF48071054A516149005161044908605B
:103090008021516111618900116170470010014068
:1030A0000C0C014000B502490889FFF7E9FF00BD9B
:1030B0002005002010B504460B462046FFF7E0FF30
:1030C0004FF480700549086140004861044803607E
:1030D0008020486108618000086110BD0010014037
:1030E0000C0C014008B50121042001F071F84FF4E7
:1030F0008070ADF8000010208DF8030003208DF8DB
:10310000020069460448FEF74AF94FF4807102480C
:10311000FEF71AFA08BD00000008014000BFFEE7F4
:103120007047000070B5002100230F22C47804B35B
:10313000154C246804F4E064C4F5E064210AC1F18C
:103140000403CA40447804FA03F18478144021430C
:1031500009010E4C0678A155047804F01F050124DE
:10316000AC4005786D11AD0005F1E025C5F80041D2
:1031700009E0047804F01F050124AC40044D0678F2
:10318000761145F8264070BD0CED00E000E400E04B
:1031900080E100E002490143024A116070470000EB
:1031A0000000FA050CED00E010B500F013F800F097
:1031B000BFFB00F0E7FB00F007FC00F08FFB00F026
:1031C00061FB00F09BFC00F03FFC00F065FC00F0B0
:1031D00002F810BD7047704706480078012808D1F2
:1031E00005480078FF2804D203480078401C0249B3
:1031F00008707047FE010020F101002010B5002486
:103200001A480078012830D1FDF730F804461848F4
:10321000007820B116480078401E154908701448FF
:103220000078F8B913480078E0B900F0C9FC1248FA
:103230001249097850F82100114908600F480078B8
:103240001049097888420DD00D480068806B401CF9
:103250000B49096888630C480068401C0A490860EB
:10326000FDF723F82046FDF705F810BDFE0100200C
:10327000F1010020F201002090BD0020F4010020A7
:103280000C020020F3010020D801002010B500241A
:103290000B480078012811D1FCF7E8FF04460948E3
:1032A000007840B908480078FF2804D20648007822
:1032B000401C054908702046FCF7DCFF10BD0000EB
:1032C000FE010020F1010020F201002010B50024D1
:1032D00013480078012821D1FCF7C8FF04461148A3
:1032E0000078C0B10F480078401E0E4908700846AB
:1032F000007860B90C48007828B92046FCF7BAFF7E
:1033000000F024FC0AE02046FCF7B4FF06E020466B
:10331000FCF7B0FF02E02046FCF7ACFF10BD000058
:10332000FE010020F2010020F101002010B50B4841
:10333000007890B900F044FC094800780949087009
:1033400009480749097850F82100084908600846EB
:10335000006807490860FCF790FF10BDFE010020DF
:10336000F4010020F301002090BD00200C02002099
:1033700004020020704700002DE9FE4F06460F466C
:1033800090461C464FF00009FCF770FF81461F482D
:10339000007828B14846FCF76DFF3C20BDE8FE8F61
:1033A0001B4850F8240060BB0120194941F8240053
:1033B0004846FCF75FFF002342463946304600F09E
:1033C00009F98246002000900190034602465146CA
:1033D0000290204600F00AFC054635B90D480078F9
:1033E00001280CD100F0B2FB09E0FCF73FFF814659
:1033F0000020074941F824004846FCF73BFF2846D7
:10340000CCE74846FCF736FF2820C7E7F10100204B
:1034100090BD0020FE0100202DE9F04F85B08146CF
:103420008A4693461C46DDE90F78129D00200390E2
:10343000FCF71CFF03902348007830B10398FCF799
:1034400019FF3C2005B0BDE8F08F1F4850F824005C
:1034500088BB01201C4941F824000398FCF70AFFAF
:103460002A464146384600F0D1FC2B465A46514682
:10347000484600F0AFF804901198CDE9008002951D
:103480003A4620460E9B049900F0B0FB064636B93A
:103490000E48007801280CD100F058FB09E0FCF739
:1034A000E5FE03900020084941F824000398FCF74A
:1034B000E1FE3046C6E7FFE70398FCF7DBFE282075
:1034C000C0E70000F101002090BD0020FE010020B7
:1034D000704770472DE9F04106460F4614464FF0FD
:1034E00000081548007818B112202070BDE8F0815E
:1034F000FCF7BCFE8046FF2E03D11048006890F810
:1035000032600F4850F826502DB94046FCF7B2FE05
:1035100043202070EAE7012D05D14046FCF7AAFEC2
:1035200043202070E2E7EF644046FCF7A3FE002052
:10353000207000BFDAE70000F10100200402002043
:1035400090BD0020704700002DE9F04707460D466A
:103550004FF0000A002028606860FCF787FE824672
:10356000FF2F03D11948006890F83270184850F8BE
:1035700027402CB95046FCF77DFE4320BDE8F0877C
:10358000012C04D15046FCF775FE4320F6E7207C61
:1035900000F0010020B95046FCF76CFE4520EDE735
:1035A0000026D4F80C90D4F808805046FCF762FE50
:1035B00000E0761C58F8041B0029FAD0B0002860FF
:1035C000A9EB0600800068600020D7E70402002015
:1035D00090BD002070B5044610464FF08075056020
:1035E000051F28462C606FF00106051F28462E6037
:1035F0004FF01236051F28462E604FF00336051F88
:1036000028462E604FF00236051F28462E607610A1
:10361000051F28462E60051F284629604FF01136E9
:10362000051F28462E604FF01036051F28462E60D5
:103630004FF00936051F28462E604FF00836051F4B
:1036400028462E604FF00736051F28462E604FF0A3
:103650000636051F28462E604FF00536051F284602
:103660002E604FF00436051F28462E6070BD000006
:103670002DE9F04105464FF00008FCF7F7FD8046C4
:10368000FF2D05D12048006890F83250012608E04F
:103690001D48006890F83200A84201D1012600E0E0
:1036A00000261A4850F825402CB94046FCF7E2FDA8
:1036B0004820BDE8F081012C04D14046FCF7DAFD3A
:1036C0004320F6E794F834701148C05D94F8351043
:1036D00088430F49C8550846C05D30B994F8361084
:1036E0000C48007888430B49087094F8300040F08B
:1036F000080084F830004046FCF7BCFD012E01D1E3
:1037000000F024FA0020D4E70402002090BD00203D
:10371000F6010020F50100207047000070B5054655
:1037200000261748007800B170BD1648007800B137
:10373000FAE71DB3FCF79AFD06461348006890F8B7
:1037400034401248005D1049096891F835108843EB
:103750000E4908550846005D40B90B48006890F8CE
:1037600036100B48007888430949087006480068FD
:10377000C5623046FCF77EFD00F0E8F900BFD3E7F4
:10378000F1010020F201002004020020F6010020D7
:10379000F501002070B5002600F072F8FCF766FD18
:1037A000064631480068401C2F4908603046FCF747
:1037B00061FD2E480078012853D12D48007820B1B2
:1037C000012804D0022809D103E001250BE00025DF
:1037D00009E0012501202649087004E001250020A8
:1037E0002349087000BF00BF05B970BD21480468B7
:1037F00033E0FCF73BFD0646E06A50B3E06A401E4A
:10380000E062E06A28BB94F8300000F0370040B175
:1038100014F8300F00F0C800207001206070303CB8
:1038200002E0002084F8310094F8300000F0080035
:1038300078B93434A0781049097808430E490870E3
:1038400020780E49085C6178084314F834190B4A53
:10385000505464693046FCF70DFD94F832003F285F
:10386000C7D100BFC1E700001C020020FE010020FC
:103870001402002010020020F5010020F6010020B3
:10388000704700002DE9F0415021114800F02CF95B
:1038900000250DE0681C86B20D4800EB051400EB16
:1038A00006170020207067600AA0E060681C85B2DF
:1038B000042DEFD3064800EB051400202070606053
:1038C00004A0E060024804490860BDE8F0810000FF
:1038D00040B900203F000000E001002070B5C82181
:1038E000114800F001F900230FE0581C85B203EBEA
:1038F00083000D4901EB800405EB850001EB800698
:10390000002020706660581C83B2092BEDD303EBB6
:103910008300054901EB80040020207060600846A8
:103920000249086070BD000078B80020DC0100206A
:1039300000200A4908600A4908700A4908700A49C3
:1039400008700A4908700A4908600A4908600A496B
:1039500008600A4908600A49087070471C02002084
:10396000F1010020F2010020FF010020FE010020F3
:10397000D801002000020020EC010020E801002016
:10398000F001002000210A4A1170002004E000210B
:10399000084A1154411CC8B20828F8D30021064A2D
:1039A0001170064A1170064A1160064A116070478C
:1039B000F5010020F6010020F3010020F4010020B1
:1039C0000C0200200402002070B54FF47C711948ED
:1039D00000F08AF84FF48071174800F085F8002451
:1039E00013E0601CC5B2C4EBC40000EB40001149F9
:1039F00001EB8003C5EBC50000EB400001EB800646
:103A00005E610EA0D864601CC4B20B2CE9D3C4EB79
:103A1000C40000EB4000074901EB8003002058611F
:103A200006A0D864002006490860024805490860DD
:103A300070BD000090BE002090BD00203F0000003F
:103A4000100200200802002000B587B003200021EA
:103A500080220A4BCDE90132CDE903104FF6FF7009
:103A60003F23074A00900748FFF7D6FC06AA06A1A5
:103A70003F20FFF72FFD07B000BD000090BB0020E6
:103A80008CBD0020213D000875432F4F532D49491F
:103A90002049646C6500000000B587B00320002158
:103AA00080220A4BCDE90132CDE903104FF6FE70BA
:103AB0003E23074A00900748FFF7AEFC06AA06A17E
:103AC0003E20FFF707FD07B000BD000090B90020C1
:103AD0008CBB0020493D000875432F4F532D4949A9
:103AE000205374617400000004E0002200F8012BF0
:103AF0004A1E91B20029F8D1704700002DE9F0412B
:103B000078211048FFF7F0FF00240DE0601C86B21A
:103B100004EB44000B4901EBC00506EB460001EB4A
:103B2000C0072F60601C84B2042CEFD304EB440068
:103B3000044901EBC00500202860084602490860DE
:103B4000BDE8F08180C200201802002010B50024DA
:103B5000FCF78CFB044613480078F8B9124800784B
:103B6000E0B900F02DF811481149097850F821000A
:103B7000104908600E4800780F49097888420DD036
:103B80000C480068806B401C0A49096888630B4830
:103B90000068401C09490860FCF780FB2046FCF7E0
:103BA00069FB10BDF1010020F201002090BD002052
:103BB000F40100200C020020F3010020D8010020B5
:103BC0000649074A1278885C0649095C034A515C39
:103BD00001EBC001044A11707047000094D0000846
:103BE000F5010020F6010020F40100202DE9F84F36
:103BF00005460F4690469946DDE90AAB0020009045
:103C0000FCF734FB00903F480468002C74D0183453
:103C100054F8040C3B4908600098FCF72BFB44F86F
:103C2000187CA576002020766076606144F814BC8C
:103C300044F80CAC44F8108C0C9824F8080C24F8C8
:103C4000069C0020E077E810207705F00700E0767A
:103C5000217F01208840A077E17E012088406077A5
:103C600000206060E060A0602062A0626062E062AC
:103C7000206325A06063183C002606E0002104F1C3
:103C8000500040F82610701CC6B2002EF6D0204618
:103C9000FFF770FB2046FFF71BFCFCF7E7FA0090EC
:103CA0001A4840F825401A48006860610020A06169
:103CB0001748006810B11648006884611448046011
:103CC0003434A078134909780843124908702078E1
:103CD0001149085C6178084314F834190E4A5054AD
:103CE0000E480078401C0D4908700098FCF7C2FA95
:103CF0000020BDE8F88FFFE70098FCF7BBFA4220F0
:103D0000F7E70000080200203F00000090BD0020FF
:103D100010020020F5010020F6010020FF01002024
:103D2000002400BF00BFFCF7A1FA04460548006864
:103D3000401C044908602046FCF79CFAFFF7C9FBC9
:103D4000F1E7000000020020002400BF02E028206C
:103D5000FFF7E4FC194800780028F8D018480068FC
:103D60006421B0FBF1F0164908600846006828B9E4
:103D7000002014490870FF20FFF77AFC00BFFCF711
:103D800075FA0446104800681049086000200E4982
:103D900008602046FCF76EFA0C480068084909687C
:103DA000B0FBF1F0C0F1640006490870FFF7CAFBF0
:103DB00000F00EF81420FFF7B1FCE0E7F00100205E
:103DC000E8010020E401002000020020EC010020B6
:103DD0007CB5002514E069462846FFF7B5FB06468A
:103DE00066B9094850F8254044B1012C06D0D4E901
:103DF000020100EB810060640198A064681CC5B2F8
:103E00003F2DE8D97CBD000090BD002002F00103E9
:103E100043B102F002032BB102E0491E002308C0A7
:103E20000029FAD1704700001CB500200190012143
:103E3000102000F0CDF90220ADF8000048208DF8E8
:103E4000030003208DF8020069461E48FDF7A7FA1B
:103E500002211C48FDF778FB4FF40050ADF800003C
:103E600010208DF8030069461648FDF798FA4FF4C4
:103E700000511448FDF768FBFCF7CEFF0020124903
:103E80000860642005F048F901201049C1F8B40128
:103E9000642005F041F9012000F042F9012201A956
:103EA0004FF4506000F01AF89DF8041008A0FCF7D9
:103EB00039FA9DF8040000F0800008B100201CBD14
:103EC0000120FCE700100140B40122420000224220
:103ED0004354502049443A25780D0A002DE9F04119
:103EE00005460F461646FDF743F8B220FDF712F8D7
:103EF000FDF786F82812FDF70DF8FDF781F8E8B216
:103F0000FDF708F8FDF77CF8FDF732F8B320FDF770
:103F100001F8FDF775F800240BE0711EA14201D0F5
:103F2000012100E000210846FCF7C0FF3855601C65
:103F3000C4B2B442F1DBFDF73FF8BDE8F081000008
:103F40002DE9F14F82B04FF0000AD3466C4800785B
:103F5000401C6B490870084600780A2190FBF1F27A
:103F600001FB120018B1664800780A287EDA0122A7
:103F700002A90020FFF7B2FF9DF8080000F01F0023
:103F8000002873D09DF8080000F01F0040F0C0002A
:103F90005C4981F820004FF0000A76E0594890F81B
:103FA0002000012101FA0AF10840002869D0564991
:103FB00031F81A00042201A9FFF790FF514890F848
:103FC000300000F0010078B39DF807109DF806203E
:103FD00001EB022006F093FD06464C4A4C4B06F0DE
:103FE000F5FD044606F05EFD81B24648163020F825
:103FF0001A109DF805109DF8042001EB022006F030
:104000007EFD0646434A444B06F0E0FD8046002212
:10401000424B06F00FFF044606F044FD81B23948DA
:104020000C3020F81A102CE0FFE79DF807109DF8DF
:10403000062001EB022006F062FD0646334A344BAF
:1040400006F0C4FD044606F02DFD81B22D480C306B
:1040500020F81A109DF805109DF8042001EB0220AD
:1040600006F04DFD06462B4A2B4B00E01DE006F006
:10407000ADFD044606F016FD81B22248163020F848
:104080001A100AF1010000F0FF0ABAF1050F85DBF2
:104090004FF0010B1B48808920B91A48C08A08B923
:1040A000002002900020164908709DF8080000F0DA
:1040B0001F00D0B9134890F8200000F0800040B1F4
:1040C000104890F8200020F080000E4981F8200070
:1040D0000BE04FF6FF700B498881C882084690F8C4
:1040E000200000F0E00081F8200005480078F0286A
:1040F00002DD0A20024908705846BDE8FE8F000024
:1041000062000020200000208AD000087B14AE4707
:10411000E17AD43FD881734694F6D23F00008940BB
:1041200038B50446002000900CB180200090012298
:1041300069464FF4506000F001F838BD2DE9F041B8
:1041400004460E4617464FF00008FCF711FFB22058
:10415000FCF7E0FEFCF754FF2012FCF7DBFEFCF757
:104160004FFFE0B2FCF7D6FEFCF74AFF00250BE05C
:10417000705DFCF7CFFEFCF743FF8046B8F1000FFF
:1041800000D003E0681CC5B2BD42F1DB00BFFCF704
:1041900013FF4046BDE8F08101460020034A506805
:1041A00020F4404008435060704700000010024077
:1041B00029B1064AD2690243044BDA6104E0034A9A
:1041C000D2698243014BDA6170470000001002405F
:1041D00029B1064A92690243044B9A6104E0034AFA
:1041E00092698243014B9A617047000000100240BF
:1041F00029B1064AD2680243044BDA6004E0034A5C
:10420000D2688243014BDA60704700000010024020
:1042100030B500210022002400232D4D6D6805F0EB
:104220000C0121B1042905D0082923D105E0294D2D
:10423000056022E0274D05601FE0254D6D6805F4FF
:104240007012234D6D6805F48034022505EB92420F
:104250001CB9214D554305600BE01D4D6D6805F4FB
:1042600000351DB11C4D5543056002E0194D554305
:10427000056002E0174D056000BF00BF144D6D687A
:1042800005F0F0010909154D6B5C0568DD404560DE
:104290000F4D6D6805F4E061090A104D6B5C4568CF
:1042A000DD4085600A4D6D6805F46051C90A0B4D0B
:1042B0006B5C4568DD40C560054D6D6805F44041A7
:1042C000890B074D6B5CC568B5FBF3F5056130BD27
:1042D0000010024000127A0000093D006E0000202C
:1042E0007E000020704710B500F002F810BD0000FD
:1042F0000CB50020019000903348006840F48030F5
:104300003149086000BF3048006800F40030009078
:104310000198401C0190009818B90198B0F5A06F61
:10432000F1D12948006800F4003010B1012000905C
:1043300001E0002000900098012843D12348006844
:1043400040F01000214908600846006820F0030092
:1043500008600846006840F0020008601A4840689B
:10436000194948600846406848600846406840F47B
:10437000806048600846406820F47C104860084629
:10438000406840F4E81048600846006840F08070DB
:10439000086000BF0C48006800F000700028F9D0E9
:1043A0000948406820F00300074948600846406813
:1043B00040F00200486000BF0348406800F00C0075
:1043C0000828F9D10CBD0000001002400020024076
:1043D000042808D14FF0E021096941F004014FF0B1
:1043E000E022116107E04FF0E021096921F00401AA
:1043F0004FF0E0221161704710B5054800780128A0
:1044000005D1FEF7E9FEFFF7C5F9FEF7F7FE10BD8F
:10441000FE01002010B51348006840F0010011496A
:10442000086008464068104908400E494860084640
:1044300000680E4908400B4908600846006820F4EF
:10444000802008600846406820F4FE0048604FF471
:104450001F008860FFF747FF4FF0006004490860C5
:1044600010BD0000001002400000FFF8FFFFF6FE44
:1044700008ED00E008B501211920FFF7A9FE012190
:10448000FE48FDF717F84FF4F860ADF80000102073
:104490008DF8030003208DF802006946F848FCF708
:1044A0007EFF4FF4F861F648FDF74EF84FF6FF70C7
:1044B000ADF800006946F348FCF771FF4FF6FF7155
:1044C000F048FDF741F8322004F026FE01210020DB
:1044D000FEF7F0FD322004F01FFE0020FDF7D2FFB2
:1044E000E949888008468088FF280ADB08468088DA
:1044F0004FF6FF71884204D0E3488088B0F5134F2F
:104500007ED1D320FEF7BCFDFDF784FFFDF782FFCF
:10451000FDF780FFDC498880084680884FF6FF71F0
:1045200001EA0020D8498880FDF774FFD6498988C0
:104530000843D54988800846808849F2413188423D
:104540005ED0BF20FEF79CFDFDF764FFFDF762FF24
:10455000FDF760FFFDF75EFFCB4988800846808845
:104560004FF6FF7101EA0020C7498880FDF752FF2E
:10457000C54989880843C44988800846808846F62A
:104580000401884274D0D420FEF77AFDFDF742FF83
:10459000FDF740FFFDF73EFFBB4988800846808855
:1045A0004FF6FF7101EA0020B7498880FDF732FF1E
:1045B000B54989880843B44988800846808845F20F
:1045C0001031884254D04FF45A40FEF759FDFDF7A0
:1045D00021FF4FF45B40FEF753FDFDF71BFFAA4997
:1045E0008880084680884FF6FF7101EA0020A649BE
:1045F00088804FF45C40FEF743FDFDF70BFF00E0C1
:1046000036E0A149898808439F4988800846808808
:10461000B0F5004F02D145F2105088809A4880884A
:1046200045F21051884223D0A120FEF729FDFDF765
:10463000F1FE95498880FDF7EDFE93498880084694
:1046400080884FF6FF7101EA00208F498880FDF7CE
:10465000E1FE8D49898808438B4988800846808817
:1046600045F26171884203D141F663108649888022
:104670008548818885A0FBF755FE8348808849F2EC
:10468000413188427ED1CF20FEF7FAFC0020FEF7B0
:10469000E5FCC120FEF7E2FC3020FEF7DFFCED2058
:1046A000FEF7EEFC6420FEF7D9FC0320FEF7D6FCF3
:1046B0001220FEF7D3FC8120FEF7D0FCE820FEF7A5
:1046C000DFFC8520FEF7CAFC1020FEF7C7FC7A202D
:1046D000FEF7C4FCCB20FEF7D3FC3920FEF7BEFC6E
:1046E0002C20FEF7BBFC0020FEF7B8FC3420FEF7C0
:1046F000B5FC0220FEF7B2FCF720FEF7C1FC20203B
:10470000FEF7ACFCEA20FEF7BBFC0020FEF7A6FC9F
:104710000020FEF7A3FCC020FEF7B2FC1B20FEF732
:104720009DFCC120FEF7ACFC0120FEF797FCC520E4
:10473000FEF7A6FC3020FEF791FC3020FEF78EFC41
:10474000C720FEF79DFCB720FEF788FC3620FEF759
:1047500097FC4820FEF782FC3A20FEF791FC55209A
:10476000FEF77CFCB120FEF78BFC0020FEF776FC08
:104770001A20FEF773FCB620FEF782FC0A20FEF733
:104780006DFC00E0A9E0A220FEF768FCF220FEF735
:1047900077FC0020FEF762FC2620FEF771FC01206A
:1047A000FEF75CFCE020FEF76BFC0F20FEF756FCEA
:1047B0002A20FEF753FC2820FEF750FC0820FEF7C5
:1047C0004DFC0E20FEF74AFC0820FEF747FC542063
:1047D000FEF744FCA920FEF741FC4320FEF73EFC17
:1047E0000A20FEF73BFC0F20FEF738FC0020FEF706
:1047F00035FC0020FEF732FC0020FEF72FFC0020E5
:10480000FEF72CFCE120FEF73BFC0020FEF726FC27
:104810001520FEF723FC1720FEF720FC0720FEF7EB
:104820001DFC1120FEF71AFC0620FEF717FC2B20BA
:10483000FEF714FC5620FEF711FC3C20FEF70EFCA0
:104840000520FEF70BFC1020FEF708FC0F20FEF7FA
:1048500005FC3F20FEF702FC3F20FEF7FFFB0F2088
:10486000FEF7FCFB2B20FEF70BFC0020FEF7F6FB0F
:104870000020FEF7F3FB012010E0000000023000F2
:1048800000100140000C014020050020204C434452
:104890002049443A25780D0A00000000FEF7DEFBAF
:1048A0003F20FEF7DBFB2A20FEF7EAFB0020FEF7A5
:1048B000D5FB0020FEF7D2FB0020FEF7CFFBEF2058
:1048C000FEF7CCFB1120FEF7DBFB782004F024FC84
:1048D0002920FEF7D5FB03F09ABBFE48808846F6F8
:1048E000040188427ED11120FEF7CAFB142004F097
:1048F00013FCD020FEF7C4FB0720FEF7AFFB4220DD
:10490000FEF7ACFB1D20FEF7A9FBD120FEF7B8FB9C
:104910000020FEF7A3FB1A20FEF7A0FB0920FEF7FC
:104920009DFBD220FEF7ACFB0120FEF797FB222077
:10493000FEF794FBC020FEF7A3FB1020FEF78EFBD2
:104940003B20FEF78BFB0020FEF788FB0220FEF7E2
:1049500085FB1120FEF782FBC520FEF791FB0320AB
:10496000FEF77CFBC820FEF78BFB0020FEF776FBF2
:104970002520FEF773FB2120FEF770FB0520FEF7D4
:104980006DFB0020FEF76AFB0A20FEF767FB65203F
:10499000FEF764FB2520FEF761FB7720FEF75EFB48
:1049A0005020FEF75BFB0F20FEF758FB0020FEF7C0
:1049B00055FBF820FEF764FB0120FEF74FFBFE20BD
:1049C000FEF75EFB0020FEF749FB0220FEF746FBE8
:1049D0002020FEF755FB3620FEF752FB0820FEF79D
:1049E0003DFB00E02AE03A20FEF74AFB5520FEF7A7
:1049F00035FB2B20FEF744FB0020FEF72FFB0020A9
:104A0000FEF72CFB0120FEF729FB3F20FEF726FBDB
:104A10002A20FEF735FB0020FEF720FB0020FEF7E2
:104A20001DFB0120FEF71AFBDF20FEF717FB7820A5
:104A300004F072FB2920FEF723FB4CE7A548808891
:104A400045F21031884240F07C87ED20FEF718FBDC
:104A50000120FEF703FBFE20FEF700FBEE20FEF731
:104A60000FFBDE20FEF7FAFA2120FEF7F7FAF1201D
:104A7000FEF706FB0120FEF7F1FADF20FEF700FB50
:104A80001020FEF7EBFAC420FEF7FAFA8F20FEF7AB
:104A9000E5FAC620FEF7F4FA0020FEF7DFFAE2207E
:104AA000FEF7DCFAE220FEF7D9FAE220FEF7D6FAAA
:104AB000BF20FEF7E5FAAA20FEF7D0FAB020FEF7F5
:104AC000DFFA0D20FEF7CAFA0020FEF7C7FA0D2024
:104AD000FEF7C4FA0020FEF7C1FA1120FEF7BEFA75
:104AE0000020FEF7BBFA1920FEF7B8FA0020FEF707
:104AF000B5FA2120FEF7B2FA0020FEF7AFFA2D201A
:104B0000FEF7ACFA0020FEF7A9FA3D20FEF7A6FA60
:104B10000020FEF7A3FA5D20FEF7A0FA0020FEF7C2
:104B20009DFA5D20FEF79AFA0020FEF797FAB12071
:104B3000FEF7A6FA8020FEF791FA0020FEF78EFA23
:104B40008B20FEF78BFA0020FEF788FA9620FEF7FE
:104B500085FA0020FEF782FAB220FEF791FA0020D3
:104B6000FEF77CFA0020FEF779FA0220FEF776FACB
:104B70000020FEF773FA0320FEF770FA0020FEF71C
:104B80006DFAB320FEF77CFA0020FEF767FA0020EA
:104B9000FEF764FA0020FEF761FA0020FEF75EFAE5
:104BA0000020FEF75BFA0020FEF758FA0020FEF71F
:104BB00055FA0020FEF752FA0020FEF74FFA0020C7
:104BC000FEF74CFA0020FEF749FA0020FEF746FAFD
:104BD0000020FEF743FA0020FEF740FA0020FEF71F
:104BE0003DFA0020FEF73AFA0020FEF737FA0020DF
:104BF000FEF734FA0020FEF731FA0020FEF72EFA15
:104C00000020FEF72BFA0020FEF728FA0020FEF71E
:104C100025FA0020FEF722FAB420FEF731FA8B20A5
:104C2000FEF71CFA0020FEF719FA9620FEF716FA96
:104C30000020FEF713FAA120FEF710FA0020FEF77D
:104C40000DFAB520FEF71CFA0220FEF707FA002045
:104C5000FEF704FA0320FEF701FA0020FEF7FEF942
:104C60000420FEF7FBF90020FEF7F8F9B620FEF766
:104C700007FA0020FEF7F2F90020FEF7EFF9B7205F
:104C8000FEF7FEF90020FEF7E9F90020FEF7E6F94D
:104C90003F20FEF7E3F90020FEF7E0F95E20FEF783
:104CA000DDF90020FEF7DAF96420FEF7D7F90020DD
:104CB000FEF7D4F98C20FEF7D1F90020FEF7CEF9EB
:104CC000AC20FEF7CBF90020FEF7C8F9DC20FEF798
:104CD000C5F901E0200500200020FEF7BFF9702093
:104CE000FEF7BCF90020FEF7B9F99020FEF7B6F9FF
:104CF0000020FEF7B3F9EB20FEF7B0F90020FEF735
:104D0000ADF9DC20FEF7AAF90020FEF7A7F9B820DC
:104D1000FEF7B6F90020FEF7A1F90020FEF79EF994
:104D20000020FEF79BF90020FEF798F90020FEF71F
:104D300095F90020FEF792F90020FEF78FF9002088
:104D4000FEF78CF9BA20FEF79BF92420FEF786F9CE
:104D50000020FEF783F90020FEF780F90020FEF71F
:104D60007DF9C120FEF78CF92020FEF777F90020AD
:104D7000FEF774F95420FEF771F90020FEF76EF982
:104D8000FF20FEF76BF90020FEF768F9C220FEF75E
:104D900077F90A20FEF762F90020FEF75FF9042098
:104DA000FEF75CF90020FEF759F9C320FEF768F919
:104DB0003C20FEF753F90020FEF750F93A20FEF7A9
:104DC0004DF90020FEF74AF93920FEF747F9002097
:104DD000FEF744F93720FEF741F90020FEF73EF9CF
:104DE0003C20FEF73BF90020FEF738F93620FEF7AD
:104DF00035F90020FEF732F93220FEF72FF90020B6
:104E0000FEF72CF92F20FEF729F90020FEF726F9EE
:104E10002C20FEF723F90020FEF720F92920FEF7C9
:104E20001DF90020FEF71AF92620FEF717F90020D9
:104E3000FEF714F92420FEF711F90020FEF70EF911
:104E40002420FEF70BF90020FEF708F92320FEF7D7
:104E500005F90020FEF702F93C20FEF7FFF80020DC
:104E6000FEF7FCF83620FEF7F9F80020FEF7F6F81A
:104E70003220FEF7F3F80020FEF7F0F82F20FEF7BF
:104E8000EDF80020FEF7EAF82C20FEF7E7F8002006
:104E9000FEF7E4F82920FEF7E1F80020FEF7DEF83F
:104EA0002620FEF7DBF80020FEF7D8F82420FEF7D6
:104EB000D5F80020FEF7D2F82420FEF7CFF8002026
:104EC000FEF7CCF82320FEF7C9F80020FEF7C6F85D
:104ED000C420FEF7D5F86220FEF7C0F80020FEF7E8
:104EE000BDF80520FEF7BAF80020FEF7B7F88420D9
:104EF000FEF7B4F80020FEF7B1F8F020FEF7AEF8A8
:104F00000020FEF7ABF81820FEF7A8F80020FEF707
:104F1000A5F8A420FEF7A2F80020FEF79FF81820BD
:104F2000FEF79CF80020FEF799F85020FEF796F85F
:104F30000020FEF793F80C20FEF790F80020FEF713
:104F40008DF81720FEF78AF80020FEF787F89520E5
:104F5000FEF784F80020FEF781F8F320FEF77EF8D4
:104F60000020FEF77BF8E620FEF778F80020FEF739
:104F700075F8C520FEF784F83220FEF76FF80020A0
:104F8000FEF76CF84420FEF769F80020FEF766F89B
:104F90006520FEF763F80020FEF760F87620FEF744
:104FA0005DF80020FEF75AF88820FEF757F8002039
:104FB000FEF754F8C620FEF763F82020FEF74EF8FF
:104FC0000020FEF74BF81720FEF748F80020FEF708
:104FD00045F80120FEF742F80020FEF73FF8C72011
:104FE000FEF74EF80020FEF739F80020FEF736F8FD
:104FF0000020FEF733F80020FEF730F8C820FEF757
:105000003FF80020FEF72AF80020FEF727F80020DE
:10501000FEF724F80020FEF721F8C920FEF730F84B
:105020000020FEF71BF80020FEF718F80020FEF71E
:1050300015F80020FEF712F80020FEF70FF8002008
:10504000FEF70CF80020FEF709F80020FEF706F83E
:105050000020FEF703F80020FEF700F80020FDF71F
:10506000FDFF0020FDF7FAFF0020FDF7F7FF00200D
:10507000FDF7F4FF0020FDF7F1FF0020FDF7EEFF44
:10508000E020FDF7FDFF1620FDF7E8FF0020FDF70B
:10509000E5FF1C20FDF7E2FF0020FDF7DFFF2120E8
:1050A000FDF7DCFF0020FDF7D9FF3620FDF7D6FF26
:1050B0000020FDF7D3FF4620FDF7D0FF0020FDF7CD
:1050C000CDFF5220FDF7CAFF0020FDF7C7FF642087
:1050D000FDF7C4FF0020FDF7C1FF7A20FDF7BEFFFA
:1050E0000020FDF7BBFF8B20FDF7B8FF0020FDF788
:1050F000B5FF9920FDF7B2FF0020FDF7AFFFA82014
:10510000FDF7ACFF0020FDF7A9FFB920FDF7A6FFD2
:105110000020FDF7A3FFC420FDF7A0FF0020FDF74E
:105120009DFFCA20FDF79AFF0020FDF797FFD220D0
:10513000FDF794FF0020FDF791FFD920FDF78EFFCA
:105140000020FDF78BFFE020FDF788FF0020FDF732
:1051500085FFF320FDF782FF0020FDF77FFFE120B0
:10516000FDF78EFF1620FDF779FF0020FDF776FF93
:105170001C20FDF773FF0020FDF770FF2220FDF7D4
:105180006DFF0020FDF76AFF3620FDF767FF002066
:10519000FDF764FF4520FDF761FF0020FDF75EFF8E
:1051A0005220FDF75BFF0020FDF758FF6420FDF75C
:1051B00055FF0020FDF752FF7A20FDF74FFF00203A
:1051C000FDF74CFF8B20FDF749FF0020FDF746FF60
:1051D0009920FDF743FF0020FDF740FFA820FDF7D1
:1051E0003DFF0020FDF73AFFB920FDF737FF002013
:1051F000FDF734FFC420FDF731FF0020FDF72EFF3F
:10520000CA20FDF72BFF0020FDF728FFD220FDF775
:1052100025FF0020FDF722FFD820FDF71FFF00200B
:10522000FDF71CFFE020FDF719FF0020FDF716FF3A
:10523000F320FDF713FF0020FDF710FFE220FDF73C
:105240001FFF0520FDF70AFF0020FDF707FF0B20D9
:10525000FDF704FF0020FDF701FF1B20FDF7FEFE18
:105260000020FDF7FBFE3420FDF7F8FE0020FDF7DF
:10527000F5FE4420FDF7F2FE0020FDF7EFFE4F2083
:10528000FDF7ECFE0020FDF7E9FE6120FDF7E6FEEC
:105290000020FDF7E3FE7920FDF7E0FE0020FDF79A
:1052A000DDFE8820FDF7DAFE0020FDF7D7FE97200F
:1052B000FDF7D4FE0020FDF7D1FEA620FDF7CEFEBF
:1052C0000020FDF7CBFEB720FDF7C8FE0020FDF75C
:1052D000C5FEC220FDF7C2FE0020FDF7BFFEC720BD
:1052E000FDF7BCFE0020FDF7B9FED120FDF7B6FEAC
:1052F0000020FDF7B3FED620FDF7B0FE0020FDF73D
:10530000ADFEDD20FDF7AAFE0020FDF7A7FEF3208D
:10531000FDF7A4FE0020FDF7A1FEE320FDF7B0FE9F
:105320000520FDF79BFE0020FDF798FE0A20FDF703
:1053300095FE0020FDF792FE1C20FDF78FFE002059
:10534000FDF78CFE3320FDF789FE0020FDF786FE79
:105350004420FDF783FE0020FDF780FE5020FDF77E
:105360007DFE0020FDF77AFE6220FDF777FE00202B
:10537000FDF774FE7820FDF771FE0020FDF76EFE4C
:105380008820FDF76BFE0020FDF768FE9720FDF7F3
:1053900065FE0020FDF762FEA620FDF75FFE0020FF
:1053A000FDF75CFEB720FDF759FE0020FDF756FE25
:1053B000C220FDF753FE0020FDF750FEC720FDF789
:1053C0004DFE0020FDF74AFED120FDF747FE0020EC
:1053D000FDF744FED520FDF741FE0020FDF73EFE1F
:1053E000DD20FDF73BFE0020FDF738FEF320FDF742
:1053F00035FE0020FDF732FEE420FDF741FE0120DE
:10540000FDF72CFE0020FDF729FE0120FDF726FE0A
:105410000020FDF723FE0220FDF720FE0020FDF70F
:105420001DFE2A20FDF71AFE0020FDF717FE3C2086
:10543000FDF714FE0020FDF711FE4B20FDF70EFED8
:105440000020FDF70BFE5D20FDF708FE0020FDF7B4
:1054500005FE7420FDF702FE0020FDF7FFFD84200D
:10546000FDF7FCFD0020FDF7F9FD9320FDF7F6FDAB
:105470000020FDF7F3FDA220FDF7F0FD0020FDF771
:10548000EDFDB320FDF7EAFD0020FDF7E7FDBE20AE
:10549000FDF7E4FD0020FDF7E1FDC420FDF7DEFD92
:1054A0000020FDF7DBFDCD20FDF7D8FD0020FDF746
:1054B000D5FDD320FDF7D2FD0020FDF7CFFDDD2087
:1054C000FDF7CCFD0020FDF7C9FDF320FDF7C6FD7B
:1054D0000020FDF7C3FDE520FDF7D2FD0020FDF71C
:1054E000BDFD0020FDF7BAFD0020FDF7B7FD00204F
:1054F000FDF7B4FD0220FDF7B1FD0020FDF7AEFD84
:105500002920FDF7ABFD0020FDF7A8FD3C20FDF7AD
:10551000A5FD0020FDF7A2FD4B20FDF79FFD00201B
:10552000FDF79CFD5D20FDF799FD0020FDF796FD40
:105530007420FDF793FD0020FDF790FD8420FDF71A
:105540008DFD0020FDF78AFD9320FDF787FD0020EB
:10555000FDF784FDA220FDF781FD0020FDF77EFD13
:10556000B320FDF77BFD0020FDF778FDBE20FDF7A1
:1055700075FD0020FDF772FDC420FDF76FFD0020D2
:10558000FDF76CFDCD20FDF769FD0020FDF766FD00
:10559000D320FDF763FD0020FDF760FDDC20FDF763
:1055A0005DFD0020FDF75AFDF320FDF757FD0020BB
:1055B000FDF754FDE620FDF763FD1120FDF74EFDDC
:1055C0000020FDF74BFD3420FDF748FD0020FDF7DE
:1055D00045FD5620FDF742FD0020FDF73FFD7620FA
:1055E000FDF73CFD0020FDF739FD7720FDF736FD86
:1055F0000020FDF733FD6620FDF730FD0020FDF7AC
:105600002DFD8820FDF72AFD0020FDF727FD9920BC
:10561000FDF724FD0020FDF721FDBB20FDF71EFD59
:105620000020FDF71BFD9920FDF718FD0020FDF778
:1056300015FD6620FDF712FD0020FDF70FFD55203A
:10564000FDF70CFD0020FDF709FD5520FDF706FDD7
:105650000020FDF703FD4520FDF700FD0020FDF7CC
:10566000FDFC4320FDF7FAFC0020FDF7F7FC442089
:10567000FDF7F4FC0020FDF7F1FCE720FDF700FD4D
:105680003220FDF7EBFC0020FDF7E8FC5520FDF78C
:10569000E5FC0020FDF7E2FC7620FDF7DFFC0020B2
:1056A000FDF7DCFC6620FDF7D9FC0020FDF7D6FCF9
:1056B0006720FDF7D3FC0020FDF7D0FC6720FDF745
:1056C000CDFC0020FDF7CAFC8720FDF7C7FC0020B9
:1056D000FDF7C4FC9920FDF7C1FC0020FDF7BEFCDE
:1056E000BB20FDF7BBFC0020FDF7B8FC9920FDF7BF
:1056F000B5FC0020FDF7B2FC7720FDF7AFFC0020E1
:10570000FDF7ACFC4420FDF7A9FC0020FDF7A6FC4A
:105710005620FDF7A3FC0020FDF7A0FC2320FDF799
:105720009DFC0020FDF79AFC3320FDF797FC00203C
:10573000FDF794FC4520FDF791FC0020FDF78EFC61
:10574000E820FDF79DFC0020FDF788FC0020FDF718
:1057500085FC9920FDF782FC0020FDF77FFC872067
:10576000FDF77CFC0020FDF779FC8820FDF776FC36
:105770000020FDF773FC7720FDF770FC0020FDF79B
:105780006DFC6620FDF76AFC0020FDF767FC8820B1
:10579000FDF764FC0020FDF761FCAA20FDF75EFC2C
:1057A0000020FDF75BFCBB20FDF758FC0020FDF757
:1057B00055FC9920FDF752FC0020FDF74FFC6620B8
:1057C000FDF74CFC0020FDF749FC5520FDF746FC99
:1057D0000020FDF743FC5520FDF740FC0020FDF7BD
:1057E0003DFC4420FDF73AFC0020FDF737FC442047
:1057F000FDF734FC0020FDF731FC5520FDF72EFCB1
:105800000020FDF72BFCE920FDF73AFCAA20FDF76C
:1058100025FC0020FDF722FC0020FDF71FFC0020E6
:10582000FDF71CFC0020FDF72BFCAA20FDF716FC61
:10583000CF20FDF725FC0020FDF710FC0020FDF730
:105840000DFC0020FDF70AFC0020FDF707FC0020FE
:10585000FDF704FC0020FDF701FC0020FDF7FEFB36
:105860000020FDF7FBFB0020FDF7F8FB0020FDF713
:10587000F5FB0020FDF7F2FB0020FDF7EFFB002019
:10588000FDF7ECFB0020FDF7E9FB0020FDF7E6FB50
:105890000020FDF7E3FB0020FDF7E0FBF020FDF723
:1058A000EFFB0020FDF7DAFB5020FDF7D7FB0020CF
:1058B000FDF7D4FB0020FDF7D1FB0020FDF7CEFB68
:1058C000F320FDF7DDFB0020FDF7C8FBF920FDF715
:1058D000D7FB0620FDF7C2FB1020FDF7BFFB2920F8
:1058E000FDF7BCFB0020FDF7B9FB3A20FDF7C8FB34
:1058F0005520FDF7B3FB1120FDF7C2FB642003F038
:105900000BFC2920FDF7BCFB3520FDF7B9FB00207F
:10591000FDF7A4FB5120FDF7B3FBFF20FDF79EFB35
:105920005320FDF7ADFB2C20FDF798FB5520FDF72C
:10593000A7FB8220FDF792FB2C20FDF7A1FB02F0D4
:1059400066BBFE48808845F2105188427ED15521C1
:105950004FF47040FDF7AEFBAA214FF20100FDF7B6
:10596000A9FB52214FF20200FDF7A4FB08214FF2E0
:105970000300FDF79FFB01214FF20400FDF79AFBA6
:105980000D214FF43040FDF795FB0D214BF2010046
:10599000FDF790FB0D214BF20200FDF78BFB34214C
:1059A0004FF43640FDF786FB34214BF20160FDF7E2
:1059B00081FB34214BF20260FDF77CFB0D214FF49B
:1059C0003140FDF777FB0D214BF20110FDF772FB23
:1059D0000D214BF20210FDF76DFB34214FF43740DF
:1059E000FDF768FB34214BF20170FDF763FB3421B6
:1059F0004BF20270FDF75EFB00214FF43240FDF7E1
:105A000059FB00214BF20120FDF754FB00214BF222
:105A10000220FDF74FFB24214FF43840FDF74AFBED
:105A200024214BF60100FDF745FB24214BF6020033
:105A3000FDF740FB01214FF43F40FDF73BFB0F21F9
:105A40004FF43340FDF736FB0F2100E0FEE34BF24D
:105A50000130FDF72FFB0F214BF20230FDF72AFB3F
:105A600034214FF43940FDF725FB34214BF601106A
:105A7000FDF720FB34214BF60210FDF71BFB08213C
:105A80004FF43540FDF716FB08214BF20150FDF7AE
:105A900011FB08214BF20250FDF70CFB03214FF4E0
:105AA0004240FDF707FB24214FF43A40FDF702FB8B
:105AB00024214BF60120FDF7FDFA24214BF60220AC
:105AC000FDF7F8FA00214FF43C40FDF7F3FA782196
:105AD0004BF60140FDF7EEFA00214BF60240FDF7D0
