:020000040800F2
:10000000B8070020E1010008CD6800088715000846
:10001000C9680008AD090008177E0008000000004C
:10002000000000000000000000000000F56D000866
:10003000550C000800000000C56C0008096F00089E
:10004000FB010008FB010008FB010008FB010008A0
:10005000FB010008FB010008FB010008FB01000890
:10006000FB010008FB010008FB010008FB01000880
:10007000FB010008FB010008FB010008FB01000870
:10008000FB010008FB010008FB010008FB01000860
:10009000FB010008FB010008FB010008FB01000850
:1000A000FB010008FB010008FB010008FB01000840
:1000B000FB010008FB010008FB010008FB01000830
:1000C000FB010008FB010008FB010008FB01000820
:1000D000FB010008F57B0008FB010008FB0100089C
:1000E000FB010008FB010008FB010008FB01000800
:1000F000FB010008FB010008FB010008FB010008F0
:10010000FB010008FB010008FB010008FB010008DF
:10011000FB010008FB010008FB010008FB010008CF
:10012000FB010008FB010008FB010008FB010008BF
:1001300000F002F800F045F80AA090E8000C8244B4
:100140008344AAF10107DA4501D100F03AF8AFF291
:10015000090EBAE80F0013F0010F18BFFB1A43F0A5
:1001600001031847E8AB000008AC0000103A24BFB8
:1001700078C878C1FAD8520724BF30C830C144BF0C
:1001800004680C607047000000230024002500264E
:10019000103A28BF78C1FBD8520728BF30C148BFEA
:1001A0000B607047642900F0A780782900F0E08098
:1001B000732900F0C381002070471FB51FBD10B523
:1001C00010BD00F0F5F91146FFF7F7FF07F0A4FEA8
:1001D00000F013FA03B4FFF7F2FF03BC07F01DFEB3
:1001E0000948804709480047FEE7FEE7FEE7FEE7CB
:1001F000FEE7FEE7FEE7FEE7FEE7FEE70448054907
:10020000054A064B704700000D6F000831010008D9
:10021000B8010020B8070020B8030020B803002070
:10022000704700000FB4044910B503AA029800F00B
:1002300089F910BC5DF814FB600000202DE9F04145
:100240000E460446002020622046E168884730B30D
:10025000252805D0D4E901219047206A401CF2E707
:10026000E168204600278847050018D0A5F1410025
:10027000192802D820354FF4006732462946204617
:100280002760FFF78FFF40B1012804D0F61D26F04C
:1002900007060836D8E7361DD6E72846DAE7206A8B
:1002A000BDE8F08170B50C460546012A05D02878D6
:1002B000800600D5EA69002302E0012305E05B1C0B
:1002C000934202D2E05C0028F9D1A869E618C01A6E
:1002D000A861286A184428622846AFF3008004E029
:1002E000D5E9012114F8010B9047B442F8D3284610
:1002F000AFF3008070BD00002DE9F04106460024F8
:1003000010687529314616A510D0AFF3008000287B
:1003100002DA404213A507E031688A0701D512A529
:1003200002E0490704D511A5012401E0AFF30080E4
:1003300000210A2206F1240709E0B0FBF2FCB0FB21
:10034000F2F302FB1C00303078541846491C002898
:10035000F3D123462A463046BDE8F04100F083B889
:10036000000000002D0000002B0000002000000015
:1003700070B504460D4621461068AFF30080218811
:10038000090502D50F4A7A4402E00E4A7A440E3239
:10039000002104F1240305E000F00F060009965D3A
:1003A0005E54491C0028F7D120780023000704D5AB
:1003B000702D02D009B1022311322046BDE87040F1
:1003C00000F051B81EA900004FF0013C50F8042B7A
:1003D00051F8043B9A4221D1A2EB0C03934313EA58
:1003E000CC1317D150F8042B51F8043B9A4215D185
:1003F000A2EB0C03934313EACC130BD150F8042B5C
:1004000051F8043B9A4209D1A2EB0C03934313EA3F
:10041000CC13DBD04FF00000704700BFD01A01BAF8
:10042000B1FA81F101F0180122FA01F0CB40C1F1DB
:100430002001DBB2C0B2C01A2CFA01F3D11A9143E9
:1004400011EAC311E6D17047704770477047704793
:1004500010B500F089F8006810BD10B5044600F032
:1004600083F8046010BD2DE9F0470D469946924689
:10047000044600F124080168880604D5E06921F0EB
:100480001001216000E00120A84201DD471B00E0CF
:100490000027A1697A1902EB0900081AA0612078E7
:1004A000C00602D42046AFF30080002608E0D4E95D
:1004B00001211AF806009047206A401C761C206231
:1004C0004E45F4DB2078C0060AD52046AFF3008005
:1004D00006E0D4E9012130209047206A401C2062C8
:1004E000381EA7F10107F4DC07E0D4E9012118F870
:1004F00005009047206A401C2062281EA5F10105D6
:10050000F3DC2046AFF300802078000602D50220FD
:10051000BDE8F0870120FBE710B5436913B1AFF3E5
:10052000008001E0FFF7BEFE012010BD127800F14F
:1005300024010A7000224A700122EDE711684FF091
:10054000FF32E9E7074B70B50D467B4400F015F824
:100550000446284600F024F810B14FF0FF3070BD7B
:10056000204670BDAF79000000487047540100205C
:1005700001694A1C02610878704700B58FB0CDE967
:1005800001310021059105497944CDE90310114657
:100590006846FFF753FE0FB000BD0000E5FFFFFF08
:1005A000007B00F080007047004870475401002035
:1005B0007546FFF7F9FFAE4605006946534620F041
:1005C0000700854618B020B5FFF718FEBDE82040AB
:1005D0004FF000064FF000074FF000084FF0000BFF
:1005E00021F00701AC46ACE8C009ACE8C009ACE8B2
:1005F000C009ACE8C0098D46704710B50446AFF39A
:1006000000802046BDE81040FFF7E4BD21B18268BC
:1006100042F00102826003E0826822F001028260FF
:100620007047000010B504461248844208D10121E9
:10063000401506F065FB0021601506F061FB17E030
:100640000D48844208D10121001506F059FB002114
:10065000201506F055FB0BE00848844208D1012123
:10066000C80306F04DFB00214FF4004006F048FBA4
:1006700010BD00000024014000280140003C014062
:10068000014600208A6802F004020AB1012000E05D
:10069000002070470146C86C80B2704702460020B7
:1006A00013680B400BB1012000E0002070470146A9
:1006B00000208A6802F008020AB1012000E0002050
:1006C0007047000030B502460020002350680F4CF0
:1006D00020400D790C6844EA05242043506090685E
:1006E0000B4C2040D1E902542C434D7944EA450497
:1006F00020439060D06A20F470000C7C641EE4B249
:10070000234340EA0350D06230BD0000FFFEF0FFFB
:10071000FDF7F1FFF0B504460D4600200021092D3C
:1007200011DDE068A5F10A0606EB4607072606FA82
:1007300007F18843A5F10A0606EB460603FA06F11F
:100740000843E0600CE0206905EB4507072606FA40
:1007500007F1884305EB450603FA06F108432061DB
:10076000072A0FDA606B561E06EB86071F2606FA6D
:1007700007F18843561E06EB860605FA06F1084384
:10078000606322E00D2A0FDA206BD61F06EB860786
:100790001F2606FA07F18843D61F06EB860605FAE0
:1007A00006F10843206310E0E06AA2F10D0606EBB3
:1007B00086071F2606FA07F18843A2F10D0606EB0D
:1007C000860605FA06F10843E062F0BD816841F053
:1007D00008018160704721B1826842F4A002826002
:1007E00003E0826822F4A00282607047816841F0D1
:1007F00004018160704710B500F0F0FE10BD2DE9D6
:10080000F04107460C460026002509E0360239195A
:10081000491B491E88B200F008F80644681CC5B29E
:10082000A542F3DB3046BDE8F08170B504460026F2
:1008300000F088FF2546E11704EB11610912A022A0
:1008400002EB4101C8B200F049FF00F0C7FFE11719
:1008500004EB11610912A4EB0121C8B200F03EFFC4
:1008600000F0BCFF00F06EFFA12000F037FF00F0A9
:10087000B5FF002000F0FAFE064600F089FF304682
:1008800070BD2DE9F04105460E461746002409E0EB
:10089000E20026FA02F2D1B22A1990B200F006F86C
:1008A000601CC4B2BC42F3DBBDE8F08170B5044605
:1008B0000E4600F047FF2546E11704EB11610912CF
:1008C000A02202EB4101C8B200F008FF00F086FF51
:1008D000E11704EB11610912A4EB0121C8B200F089
:1008E000FDFE00F07BFF304600F0F8FE00F076FFE2
:1008F00000F04EFF0A2007F0B5FA70BD00B587B0D2
:1009000001214FF4017006F0EBF94FF4004006F0BE
:10091000DBF90220ADF8040000208DF8070001A9E2
:10092000204800F034FB0420ADF8040000208DF8CE
:10093000070001A91B4800F02AFB1B48FFF772FEC5
:10094000002002908DF80C008DF80D004FF460200F
:1009500004900020059001208DF8180002A912488B
:10096000FFF7B0FE02208DF8180002A90E48FFF72D
:10097000A9FE01210C48FFF749FE0B48FFF726FFAF
:1009800000BF0948FFF793FE0028FAD10648FFF799
:100990002DFF00BF0448FFF773FE0028FAD107B00F
:1009A00000BD0000000801400024014000BFFEE738
:1009B00010B50A2007F07CFA10BD000010B5002029
:1009C0000E4908600E48006820F470400C49086029
:1009D0000846006840F44050086000200949C1F80A
:1009E0008C01FFF7E5FF012004490860FFF7E0FFF5
:1009F00000200449C1F8800110BD0000800122429E
:100A000000100140000022420F48806940F01000B1
:100A10000D4988610D4800684FF20F0188430B496A
:100A200008600846006843F203010843074908606C
:100A30000846C06840F00200C8600846C06840F040
:100A40000800C8607047000000100240001001401C
:100A500010B500200E4908600E48006820F4704070
:100A60000C4908600846006840F4405008600120C6
:100A70000949C1F88C01FFF79BFF01200449086078
:100A8000FFF796FF00200449C1F8800110BD000067
:100A900080012242001001400000224270B505464C
:100AA00000241548006820F4704013490860084687
:100AB000006840F400400860002613E000200F4961
:100AC00008601E2007F0F4F901200D49C1F88001EB
:100AD0006006040E09487438006808B1601CC4B28E
:100AE000701CC6B2082EE9DB15B9FFF7B1FF01E0B3
:100AF000FFF764FF204670BD0010014080012242D4
:100B00000000224270B504461248006820F470408C
:100B1000104908600846006840F440500860002012
:100B20000D490860002512E0E0090B490C3108600E
:100B30006006040E01200949C1F88001FFF738FF63
:100B4000002005490860FFF733FF681CC5B2082D77
:100B5000EADB70BD00100140800122420000224209
:100B600010B50E48006820F470400C490860084633
:100B7000006840F4405008600120094908600949B4
:100B8000C1F88001FFF714FF002005490860FFF756
:100B90000FFF00200349C1F8800110BD0010014083
:100BA0008C0122420000224210B50E48006820F459
:100BB00070400C4908600846006840F440500860E6
:100BC0000020094908600949C1F88C01FFF7F0FECF
:100BD000012005490860FFF7EBFE01200349C1F839
:100BE0008C0110BD00100140800122420000224211
:100BF00010B500241448006820F4704012490860C1
:100C00000846006840F40040086001200F49086071
:100C100007F04EF901200E49C1F8800107F048F9AC
:100C200007E0601CC4B2FA2C03DDFFF7BDFF012012
:100C300010BD0648803800680028F2D103490C39FD
:100C4000086000BFF4E70000001001408C01224260
:100C500000002242704700001CB50121102006F060
:100C60003FF84FF40050ADF8000010208DF803005D
:100C700003208DF8020069462D4800F088F94FF4F2
:100C800000512B4800F058FA0220ADF8000048202F
:100C90008DF803006946264800F079F902212448BE
:100CA00000F04AFAFFF7B0FE002022490860142045
:100CB00007F0D8F801202049C1F8B401322007F02C
:100CC000D1F800208DF80400012201A900F036F9C6
:100CD000012201A9A42000F031F916208DF80400AA
:100CE000012201A9802000F029F90C208DF80400D0
:100CF000012201A9882000F021F9022201A9A120E6
:100D000000F022F89DF8040030280ED19DF805006F
:100D100003280AD19DF805009DF8042000EB02216C
:100D200006A0FFF77FFA00201CBD0120FCE70000B1
:100D300000100140B40122420000224243545020DE
:100D400049443A25780D0A002DE9F04106460F4640
:100D50001546FFF705FF7020FFF7D4FEFFF748FFA9
:100D6000F0B2FFF7CFFEFFF743FFFFF7F9FE712068
:100D7000FFF7C8FEFFF73CFF00240BE0691EA1420D
:100D800001D0012100E000210846FFF787FE385519
:100D9000601CC4B2AC42F1DBFFF706FFBDE8F08196
:100DA00071B581B00024002661480078401C60497C
:100DB0000870084600780A2190FBF1F201FB12004E
:100DC00018B15B4800780A2867DA012201A90220DD
:100DD000FFF7BAFF9DF8040000F00F0000287ED056
:100DE0009DF8040000F00F00062878DA9DF8040052
:100DF00000F00F01FF208840C5B2E843C0B240F0C8
:100E0000C0004C4981F8200000245AE0494890F87D
:100E100020000121A1400840F0B3474931F81400F7
:100E200004226946FFF790FF424890F8300000F036
:100E30000100C0B19DF801009DF8001001F00F0104
:100E400000EB01203B49163121F814009DF8030006
:100E50009DF8021001F00F0100EB012135480C3024
:100E600020F814101DE09DF801009DF8001001F01D
:100E70000F0100EB0120C0F5F07081B22D480C305D
:100E800020F814109DF803009DF8021001F00F01E6
:100E900000EB0121274801E011E020E0163020F8A6
:100EA00014109DF8000000F0F000802807D0002109
:100EB0002048163020F814100A3820F81410601C4E
:100EC000C4B2052CA2DB01261A48808920B9194832
:100ED000C08A08B9002001900020154908709DF8CB
:100EE000040000F01F00D0B9124890F8200000F074
:100EF000800040B10F4890F8200020F080000D499C
:100F000081F820000BE04FF6FF700A498881C88203
:100F1000084690F8200000F0E00081F82000044826
:100F20000078F02802DD0A200149087030467CBDB7
:100F3000590000201C0000209EAC00082DE9F04163
:100F400005460E4617464FF00008FFF709FE7020D1
:100F5000FFF7D8FDFFF74CFEE8B2FFF7D3FDFFF730
:100F600047FE00240BE0305DFFF7CCFDFFF740FEAD
:100F70008046B8F1000F00D003E0601CC4B2BC4250
:100F8000F1DB00BFFFF710FE4046BDE8F0812DE920
:100F9000F0410246002500260020002300240027FF
:100FA00091F803C00CF00F0591F803C00CF0100C81
:100FB000BCF1000F03D091F802C04CEA050591F88E
:100FC00000C0BCF1000F31D0146800202BE04FF0BE
:100FD000010C0CFA00F3B1F800C00CEA03069E42C3
:100FE00020D183004FF00F0C0CFA03F7BC4305FA35
:100FF00003FC4CEA040491F803C0BCF1280F06D1AD
:101000004FF0010C0CFA00FCC2F814C00AE091F891
:1010100003C0BCF1480F05D14FF0010C0CFA00FCE5
:10102000C2F810C0401C0828D1D31460B1F800C029
:10103000BCF1FF0F34DD546800202EE000F1080CF5
:101040004FF0010808FA0CF3B1F800C00CEA0306EF
:101050009E4221D183004FF00F0C0CFA03F7BC43E2
:1010600005FA03FC4CEA040491F803C0BCF1280F14
:1010700005D100F1080C08FA0CF8C2F8148091F8B8
:1010800003C0BCF1480F07D100F1080C4FF0010874
:1010900008FA0CF8C2F81080401C0828CED354601F
:1010A000BDE8F081F0B50A460023002400210025A8
:1010B00000F00046B6F1004F02D11D4EF16901E08B
:1010C0001B4E7168C0F3034583B200F44016B6F5B9
:1010D000401F08D121F07061154E766826F07066C9
:1010E000134F7E6012E000F48016B6F5801F06D123
:1010F000032606FA05F4A14341F0706106E0460DAF
:10110000360103FA06F6B14341F0706122B1460D93
:10111000360103FA06F6314300F00046B6F1004FFF
:1011200002D1034EF16101E0014E7160F0BD00009B
:101130000000014041617047016170470EB5012117
:10114000102005F0CDFD42F20200ADF800001020A5
:101150008DF8030003208DF8020069463448FFF73C
:1011600016FF02213248FFF7E7FF4FF400513048E5
:10117000FFF7E2FFFFF748FC00202E4908600A2035
:1011800006F070FE01202C49C1F8B4010A2006F0D7
:1011900069FE0220ADF8000028208DF803006946A2
:1011A0002348FFF7F4FE02212148FFF7C3FF642024
:1011B00006F058FE042201A948F2401000F052F84F
:1011C00000208DF8080001A91CA0FFF72BF81EA134
:1011D00001A8FFF7F9F840BB02208DF804000122B6
:1011E00001A948F2400000F06FF9012201A948F27C
:1011F000470000F037F89DF80400602807DA9DF8F2
:10120000041013A0FFF70EF8012000F02FF90A20B8
:1012100006F028FE00208DF80400012201A948F202
:10122000400000F051F900200EBD0120FCE7000055
:1012300000100140B40122420000224243545020D9
:1012400049443A25730D0A00393134370000000053
:1012500044656661756C74205665723A25640D0AA2
:10126000000000002DE9F04105460F461646FFF745
:1012700077FC2820FFF746FCFFF7BAFC2812FFF79F
:1012800041FCFFF7B5FCE8B2FFF73CFCFFF7B0FC10
:10129000FFF766FC2920FFF735FCFFF7A9FC0024C7
:1012A0000BE0711EA14201D0012100E0002108469F
:1012B000FFF7F4FB3855601CC4B2B442F1DBFFF712
:1012C00073FCBDE8F081000031B582B00024002538
:1012D00063480078401C62490870084600780A217B
:1012E00090FBF1F201FB120018B15D4800780A286A
:1012F0007DDA012202A948F24E10FFF7B3FF9DF8F4
:10130000080000F00F0000286BD09DF8080000F0E6
:101310000F00062865DA9DF8080000F00F01FF2095
:101320008840C0B200909DF80000C043C0B240F0B9
:10133000C0004C4981F82000002444E0494890F85E
:1013400020000121A140084020B3474931F8140092
:10135000042201A9FFF786FF424890F8300000F010
:101360000100C0B19DF804009DF8051000EB0120BC
:1013700081B23C48163020F814109DF806009DF804
:10138000071000EB0120C0F5487081B235480C30E1
:1013900020F8141015E09DF804009DF8051000EBEE
:1013A000012081B22F480C3020F814109DF806005F
:1013B0009DF8071000EB012081B22A48163020F872
:1013C0001410601CC4B2052CB8DB012525488089A7
:1013D00020B92448C08A08B9002002900020204982
:1013E00008709DF8080000F0800000B100E00DE0FA
:1013F0009DF8080000F00F00062807DA0020009092
:101400000122694648F24E1000F05EF89DF808008F
:1014100000F08F0080281AD1124890F8200000F0C8
:10142000800040B10F4890F8200020F080000D4966
:1014300081F820000BE04FF6FF700A498881C882CE
:10144000084690F8200000F0E00081F820000448F1
:101450000078F02802DD0A200149087028463EBDC8
:10146000580000201C00002094AC000838B5054648
:10147000002400208DF800008DF8015000BF09E025
:101480009DF800000F49095D0844C0B28DF80000C6
:10149000601CC4B2B82CF3D39DF80000C043401CBC
:1014A000C0B28DF80000B822064948F2470000F0AB
:1014B0000BF80222694648F2FF0000F005F8002010
:1014C00038BD0000DCAB00082DE9F04104460E46B3
:1014D00017464FF00008FFF743FB2820FFF712FBE9
:1014E000FFF786FB2012FFF70DFBFFF781FBE0B251
:1014F000FFF708FBFFF77CFB00250BE0705DFFF7B3
:1015000001FBFFF775FB8046B8F1000F00D003E048
:10151000681CC5B2BD42F1DB00BFFFF745FB40468A
:10152000BDE8F08110B50446072301222146094891
:10153000FFF7F0F801210748FFF74DF900BF02213E
:101540000448FFF7ABF80028F9D00248FFF7A2F8EB
:1015500010BD0000002401402DE9F04107460C4673
:101560000025002608E03846FFF7DCFF054405208B
:1015700006F078FC701CC6B2A642F4DBB5FBF4F0B2
:1015800080B2BDE8F08100BFFEE7000010B500208A
:101590000F4908600F48406820F470400D494860CA
:1015A0000846406840F44050486000200A49C1F8AD
:1015B000AC01022006F07CFC0120054908600220F5
:1015C00006F076FC00200449C1F8B00110BD00000F
:1015D000B0012242001001400000224208B5012162
:1015E000102005F07DFB4FF4C050ADF80000102036
:1015F0008DF8030003208DF8020069460448FFF7C8
:10160000C6FC0120034908600349C1F8AC0108BDCC
:1016100000100140B00122420000224210B500201B
:101620000F4908600F48406820F470400D49486039
:101630000846406840F44050486001200A49C1F81B
:10164000AC01022006F034FC0120054908600220AC
:1016500006F02EFC00200449C1F8B00110BD0000C6
:10166000B0012242001001400000224270B5054640
:1016700000241748406820F4704015494860084627
:10168000406840F400404860002616E00020114900
:101690000860022006F00CFC01200F49C1F8B001DF
:1016A0006006040E0B488438006808B1601CC4B2A0
:1016B000012006F0FDFB701CC6B2082EE6DB15B952
:1016C000FFF7ACFF01E0FFF761FF204670BD0000AF
:1016D00000100140B00122420000224270B50446D1
:1016E0001548406820F47040134948600846406837
:1016F00040F440504860002010490860002517E081
:10170000E0090E49091F08606006040E022006F079
:10171000CFFB01200A49C1F8B001022006F0C8FB46
:10172000002006490860022006F0C2FB681CC5B212
:10173000082DE5DB70BD000000100140B001224221
:101740000000224210B50F48406820F470400D4957
:1017500048600846406840F44050486001200A490B
:1017600008600A49C1F8B001042006F0A1FB00207E
:1017700005490860042006F09BFB00200349C1F8DE
:10178000B00110BD00100140AC0122420000224215
:1017900010B50F48406820F470400D494860084675
:1017A000406840F44050486000200A4908600A49F7
:1017B000C1F8AC01042006F07BFB0120054908605C
:1017C0000549C1F8AC01042006F072FB10BD000011
:1017D00000100140B00122420000224210B5002456
:1017E0001448406820F47040124948600846406838
:1017F00040F40040486001200F49086006F058FBA3
:1018000001200E49C1F8B00106F052FB07E0601C50
:10181000C4B2FA2C03DDFFF7BBFF012010BD064860
:10182000803800680028F2D10349091D086000BF14
:10183000F4E7000000100140AC0122420000224207
:1018400008B50121342005F04BFA01211648FFF7B5
:1018500029FC0120ADF8000028208DF8030069461E
:101860001248FFF794FB4FF41040ADF800004820F9
:101870008DF8030069460D48FFF789FB3020ADF86D
:10188000000048208DF8030069460948FFF77FFBF8
:101890000420ADF8000048208DF803006946054893
:1018A000FFF775FB08BD0000000230000008014092
:1018B000001001400014014070B5044600261D4888
:1018C0000588408845431B48808846F604018842C5
:1018D00016D118488079012812D100201549887145
:1018E0002A2048812B2088810021084604F03EFCF4
:1018F0000120104988712B2048812A20888103E02B
:101900000021084604F032FC04F0A2FF00260DE09E
:101910004FF480700849086140004861074804603E
:1019200080204861086180000861761CAE42EFD3D8
:1019300070BD00007C000020001001400C0C014034
:1019400010B50446002C66D16C498871F0200880DF
:101950004FF4A07048800846808849F2413188429F
:101960000BD06648808846F60401884205D063485B
:10197000808845F2103188421AD12C205F490881B5
:101980002A2048812B2088810846808846F6040159
:10199000884205D05948808845F21031884206D1E6
:1019A0004FF4A070554908804FF4F0704880A1E0D2
:1019B0005248808845F21051884210D14FF430507F
:1019C0004E4908814FF4285048814FF42C508881AB
:1019D0004FF4F07008804FF4487048808AE0474820
:1019E000808841F6631188420DD12C20434908813B
:1019F0002B2048812A2088814FF4F07008804FF412
:101A00004870488076E022203C49088120204881A7
:101A1000212088816EE00120384988714FF4A07040
:101A20000880F02048800846808849F24131884289
:101A300005D03248808845F21031884207D12C20E9
:101A40002E4908812A2048812B2088813FE02B489D
:101A5000808846F60401884207D12C202749088156
:101A60002B2048812A20888131E02448808845F253
:101A70001051884210D14FF43050204908814FF462
:101A8000285048814FF42C5088814FF448700880CA
:101A90004FF4F07048801AE01848808841F66311CE
:101AA00088420DD12C20154908812A2048812B20FD
:101AB00088814FF4487008804FF4F070488006E049
:101AC00022200E49088121204881202088810B484E
:101AD000808846F60401884205D00848808845F28F
:101AE0001031884206D14FF4F070044908804FF459
:101AF000A0704880002004F00DF910BD7C0000208B
:101B00002DE9FF4F84B081468A4600200390029061
:101B10000698A0EB09050798A0EB0A06CDF80490FB
:101B2000CDF800A0002D01DD012705E00DB900274B
:101B300002E04FF0FF376D42002E02DD4FF001084A
:101B400006E016B94FF0000802E04FF0FF38764289
:101B5000B54201DD2C4600E034464FF0000B21E099
:101B6000009A91B2019A90B200F022F803982844AA
:101B700003900298304402900398A04205DD039838
:101B8000001B03900198384401900298A04205DDA3
:101B90000298001B02900098404400900BF1010055
:101BA0001FFA80FB601C8345DADD08B0BDE8F08FCA
:101BB00030B504460D462946204604F0D7FA04F015
:101BC00047FE4FF4807007490861400048610648AD
:101BD0000088064908608020024948610861800049
:101BE000086130BD00100140140000200C0C0140C1
:101BF0002DE9F04306460F46904600244546032053
:101C0000A0EB48093CE07A1B91B2321990B2FFF781
:101C1000CFFF3A1B91B2721990B2FFF7C9FF3A1980
:101C200091B2721990B2FFF7C3FF7A1991B23219CB
:101C300090B2FFF7BDFF7A1991B2321B90B2FFF755
:101C4000B7FF3A1991B2721B90B2FFF7B1FF7A1B3E
:101C500091B2321B90B2FFF7ABFF3A1B91B2721BED
:101C600090B2FFF7A5FF641CB9F1000F03DAA000E2
:101C7000801D814404E0601B80000A3081446D1E99
:101C8000AC42C0DDBDE8F08370B504460D46164693
:101C9000D348808849F24131884205D0D0488088B5
:101CA00045F21031884240D1CD49488904F0BEFD4B
:101CB0004FF48070CB490861400048612012CA4946
:101CC00008608020C74948610861800008614010B1
:101CD000086140004861E0B2C34908608020C14902
:101CE0004861086180000861BD49888904F09EFD53
:101CF0004FF48070BB490861400048612812BA491E
:101D000008608020B7494861086180000861401080
:101D1000086140004861E8B2B34908608020B149D9
:101D200048610861800008613DE1AD48808845F266
:101D30001051884250D1AA49488904F077FD4FF4E8
:101D40008070A8490861400048612012A6490860D7
:101D50008020A4494861086180000861A049498940
:101D6000491C88B204F062FD4FF480709D490861FF
:101D700040004861E0B29C49086080209949486170
:101D80000861800008619649888904F04FFD4FF48E
:101D900080709449086140004861281292490860A7
:101DA0008020904948610861800008618C498989D8
:101DB000491C88B204F03AFD4FF4807089490861EB
:101DC00040004861E8B28849086080208549486140
:101DD000086180000861E6E08148808841F663116F
:101DE00088427DD17E48807920B97D480088401E98
:101DF000001B84B27A49488904F018FD4FF48070C2
:101E000078490861400048612012774908608020C5
:101E10007449486108618000086140100861400011
:101E20004861E0B27049086080206E4948610861ED
:101E300080000861401008614000486120126A4932
:101E4000086080206749486108618000086140108F
:101E5000086140004861E0B2634908608020614940
:101E600048610861800008615D49888904F0DEFCF2
:101E70004FF480705B4908614000486128125A495C
:101E8000086080205749486108618000086140105F
:101E9000086140004861E8B2534908608020514918
:101EA0004861086180000861401008614000486195
:101EB00028124D49086080204A4948610861800025
:101EC00008614010086140004861E8B24649086076
:101ED00080204449486108618000086163E0FFE7B1
:101EE0003F48808846F60401884249D13C488079C1
:101EF000012804D13A480088401E001B84B23849AA
:101F0000488904F093FC4FF4807036490861400022
:101F100048612012344908608020324948610861D4
:101F2000800008614010086140004861E0B22E491D
:101F3000086080202B4948610861800008612849B9
:101F4000888904F073FC4FF48070264908614000D2
:101F500048612812244908608020224948610861AC
:101F6000800008614010086140004861E8B21E49E5
:101F7000086080201B49486108618000086112E008
:101F800017488079012804D115480088401E001B9D
:101F900084B213494889214604F062FC10498889BB
:101FA000294604F05DFC4FF480700E494861400002
:101FB00048610B4800890C49086080200949486144
:101FC00008618000086140100861400048610648CF
:101FD00006608020486108618000086170BD0000D3
:101FE0007C000020001001400C0C014008B50121CC
:101FF000192004F075FE0121FE48FFF753F84FF455
:10200000F860ADF8000010208DF8030003208DF873
:1020100002006946F848FEF7BAFF4FF4F861F64847
:10202000FFF78AF84FF6FF70ADF800006946F348F5
:10203000FEF7ADFF4FF6FF71F048FFF77DF8322055
:1020400005F010FF0121002004F00AFC322005F009
:1020500009FF002003F0ECFDE949888008468088EC
:10206000FF280ADB084680884FF6FF71884204D0BB
:10207000E3488088B0F5134F7ED1D32004F0D6FB1F
:1020800003F09EFD03F09CFD03F09AFDDC4988807F
:10209000084680884FF6FF7101EA0020D849888001
:1020A00003F08EFDD64989880843D54988800846C3
:1020B000808849F2413188425ED0BF2004F0B6FBEF
:1020C00003F07EFD03F07CFD03F07AFD03F078FD64
:1020D000CB498880084680884FF6FF7101EA0020CE
:1020E000C749888003F06CFDC54989880843C44905
:1020F00088800846808846F60401884274D0D4203F
:1021000004F094FB03F05CFD03F05AFD03F058FD6E
:10211000BB498880084680884FF6FF7101EA00209D
:10212000B749888003F04CFDB54989880843B44914
:1021300088800846808845F21031884254D04FF498
:102140005A4004F073FB03F03BFD4FF45B4004F096
:102150006DFB03F035FDAA498880084680884FF65C
:10216000FF7101EA0020A64988804FF45C4004F02A
:102170005DFB03F025FD00E036E0A14989880843B6
:102180009F49888008468088B0F5004F02D145F20B
:10219000105088809A48808845F21051884223D098
:1021A000A12004F043FB03F00BFD9549888003F068
:1021B00007FD93498880084680884FF6FF7101EA41
:1021C00000208F49888003F0FBFC8D4989880843F3
:1021D0008B4988800846808845F26171884203D126
:1021E00041F66310864988808548818885A0FEF77E
:1021F00019F88348808849F2413188427ED1CF2046
:1022000004F014FB002004F0FFFAC12004F0FCFAF3
:10221000302004F0F9FAED2004F008FB642004F00B
:10222000F3FA032004F0F0FA122004F0EDFA812012
:1022300004F0EAFAE82004F0F9FA852004F0E4FA60
:10224000102004F0E1FA7A2004F0DEFACB2004F04A
:10225000EDFA392004F0D8FA2C2004F0D5FA002049
:1022600004F0D2FA342004F0CFFA022004F0CCFAC1
:10227000F72004F0DBFA202004F0C6FAEA2004F08C
:10228000D5FA002004F0C0FA002004F0BDFAC02006
:1022900004F0CCFA1B2004F0B7FAC12004F0C6FA0F
:1022A000012004F0B1FAC52004F0C0FA302004F097
:1022B000ABFA302004F0A8FAC72004F0B7FAB72030
:1022C00004F0A2FA362004F0B1FA482004F09CFA97
:1022D0003A2004F0ABFA552004F096FAB12004F04D
:1022E000A5FA002004F090FA1A2004F08DFAB62026
:1022F00004F09CFA0A2004F087FA00E0A9E0A2208A
:1023000004F082FAF22004F091FA002004F07CFA42
:10231000262004F08BFA012004F076FAE02004F085
:1023200085FA0F2004F070FA2A2004F06DFA2820B4
:1023300004F06AFA082004F067FA0E2004F064FA48
:10234000082004F061FA542004F05EFAA92004F099
:102350005BFA432004F058FA0A2004F055FA0F20E3
:1023600004F052FA002004F04FFA002004F04CFA76
:10237000002004F049FA002004F046FAE12004F0BD
:1023800055FA002004F040FA152004F03DFA172019
:1023900004F03AFA072004F037FA112004F034FA76
:1023A000062004F031FA2B2004F02EFA562004F017
:1023B0002BFA3C2004F028FA052004F025FA10201E
:1023C00004F022FA0F2004F01FFA3F2004F01CFA58
:1023D0003F2004F019FA0F2004F016FA2B2004F025
:1023E00025FA002004F010FA002004F00DFA012074
:1023F00010E000000002300000100140000C01401D
:102400007C000020204C43442049443A25780D0AA2
:102410000000000004F0F8F93F2004F0F5F92A204C
:1024200004F004FA002004F0EFF9002004F0ECF9C5
:10243000002004F0E9F9EF2004F0E6F9112004F09F
:10244000F5F9782005F00EFD292004F0EFF903F0EE
:102450009ABBFE48808846F6040188427ED111204E
:1024600004F0E4F9142005F0FDFCD02004F0DEF9BE
:10247000072004F0C9F9422004F0C6F91D2004F039
:10248000C3F9D12004F0D2F9002004F0BDF91A20DC
:1024900004F0BAF9092004F0B7F9D22004F0C6F923
:1024A000012004F0B1F9222004F0AEF9C02004F0BC
:1024B000BDF9102004F0A8F93B2004F0A5F9002094
:1024C00004F0A2F9022004F09FF9112004F09CF915
:1024D000C52004F0ABF9032004F096F9C82004F0FD
:1024E000A5F9002004F090F9252004F08DF92120B1
:1024F00004F08AF9052004F087F9002004F084F93B
:102500000A2004F081F9652004F07EF9252004F00A
:102510007BF9772004F078F9502004F075F90F204A
:1025200004F072F9002004F06FF9F82004F07EF94D
:10253000012004F069F9FE2004F078F9002004F08D
:1025400063F9022004F060F9202004F06FF93620CE
:1025500004F06CF9082004F057F900E02AE03A2072
:1025600004F064F9552004F04FF92B2004F05EF9D3
:10257000002004F049F9002004F046F9012004F09D
:1025800043F93F2004F040F92A2004F04FF90020DD
:1025900004F03AF9002004F037F9012004F034F98E
:1025A000DF2004F031F9782005F05CFC292004F0EC
:1025B0003DF94CE7A548808845F21031884240F04B
:1025C0007C87ED2004F032F9012004F01DF9FE2093
:1025D00004F01AF9EE2004F029F9DE2004F014F9D1
:1025E000212004F011F9F12004F020F9012004F079
:1025F0000BF9DF2004F01AF9102004F005F9C420CB
:1026000004F014F98F2004F0FFF8C62004F00EF94E
:10261000002004F0F9F8E22004F0F6F8E22004F0DB
:10262000F3F8E22004F0F0F8BF2004F0FFF8AA204D
:1026300004F0EAF8B02004F0F9F80D2004F0E4F812
:10264000002004F0E1F80D2004F0DEF8002004F092
:10265000DBF8112004F0D8F8002004F0D5F8192098
:1026600004F0D2F8002004F0CFF8212004F0CCF8D8
:10267000002004F0C9F82D2004F0C6F8002004F072
:10268000C3F83D2004F0C0F8002004F0BDF85D2040
:1026900004F0BAF8002004F0B7F85D2004F0B4F8B4
:1026A000002004F0B1F8B12004F0C0F8802004F05C
:1026B000ABF8002004F0A8F88B2004F0A5F8002067
:1026C00004F0A2F8962004F09FF8002004F09CF893
:1026D000B22004F0ABF8002004F096F8002004F0DB
:1026E00093F8022004F090F8002004F08DF8032005
:1026F00004F08AF8002004F087F8B32004F096F87C
:10270000002004F081F8002004F07EF8002004F09E
:102710007BF8002004F078F8002004F075F8002021
:1027200004F072F8002004F06FF8002004F06CF858
:10273000002004F069F8002004F066F8002004F09E
:1027400063F8002004F060F8002004F05DF8002039
:1027500004F05AF8002004F057F8002004F054F870
:10276000002004F051F8002004F04EF8002004F09E
:102770004BF8002004F048F8002004F045F8002051
:1027800004F042F8002004F03FF8002004F03CF888
:10279000B42004F04BF88B2004F036F8002004F04D
:1027A00033F8962004F030F8002004F02DF8A12032
:1027B00004F02AF8002004F027F8B52004F036F8D9
:1027C000022004F021F8002004F01EF8032004F099
:1027D0001BF8002004F018F8042004F015F800207D
:1027E00004F012F8B62004F021F8002004F00CF8F0
:1027F000002004F009F8B72004F018F8002004F0D5
:1028000003F8002004F000F83F2003F0FDFF002053
:1028100003F0FAFF5E2003F0F7FF002003F0F4FF5F
:10282000642003F0F1FF002003F0EEFF8C2003F0A2
:10283000EBFF002003F0E8FFAC2003F0E5FF0020F1
:1028400003F0E2FFDC2003F0DFFF01E07C0000206A
:10285000002003F0D9FF702003F0D6FF002003F022
:10286000D3FF902003F0D0FF002003F0CDFFEB203A
:1028700003F0CAFF002003F0C7FFDC2003F0C4FF11
:10288000002003F0C1FFB82003F0D0FF002003F0C8
:10289000BBFF002003F0B8FF002003F0B5FF0020CD
:1028A00003F0B2FF002003F0AFFF002003F0ACFF05
:1028B000002003F0A9FF002003F0A6FFBA2003F0D8
:1028C000B5FF242003F0A0FF002003F09DFF0020AF
:1028D00003F09AFF002003F097FFC12003F0A6FF4A
:1028E000202003F091FF002003F08EFF542003F01E
:1028F0008BFF002003F088FFFF2003F085FF0020FE
:1029000003F082FFC22003F091FF0A2003F07CFF56
:10291000002003F079FF042003F076FF002003F08D
:1029200073FFC32003F082FF3C2003F06DFF002003
:1029300003F06AFF3A2003F067FF002003F064FF12
:10294000392003F061FF002003F05EFF372003F021
:102950005BFF002003F058FF3C2003F055FF0020F0
:1029600003F052FF362003F04FFF002003F04CFF2E
:10297000322003F049FF002003F046FF2F2003F030
:1029800043FF002003F040FF2C2003F03DFF002018
:1029900003F03AFF292003F037FF002003F034FF53
:1029A000262003F031FF002003F02EFF242003F047
:1029B0002BFF002003F028FF242003F025FF002038
:1029C00003F022FF232003F01FFF002003F01CFF71
:1029D0003C2003F019FF002003F016FF362003F01F
:1029E00013FF002003F010FF322003F00DFF002042
:1029F00003F00AFF2F2003F007FF002003F004FF7D
:102A00002C2003F001FF002003F0FEFE292003F03C
:102A1000FBFE002003F0F8FE262003F0F5FE002068
:102A200003F0F2FE242003F0EFFE002003F0ECFEA2
:102A3000242003F0E9FE002003F0E6FE232003F04B
:102A4000E3FE002003F0E0FEC42003F0EFFE62206E
:102A500003F0DAFE002003F0D7FE052003F0D4FED9
:102A6000002003F0D1FE842003F0CEFE002003F00E
:102A7000CBFEF02003F0C8FE002003F0C5FE1820B6
:102A800003F0C2FE002003F0BFFEA42003F0BCFE52
:102A9000002003F0B9FE182003F0B6FE002003F07A
:102AA000B3FE502003F0B0FE002003F0ADFE0C207A
:102AB00003F0AAFE002003F0A7FE172003F0A4FEF7
:102AC000002003F0A1FE952003F09EFE002003F0FD
:102AD0009BFEF32003F098FE002003F095FEE62015
:102AE00003F092FE002003F08FFEC52003F09EFE4F
:102AF000322003F089FE002003F086FE442003F01C
:102B000083FE002003F080FE652003F07DFE0020A0
:102B100003F07AFE762003F077FE002003F074FEC7
:102B2000882003F071FE002003F06EFEC62003F043
:102B30007DFE202003F068FE002003F065FE1720D4
:102B400003F062FE002003F05FFE012003F05CFE54
:102B5000002003F059FEC72003F068FE002003F0B8
:102B600053FE002003F050FE002003F04DFE002035
:102B700003F04AFEC82003F059FE002003F044FE93
:102B8000002003F041FE002003F03EFE002003F091
:102B90003BFEC92003F04AFE002003F035FE002072
:102BA00003F032FE002003F02FFE002003F02CFE85
:102BB000002003F029FE002003F026FE002003F091
:102BC00023FE002003F020FE002003F01DFE002065
:102BD00003F01AFE002003F017FE002003F014FE9D
:102BE000002003F011FE002003F00EFE002003F091
:102BF0000BFE002003F008FEE02003F017FE162075
:102C000003F002FE002003F0FFFD1C2003F0FCFD9A
:102C1000002003F0F9FD212003F0F6FD002003F071
:102C2000F3FD362003F0F0FD002003F0EDFD46201B
:102C300003F0EAFD002003F0E7FD522003F0E4FD7D
:102C4000002003F0E1FD642003F0DEFD002003F02E
:102C5000DBFD7A2003F0D8FD002003F0D5FD8B20AA
:102C600003F0D2FD002003F0CFFD992003F0CCFD4E
:102C7000002003F0C9FDA82003F0C6FD002003F0EA
:102C8000C3FDB92003F0C0FD002003F0BDFDC4204A
:102C900003F0BAFD002003F0B7FDCA2003F0B4FD35
:102CA000002003F0B1FDD22003F0AEFD002003F0C0
:102CB000ABFDD92003F0A8FD002003F0A5FDE02026
:102CC00003F0A2FD002003F09FFDF32003F09CFD24
:102CD000002003F099FDE12003F0A8FD162003F089
:102CE00093FD002003F090FD1C2003F08DFD0020DB
:102CF00003F08AFD222003F087FD002003F084FD0D
:102D0000362003F081FD002003F07EFD452003F016
:102D10007BFD002003F078FD522003F075FD0020BC
:102D200003F072FD642003F06FFD002003F06CFDE2
:102D30007A2003F069FD002003F066FD8B2003F08C
:102D400063FD002003F060FD992003F05DFD00208D
:102D500003F05AFDA82003F057FD002003F054FDB6
:102D6000B92003F051FD002003F04EFDC42003F014
:102D70004BFD002003F048FDCA2003F045FD002074
:102D800003F042FDD22003F03FFD002003F03CFDA4
:102D9000D82003F039FD002003F036FDE02003F0D9
:102DA00033FD002003F030FDF32003F02DFD002063
:102DB00003F02AFDE22003F039FD052003F024FD95
:102DC000002003F021FD0B2003F01EFD002003F086
:102DD0001BFD1B2003F018FD002003F015FD34201F
:102DE00003F012FD002003F00FFD442003F00CFD62
:102DF000002003F009FD4F2003F006FD002003F042
:102E000003FD612003F000FD002003F0FDFC7920AC
:102E100003F0FAFC002003F0F7FC882003F0F4FC38
:102E2000002003F0F1FC972003F0EEFC002003F0FB
:102E3000EBFCA62003F0E8FC002003F0E5FCB72043
:102E400003F0E2FC002003F0DFFCC22003F0DCFC16
:102E5000002003F0D9FCC72003F0D6FC002003F0CB
:102E6000D3FCD12003F0D0FC002003F0CDFCD62011
:102E700003F0CAFC002003F0C7FCDD2003F0C4FC13
:102E8000002003F0C1FCF32003F0BEFC002003F09F
:102E9000BBFCE32003F0CAFC052003F0B5FC0020D6
:102EA00003F0B2FC0A2003F0AFFC002003F0ACFCFE
:102EB0001C2003F0A9FC002003F0A6FC332003F043
:102EC000A3FC002003F0A0FC442003F09DFC0020A4
:102ED00003F09AFC502003F097FC002003F094FCD0
:102EE000622003F091FC002003F08EFC782003F0B8
:102EF0008BFC002003F088FC882003F085FC002078
:102F000003F082FC972003F07FFC002003F07CFCA0
:102F1000A62003F079FC002003F076FCB72003F034
:102F200073FC002003F070FCC22003F06DFC002055
:102F300003F06AFCC72003F067FC002003F064FC88
:102F4000D12003F061FC002003F05EFCD52003F0EB
:102F50005BFC002003F058FCDD2003F055FC002052
:102F600003F052FCF32003F04FFC002003F04CFC74
:102F7000E42003F05BFC012003F046FC002003F09A
:102F800043FC012003F040FC002003F03DFC022044
:102F900003F03AFC002003F037FC2A2003F034FC55
:102FA000002003F031FC3C2003F02EFC002003F055
:102FB0002BFC4B2003F028FC002003F025FC5D20B7
:102FC00003F022FC002003F01FFC742003F01CFC23
:102FD000002003F019FC842003F016FC002003F00D
:102FE00013FC932003F010FC002003F00DFCA22042
:102FF00003F00AFC002003F007FCB32003F004FCFC
:10300000002003F001FCBE2003F0FEFB002003F0D3
:10301000FBFBC42003F0F8FB002003F0F5FBCD2000
:1030200003F0F2FB002003F0EFFBD32003F0ECFBF6
:10303000002003F0E9FBDD2003F0E6FB002003F0B5
:10304000E3FBF32003F0E0FB002003F0DDFBE520D1
:1030500003F0ECFB002003F0D7FB002003F0D4FBCF
:10306000002003F0D1FB002003F0CEFB022003F090
:10307000CBFB002003F0C8FB292003F0C5FB002098
:1030800003F0C2FB3C2003F0BFFB002003F0BCFBBD
:103090004B2003F0B9FB002003F0B6FB5D2003F0EA
:1030A000B3FB002003F0B0FB742003F0ADFB002065
:1030B00003F0AAFB842003F0A7FB002003F0A4FB8D
:1030C000932003F0A1FB002003F09EFBA22003F05D
:1030D0009BFB002003F098FBB32003F095FB00203E
:1030E00003F092FBBE2003F08FFB002003F08CFB6B
:1030F000C42003F089FB002003F086FBCD2003F001
:1031000083FB002003F080FBD32003F07DFB002035
:1031100003F07AFBDC2003F077FB002003F074FB64
:10312000F32003F071FB002003F06EFBE62003F0B8
:103130007DFB112003F068FB002003F065FB3420C9
:1031400003F062FB002003F05FFB562003F05CFB02
:10315000002003F059FB762003F056FB002003F01B
:1031600053FB772003F050FB002003F04DFB66205B
:1031700003F04AFB002003F047FB882003F044FBE8
:10318000002003F041FB992003F03EFB002003F0F8
:103190003BFBBB2003F038FB002003F035FB9920FC
:1031A00003F032FB002003F02FFB662003F02CFB22
:1031B000002003F029FB552003F026FB002003F03C
:1031C00023FB552003F020FB002003F01DFB4520CE
:1031D00003F01AFB002003F017FB432003F014FB5D
:1031E000002003F011FB442003F00EFB002003F04D
:1031F0000BFBE72003F01AFB322003F005FB002055
:1032000003F002FB552003F0FFFA002003F0FCFA64
:10321000762003F0F9FA002003F0F6FA662003F0B6
:10322000F3FA002003F0F0FA672003F0EDFA002033
:1032300003F0EAFA672003F0E7FA002003F0E4FA6B
:10324000872003F0E1FA002003F0DEFA992003F072
:10325000DBFA002003F0D8FABB2003F0D5FA0020F7
:1032600003F0D2FA992003F0CFFA002003F0CCFA51
:10327000772003F0C9FA002003F0C6FA442003F0D7
:10328000C3FA002003F0C0FA562003F0BDFA002074
:1032900003F0BAFA232003F0B7FA002003F0B4FADF
:1032A000332003F0B1FA002003F0AEFA452003F01A
:1032B000ABFA002003F0A8FAE82003F0B7FA0020E8
:1032C00003F0A2FA002003F09FFA992003F09CFA81
:1032D000002003F099FA872003F096FA002003F00B
:1032E00093FA882003F090FA002003F08DFA7720FB
:1032F00003F08AFA002003F087FA662003F084FACC
:10330000002003F081FA882003F07EFA002003F009
:103310007BFAAA2003F078FA002003F075FABB20AC
:1033200003F072FA002003F06FFA992003F06CFAB0
:10333000002003F069FA662003F066FA002003F02B
:1033400063FA552003F060FA002003F05DFA55207F
:1033500003F05AFA002003F057FA442003F054FA1D
:10336000002003F051FA442003F04EFA002003F04D
:103370004BFA552003F048FA002003F045FAE92003
:1033800003F054FAAA2003F03FFA002003F03CFABD
:10339000002003F039FA002003F036FA002003F091
:1033A00045FAAA2003F030FACF2003F03FFA0020BC
:1033B00003F02AFA002003F027FA002003F024FA91
:1033C000002003F021FA002003F01EFA002003F091
:1033D0001BFA002003F018FA002003F015FA002071
:1033E00003F012FA002003F00FFA002003F00CFAA9
:1033F000002003F009FA002003F006FA002003F091
:1034000003FA002003F000FA002003F0FDF9002089
:1034100003F0FAF9F02003F009FA002003F0F4F9C0
:10342000502003F0F1F9002003F0EEF9002003F042
:10343000EBF9002003F0E8F9F32003F0F7F900209E
:1034400003F0E2F9F92003F0F1F9062003F0DCF9CA
:10345000102003F0D9F9292003F0D6F9002003F059
:10346000D3F93A2003F0E2F9552003F0CDF9112009
:1034700003F0DCF9642004F0F5FC292003F0D6F910
:10348000352003F0D3F9002003F0BEF9512003F0FA
:10349000CDF9FF2003F0B8F9532003F0C7F92C2031
:1034A00003F0B2F9552003F0C1F9822003F0ACF922
:1034B0002C2003F0BBF902F066BBFE48808845F281
:1034C000105188427ED155214FF4704003F0C8F965
:1034D000AA214FF2010003F0C3F952214FF202007A
:1034E00003F0BEF908214FF2030003F0B9F90121FE
:1034F0004FF2040003F0B4F90D214FF4304003F013
:10350000AFF90D214BF2010003F0AAF90D214BF2A6
:10351000020003F0A5F934214FF4364003F0A0F97E
:1035200034214BF2016003F09BF934214BF202602D
:1035300003F096F90D214FF4314003F091F90D217C
:103540004BF2011003F08CF90D214BF2021003F045
:1035500087F934214FF4374003F082F934214BF2DC
:10356000017003F07DF934214BF2027003F078F919
:1035700000214FF4324003F073F900214BF2012097
:1035800003F06EF900214BF2022003F069F92421C7
:103590004FF4384003F064F924214BF6010003F0A6
:1035A0005FF924214BF6020003F05AF901214FF490
:1035B0003F4003F055F90F214FF4334003F050F929
:1035C0000F2100E0FEE34BF2013003F049F90F2137
:1035D0004BF2023003F044F934214FF4394003F048
:1035E0003FF934214BF6011003F03AF934214BF640
:1035F000021003F035F908214FF4354003F030F99B
:1036000008214BF2015003F02BF908214BF2025034
:1036100003F026F903214FF4424003F021F924215D
:103620004FF43A4003F01CF924214BF6012003F03B
:1036300017F924214BF6022003F012F900214FF470
:103640003C4003F00DF978214BF6014003F008F9F6
:1036500000214BF6024003F003F900214FF43D40F6
:1036600003F0FEF878214BF6015003F0F9F8002141
:103670004BF6025003F0F4F800214FF43E4003F003
:10368000EFF864214BF6016003F0EAF800214FF4F3
:10369000514003F0E5F833214DF2011003F0E0F85A
:1036A00000214DF2021003F0DBF834214DF203103B
:1036B00003F0D6F800214DF2041003F0D1F83A21BE
:1036C0004DF2051003F0CCF800214DF2061003F086
:1036D000C7F84A214DF2071003F0C2F800214DF25D
:1036E000081003F0BDF85C214DF2091003F0B8F8A2
:1036F00000214DF20A1003F0B3F881214DF20B10B6
:1037000003F0AEF800214DF20C1003F0A9F8A62149
:103710004DF20D1003F0A4F800214DF20E1003F04D
:103720009FF8E5214DF20F1003F09AF801214DF2B8
:10373000101003F095F813214DF2111003F090F8DA
:1037400001214DF2121003F08BF854214DF21310A9
:1037500003F086F801214DF2141003F081F8822164
:103760004DF2151003F07CF801214DF2161003F014
:1037700077F8CA214DF2171003F072F802214DF2CA
:10378000181003F06DF800214DF2191003F068F8DD
:1037900002214DF21A1003F063F801214DF21B10C3
:1037A00003F05EF802214DF21C1003F059F83421A9
:1037B0004DF21D1003F054F802214DF21E1003F0DB
:1037C0004FF867214DF21F1003F04AF802214DF225
:1037D000201003F045F884214DF2211003F040F849
:1037E00002214DF2221003F03BF8A4214DF22310E8
:1037F00003F036F802214DF2241003F031F8B7211E
:103800004DF2251003F02CF802214DF2261003F0A2
:1038100027F8CF214DF2271003F022F802214DF2B4
:10382000281003F01DF8DE214DF2291003F018F8DE
:1038300002214DF22A1003F013F8F2214DF22B1061
:1038400003F00EF802214DF22C1003F009F8FE21CE
:103850004DF22D1003F004F803214DF22E1002F06A
:10386000FFFF10214DF22F1002F0FAFF03214DF25D
:10387000301002F0F5FF33214DF2311002F0F0FF6D
:1038800003214DF2321002F0EBFF6D214DF23310A7
:1038900002F0E6FF00214FF4524002F0E1FF332135
:1038A0004DF2012002F0DCFF00214DF2022002F077
:1038B000D7FF01E07C00002034214DF2032002F00C
:1038C000CFFF00214DF2042002F0CAFF3A214DF251
:1038D000052002F0C5FF00214DF2062002F0C0FFD6
:1038E0004A214DF2072002F0BBFF00214DF20820D3
:1038F00002F0B6FF5C214DF2092002F0B1FF002179
:103900004DF20A2002F0ACFF81214DF20B2002F0B3
:10391000A7FF00214DF20C2002F0A2FFA6214DF2DC
:103920000D2002F09DFF00214DF20E2002F098FFC5
:10393000E5214DF20F2002F093FF01214DF21020FE
:1039400002F08EFF13214DF2112002F089FF0121B8
:103950004DF2122002F084FF54214DF2132002F0A8
:103960007FFF01214DF2142002F07AFF82214DF2F7
:10397000152002F075FF01214DF2162002F070FFB4
:10398000CA214DF2172002F06BFF02214DF21820E0
:1039900002F066FF00214DF2192002F061FF0221C2
:1039A0004DF21A2002F05CFF01214DF21B2002F0C3
:1039B00057FF02214DF21C2002F052FF34214DF23C
:1039C0001D2002F04DFF02214DF21E2002F048FFA3
:1039D00067214DF21F2002F043FF02214DF220200B
:1039E00002F03EFF84214DF2212002F039FF022136
:1039F0004DF2222002F034FFA4214DF2232002F0E8
:103A00002FFF02214DF2242002F02AFFB7214DF2B0
:103A1000252002F025FF02214DF2262002F020FF92
:103A2000CF214DF2272002F01BFF02214DF228206A
:103A300002F016FFDE214DF2292002F011FF0221D3
:103A40004DF22A2002F00CFFF2214DF22B2002F061
:103A500007FF02214DF22C2002F002FFFE214DF261
:103A60002D2002F0FDFE03214DF22E2002F0F8FE83
:103A700010214DF22F2002F0F3FE03214DF23020F1
:103A800002F0EEFE33214DF2312002F0E9FE032177
:103A90004DF2322002F0E4FE6D214DF2332002F0AF
:103AA000DFFE00214FF4534002F0DAFE33214DF2E5
:103AB000013002F0D5FE00214DF2023002F0D0FEBE
:103AC00034214DF2033002F0CBFE00214DF20430E0
:103AD00002F0C6FE3A214DF2053002F0C1FE00218F
:103AE0004DF2063002F0BCFE4A214DF2073002F0E2
:103AF000B7FE00214DF2083002F0B2FE5C214DF21B
:103B0000093002F0ADFE00214DF20A3002F0A8FEAD
:103B100081214DF20B3002F0A3FE00214DF20C305A
:103B200002F09EFEA6214DF20D3002F099FE00211A
:103B30004DF20E3002F094FEE5214DF20F3002F00E
:103B40008FFE01214DF2103002F08AFE13214DF25A
:103B5000113002F085FE01214DF2123002F080FE9C
:103B600054214DF2133002F07BFE01214DF214304E
:103B700002F076FE82214DF2153002F071FE012135
:103B80004DF2163002F06CFECA214DF2173002F0F1
:103B900067FE02214DF2183002F062FE00214DF264
:103BA000193002F05DFE02214DF21A3002F058FE8B
:103BB00001214DF21B3002F053FE02214DF21C3068
:103BC00002F04EFE34214DF21D3002F049FE02217A
:103BD0004DF21E3002F044FE67214DF21F3002F01C
:103BE0003FFE02214DF2203002F03AFE84214DF2D8
:103BF000213002F035FE02214DF2223002F030FE7B
:103C0000A4214DF2233002F02BFE02214DF224308C
:103C100002F026FEB7214DF2253002F021FE0221EE
:103C20004DF2263002F01CFECF214DF2273002F07B
:103C300017FE02214DF2283002F012FEDE214DF275
:103C4000293002F00DFE02214DF22A3002F008FE6A
:103C5000F2214DF22B3002F003FE02214DF22C3006
:103C600002F0FEFDFE214DF22D3002F0F9FD0321A0
:103C70004DF22E3002F0F4FD10214DF22F3002F003
:103C8000EFFD03214DF2303002F0EAFD33214DF219
:103C9000313002F0E5FD03214DF2323002F0E0FD5B
:103CA0006D214DF2333002F0DBFD00214FF4544022
:103CB00002F0D6FD33214DF2014002F0D1FD00218A
:103CC0004DF2024002F0CCFD34214DF2034002F0EF
:103CD000C7FD00214DF2044002F0C2FD3A214DF231
:103CE000054002F0BDFD00214DF2064002F0B8FD96
:103CF0004A214DF2074002F0B3FD00214DF2084089
:103D000002F0AEFD5C214DF2094002F0A9FD002158
:103D10004DF20A4002F0A4FD81214DF20B4002F069
:103D20009FFD00214DF20C4002F09AFDA6214DF2BC
:103D30000D4002F095FD00214DF20E4002F090FD85
:103D4000E5214DF20F4002F08BFD01214DF21040B4
:103D500002F086FD13214DF2114002F081FD012198
:103D60004DF2124002F07CFD54214DF2134002F05E
:103D700077FD01214DF2144002F072FD82214DF2D7
:103D8000154002F06DFD01214DF2164002F068FD74
:103D9000CA214DF2174002F063FD02214DF2184096
:103DA00002F05EFD00214DF2194002F059FD0221A2
:103DB0004DF21A4002F054FD01214DF21B4002F079
:103DC0004FFD00E004E302214DF21C4002F048FDEB
:103DD00034214DF21D4002F043FD02214DF21E4000
:103DE00002F03EFD67214DF21F4002F039FD022135
:103DF0004DF2204002F034FD84214DF2214002F0CA
:103E00002FFD02214DF2224002F02AFDA4214DF2A5
:103E1000234002F025FD02214DF2244002F020FD56
:103E2000B7214DF2254002F01BFD02214DF2264044
:103E300002F016FDCF214DF2274002F011FD0221C4
:103E40004DF2284002F00CFDDE214DF2294002F037
:103E500007FD02214DF22A4002F002FDF2214DF24F
:103E60002B4002F0FDFC02214DF22C4002F0F8FC48
:103E7000FE214DF22D4002F0F3FC03214DF22E40C5
:103E800002F0EEFC10214DF22F4002F0E9FC03217C
:103E90004DF2304002F0E4FC33214DF2314002F0AB
:103EA000DFFC03214DF2324002F0DAFC6D214DF2CD
:103EB000334002F0D5FC00214FF4554002F0D0FC15
:103EC00033214DF2015002F0CBFC00214DF20250A3
:103ED00002F0C6FC34214DF2035002F0C1FC002177
:103EE0004DF2045002F0BCFC3A214DF2055002F0B4
:103EF000B7FC00214DF2065002F0B2FC4A214DF20F
:103F0000075002F0ADFC00214DF2085002F0A8FC71
:103F10005C214DF2095002F0A3FC00214DF20A5041
:103F200002F09EFC81214DF20B5002F099FC002121
:103F30004DF20C5002F094FCA6214DF20D5002F00F
:103F40008FFC00214DF20E5002F08AFCE5214DF26B
:103F50000F5002F085FC01214DF2105002F080FC60
:103F600013214DF2115002F07BFC01214DF2125051
:103F700002F076FC54214DF2135002F071FC012145
:103F80004DF2145002F06CFC82214DF2155002F0FB
:103F900067FC01214DF2165002F062FCCA214DF27D
:103FA000175002F05DFC02214DF2185002F058FC4F
:103FB00000214DF2195002F053FC02214DF21A502B
:103FC00002F04EFC01214DF21B5002F049FC02218F
:103FD0004DF21C5002F044FC34214DF21D5002F011
:103FE0003FFC02214DF21E5002F03AFC67214DF2D7
:103FF0001F5002F035FC02214DF2205002F030FC3F
:1040000084214DF2215002F02BFC02214DF222506E
:1040100002F026FCA4214DF2235002F021FC0221E3
:104020004DF2245002F01CFCB7214DF2255002F055
:1040300017FC02214DF2265002F012FCCF214DF266
:10404000275002F00DFC02214DF2285002F008FC2E
:10405000DE214DF2295002F003FC02214DF22A50DC
:1040600002F0FEFBF2214DF22B5002F0F9FB02218F
:104070004DF22C5002F0F4FBFE214DF22D5002F0D7
:10408000EFFB03214DF22E5002F0EAFB10214DF21E
:104090002F5002F0E5FB03214DF2305002F0E0FB1F
:1040A00033214DF2315002F0DBFB03214DF232504F
:1040B00002F0D6FB6D214DF2335002F0D1FB00210E
:1040C0004FF4564002F0CCFB33214DF2016002F078
:1040D000C7FB00214DF2026002F0C2FB34214DF219
:1040E000036002F0BDFB00214DF2046002F0B8FB5A
:1040F0003A214DF2056002F0B3FB00214DF206605B
:1041000002F0AEFB4A214DF2076002F0A9FB00214C
:104110004DF2086002F0A4FB5C214DF2096002F050
:104120009FFB00214DF20A6002F09AFB81214DF2C3
:104130000B6002F095FB00214DF20C6002F090FB49
:10414000A6214DF20D6002F08BFB00214DF20E60B6
:1041500002F086FBE5214DF20F6002F081FB0121A8
:104160004DF2106002F07CFB13214DF2116002F061
:1041700077FB01214DF2126002F072FB54214DF2E7
:10418000136002F06DFB01214DF2146002F068FB38
:1041900082214DF2156002F063FB01214DF21660A1
:1041A00002F05EFBCA214DF2176002F059FB0221BA
:1041B0004DF2186002F054FB00214DF2196002F03C
:1041C0004FFB02214DF21A6002F04AFB01214DF231
:1041D0001B6002F045FB02214DF21C6002F040FB27
:1041E00034214DF21D6002F03BFB02214DF21E60B6
:1041F00002F036FB67214DF21F6002F031FB022115
:104200004DF2206002F02CFB84214DF2216002F07F
:1042100027FB02214DF2226002F022FBA4214DF285
:10422000236002F01DFB02214DF2246002F018FB16
:10423000B7214DF2256002F013FB02214DF22660FA
:1042400002F00EFBCF214DF2276002F009FB0221A4
:104250004DF2286002F004FBDE214DF2296002F0ED
:10426000FFFA02214DF22A6002F0FAFAF2214DF231
:104270002B6002F0F5FA02214DF22C6002F0F0FA08
:10428000FE214DF22D6002F0EBFA03214DF22E607B
:1042900002F0E6FA10214DF22F6002F0E1FA03215C
:1042A0004DF2306002F0DCFA33214DF2316002F061
:1042B000D7FA03214DF2326002F0D2FA6D214DF2AD
:1042C000336002F0CDFA55214FF4704002F0C8FA85
:1042D000AA214FF2010002F0C3FA52214FF202006C
:1042E00002F0BEFA08214FF2030002F0B9FA0021F1
:1042F0004FF2040002F0B4FACC214FF4314002F046
:10430000AFFA00214BF2011002F0AAFA05214FF496
:10431000364002F0A5FA70214FF4374002F0A0FABF
:1043200070214BF2017002F09BFA01214FF43840EA
:1043300002F096FA03214BF6010002F091FA0321F4
:104340004BF6020002F08CFA03214BF6030002F058
:1043500087FA02214FF43C4002F082FA00214BF62A
:10436000014002F07DFA00214BF6024002F078FA9B
:10437000D0214FF4494002F073FA02214CF60110AB
:1043800002F06EFA50214CF6021002F069FA502148
:104390004CF6031002F064FA50214CF6041002F0BF
:1043A0005FFA00214FF4545002F05AFA55214FF4AD
:1043B000685002F055FA4FF4885002F037FA78202E
:1043C00003F076FD4FF4245002F030FA01F0DBBB2D
:1043D000FE48808849F2253188427DD147F6F001B8
:1043E000E52002F03DFA4FF48071012002F038FA26
:1043F0004FF4E061022002F033FA41F23001032071
:1044000002F02EFA0021042002F02AFA40F20221E2
:10441000082002F025FA0021092002F021FA0021EB
:104420000A2002F01DFA00210C2002F019FA0021E6
:104430000D2002F015FA00210F2002F011FA0021E0
:10444000102002F00DFA0721112002F009FA0021D4
:10445000122002F005FA0021132002F001FA0021D7
:10446000072002F0FDF941F29061102002F0F8F906
:1044700040F22721112002F0F3F99D21122002F0D1
:10448000EFF94FF4C851132002F0EAF92521292051
:1044900002F0E6F90D212B2002F0E2F9072130208D
:1044A00002F0DEF940F20331312002F0D9F90321A4
:1044B000322002F0D5F940F20621352002F0D0F981
:1044C0000821362002F0CCF940F20641372002F0F4
:1044D000C7F94FF4417100E058E0382002F0C0F90C
:1044E0000721392002F0BCF940F202613C2002F0C1
:1044F000B7F908213D2002F0B3F90021502002F065
:10450000AFF9EF21512002F0ABF90021522002F067
:10451000A7F940F23F11532002F0A2F94FF42741CE
:10452000602002F09DF90121612002F099F900213B
:104530006A2002F095F90021802002F091F9002113
:10454000812002F08DF90021822002F089F90021FA
:10455000832002F085F90021842002F081F90021F6
:10456000852002F07DF91021902002F079F94FF4B6
:10457000C061922002F074F940F23311072002F07A
:104580006FF92221002002F06BF91FE78F48808825
:1045900049F2283188427DD141F28F01EC2002F0AE
:1045A0005FF941F23421EF2002F05AF94FF48071A3
:1045B000012002F055F94FF4E061022002F050F9B9
:1045C00041F23001032002F04BF90021042002F0F7
:1045D00047F940F20221082002F042F900210920A7
:1045E00002F03EF900210A2002F03AF901210C20E4
:1045F00002F036F900210D2002F032F900210F20DF
:1046000002F02EF90021102002F02AF907211120D2
:1046100002F026F90021122002F022F900211320D5
:1046200002F01EF90121072002F01AF9322003F0EE
:1046300019FC41F29041102002F012F940F22721BA
:10464000112002F00DF9322003F00CFC8A21122017
:1046500002F006F9322003F005FC4FF4D05113208C
:1046600002F0FEF80621292002F0FAF80D212B2095
:1046700002F0F6F8322003F0F5FB0021202002F0D2
:10468000EFF80021212002F0EBF8322003F0EAFBE2
:10469000002100E075E0302002F0E2F840F2046111
:1046A000312002F0DDF840F20531322002F0D8F876
:1046B0000021352002F0D4F840F60941362002F0FE
:1046C000CFF84FF40171372002F0CAF840F20131FF
:1046D000382002F0C5F840F20771392002F0C0F826
:1046E00000213C2002F0BCF840F60A213D2002F0F7
:1046F000B7F8322003F0B6FB0021502002F0B0F8EA
:10470000EF21512002F0ACF80021522002F0A8F86D
:1047100040F23F11532002F0A3F84FF427416020EC
:1047200002F09EF80121612002F09AF800216A202F
:1047300002F096F80021802002F092F800218120FA
:1047400002F08EF80021822002F08AF800218320F6
:1047500002F086F80021842002F082F800218520F2
:1047600002F07EF81021902002F07AF84FF4C06138
:10477000922002F075F840F23311072002F070F831
:1047800024E61248808849F2203188427ED10021F7
:10479000084602F065F84FF48071012002F060F8DD
:1047A0004FF4E061022002F05BF841F23001032097
:1047B00002F056F80021042002F052F840F20221E3
:1047C000082002F04DF80021092001E07C000020C3
:1047D00002F046F800210A2002F042F801210C20E4
:1047E00002F03EF800210D2002F03AF800210F20DF
:1047F00002F036F8322003F035FB40F201110720B9
:1048000002F02EF8322003F02DFB4FF486511020D9
:1048100002F026F80721112002F022F84FF48871E7
:10482000122002F01DF84FF43061132002F018F846
:104830000021292002F014F844F210012B2002F08C
:104840000FF80021502002F00BF8EF21512002F068
:1048500007F80021522002F003F840F23F115320E4
:1048600001F0FEFF4FF41C51602001F0F9FF01211F
:10487000612001F0F5FF00216A2001F0F1FF002125
:10488000802001F0EDFF0021812000E030E001F008
:10489000E7FF0021822001F0E3FF0021832001F0E7
:1048A000DFFF0021842001F0DBFF0021852001F0E3
:1048B000D7FF1021902001F0D3FF0021922001F0BA
:1048C000CFFF0121932001F0CBFF4FF48871952099
:1048D00001F0C6FF0021972001F0C2FF00219820BF
:1048E00001F0BEFF40F27311072001F0B9FF6DE542
:1048F000FE48808849F2313188427DD141F214016D
:10490000E72001F0ADFF4FF48071012001F0A8FF16
:104910004FF40071022001F0A3FF41F2380103209F
:1049200001F09EFF40F20221082001F099FF0021D2
:10493000092001F095FF00210A2001F091FF0021DC
:104940000C2001F08DFF00210D2001F089FF0021D6
:104950000F2001F085FF0021102001F081FF0721C9
:10496000112001F07DFF0021122001F079FF0021CC
:10497000132001F075FFC82003F074FA41F2906132
:10498000102001F06DFF40F22721112001F068FF97
:10499000322003F067FA0C21122001F061FF32206F
:1049A00003F060FA4FF40061132001F059FF112168
:1049B000292001F055FF0B212B2001F051FF32205F
:1049C00003F050FA0021202001F04AFF40F23F118D
:1049D000212001F045FF0021302001F041FF4FF47C
:1049E0008371312001F03CFF0021322001F038FFBB
:1049F0004FF40171352000E064E001F031FF41F235
:104A00000A61362001F02CFF40F20771372001F0D7
:104A100027FF4FF48371382001F022FF40F2077125
:104A2000392001F01DFF40F202413C2001F018FF47
:104A300040F60F413D2001F013FF0021502001F00E
:104A40000FFFEF21512001F00BFF0021522001F058
:104A500007FF40F23F11532001F002FF4FF41C51B9
:104A6000602001F0FDFE0121612001F0F9FE00212E
:104A70006A2001F0F5FE0021802001F0F1FE002106
:104A8000812001F0EDFE0021822001F0E9FE0021ED
:104A9000832001F0E5FE0021842001F0E1FE0021E9
:104AA000852001F0DDFE1021902001F0D9FE4FF4A9
:104AB000C061922001F0D4FE40F23311072001F0D2
:104AC000CFFE83E48948808845F2084188427DD141
:104AD0004FF48071012001F0C3FE4FF4E061022029
:104AE00001F0BEFE41F23001032001F0B9FE0021C9
:104AF000042001F0B5FE40F20721082001F0B0FECD
:104B00000021092001F0ACFE00210A2001F0A8FEDE
:104B100000210C2001F0A4FE00210D2001F0A0FED8
:104B200000210F2001F09CFE142003F09BF941F2BC
:104B3000B061102001F094FE0121112001F090FEDF
:104B40000121172001F08CFE4FF49C71122001F01E
:104B500087FE4FF40061132001F082FE0921292015
:104B600001F07EFE09212A2001F07AFE0021A42016
:104B700001F076FE0021502001F072FEEF2151205D
:104B800001F06EFE0021522001F06AFE40F23F115A
:104B9000532001F065FE4FF41C51602001F060FECF
:104BA0000121612001F05CFE00216A2001F058FE25
:104BB0000021802001F054FE0021812001F050FEF0
:104BC0000021822001F04CFE002100E024E083203F
:104BD00001F046FE0021842001F042FE00218520E4
:104BE00001F03EFE1321902001F03AFE00219220B8
:104BF00001F036FE0321932001F032FE4FF488715C
:104C0000952001F02DFE40F27311072001F028FEDF
:104C1000322003F027F9B8E43448808841F2055186
:104C200088427DD10021072001F01AFE322003F0D6
:104C300019F94FF48E71122001F012FE0121A42007
:104C400001F00EFE0F21082001F00AFE08210A20C3
:104C500001F006FE08210D2001F002FE40F207716E
:104C6000302001F0FDFD0721312001F0F9FD40F277
:104C70000361322001F0F4FD4FF4E061332001F0D4
:104C8000EFFD40F20221342001F0EAFD022135203F
:104C900001F0E6FD41F60F71362001F0E1FD40F232
:104CA0000771372001F0DCFD0021382001F0D8FD2C
:104CB0000021392001F0D4FD40F207713A2001F0C3
:104CC000CFFD00213B2001F0CBFD07213C2001F06E
:104CD000C7FD00213D2001F0C3FD322003F0C2F8E2
:104CE0000121072001F0BCFD012101E07C00002032
:104CF000172001F0B5FD322003F0B4F84FF4BD5198
:104D0000102001F0ADFD40F21721112001F0A8FDA7
:104D10004FF48F71122001F0A3FD4FF4706100E099
:104D200098E0132001F09CFD00212A2001F098FD5D
:104D30000A21292001F094FD4FF49F71122001F007
:104D40008FFD0021502001F08BFDEF21512001F05B
:104D500087FD0021522001F083FD40F23F115320D6
:104D600001F07EFD4FF41C51602001F079FD01211E
:104D7000612001F075FD00216A2001F071FD002124
:104D8000802001F06DFD0021812001F069FD0021EE
:104D9000822001F065FD0021832001F061FD0021EA
:104DA000842001F05DFD0021852001F059FD1321D3
:104DB000902001F055FD4FF44071922001F050FD1C
:104DC0000521932001F04CFD0021952001F048FDC4
:104DD0000021972001F044FD0021982001F040FDC2
:104DE0004FF48071012001F03BFD4FF4E06102209F
:104DF00001F036FD41F23801032001F031FD0021C0
:104E0000042001F02DFD00210C2001F029FD0021DE
:104E10000F2001F025FD0021202001F021FD0021BF
:104E2000212001F01DFD2121072001F019FD142092
:104E300003F018F86121072001F012FD142003F09F
:104E400011F840F27311072001F00AFD142003F05D
:104E500009F895E4FE4880884BF2055188427CD1E0
:104E60000021084601F0FCFC0021084601F0F8FC96
:104E70000021084601F0F4FC0021084601F0F0FC96
:104E80000121A42001F0ECFC142002F0EBFF4FF410
:104E90001C51602001F0E4FC40F20221082001F0E6
:104EA000DFFC4FF40571302001F0DAFC43F215719C
:104EB000312001F0D5FC40F20461322001F0D0FC39
:104EC00040F61661332001F0CBFC42F21121342070
:104ED00001F0C6FC4FF4A851352001F0C1FC48F2A6
:104EE0000751362001F0BCFC41F20741372001F0A8
:104EF000B7FC41F20341382001F0B2FC20213920F7
:104F000001F0AEFC1A21902001F0AAFC0021102033
:104F100001F0A6FC0721112001F0A2FC00211220C3
:104F200001F09EFC0021132001F09AFC142002F0F5
:104F300099FF4FF4E661102001F092FC40F2371126
:104F4000112001F08DFC142002F08CFF4FF4DC7175
:104F5000122001F085FC142000E085E002F082FFC1
:104F60004FF47061132001F07BFC80212A2001F0B6
:104F700077FC4821292001F073FC142002F072FF15
:104F80004FF48071012001F06BFC4FF4E0610220CE
:104F900001F066FC41F23801032001F061FC40F2AF
:104FA0000221082001F05CFC00210A2001F058FCDD
:104FB00000210C2001F054FC00210D2001F050FCD8
:104FC00030210E2001F04CFC0021502001F048FC63
:104FD000EF21512001F044FC0021522001F040FC5F
:104FE00040F23F11532001F03BFC4FF41C51602074
:104FF00001F036FC0121612001F032FC00216A2021
:1050000001F02EFC1121902001F02AFC4FF4C06128
:10501000922001F025FC40F20241932001F020FC97
:105020000221942001F01CFC142002F01BFF01213E
:10503000072001F015FC142002F014FF6121072065
:1050400001F00EFC40F27311072001F009FC002171
:10505000202001F005FC0021212001F001FC22218B
:10506000002001F0FDFB42E4794880884CF20551B4
:1050700088427CD10021084601F0F2FB002108465D
:1050800001F0EEFB142002F0EDFE0021084601F0D5
:10509000E7FB0021084601F0E3FB0021084601F090
:1050A000DFFB0021084601F0DBFB0121A42001F019
:1050B000D7FB142002F0D6FE4FF41C51602001F003
:1050C000CFFB40F60601082001F0CAFB40F2037155
:1050D000302001F0C5FB0121312001F0C1FB04218A
:1050E000322001F0BDFB4FF48171332001F0B8FB99
:1050F0004FF44071342001F0B3FB40F2031135202E
:1051000001F0AEFB1F21362001F0AAFB40F2037133
:10511000372001F0A5FB0121382001F0A1FB04217B
:10512000392001F09DFB1521902001F099FB4FF4EF
:105130008261102001F094FB40F24721112001F020
:105140008FFB4FF4DE71122001F08AFB4FF4606197
:10515000132001F085FB782002F084FE4FF480716B
:10516000012001F07DFB4FF40071022000E052E0CD
:1051700001F076FB41F23001032001F071FB0821C0
:105180000A2001F06DFB00210C2001F069FB2021B9
:105190000E2001F065FB00210F2001F061FB0021D2
:1051A000202001F05DFB0021212001F059FB3D2171
:1051B0002A2001F055FB142002F054FE2D21292055
:1051C00001F04EFB0021502001F04AFB4DF2EF01AF
:1051D000512001F045FB0021522001F041FB40F23B
:1051E0003F11532001F03CFB0021612001F038FB0E
:1051F00000216A2001F034FB4FF44071922001F04D
:105200002FFB0521932001F02BFB4FF48071072029
:1052100001F026FB55E40E48808848F68911884243
:105220007ED10121002001F01BFB4AF6A4010320DE
:1052300001F016FB00210C2001F012FB40F60C01DE
:105240000D2001F00DFB4FF42C510E2002E0000068
:105250007C00002001F004FBB0211E2001F000FBC7
:1052600042F63F31012001F0FBFA4FF4C061022009
:1052700001F0F6FA0021102001F0F2FA46F278016E
:10528000112001F0EDFA0021052001F0E9FA0021DA
:10529000062001F0E5FA4EF61C71162001F0E0FA46
:1052A0000321172001F0DCFA40F23321072001F03E
:1052B000D7FA00210B2001F0D3FA00210F2001F0D2
:1052C000CFFA0021412001F0CBFA0021422001F069
:1052D000C7FA0021482001F0C3FA40F23F114920EB
:1052E00001F0BEFA00214A2001F0BAFA00214B2059
:1052F00001F0B6FA4FF46F41442001F0B1FA0021F9
:10530000452001F0ADFA40F23F11462001F0A8FA25
:1053100040F20771302001F0A3FA4FF4017100E070
:1053200040E0312001F09CFA4FF40171322001F08D
:1053300097FA40F20251332001F092FA40F20751FD
:10534000342001F08DFA4FF40171352001F088FA14
:105350004FF40171362001F083FA40F202513720F8
:1053600001F07EFA40F202313A2001F079FA40F27F
:1053700002313B2001F074FA0021232001F070FA81
:105380000021242001F06CFA4FF40041252001F0A7
:1053900067FA00214F2001F063FA00214E2001F04E
:1053A0005FFAF0E3FE48808844F2315188427DD1B3
:1053B0000121002001F054FA0A2002F053FD41F2CD
:1053C0002861102001F04CFA0E21122001F048FA59
:1053D00040F63921132001F043FA0A2002F042FD81
:1053E0004021112001F03CFA5021152001F038FA3B
:1053F0000A2002F037FD1E21122001F031FA0A20A6
:1054000002F030FD4FF4B151102001F029FA42F6BC
:105410003921132001F024FA0A2002F023FD4FF471
:105420008071012001F01CFA4FF44071022001F05C
:1054300017FA41F23801032001F012FA40F202217A
:10544000082001F00DFA08210A2001F009FA0021D4
:10545000302001F005FA40F20241312001F000FA5B
:105460004FF48371322001F0FBF940F203513320F5
:1054700001F0F6F94FF48271342001F0F1F940F2B5
:105480000131352001F0ECF940F20771362001F0CE
:10549000E7F940F20531372001F0E2F94FF40271EB
:1054A000382001F0DDF940F60B7100E03CE03920D6
:1054B00001F0D6F90221412001F0D2F94FF41C513C
:1054C000602001F0CDF90121612001F0C9F94FF40C
:1054D0000471902001F0C4F94FF48571922001F01D
:1054E000BFF90421932001F0BBF94FF48071A02093
:1054F00001F0B6F90121072001F0B2F921210720BE
:1055000001F0AEF92321072001F0AAF93321072089
:1055100001F0A6F940F23311072001F0A1F90021B2
:10552000A02001F09DF92EE39D48808844F235517A
:1055300088427CD13021152001F092F910219A2067
:1055400001F08EF92021112001F08AF943F228415F
:10555000102001F085F90221122001F081F941F2B9
:105560003801132001F07CF9282002F07BFC122185
:10557000084601F075F9282002F074FC43F220413E
:10558000102001F06DF943F23801132001F068F9A1
:10559000462002F067FC0021302001F061F940F262
:1055A0000241312001F05CF940F20731322001F074
:1055B00057F94FF44171332001F052F9042134209E
:1055C00001F04EF940F20141352001F049F940F275
:1055D0000771362001F044F940F20531372001F01F
:1055E0003FF94FF4C261382001F03AF94FF4C2613B
:1055F000392001F035F94FF48071012001F030F9C4
:105600004FF44071022001F02BF941F230010320E8
:1056100001F026F940F60801082001F021F90821DF
:105620000A2001F01DF94FF41C51602000E033E026
:1056300001F016F90121612001F012F94FF49F7178
:10564000902001F00DF94FF48071922001F008F9DB
:105650004FF48071932001F003F94FF44051A020E2
:1056600001F0FEF81021A32001F0FAF80121072033
:1056700001F0F6F82121072001F0F2F8232107209C
:1056800001F0EEF83321072001F0EAF840F233117F
:10569000072001F0E5F876E24148808841F6631181
:1056A0008842F8D1E22001F0C1F84FF480703D4902
:1056B0000861400048611D203B490860802039494D
:1056C000486108618000086140100861400048613D
:1056D0000220354908608020324948610861800015
:1056E0000861401008614000486104202E490860AC
:1056F00080202C494861086180000861642002F024
:10570000D7FBE02001F092F84FF480702549086142
:1057100040004861012024490860802021494861F7
:105720000861800008610A2002F09CFBE02001F083
:105730007DF84FF480701B490861400048610320E8
:105740001949086080201749486108618000086194
:105750000C2002F087FB012001F068F80A2002F01B
:1057600081FBE62001F062F84FF480700D4908617A
:10577000400048612F200C49086080200949486199
:105780000861800008614010086140004861FF2006
:10579000054908608020034948610861800005E0F0
:1057A0007C000020001001400C0C014008614010FA
:1057B000086140004861FF20F84908608020F849EE
:1057C0004861086180000861B02001F02FF84FF4B3
:1057D0008070F3490861400048612020EF4908606B
:1057E0008020EF494861086180000861401008612D
:1057F000400048610020E94908608020E84948618C
:105800000861800008614010086140004861032081
:10581000E24908608020E24948610861800008612F
:10582000401008614000486140F21F30DB490860C9
:105830008020DB49486108618000086140100861F0
:10584000400048610120D54908608020D449486162
:10585000086180000861401008614000486140F222
:10586000DF10CE4908608020CD4948610861800082
:10587000086140100861400048610020C749086085
:105880008020C7494861086180000861B42000F0A9
:10589000CDFF4FF48070C249086140004861042088
:1058A000BE4908608020BE494861086180000861E7
:1058B000401008614000486140F21F40B74908604D
:1058C0008020B74948610861800008614010086184
:1058D000400048610020B14908608020B04948611B
:1058E00008618000086140100861400048612E2076
:1058F000AA4908608020AA494861086180000861BF
:1059000040100861400048610020A44908608020E0
:10591000A3494861086180000861401008614000A7
:10592000486100209D49086080209D4948610861C8
:1059300080000861401008614000486100209749DC
:105940000860802096494861086180000861401025
:10595000086140004861002090490860802090491B
:105960004861086180000861B62000F05FFF4FF4D5
:1059700080708B49086140004861022087490860B7
:1059800080208749486108618000086140100861F3
:10599000400048614FF403708049086080208049CE
:1059A000486108618000086140100861400048615A
:1059B00000207A49086080207949486108618000A8
:1059C0000861401008614000486117207349086071
:1059D00080207349486108618000086140100861B7
:1059E0004000486115206D49086080206C4948617D
:1059F0000861800008614010086140004861002093
:105A00006649086080206649486108618000086135
:105A10004010086140004861002060490860802013
:105A20005F494861086180000861F02000F0FEFED7
:105A30004FF480705A49086140004861032057497B
:105A4000086080205649486108618000086129206B
:105A500000F0ECFED02000F0E9FE4FF480705049D9
:105A600008614000486100204C49086080204C4992
:105A70004861086180000861BE2000F0D7FE4FF445
:105A8000807047490861400048610520434908602B
:105A90008020434948610861800008614010086126
:105AA00040004861FE203D49086080203C49486133
:105AB00008618000086140100861400048610120D1
:105AC00036490860802036494861086180000861D5
:105AD0004010086140004861002030490860802083
