:020000040800F2
:10000000B80C0020F5150008D9030008DB03000830
:10001000DF030008E3030008E70300080000000016
:10002000000000000000000000000000EB030008DA
:10003000ED03000800000000EF030008F1030008D2
:100040000F1600080F1600080F1600089D13000871
:100050000F1600080F1600080F1600080F160008EC
:100060000F1600080F1600080F1600080F160008DC
:100070000F1600080F1600080F1600080F160008CC
:100080000F1600080F1600080F1600080F160008BC
:100090000F1600080F1600080F1600080F160008AC
:1000A0000F1600080F1600080F1600080F1600089C
:1000B0000F1600080F1600087D3900080F160008FB
:1000C0000F1600080F1600080F1600080F1600087C
:1000D0000F1600086B1500080F1600080F16000811
:1000E0000F1600080F1600080F16000800F002F89F
:1000F00000F076F80AA090E8000C82448344AAF14C
:100100000107DA4501D100F06BF8AFF2090EBAE849
:100110000F0013F0010F18BFFB1A43F0010318473B
:10012000C0750000E07500000A444FF0000C10F8A4
:10013000013B13F0070408BF10F8014B1D1108BF65
:1001400010F8015B641E05D010F8016B641E01F805
:10015000016BF9D113F0080F1EBF10F8014BAD1C55
:100160000C1B09D16D1E58BF01F801CBFAD505E073
:1001700014F8016B01F8016B6D1EF9D59142D6D3CD
:10018000704700000023002400250026103A28BFF5
:1001900078C1FBD8520728BF30C148BF0B607047F9
:1001A000662905F0DE85642904F0C281752904F012
:1001B000BF81782904F0F881632904F05B857329F5
:1001C00004F06085002070471FB504F071FD040045
:1001D0000020002105F0DAFAE0601FBD10B510BD67
:1001E00004F082FE1146FFF7EFFF00F0B0F804F0D4
:1001F000A0FE03B4FFF7F2FF03BC01F05BF90000BF
:1002000038B500F0D4FE60496048006805F034FD60
:100210005E4908600846006805F0D4FA04462246A4
:100220000B465BA004F028F95D48006805F0CAFAA7
:10023000044622460B465BA004F01EF910235DA283
:100240000821002000F07AFB10235CA2202100206E
:1002500000F074FB10235BA20821682000F06EFB05
:10026000102359A22021682000F068FB474800684D
:1002700005F0F8FB5549088010200323009008463C
:10028000028808212A2000F00FFB5048008805F062
:1002900009FC04463D480168204605F0E3FC3B4963
:1002A00008604B493948006805F010FC3749086080
:1002B000012010232E2208210090422000F06AFA2B
:1002C0003248006805F0CEFB044610200323224686
:1002D000082100904A2000F0E7FA3148006805F054
:1002E000C1FB3A4908801020032300900846028889
:1002F00020212A2000F0D8FA3448008805F0D2FBEB
:10030000044627480168204605F0ACFC24490860F3
:100310002F492348006805F0D9FB214908600120D6
:1003200010232E2220210090422000F033FA1C4896
:10033000006805F097FB0446102003232246202185
:1003400000904A2000F0B0FA00F081F938BD01F0C9
:1003500047F84FF4A06001F0F1FE4FF4E13001F0F6
:10036000B8F800F0CDFB00F0C4FD00F016FB194812
:1003700041684820884705E04FF47A7001F06DF835
:10038000FFF73EFFF8E700000000A0401800002043
:1003900074656D3A252E326620432020202000000F
:1003A0001C00002072683A252E32662052480D0A41
:1003B0000000000054656D703A00000048756D69DA
:1003C0003A000000204300002552480000000020B1
:1003D00000007A448C000020704700BFFEE700BF99
:1003E000FEE700BFFEE700BFFEE7704770477047BB
:1003F000704700000CB50020019000906C48006828
:1004000040F480306A49086000BF6948006800F421
:10041000003000900198401C0190009818B9019894
:10042000B0F5A06FF1D16248006800F4003010B15F
:100430000120009001E0002000900098012843D1A5
:100440005C48006840F010005A490860084600689F
:1004500020F0030008600846006840F002000860D1
:10046000534840685249486008464068486008461A
:10047000406840F4806048600846406820F47C1082
:1004800048600846406840F4E81048600846006844
:1004900040F08070086000BF4548006800F00070C0
:1004A0000028F9D04248406820F0030040494860E5
:1004B0000846406840F00200486000BF3C48406881
:1004C00000F00C000828F9D10CBD10B5FFF792FF21
:1004D00010BD10B53648006840F00100344908608E
:1004E0000846406834490840314948600846006879
:1004F000324908402E4908600846006820F48020F0
:1005000008600846406820F4FE0048604FF41F0071
:100510008860FFF7DAFF4FF000602949086010BDDE
:1005200010B5002100200022214B5B6803F00C0174
:1005300021B1042906D0082928D107E0214B224CFB
:10054000236027E01F4B204C236023E0184B5B689F
:1005500003F47010164B5B6803F48032022303EB44
:10056000904022B9194B4343174C23600DE0104BC8
:100570005B6803F4003323B1144B4343124C2360F4
:1005800003E0104B4343104C236003E00D4B0E4C33
:10059000236000BF00BF064B5B68C3F303130C4C22
:1005A000E15C094B1B68CB40074C236010BD000089
:1005B00000100240002002400000FFF8FFFFF6FE9E
:1005C00008ED00E000127A000400002000093D0060
:1005D0000800002000F00101FE4A1160C0F3400154
:1005E000FD4AC2F88411C0F38001FA4A0832116052
:1005F000C0F3C001F74A28321160C0F30011121D88
:100600001160C0F34011F34A14321160C0F380113D
:10061000121D1160C109F04AC2F89C11704710B553
:1006200004460B462046FFF7D5FFEC480360002048
:10063000EB49C1F89401E9490C31086001200860D8
:10064000E649091D0860E649C1F8900110BD30B5C2
:1006500000241CE004F1B001C8B20021FFF7DFFF65
:1006600000210846FFF7DBFF00211020FFF7D7FF2E
:10067000002508E0DB4901EBC501085D0121FFF71A
:10068000CEFF681CC5B2802DF4DB601CC4B2082C00
:10069000E0DB30BD00B500218D20FFF7C0FF002159
:1006A0001420FFF7BCFF0021AF20FFF7B8FF00BD0B
:1006B00000B500218D20FFF7B2FF00211020FFF7C9
:1006C000AEFF0021AE20FFF7AAFF00BD30B5002429
:1006D0000CE0002506E00020C24901EBC5010855E9
:1006E000681CC5B2802DF6DB601CC4B2082CF0DBA0
:1006F000FFF7ADFF30BDF0B5144600267F2801DCC2
:100700003F2900DDF0BD0B46CF1701EB5777FF10F7
:10071000C7F10707FAB2CF1701EB5777FF10A1EB2C
:10072000C707FDB2C5F107070123BB40DEB24CB1DC
:10073000AC4B03EBC0039B5C3343AA4F07EBC007F2
:10074000BB5408E0A74B03EBC0039B5CB343A54F2E
:1007500007EBC007BB5400BFD4E72DE9F0470646BE
:100760000F4690469946DDF820A034460CE03D4601
:1007700006E0524629462046FFF7BDFF681CC5B279
:100780004D45F6DD601CC4B24445F0DDFFF75FFF68
:10079000BDE8F0872DE9F84F80460F4616461C4607
:1007A000BA462046E31704EB5373DB1021464FEAA9
:1007B000E47C04EB5C7C4FEAEC0CA4EBCC0CBCF1CD
:1007C000000F02D04FF0010C01E04FF0000C634429
:1007D000224604EBD27C4FEA6C0C03FB0CF303F0D3
:1007E000FF0BA6F12000C6B200254EE00C2C07D16D
:1007F00006EB46007C4901EB8000405D009013E071
:10080000102C05D1794800EB0610405D00900BE0FC
:10081000182C07D106EBC600754901EB8000405D3E
:10082000009001E0BDE8F88F4FF0000927E0009844
:1008300000F0800028B1394640460A9AFFF75BFF76
:1008400009E00A9808B9012000E000200246394674
:100850004046FFF750FF00984006000E0090781CBD
:10086000C7B2A7EB0A00A04205D1574608F1010024
:1008700000F0FF0806E009F1010000F0FF09B9F1FE
:10088000080FD4DB00BF681CC5B25D45AEDB00BFFE
:10089000C8E710B50246012000E050430B1EA1F14D
:1008A0000104E1B2F9D110BD2DE9FF4F81B0074637
:1008B00091461E460E9D4FF0000A002439E0301B81
:1008C000401EC1B20A20FFF7E4FFB9FBF0F00A2195
:1008D000B0FBF1F201FB1208BAF1000F16D1701E45
:1008E000A04213DDB8F1000F0ED10120AB4605EB9D
:1008F000DB71491001FB04710090C8B22B46202225
:100900000299FFF747FF12E04FF0010A0120AB46C2
:1009100005EBDB71491001FB04710090C8B208F1CE
:100920003001CAB22B460299FFF734FF00BF601CAA
:10093000C4B2B442C3DB05B0BDE8F08FF8B50646DB
:100940000F4615461C4621E004EBD4714910C1F155
:100950008001B14202DA00263819C7B2C4F1400062
:10096000B84204DA002006460746FFF7AFFE012032
:1009700000902A78234639463046FFF70BFF204681
:1009800004EBD07106EB6101CEB26D1C28787E2895
:1009900002DC28782028D7DAF8BD08B501210C2020
:1009A00001F064F90121084601F060F901211148C4
:1009B00000F071FF40F6E740ADF8000010208DF820
:1009C000030003208DF8020069460B4800F092FEF8
:1009D00014E00000808121420080214290012142E8
:1009E0000000214280010020665D0008DA610008F5
:1009F000CA67000800023000000C01404FF6FF718A
:100A00003D4800F02DFFF020ADF8000010208DF8DB
:100A1000030003208DF802006946384800F06AFEA2
:100A2000F021364800F013FF0021AE20FFF7F7FD5C
:100A30000021D520FFF7F3FD00215020FFF7EFFD47
:100A40000021A820FFF7EBFD00213F20FFF7E7FD85
:100A50000021D320FFF7E3FD00210846FFF7DFFD6B
:100A600000214020FFF7DBFD00218D20FFF7D7FD9F
:100A700000211420FFF7D3FD00212020FFF7CFFD38
:100A800000210220FFF7CBFD0021A120FFF7C7FDC9
:100A90000021C020FFF7C3FD0021DA20FFF7BFFDD2
:100AA00000211220FFF7BBFD00218120FFF7B7FDD9
:100AB0000021EF20FFF7B3FD0021D920FFF7AFFDA4
:100AC0000021F120FFF7ABFD0021DB20FFF7A7FDA0
:100AD00000213020FFF7A3FD0021A420FFF79FFD98
:100AE0000021A620FFF79BFD0021AF20FFF797FD17
:100AF000FFF7ECFD08BD0000000C014000080140BC
:100B000008B50121082001F0B1F84FF45040ADF8CC
:100B1000000010208DF8030003208DF802006946C4
:100B2000984800F0E7FD4FF45041964800F08FFEE2
:100B300008BD10B59348001D006820F07040914931
:100B4000091D08600846006840F040500860012018
:100B50008D4908608D49C1F8B801042000F059FCA6
:100B6000002089490860042000F053FC00208749D8
:100B7000C1F8B80110BD10B58248001D006820F012
:100B800070408049091D08600846006840F04050E8
:100B9000086000207C49091F08607C49C1F8BC013D
:100BA000042000F036FC01207749091F08607749CE
:100BB000C1F8BC01042000F02CFC10BD10B50024CD
:100BC0007048001D006820F070406E49091D0860E3
:100BD0000846006840F00040086001206A4908604B
:100BE00000F017FC01206949C1F8B80100F011FCC0
:100BF00009E0601CC4B2FA2C05DD00206249091F1F
:100C00000860012010BD6048803800680028F0D1DD
:100C10005D49091F086000BFF4E710B500205A497C
:100C2000091F08605748001D006820F070405549B2
:100C3000091D08600846006840F040500860002028
:100C40005249C1F8BC01022000F0E3FB01204E49EB
:100C5000091F0860022000F0DCFB00204B49C1F8AE
:100C6000B80110BD10B500204749091F086045486C
:100C7000001D006820F070404249091D08600846C8
:100C8000006840F04050086001204049C1F8BC01B4
:100C9000022000F0BEFB01203B49091F0860022032
:100CA00000F0B7FB00203949C1F8B80110BD70B59C
:100CB00004463448001D006820F070403149091D89
:100CC00008600846006840F04050086000202E4947
:100CD000091F086000251DE0E00918B101202A491C
:100CE000086002E00020284908606006040E022027
:100CF00000F08FFB01202449091F0860022000F04A
:100D000088FB00202149C1F8B801022000F081FBD6
:100D1000681CC5B2082DDFDB70BD70B50546002428
:100D20001848001D006820F070401649091D086031
:100D30000846006840F000400860002617E00020E8
:100D40001149091F0860022000F063FB01200F49D0
:100D5000C1F8B8016006040E0B488038006808B17D
:100D6000601CC4B2012000F054FB701CC6B2082EF7
:100D7000E5DB15B9FFF776FF01E0FFF74EFF2046F0
:100D800070BD0000000C0140BC8121420080214266
:100D900010B50446FFF7CDFE8820FFF788FFFFF768
:100DA0000DFF2012FFF783FFFFF708FFE0B2FFF708
:100DB0007EFFFFF703FFFFF7DEFE0A2000F04DFB8A
:100DC00010BD10B542F23620FFF7E2FF10BD10B59E
:100DD0000446FFF7AEFE8820FFF769FFFFF7EEFE3F
:100DE000F320FFF764FFFFF7E9FE2D20FFF75FFF19
:100DF000FFF7E4FE642000F030FBFFF79AFE892045
:100E0000FFF755FFFFF7DAFE0120FFF786FF20709E
:100E10000120FFF782FF60700020FFF77EFFA070C7
:100E2000FFF7A9FE10BD70B505460C46FFF781FE21
:100E30008820FFF73CFFFFF7C1FE2812FFF737FFBE
:100E4000FFF7BCFEE8B2FFF732FFFFF7B7FE642002
:100E500000F003FBFFF76DFE8920FFF728FFFFF787
:100E6000ADFE0120FFF759FF20700120FFF755FF6D
:100E700060700120FFF751FFA0700120FFF74DFFC8
:100E8000E0700120FFF749FF20710020FFF745FFC8
:100E90006071FFF770FE642000F0DFFA70BD70B57E
:100EA00000246648006820F07040644908600846E5
:100EB000006840F000400860002516E0002060490E
:100EC0000860022000F0A5FA01205E49C1F8B801CF
:100ED0006006040E5A487C38006808B1601CC4B231
:100EE000012000F096FA681CC5B2082DE6DB20460A
:100EF00070BD10B5C82000F0B0FAFFF762FFC8203F
:100F000000F0ABFA10BD30B502460B46FF200021C1
:100F100013E0555C684008240BE000F0800525B123
:100F2000312585EA4005E8B201E04506280E651E38
:100F3000ECB2002CF1DC4D1CE9B29942E9DB30BD8A
:100F4000F0B505460E46144631462846FFF7DBFF4E
:100F50000746A74201D00120F0BD0020FCE72DE9A3
:100F6000F0410446204604F09DFD8046364904F0D9
:100F7000ADFD0746354904F0B3FC0646344904F09C
:100F80007BFE05462846BDE8F0812DE9F041044688
:100F9000204604F087FD07462E4904F097FD0646DB
:100FA0002A4904F09DFC05462846BDE8F08138B585
:100FB000002429494FF46040FFF735FF26480078A8
:100FC0008DF80000244840788DF801002248807890
:100FD0008DF802009DF8022002216846FFF7B0FF5D
:100FE000044654B91C4840781B49097840EA012559
:100FF0002846FFF7B4FF194908601748C0788DF8F4
:101000000000154800798DF80100134840798DF8EB
:1010100002009DF8022002216846FFF791FF044676
:1010200054B99DF801009DF8001040EA01252846BA
:10103000FFF7ABFF0A49086038BD0000040C01400F
:10104000B88121420080214200002F4300FF7F47EA
:10105000000034420000C842200000201800002098
:101060001C00002008B503208DF8000000208DF83A
:1010700001008DF8020001208DF80300684601F0A0
:1010800062F808BDF0B503460C461546642093FB94
:10109000F0F0C6B2642093FBF0F700FB1730C1B24A
:1010A000132E02DD01F16400C1B20846CF1701EB37
:1010B000977701EBA707BAB2072092FBF0F700FB86
:1010C000172082B25719601EDFF8F8C21CF8000022
:1010D000384482B2CF1701EB9777BF10A1EB870797
:1010E0001FB9032C01DA501E82B2072092FBF0F7E1
:1010F00000FB1720C0B2F0BD0146CA1701EB927287
:101100009210A1EB820292B9642091FBF0F200FBF5
:10111000121050B94FF4C87091FBF0F200FB12109E
:1011200008B9012070470020FCE70120FAE7002001
:10113000F8E770B500260024002501F08DF806467A
:10114000A148B6FBF0F4A1480088A0423CD09F49DA
:101150000C8040F2B27510E02846FFF7CDFF40B199
:10116000B4F5B77F02D3A4F5B77404E0681C85B268
:1011700006E0A4F26D14681C85B2B4F5B67FEBD816
:1011800000BF93488580002516E091498888FFF7C5
:10119000B3FF30B1012D04D11D2C01D31D3C09E05A
:1011A0000CE08C48405DA04203D88A48405D241A78
:1011B00000E003E0681C85B21C2CE6D200BF681C6E
:1011C00083498871601CC8717F48B6FBF0F100FB51
:1011D00011644FF46160B4FBF0F07D4908704FF486
:1011E0006160B4FBF0F100FB11403C21B0FBF1F079
:1011F000774948704FF46160B4FBF0F100FB114097
:101200003C21B0FBF1F201FB1200714988700B46E2
:10121000DA7999799888FFF735FF6D4908720020CF
:1012200070BD2DE9F05F06460F4690469946DDE910
:101230000AAB002440F2B270864203DB40F6330072
:10124000864202DD0120BDE8F09F40F2B2750AE05F
:101250002846FFF751FF10B15F48044401E05F48A2
:101260000444681C85B2B542F2DB781EC7B2002583
:1012700010E05848405D40F2A321484304EBC014FD
:101280003046FFF739FF18B1012D01D14E48044413
:10129000681C85B2BD42ECDBA8F1010040F2A3213D
:1012A000484304EBC014C9EB4910C0EB092004EB20
:1012B0000014CAEB0A1004EB80045C4401214FF0D7
:1012C000C05000F0E0FC012001F0C5FF204600F016
:1012D000CCFF00F0FDFFFFF72CFF0020B3E71CB5AB
:1012E000002401214FF0C05000F0CDFC012001F09E
:1012F000B2FF042001F069F845F2500188423FD066
:1013000001F02EF8012000F01EFC04E0601CC4B2C5
:101310000A2000F0A2F8412000F07DFB0028F5D063
:10132000FA2C01DB01201CBD4FF4807000F027FC7B
:10133000012000F02AFC00F0CBFF00F0D2FF0121D9
:10134000084600F069FF00F0C3FF00F072FF47F6A7
:10135000FF7000F097FF00F0BBFF372000210A2349
:101360000222CDE900100C2140F2D970FFF759FF9D
:1013700000F068FF45F25001042001F01AF807E080
:1013800000F0AFFF0121084600F046FF00F0A0FF8B
:10139000FFF768FEFFF7CDFE0020C4E710B501207F
:1013A00000F0C4FF08B1FFF7C4FE022000F0BEFF4A
:1013B00010B1022000F0CAFF052000F0C7FF00F0C6
:1013C00087FF10BD2675000880510100260000200F
:1013D00080050020327500080085E2018033E101BC
:1013E00010B56FF0040000F0F8FE2E4800682E499A
:1013F000B0FBF1F02D4908700846007800EB400181
:10140000C1EBC0104FF6FF7101EAC0002849088007
:1014100010BD0146254A12784A434FF0E0235A6135
:1014200000229A611A46126942F001021A6100BF55
:101430004FF0E022106900F001021AB100F480328E
:10144000002AF5D04FF0E022126922F001024FF09D
:10145000E0231A6100229A6170470146144A1288FB
:101460004A434FF0E0235A6100229A611A461269FA
:1014700042F001021A6100BF4FF0E022106900F053
:1014800001021AB100F48032002AF5D04FF0E022B8
:10149000126922F001024FF0E0231A6100229A61E2
:1014A000704700000400002000127A00280000208D
:1014B0002A000020014600BF704700BF494A128839
:1014C00002F04002002AF9D0C2B2464B1B1D1A801E
:1014D000704710B586B00446012144F2040000F0C4
:1014E000C5FB4FF40070ADF8140003208DF8160012
:1014F00018208DF8170005A93B4800F0FBF84FF4C1
:101500008060ADF8140004208DF8170005A9364856
:1015100000F0F0F825208DF8000003208DF8010080
:101520008DF8020001208DF80300684600F00BFEE4
:1015300001940020ADF80800ADF80A00ADF80C00E9
:10154000ADF810000C20ADF80E0001A9254800F000
:1015500034FC012240F22551224800F0C6FC012152
:10156000204800F0B6FC06B010BD10B540F2255181
:101570001C4800F09FFD10B31A4800F01BFDC4B2D8
:101580001A48008800F40040C8B91848008800F4E0
:10159000804060B10A2C03D000201449088020E06C
:1015A0001248008840F400401049088019E00D2CD2
:1015B00006D10E48008840F480400C49088010E0B5
:1015C0000A480088C0F30D0009490C5407480088F8
:1015D000401C0649088008460088C72801DD002015
:1015E000088010BD00380140000801403000002094
:1015F0008A0500200948804709480047FEE7FEE7C2
:10160000FEE7FEE7FEE7FEE7FEE7FEE7FEE7FEE7B2
:1016100004480549054A064B70470000D3040008FA
:10162000ED000008B8060020B80C0020B808002023
:10163000B808002010B50446CC48844208D10121E6
:10164000042000F02DFB0021042000F029FB46E0DF
:10165000C748844208D10121082000F021FB002165
:10166000082000F01DFB3AE0C248844208D1012165
:10167000102000F015FB0021102000F011FB2EE0DF
:10168000BD48844208D10121202000F009FB00213F
:10169000202000F005FB22E0B848844208D1012157
:1016A000402000F0FDFA0021402000F0F9FA16E099
:1016B000B348844208D10121802000F0F1FA0021D2
:1016C000802000F0EDFA0AE0AE48844207D1012103
:1016D000801500F0E5FA0021A01500F0E1FA10BD38
:1016E00010B50121084600F0DBFA0021012000F0CE
:1016F000D7FA10BD2DE9F041024600250026002052
:1017000000230024002791F803C00CF00F0591F886
:1017100003C00CF0100CBCF1000F03D091F802C014
:101720004CEA050591F800C0BCF1000F31D01468F7
:1017300000202BE04FF0010C0CFA00F3B1F800C0D0
:101740000CEA03069E4220D183004FF00F0C0CFAE6
:1017500003F7BC4305FA03FC4CEA040491F803C008
:10176000BCF1280F06D14FF0010C0CFA00FCC2F8B6
:1017700014C00AE091F803C0BCF1480F05D14FF046
:10178000010C0CFA00FCC2F810C0401C0828D1D390
:101790001460B1F800C0BCF1FF0F34DD54680020C4
:1017A0002EE000F1080C4FF0010808FA0CF3B1F834
:1017B00000C00CEA03069E4221D183004FF00F0CBB
:1017C0000CFA03F7BC4305FA03FC4CEA040491F855
:1017D00003C0BCF1280F05D100F1080C08FA0CF881
:1017E000C2F8148091F803C0BCF1480F07D100F192
:1017F000080C4FF0010808FA0CF8C2F81080401CE1
:101800000828CED35460BDE8F0814FF6FF71018007
:10181000022181700421C170704702460020936844
:101820000B400BB1012000E00020704701468868A2
:1018300080B2704702460020D3680B400BB10120F4
:1018400000E0002070470146C86880B2704701611F
:101850007047416170470AB1016100E04161704722
:10186000C16070474FF480320A43826181618261B6
:1018700082698269704702460020434B18684FF620
:101880008073184040EA021008433F4B18607047CD
:101890003E49C8617047F0B50A4600230024002184
:1018A000002500F00046B6F1004F02D1364EF16936
:1018B00001E0354E7168C0F3034583B200F4401671
:1018C000B6F5401F08D121F070612F4E766826F0E2
:1018D00070662D4F7E6012E000F48016B6F5801F12
:1018E00006D1032606FA05F4A14341F0706106E033
:1018F000460D360103FA06F6B14341F0706122B19C
:10190000460D360103FA06F6314300F00046B6F103
:10191000004F02D11C4EF16101E01B4E7160F0BD21
:1019200030B500228B071C0F0F2303FA04F2164B6D
:1019300008338C1053F824309343134C08348D1023
:1019400044F8253023468C1053F824308C07240F9C
:1019500000FA04F423430C4C08348D1044F825306D
:1019600030BD0A49DC3108607047000000080140C2
:10197000000C01400010014000140140001801401B
:10198000001C0140002001400000014000002042F6
:10199000DF48006840F00100DD4908600846406803
:1019A000DC490840DA49486008460068DA490840DE
:1019B000D74908600846006820F48020086008467F
:1019C000406820F4FE0048604FF41F0088607047B4
:1019D000CF49096821F48031CD4A11601146096868
:1019E00021F480211160B0F5803F03D0B0F5802F45
:1019F0000ED106E0C649096841F48031C44A11603D
:101A000007E0C349096841F4A021C14A116000E020
:101A100000BF00BF704710B5014600220023002020
:101A20004A11012A02D1BA4C236806E0022A02D1E7
:101A3000B74C236A01E0B64C636A01F01F0201242F
:101A400094401C400CB1012000E0002010BD38B5CE
:101A5000002000900024002500BF3120FFF7DBFFAD
:101A600005460098401C00900098B0F5A06F01D08A
:101A7000002DF2D03120FFF7CEFF08B1012400E0A5
:101A80000024204638BD01460020A14A106820F0FD
:101A9000F80040EAC10010607047A0490860704734
:101AA000024600209A4B586820F47C1042EA010359
:101AB0001843974B5860704798490866704701462D
:101AC0000020934A506820F003000843506070479C
:101AD0008F48406800F00C007047014600208C4A97
:101AE000506820F0F0000843506070470146002025
:101AF000874A506820F4E060084350607047014610
:101B00000020834A506820F4605040EAC1005060D1
:101B1000704729B17E4A527A02437D4B5A7204E0E3
:101B20007B4A527A82437A4B5A7270477B49D8314A
:101B30000860704701460020754A506820F4404014
:101B40000843506070470021714A20321170704A7A
:101B500082F82010012802D004280AD104E00121D3
:101B60006B4A2032117005E00521694A203211705C
:101B700000E000BF00BF70476949086070476449D2
:101B8000096A0143624A1162704765494439086035
:101B9000704730B500210022002400235C4D6D68A1
:101BA00005F00C0121B1042905D0082923D105E055
:101BB0005C4D056022E05B4D05601FE0544D6D6893
:101BC00005F47012524D6D6805F48034022505EB62
:101BD00092421CB9544D554305600BE04C4D6D6865
:101BE00005F400351DB1504D5543056002E04D4DE3
:101BF0005543056002E04B4D056000BF00BF444DFA
:101C00006D6805F0F0010909484D6B5C0568DD4021
:101C100045603F4D6D6805F4E061090A434D6B5C1A
:101C20004568DD4085603A4D6D6805F46051C90A2C
:101C30003E4D6B5C4568DD40C560354D6D6805F413
:101C40004041890B3A4D6B5CC568B5FBF3F5056106
:101C500030BD29B12E4A526902432D4B5A6104E02E
:101C60002B4A526982432A4B5A61704729B1284A4C
:101C700092690243264B9A6104E0254A92698243A5
:101C8000234B9A61704729B1214AD2690243204B04
:101C9000DA6104E01E4AD26982431D4BDA61704763
:101CA00029B11B4AD2680243194BDA6004E0184A92
:101CB000D2688243164BDA60704729B1144A126920
:101CC0000243134B1A6104E0114A12698243104B1C
:101CD0001A61704712494039086070470F49C8645B
:101CE00070470B49C87170470948406A40F08070DE
:101CF00007494862704701460020054A92680A4039
:101D00000AB1012000E00020704701498872704745
:101D1000001002400000FFF8FFFFF6FE0000424204
:101D20008004424200127A0000093D003200002087
:101D30004200002010B50446FB48844209D101212D
:101D40008803FFF7ADFF00214FF48040FFF7A8FFA5
:101D500032E0F648844209D101214804FFF7ADFF83
:101D600000214FF40030FFF7A8FF25E0F04884423F
:101D700009D101218804FFF7A0FF00214FF4802042
:101D8000FFF79BFF18E0EB48844209D10121C8040A
:101D9000FFF793FF00214FF40020FFF78EFF0BE0C9
:101DA000E548844208D101210805FFF786FF00219C
:101DB0004FF48010FFF781FF10BD2DE9F04786B08A
:101DC00005460E460024A24600BFA1460027B08962
:101DD00000B100BF2F462C8A4CF6FF700440F088FB
:101DE00004432C82AC894EF6F3100440B08831894C
:101DF0000843718908430443AC81AC8A4FF6FF4025
:101E00000440B0890443AC8201A8FFF7C2FEC64873
:101E1000874202D1DDF810A001E0DDF80CA0A8890E
:101E200000F4004040B10AEBCA0000EB0A10316830
:101E30004900B0FBF1F807E00AEBCA0000EB0A101A
:101E400031688900B0FBF1F86420B8FBF0F00401C0
:101E50002009642101FB1089A88900F4004040B1E9
:101E6000322000EBC900B0FBF1F000F007000443A2
:101E700008E0322000EB09106421B0FBF1F000F023
:101E80000F0004432C8106B0BDE8F0874FF41651D3
:101E9000016000218180C18001810C2141810021EC
:101EA0008181704710B502460020108A4FF2FF036F
:101EB00018400B884C8823438C882343CC882343C9
:101EC0001843108210BD0021018041808180C180B3
:101ED000704721B1828942F40052828104E08289F4
:101EE0004DF6FF731A4082817047F0B50346002417
:101EF00000260025002040F66A17B94200D100BF35
:101F00001846C1F3421401F01F06012707FA06F52F
:101F1000012C01D10C3004E0022C01D1103000E082
:101F200014301AB107682F43076002E00768AF4317
:101F30000760F0BD1AB1838A0B43838202E0838A73
:101F40008B4383827047028A4FF6F0731A400282F5
:101F5000028A0A430282704782894FF2FF731A4055
:101F6000828182890A438281704721B1828942F04D
:101F70000202828104E082894FF6FD731A40828159
:101F80007047028A4FF6DF731A400282028A0A43C0
:101F90000282704721B1028A42F48042028204E048
:101FA000028A4BF6FF731A4002827047C1F308029F
:101FB0008280704701468888C0F308007047818995
:101FC00041F0010181817047028BD2B20283028B02
:101FD00042EA012202837047028B02F47F420283AD
:101FE000028B0A430283704721B1828A42F02002A9
:101FF000828204E0828A4FF6DF731A408282704741
:1020000021B1828A42F01002828204E0828A4FF675
:10201000EF731A408282704721B1828A42F008022F
:10202000828204E0828A4FF6F7731A4082827047F8
:1020300021B1828942F40042828103E08289C2F3A5
:102040000E028281704721B1828A42F4006282824C
:1020500004E0828A4FF2FF731A4082827047828ABC
:102060004FF6FB731A408282828A0A43828270474B
:1020700021B1828A42F00202828204E0828A4FF613
:10208000FD731A408282704702460020B1F5007F3E
:1020900000D100BF13880B400BB1012000E00020ED
:1020A000704701F40072B2F5007F00D100BFCA434F
:1020B0000280704770B502460024002300250020EE
:1020C00040F66A16B14200D100BFC1F3421501F0DB
:1020D0001F03012606FA03F3012D02D1968933402E
:1020E00006E0022D02D1168A334001E0968A334081
:1020F0000C12012606FA04F41688344013B10CB110
:10210000012000E0002070BD10B50022002340F641
:102110006A14A14200D100BF0A1201249440A3B264
:10212000DC43048010BD0000003801400044004042
:1021300000480040004C004000500040314901433D
:10214000314A1160704770B5002100230F22C47816
:1021500004B32D4C246804F4E064C4F5E064210A5F
:10216000C1F10403CA40447804FA03F184781440AE
:1021700021430901254C0678A155047804F01F0578
:102180000124AC4005786D11AD0005F1E025C5F8DE
:10219000004109E0047804F01F050124AC401C4D07
:1021A0000678761145F8264070BD1A4A0A40024367
:1021B000154B1B1F1A60704739B1134A121D126864
:1021C0000243114B1B1D1A6006E00F4A121D1268D4
:1021D00082430D4B1B1D1A607047042808D14FF035
:1021E000E021096941F004014FF0E022116107E0AC
:1021F0004FF0E021096921F004014FF0E022116164
:10220000704700000000FA050CED00E000E400E07B
:1022100080E100E080FFFF1F29B1504A128802438D
:102220004E4B1A8004E04D4A128882434B4B1A8071
:1022300070474A48001D008840F010004749091DBA
:10224000088070474548001D00884FF6EF71084030
:102250004249091D08807047002140481C30018810
:10226000001F008841EA0040704700B50246FFF7B2
:10227000E0FF100C394918310880091D0A80FFF76A
:10228000E1FF00BD00B50246FFF7D3FFC2F30340F4
:10229000324908310880091D0A80FFF7D3FF00BDCD
:1022A00000B50246FFF7C5FF100C2C49203108800D
:1022B000091D0A80FFF7C6FF00BD00202749103125
:1022C00009880907080B2549143109880843704714
:1022D00000BF2248001D008800F020000028F8D030
:1022E00070471E48001D00884FF6F77108401B49D3
:1022F000091D088000BF1948001D008800F0080073
:102300000028F8D0704701460020144A121D128898
:102310000A400AB1012000E0002070470F49091D62
:10232000098881430D4A121D118070470146002023
:102330000A4A121D12880A40D0B2084A12880A407E
:1023400012B108B1012000E0002070470349091DC7
:1023500009888143014A121D1180704700280040FE
:1023600010B50120FFF7B6FC0020FFF7B3FC10BD4D
:102370002A49086070472949091F086070472749A2
:1023800084310860704701460020254A10884FF6C6
:102390007F4210400843224A1080704701460020C7
:1023A0001F4A10884FF68072104008431C4A108064
:1023B000704708B500220092194A2C3A0092009A00
:1023C00002440092009A116008BD08B50146002041
:1023D000009013482C380090009808440090009812
:1023E000008808BD0D489C300068C0B270470C489A
:1023F0000830008840F00100094908310880704722
:102400000648A0300068C0B2704705480830008810
:1024100040F00200024908310880704704860D42EE
:102420002C6C004010B50446FE48844208D10121BE
:10243000C014FFF735FC0021E014FFF731FCC4E0C5
:10244000B4F1804F08D101210846FFF736FC002186
:102450000120FFF732FCB8E0F348844208D10121A3
:102460000220FFF72AFC00210220FFF726FCACE047
:10247000EE48844208D101210420FFF71EFC002110
:102480000420FFF71AFCA0E0E948844208D10121AA
:102490000820FFF712FC00210820FFF70EFC94E053
:1024A000E448844208D101211020FFF706FC0021F6
:1024B0001020FFF702FC88E0DF48844208D10121A8
:1024C0002020FFF7FAFB00212020FFF7F6FB7CE03D
:1024D000DA48844208D101214014FFF7E1FB0021D2
:1024E0006014FFF7DDFB70E0D548844209D101217B
:1024F000C804FFF7D5FB00214FF40020FFF7D0FB05
:1025000063E0D048844209D101210805FFF7C8FBE8
:1025100000214FF48010FFF7C3FB56E0CA48844205
:1025200009D101214805FFF7BBFB00214FF4001042
:10253000FFF7B6FB49E0C548844208D1012140209D
:10254000FFF7BBFB00214020FFF7B7FB3DE0C04891
:10255000844208D101218020FFF7AFFB00218020B9
:10256000FFF7ABFB31E0BB48844208D10121801565
:10257000FFF7A3FB0021A015FFF79FFB25E0B6485E
:10258000844209D101210804FFF78AFB00214FF49E
:102590008030FFF785FB18E0B048844209D1012163
:1025A0004804FFF77DFB00214FF40030FFF778FB74
:1025B0000BE0AB48844208D101218804FFF770FB8F
:1025C00000214FF48020FFF76BFB10BD0022028832
:1025D000944B98420ED0994B98420BD0B0F1804F5B
:1025E00008D0914B984205D0904B984202D0904B26
:1025F000984204D14FF68F731A404B881A438D4B83
:10260000984207D08C4B984204D04FF6FF431A40B3
:10261000CB881A4302808B8883850B880385814B86
:1026200098420BD0854B984208D08B4B984205D0EE
:102630008A4B984202D08A4B984201D10B7A03868A
:1026400001238382704770B5002400220023058C8B
:102650004FF6FE7635400584028C8388048B4FF656
:102660008F752C40B51E2C400D882C43751E2A40BA
:102670000D892A434D882A436A4DA8420BD06F4DDD
:10268000A84208D0744DA84205D0744DA84202D08B
:10269000734DA84213D14FF6F7752A404D892A434E
:1026A0004FF6FB752A408D882A434FF6FF652B4075
:1026B0004FF6FF552B408D892B43CD892B438380CB
:1026C0000483CD888586028470BD70B50024002205
:1026D0000023058C4FF6EF7635400584028C838805
:1026E000048B48F6FF752C404FF6FF452C400D88B3
:1026F0004FF6FF7606EA05252C434FF6DF752A4094
:102700000D8906EA05152A434D8806EA05152A4370
:10271000444DA84202D0494DA8421DD14FF67F75C5
:102720002A404D894FF6FF7606EA05152A434FF6F3
:10273000BF752A408D8806EA05152A434FF6FF35F6
:102740002B404FF2FF752B408D8906EA85052B4300
:10275000CD8906EA85052B4383800483CD880587D0
:10276000028470BD70B5002400220023058C4FF652
:10277000FF6635400584028C8388848B4FF68F7505
:102780002C404FF6FC752C400D882C434FF6FF551E
:102790002A400D894FF6FF7606EA05252A434D8823
:1027A00006EA05252A431F4DA84202D0234DA84220
:1027B0001DD14FF2FF752A404D894FF6FF7606EA8C
:1027C00005252A434FF6FF352A408D8806EA052560
:1027D0002A434EF6FF752B404DF6FF752B408D8931
:1027E00006EA05152B43CD8906EA05152B438380A0
:1027F0008483CD888587028470BD70B50022002354
:102800000024058C4EF6FF7635400584038C8488C1
:10281000828B48F6FF752A404FF6FF452A400D8807
:1028200020E00000002C01400004004000080040AF
:10283000000C004000100040001400400034014033
:10284000004C01400050014000540140001800407D
:10285000001C0040002000400040014000440140B6
:10286000004801404FF6FF7606EA05252A434DF65B
:10287000FF752B400D8906EA05352B434D8806EA86
:1028800005352B43FA4DA84202D0FA4DA84208D193
:102890004BF6FF752C408D894FF6FF7606EA8515BD
:1028A0002C4384808283CD88A0F84050038470BD7F
:1028B000828B4FF2FF331A408283828B4FF6FF7375
:1028C00003EA01231A4382837047F0B50C4615468C
:1028D000002200210026078C4EF6FF7C07EA0C0739
:1028E0000784828B018C4FF6FF7707EA043640F6A7
:1028F000FF473A404FF6FF7707EA05273A434FF67E
:10290000FF7707EA03373A43D94FB8420ED0D94F81
:10291000B8420BD0B0F1804F08D0D74FB84205D0A5
:10292000D64FB84202D0D64FB84206D14DF6FF7707
:10293000394046F48057394305E047F6FF573940A0
:1029400044F48057394382830184F0BD828B4FF673
:10295000F3731A408283828B0A4382837047F0B5F7
:102960000C461546002200210026078C4FF6FF6C0E
:1029700007EA0C070784828B018C4FF6FF7707EA82
:1029800004264FF60C773A404FF6FF7707EA031715
:102990002F433A43B64FB8420ED0B64FB8420BD091
:1029A000B0F1804F08D0B44FB84205D0B34FB84211
:1029B00002D0B34FB84206D14FF6FF57394046F424
:1029C0008077394305E04FF2FF57394044F4807770
:1029D000394382830184F0BD028B4FF2FF331A40EA
:1029E0000283028B4FF6FF7303EA01231A4302832B
:1029F0007047F0B50C461546002200210026078CD2
:102A00004FF6EF7C07EA0C070784028B018C4FF628
:102A1000FF7707EA041640F6FF473A404FF6FF7784
:102A200007EA03373A434FF6FF7707EA05273A43A9
:102A30008F4FB8420ED08F4FB8420BD0B0F1804FBD
:102A400008D08D4FB84205D08C4FB84202D08C4F81
:102A5000B84206D14FF6DF77394046F010073943C8
:102A600005E04FF65F77394044F0100739430283A1
:102A70000184F0BD028B4FF6F3731A400283028B80
:102A80000A4302837047F0B50C4615460022002128
:102A9000068C4FF6FE773E400684028B018C4FF683
:102AA0000C7632407E1C06EA03162E433243704EEB
:102AB000B0420ED06F4EB0420BD0B0F1804F08D074
:102AC0006D4EB04205D06D4EB04202D06C4EB04259
:102AD00006D14FF6FD76314044F00106314305E062
:102AE0004FF6F576314044F001063143028301840C
:102AF000F0BD70B505460C465D4885420ED05D4878
:102B000085420BD0B5F1804F08D05B48854205D097
:102B10005A48854202D05A48854200D100E000BFA1
:102B2000208850B92389A28861882846FFF7ABFF27
:102B3000E1882846FFF79EFF25E0208804280AD177
:102B40002389A28861882846FFF753FFE188284639
:102B5000FFF742FF17E0208808280AD12389A288BE
:102B600061882846FFF7FBFEE1882846FFF7EEFE66
:102B700009E02389A28861882846FFF7A6FEE1883C
:102B80002846FFF795FE70BD2DE9F04105460C463D
:102B900000260127608808B9022600E00026A088E8
:102BA000012801D1022700E001272088A0B923894C
:102BB000A28861882846FFF766FFE1882846FFF76C
:102BC00059FF23893A4631462846FFF712FFE1882C
:102BD0002846FFF701FF13E02389A2886188284671
:102BE000FFF707FFE1882846FFF7F6FE23893A46FC
:102BF00031462846FFF747FFE1882846FFF73AFFAE
:102C0000BDE8F0810A884B881A438B881A43CB8829
:102C10001A430B891A434B891A438B891A43A0F82C
:102C2000442070474FF6FF71818000210180C180F0
:102C30004180017270470021018041808180C18004
:102C4000018141818181C1817047002101804180E2
:102C5000012181800021C180018170470021018014
:102C600041808180C1800181418181817047000064
:102C7000002C0140003401400004004000080040E6
:102C8000000C004021B1028842F00102028004E001
:102C900002884FF6FE731A400280704731B1B0F8D7
:102CA000442042F40042A0F8442005E0B0F844205B
:102CB000C2F30E02A0F8442070471AB183890B4377
:102CC000838102E083898B438381704781827047CF
:102CD00041EA0203A0F8483070471AB183890B43D8
:102CE000838102E083898B438381704701894FF69A
:102CF000F8721140018170470A46002101894FF6A0
:102D00008F73194011430181704730B504460D4659
:102D100029462046FFF7F0FF208940F00700208178
:102D200030BD2DE9F04104460D4616461F46602D84
:102D300006D13B46012231462046FFF75AFE05E008
:102D40003B46012231462046FFF79DFE294620469C
:102D5000FFF7D2FF208940F007002081BDE8F08115
:102D600030B50C4600210189C9B24FF6FF7505EA5E
:102D70000325154325432943018130BD2DE9F04149
:102D800005460E4617469846002443463A463146C5
:102D90002846FFF7E5FF2C894FF6F870044044F011
:102DA00007044FF68F70044044F070042C81BDE896
:102DB000F081F0B504460D4616461F463B463246A6
:102DC00029462046FFF7CCFF208940F4804020812F
:102DD000F0BD0185828270470A46002101884FF6C6
:102DE0008F731940114301807047F0B50C461546AA
:102DF0001E460021002200230189028B038C4FF61E
:102E0000F877394021434FF6FC473A4040F201172A
:102E10003A434FF6DD773B404FF6FF7707EA061758
:102E20002F433B43018102830384F0BD0A46002106
:102E3000018B4FF68F7319401143018370470A4687
:102E40000021018B48F6FF7319404FF6FF7303EA28
:102E500002231943018370470A460021818B4FF6F4
:102E60008F7319401143818370470A460021818B7B
:102E700048F6FF7319404FF6FF7303EA0223194324
:102E80008183704721B1028842F08002028004E011
:102E900002884FF67F731A400280704721B1828802
:102EA00042F00402828004E082884FF6FB731A40ED
:102EB0008280704721B1828842F00802828004E05B
:102EC00082884FF6F7731A408280704721B182885A
:102ED00042F00102828004E082884FF6FE731A40BD
:102EE000828070470A460021018B4FF6F773194024
:102EF0001143018370470A460021018B4FF2FF7393
:102F000019404FF6FF7303EA022319430183704708
:102F10000A460021818B4FF6F773194011438183D4
:102F200070470A460021818B4FF2FF7319404FF61C
:102F3000FF7303EA02231943818370470A46002185
:102F4000018B4FF6FB7319401143018370470A460A
:102F50000021018B4FF6FF3319404FF6FF7303EA50
:102F600002231943018370470A460021818B4FF6E3
:102F7000FB7319401143818370470A460021818BFE
:102F80004FF6FF3319404FF6FF7303EA022319434C
:102F9000818370470A460021018B4FF67F731940E9
:102FA0001143018370470A460021018BC1F30E01D2
:102FB0004FF6FF7303EA02231943018370470A4661
:102FC0000021818B4FF67F73194011438183704735
:102FD0000A460021818BC1F30E014FF6FF7303EA0D
:102FE00002231943818370470A460021018C4FF662
:102FF000FD7319401143018470470A460021018C7A
:103000004FF6F77319401143018470470A460021B7
:10301000018C4FF6DF7319404FF6FF7303EA02137A
:103020001943018470470A460021018C4FF67F73D3
:1030300019404FF6FF7303EA0213194301847047E6
:103040000A460021018C4FF6FF5319404FF6FF73DB
:1030500003EA02231943018470470A460021018CC8
:103060004FF2FF7319404FF6FF7303EA022319432F
:10307000018470470A460021018C4DF6FF73194008
:103080004FF6FF7303EA023319430184704730B5EA
:10309000002301248C40A3B2048C9C430484048C40
:1030A00002FA01F5ADB22C43048430BD30B50023E3
:1030B00004248C40A3B2048C9C430484048C02FA44
:1030C00001F5ADB22C43048430BD70B50346002039
:1030D00000241846183001258D40ACB21D8CA54344
:1030E0001D8409B1082909D100EB6100056825F0AC
:1030F000700505600568154305600EE00D1FC5F3FA
:103100004E052844056825F4E045056005684FF63E
:10311000FF7606EA02263543056070BD21B10288BC
:1031200042F00202028004E002884FF6FD731A406A
:103130000280704721B1028842F00402028004E05C
:1031400002884FF6FB731A400280704721B18288D3
:1031500042F08002828004E082884FF67F731A403A
:103160008280704702884FF6F7731A400280028807
:103170000A430280704782884FF68F731A4082801C
:1031800082880A438280704702894FF6F8731A409A
:10319000028102890A430281704702894FF67F73D8
:1031A0001A40028102890A43028170478184704774
:1031B0008185704781867047018770478187704796
:1031C000A0F84010704702884FF6FF431A40028073
:1031D00002880A43028070470146888E7047014684
:1031E000088F70470146888F70470146B1F840004C
:1031F00070470146888C70470146088D704702462B
:103200000020138A0B400BB1012000E00020704722
:10321000CA430282704730B50246002000230024D2
:10322000158A05EA0103958905EA010413B10CB179
:10323000012000E0002030BDCA4302827047000038
:1032400010B501210807FEF738FD00214FF080502E
:10325000FEF733FD10BD2A4908627047284908610E
:10326000704701460020274A106820F0E00008431C
:10327000106070472249A0310860704710B50246BF
:103280000020204B186820F00300104318601E4BEC
:103290001B6843F004031C4C2360012901D130BF9B
:1032A00000E020BF184B1B6823F00403164C23607A
:1032B00010BD1448006840F0040012490860084638
:1032C000006840F0020008600F48006840F0040009
:1032D0000D49086000BF00BF30BF704701460020A5
:1032E000084A52680A400AB1012000E000207047F5
:1032F0000449096841EA8001024A116070470000F0
:1033000000000E420070004010ED00E010B58CB0DF
:1033100004461E230BAA03A9204600F0AFFE00902E
:10332000009810B101200CB010BD9DF82C00044491
:1033300000200B900EE040489DF82C2050F8221001
:1033400003A800F003FE00B908E09DF82C00401C23
:10335000C0B20B909DF82C000728ECD300BF9DF85D
:103360002C00072863D2DFE800F004053C5E6564AA
:10337000630000BF31A001F07FF831A001F07CF8BC
:103380003FA001F079F84EA001F076F85CA001F0C2
:1033900073F86BA001F070F879A001F06DF886A0C9
:1033A00001F06AF88BA001F067F890A001F064F8D2
:1033B00094A001F061F899A001F05EF89EA001F0E0
:1033C0005BF8A4A001F058F8B0A001F055F8BDA03A
:1033D00001F052F8C8A001F04FF8D4A001F04CF869
:1033E0009AE216A001F048F8E0A001F045F80020AC
:1033F0000B900EE0ED4800689DF82C2000EBC20019
:103400004168EBA001F038F89DF82C00401CC0B2D8
:103410000B90E648007D9DF82C108842EADC07A05E
:1034200001F02AF878E205A001F026F8C4E171E283
:1034300045E219E2ECE10000480000200D0A00001E
:103440002D2D2D2D2D2D2D2D2D2D2D2D2D2D2D2DAC
:103450002D2D2D2D2D2D2D2D55534D4152542056B2
:10346000332E312D2D2D2D2D2D2D2D2D2D2D2D2D81
:103470002D2D2D2D2D2D2D2D2D2D2D200D0A000026
:103480002020202055534D415254CAC7D3C9414C26
:1034900049454E54454BBFAAB7A2B5C4D2BBB8F6F6
:1034A000C1E9C7C9B5C4B4AEBFDAB5F7CAD4BBA5C4
:1034B000BDBBD7E9BCFE2CCDA8B9FD200D0A00008C
:1034C000CBFC2CC4E3BFC9D2D4CDA8B9FDB4AEBFE8
:1034D000DAD6FACAD6B5F7D3C3B3CCD0F2C0EFC3AD
:1034E000E6B5C4C8CEBACEBAAFCAFD2CB2A2D6B425
:1034F000D0D02ED2F2B4CB2CC4E3BFC90D0A000049
:10350000D2D4CBE6D2E2B8FCB8C4BAAFCAFDB5C4D7
:10351000CAE4C8EBB2CECAFD28D6A7B3D6CAFDD737
:10352000D62831302F3136BDF8D6C629A1A2D7D63C
:10353000B7FBB4AEA1A2BAAFCAFDC8EB0D0A00003A
:10354000BFDAB5D8D6B7B5C8D7F7CEAAB2CECAFDBE
:10355000292CB5A5B8F6BAAFCAFDD7EEB6E0D6A706
:10356000B3D63130B8F6CAE4C8EBB2CECAFD2CB23D
:10357000A2D6A7B3D6BAAFCAFDB7B5200D0A0000D0
:10358000BBD8D6B5CFD4CABE2ED0C2D4F6B2CECA1E
:10359000FDCFD4CABEBDF8D6C6C9E8D6C3B9A6C445
:1035A000DC2CD0C2D4F6BDF8D6C6D7AABBBBB9A610
:1035B000C4DC2E0D0A000000BCBCCAF5D6A7B3D6E9
:1035C0003A7777772E6F70656E6564762E636F6DD0
:1035D0000D0A000055534D415254D3D037B8F6CFA1
:1035E000B5CDB3C3FCC1EE3A0D0A00003F3A20202E
:1035F00020202020BBF1C8A1B0EFD6FAD0C5CFA2C1
:103600000D0A000068656C703A202020BBF1C8A14B
:10361000B0EFD6FAD0C5CFA20D0A00006C69737462
:103620003A202020BFC9D3C3B5C4BAAFCAFDC1D0A8
:10363000B1ED0D0A0A00000069643A202020202024
:10364000BFC9D3C3BAAFCAFDB5C44944C1D0B1EDF7
:103650000D0A0A006865783A20202020B2CECAFD03
:103660003136BDF8D6C6CFD4CABE2CBAF3B8FABF2D
:10367000D5B8F12BCAFDD7D6BCB4D6B4D0D0BDF8DE
:10368000D6C6D7AABBBB0D0A0A0000006465633A20
:1036900020202020B2CECAFD3130BDF8D6C6CFD40E
:1036A000CABE2CBAF3B8FABFD5B8F12BCAFDD7D62B
:1036B000BCB4D6B4D0D0BDF8D6C6D7AABBBB0D0A11
:1036C0000A00000072756E74696D653A312CBFAAEC
:1036D000C6F4BAAFCAFDD4CBD0D0BCC6CAB13B3059
:1036E0002CB9D8B1D5BAAFCAFDD4CBD0D0BCC6CADC
:1036F000B13B0D0A0A000000C7EBB0B4D5D5B3CC7E
:10370000D0F2B1E0D0B4B8F1CABDCAE4C8EBBAAFE8
:10371000CAFDC3FBBCB0B2CECAFDB2A2D2D4BBD8E4
:10372000B3B5BCFCBDE1CAF82E0D0A002D2D2D2D20
:103730002D2D2D2D2D2D2D2D2D2D2D2D2D2D2D2DB9
:103740002D2D2D2D2D2D414C49454E54454B2D2DC4
:103750002D2D2D2D2D2D2D2D2D2D2D2D2D2D2D2D99
:103760002D2D2D2D2D2D2D200D0A00002D2D2D2D33
:103770002D2D2D2D2D2D2D2D2D2D2D2D2D2D2D2D79
:103780002D2D2D2D2DBAAFCAFDC7E5B5A52D2D2D9B
:103790002D2D2D2D2D2D2D2D2D2D2D2D2D2D2D2D59
:1037A0002D2D2D2D2D2D2D2D200D0A008C000020CE
:1037B00025730D0A00000000F1A000F05DFE00205E
:1037C0000B901AE0FE4909689DF82C2001EBC2011C
:1037D00001AB02AA486803A900F076FCF84800682B
:1037E0009DF82C1050F8312003A9F6A000F044FEFB
:1037F0009DF82C00401CC0B20B90F148007D9DF854
:103800002C108842DEDCAFF2CC3000F035FE83E0D5
:10381000AFF2D83000F030FE0BAA03A9204600F02A
:103820002FFD9DF82C00C8B9694603A800F0C1FB24
:103830000B909DF82C0020B9E7A0009900F01CFE29
:103840000EE09DF82C00042801D002206BE5E5A0D5
:1038500000F012FE0120DA49C87501E0022062E59D
:10386000DFA000F009FE57E0DDA000F005FE0BAA86
:1038700003A9204600F004FD9DF82C00C8B9694654
:1038800003A800F096FB0B909DF82C0020B9DAA05D
:10389000009900F0F1FD0EE09DF82C00042801D005
:1038A000022040E5D7A000F0E7FD0020C449C8751C
:1038B00001E0022037E5CAA000F0DEFD2CE0C8A040
:1038C00000F0DAFD0BAA03A9204600F0D9FC9DF810
:1038D0002C00C8B9694603A800F06BFB0B909DF85B
:1038E0002C0078B9B649009881F8EC00084690F8A9
:1038F000EC0018B1C8A000F0BFFD07E0CDA000F0BB
:10390000BBFD03E002200EE502200CE5B4A000F0B0
:10391000B3FD01E0012006E500BF002003E5CC482F
:10392000008820F00100CA4908804FF6FF70C8499E
:103930001C3108800020C64914310880A049C1F814
:10394000F0007047C248008800F0010040B19C4878
:10395000D0F8F0004FF6FF7108449949C1F8F00023
:103960009748D0F8F000BA491431098808449449BE
:10397000C1F8F0000846D0F8F000704710B5B44820
:10398000008800F0010058B18D4908698047002087
:10399000AF49143108804FF47A70AD491C3108806A
:1039A000AB48008820F00100A949088010BD7FB510
:1039B00005460C4601210420FEF765F9ADF80850D4
:1039C000ADF804400020ADF80A00ADF8060001A9EA
:1039D0009F481038FEF7FAFD012241219C4810381B
:1039E000FFF76BF91E208DF8000003208DF8010011
:1039F0008DF8020001208DF803006846FEF7A3FB56
:103A0000012193481038FFF73DF97FBD10B50446FA
:103A100004EBC40000EB04100122C2EB800081B271
:103A20004FF47A70FFF7C3FF01206549C87510BDD8
:103A300030B595B0054613AB12AA09A9284600F087
:103A400043FB044614B1204615B030BD002014904D
:103A500026E05B4909689DF8502001EBC20113ABD9
:103A600011AA486801A900F02FFB04460CB12046BA
:103A7000EAE709A901A800F069FA60B99DF84400D5
:103A80009DF84810884201DD0220DDE79DF85000D6
:103A90004B4988750AE09DF85000401CC0B2149054
:103AA0004748007D9DF850108842D2DC00BF444852
:103AB000007D9DF85010884201D10420C4E714A96C
:103AC000284600F04EFC04460CB12046BCE79DF8A9
:103AD00050003B4948750020B6E72DE9F0419AB007
:103AE00000263748847D007DA04202DC1AB0BDE884
:103AF000F0813349096801EBC40106AB07AA4868A5
:103B000008A900F0E1FA08A952A000F0B5FC0025D0
:103B1000BAE02B48008B0121A9400840D8B12221EE
:103B20004EA000F0A9FC284600F00EFC24492431E8
:103B3000471839464AA000F09FFC222147A000F018
:103B40009BFC284600F000FC1D492431084410A9C4
:103B500041F825008EE0284600F0F6FB1849243194
:103B6000085810A941F825001548C07D30B910A8A3
:103B700050F825103BA000F07FFC7BE074E00000D3
:103B80002D2D2D2D2D2D2D2D2D2D2D2D2D2D2D2D65
:103B90002D2D2D2D2D2D2D2D2DBAAFCAFD204944B3
:103BA000202D2D2D2D2D2D2D2D2D2D2D2D2D2D2D52
:103BB0002D2D2D2D2D2D2D2D2D2D2D2D200D0A00B2
:103BC0008C00002025732069642069733A0D0A3047
:103BD00058253038580D0A004845583A305825586D
:103BE0000D0A00003136BDF8D6C6B2CECAFDCFD41C
:103BF000CABE210D0A0000004445433A256C750DEC
:103C00000A0000003130BDF8D6C6B2CECAFDCFD40E
:103C1000CABE210D0A00000052756E2054696D6500
:103C20002043616C63756C6174696F6E204F4E0D3B
:103C30000A00000052756E2054696D652043616C66
:103C400063756C6174696F6E204F46460D0A000003
:103C5000100800400D0A25732800000025630000AD
:103C600025730000256C750010A850F8251095A04C
:103C700000F002FC9DF81C00401EA84202D093A058
:103C800000F0FAFB681CC5B29DF81C008542FFF6E7
:103C900040AF8FA000F0F0FBFFF741FE8D48407D64
:103CA0000B280DD2DFE800F0060D151E27323F4E1F
:103CB0005F7287008749096851F8340080470646DB
:103CC00090E0844A126852F83410109888470646EB
:103CD00088E0804B1B6853F83420DDE910019047E1
:103CE00006467FE07B4F3F6857F8343010A807C87E
:103CF0009847064676E0DFF8DCC1DCF800C05CF8E7
:103D0000347010A80FC8B84706466BE01498DFF867
:103D1000C4C10090DCF800C05CF8347010A80FC873
:103D2000B84706465EE0DDE91401DFF8A8C1CDE939
:103D30000001DCF800C05CF8347010A80FC8B84768
:103D400006464FE0DDE914121698DFF888C1CDE988
:103D500000120290DCF800C05CF8347010A80FC8A4
:103D6000B84706463EE0DDE91423DDE91610DFF82A
:103D700064C1CDE90023CDE90210DCF800C05CF895
:103D8000347010A80FC8B84706462BE0DDE916329C
:103D900018991598CDE90232049101901498DFF832
:103DA00034C10090DCF800C05CF8347010A80FC873
:103DB000B847064616E0DDE91623DDE91810CDE91F
:103DC0000223CDE90410DDE91401DFF808C1CDE9D3
:103DD0000001DCF800C05CF8347010A80FC8B847C8
:103DE000064600BF00BFFFF7ADFD9DF81800012893
:103DF0000CD13848C07D20B9314637A000F03CFBDB
:103E000007E0314636A000F037FB02E033A000F0B7
:103E100033FB304890F8EC0088B12E48D0F8F00021
:103E20000A21B0FBF1F201FB12072A48D0F8F0009A
:103E3000B0FBF1F83A4641462CA000F01DFB00BF54
:103E400054E670B53148008800F40040002833D0B3
:103E50002E48057800202E4948551E4881682C4878
:103E6000884704461CB91B49C868804721E0284898
:103E7000FFF74CFA0546012D00D02C46CCB1012CA1
:103E800006D0022C08D0032C0AD0042C10D10BE051
:103E900020A000F0F1FA0BE021A000F0EDFA07E01D
:103EA00022A000F0E9FA03E023A000F0E5FA00BF49
:103EB00000BF00201549088070BD014608687047A2
:103EC0000160704730582558000000002C000000A9
:103ED000290000008C0000203D256C753B0D0A0078
:103EE0003D305825583B0D0A0000000046756E63B2
:103EF00074696F6E2052756E2054696D653A256441
:103F00002E2531646D730D0A000000003000002082
:103F10008A050020BAAFCAFDB4EDCEF3210D0A0028
:103F2000B2CECAFDB4EDCEF3210D0A00B2CECAFD69
:103F3000CCABB6E0210D0A00CEB4D5D2B5BDC6A536
:103F4000C5E4B5C4BAAFCAFD210D0A0002460AE0B5
:103F500010780B78984201D001207047107800B992
:103F600002E0521C491CF3E700BF0020F5E706E021
:103F700002780A70027802B902E0401C491CF7E797
:103F800000BF70470146002005E00A7802B903E04F
:103F9000421CD0B2491CF8E700BF704710B502467A
:103FA000012000E050430B1EA1F10104E1B2F9D160
:103FB00010BD2DE9F04307460E4600254FF00A08D4
:103FC0003C46002030601FE02078392802DC207851
:103FD00030280ADA2078462802DC2078412804DAE2
:103FE0002078582809D1012D07D12078412801DBFC
:103FF0004FF01008681CC5B205E0207800B904E055
:104000000120BDE8F083641CDEE700BF3C46B8F148
:10401000100F0FD1032D01DA0220F2E720783028AB
:1040200006D16078582803D1A41CA81EC5B204E0AC
:104030000320E6E70DB90420E3E71BE00DB1681E9D
:10404000C5B22078392806DC2078302803DB2078B8
:10405000A0F1300902E02078A0F137092946404656
:10406000FFF79CFF316809FB00103060641C20786A
:1040700000B900E0E2E700BF0020C2E710B5044647
:10408000002010700BE020780870641C491C107828
:10409000401C10701078984201DB012010BD207880
:1040A000202802D020780028EDD10020087000BF21
:1040B000F4E70146491C00E0491C0878202801D19A
:1040C0000029F9D1087870472DE9FF4F85B0804667
:1040D00089460027002004900390012002904FF0B1
:1040E000000B002544461DE02078202816D005F05E
:1040F0007F00052812DA0DB945F0800505F07F0034
:10410000042803D120782A2800D00EE0207805F07A
:104110007F010DF80100681CC5B202E0852D00D1B9
:1041200003E0641C20780028DED100BF8DB10020A0
:1041300005F07F010DF80100CBA16846FFF706FFEF
:1041400018B900210898017002E001210898017057
:1041500000254FF0000A444614E0641C0AF10100F7
:1041600000F0FF0A2078202802D020782A2809D1E0
:104170002046FFF79EFF0646282E03D02A2E01D0A8
:10418000CDF810A02078282802D020780028E4D18B
:104190004446049810B10498401C04444FF0000AAF
:1041A000002654E0207810B94FF0010A50E0207842
:1041B000282803D116B9781CC7B213E02078292823
:1041C00008D13EB917B1781EC7B201E04FF0010A1D
:1041D00047B93DE02078222804D10EB9012000E043
:1041E0000020064647B9207820282FD0207889F86B
:1041F000000009F1010929E020782C2804D10120D0
:104200000290681CC5B214E02078202811D02078D4
:1042100028280ED04DB9BBF1050F06DA20780DF82D
:104220000B000BF1010000F0FF0B0298401CC0B224
:104230000290012F0AD10298022807D10298401C4F
:10424000C0B202900398401CC0B20390641CA9E75E
:1042500000BF0398012809D100200DF80B0082A1AE
:104260006846FFF773FE08B900200390079903988A
:104270000870002089F80000504609B0BDE8F08FB2
:10428000F0B503461546002000220026002455E024
:104290001F782C2F01D104B901221F78292F01D0BA
:1042A0001F780FB904B94AE0002E34D11F78302F9F
:1042B00002DB1F78392F11DD1F78612F02DB1F7899
:1042C000662F0BDD1F78412F02DB1F78462F05DD9F
:1042D0001F78582F02D01F78782F0CD102B12EE012
:1042E0001F78612F03DB1F78203F0F7001E01F78DC
:1042F0000F70491C1FE01F78222F04D102B11EE06D
:104300000126012417E01F78202F14D01F782C2FAE
:1043100011D0FF2613E01F78222F00D1002402B114
:104320000DE044B11F785C2F02D15B1C471CF8B232
:104330001F780F70491C471CF8B25B1CA8E700BF30
:1043400000270F702E70F0BD02460020002105E00E
:10435000474B5B5C0344D8B24B1CD9B29142F7DBAC
:1043600070472DE9F043B5B005460F4600240026FE
:1043700004E000213E488155701CC6B20A2EF8DBCD
:1043800006E06D1C287818B9012035B0BDE8F0832F
:1043900028782828F5D16D1C61E034AA69462846A2
:1043A000FFF76EFF064635449DF8D00020B1012886
:1043B00027D0FF284CD149E09DF8000000B333A975
:1043C0006846FFF7F6FD06460EB10220DDE72046FF
:1043D000FFF7BAFF26490A31339A0A50A1F12400A7
:1043E000008B0121A140884321491A390883042107
:1043F0001F480155601CC4B20A2C01DD0320C4E72C
:1044000026E06846FFF7BEFD401C00F0FF0820468E
:10441000FFF79AFF16490A3100EB01094946684641
:10442000FFF7A5FD12481A38018B0120A040014377
:1044300088B20F491A3908830D4800F80480601CBF
:10444000C4B20A2C01DD03209FE701E002209CE7B3
:1044500000BF2878292801D0287800B900E09CE71F
:1044600000BF3C70002090E7766F69640000000098
:10447000A6000020704700000FB4044910B503AA3D
:10448000029800F003FC10BC5DF814FB2C00002027
:1044900070B5044685690068C10601D5302600E084
:1044A0002026C00707D070BDD4E9012130469047CF
:1044B000206A401C20626D1EF6D570BD70B50446A2
:1044C00085690078C00707D170BDD4E9012120209B
:1044D0009047206A401C20626D1EF6D570BD70B5F5
:1044E0000C460546012A05D02878800600D5EA69E1
:1044F000002302E0012305E05B1C934202D2E05C52
:104500000028F9D1A869E618C01AA861286A1844D9
:1045100028622846FFF7BCFF04E0D5E9012114F822
:10452000010B9047B442F8D32846FFF7C7FF70BD90
:104530002DE9F0410646002410687529314616A57C
:1045400010D0AFF30080002802DA404213A507E044
:1045500031688A0701D512A502E0490704D511A5E3
:10456000012401E0AFF3008000210A2206F12407B4
:1045700009E0B0FBF2FCB0FBF2F302FB1C003030B0
:1045800078541846491C0028F3D123462A46304661
:10459000BDE8F04100F0FCB8000000002D00000074
:1045A0002B0000002000000070B504460D46214697
:1045B0001068AFF300802188090502D50F4A7A44BC
:1045C00002E00E4A7A440E32002104F1240305E091
:1045D00000F00F060009965D5E54491C0028F7D1D3
:1045E00020780023000704D5702D02D009B10223E2
:1045F00011322046BDE8704000F0CAB87C2F0000A0
:104600002DE9F05F894604464FF0000ADFF874B1E7
:10461000FB44C0F820A02046E1688847002874D0F9
:10462000252806D0D4E901219047206A401C206249
:10463000F1E700265F462046E168884720280546C6
:1046400007DB312D05D2781910F8200C08B106438C
:10465000F1E7B00701D526F00406C4F81CA0002736
:10466000C4F818A02A2D09D0284601F087F838B3DD
:1046700004EB8708303DC8F8185019E059F8041BBE
:10468000204604EB87029161E1688847012F0546C7
:1046900018D1E069002820DA26F020061DE0D8F8BD
:1046A000180000EB800005EB40003038C8F8180017
:1046B0002046E1688847054601F060F80028EED101
:1046C000012F0AD02E2D08D12046E16888477F1C93
:1046D0000546022F46F02006C4DBA069002803DA55
:1046E000404246F00106A061F00701D026F0100616
:1046F0006C2D0BD0682D09D04C2D39D06A2D35D0BA
:10470000742D35D07A2D33D016E038E0E1682F468D
:1047100020468847B842054609D16C2F26D04FF471
:104720008060E168064320468847054604E06C2F18
:104730001AD04FF4807006430DB3A5F1410019283B
:1047400002D8203546F400664A46294620462660AF
:104750004E46FBF725FD80B101280BD0F61D26F053
:10476000070000F1080956E74020E4E78020D8E779
:104770000020D6E706F104094DE7284652E7206AF3
:10478000BDE8F09F522F0000704770477047704798
:104790002DE9F0470D4699469246044600F124085B
:1047A0000168880604D5E06921F01001216000E06D
:1047B0000120A84201DD471B00E00027A1697A190A
:1047C00002EB0900081AA0612078C00602D4204636
:1047D000FFF75EFE002608E0D4E901211AF8060082
:1047E0009047206A401C761C20624E45F4DB2078FE
:1047F000C0060AD52046FFF74BFE06E0D4E90121AA
:1048000030209047206A401C2062381EA7F1010723
:10481000F4DC07E0D4E9012118F805009047206A8C
:10482000401C2062281EA5F10105F3DC2046FFF79D
:1048300045FE2078000602D50220BDE8F087012061
:10484000FBE770472DE9FF4F0C461E464FF0FF3740
:104850008BB0D2E90001DDF860800A908A46C1F38E
:104860000A5505B93D46002108464FF00000BAF14F
:10487000000F00F4400005DA00EB80004FF4400127
:1048800001EA50004FEA9059B9F1010F00DDB94635
:104890000A9850EA4A000ED044F61050A5F2FF35AF
:1048A00045432F14B8F1000F1ED07542291E1EDD9E
:1048B000C9F100021CE0B8F1010F4FF0000001D077
:1048C000302103E0F24305E02154401CB042FBDB01
:1048D00030460022002121540B99C1F80880C1E91B
:1048E00000200FB0BDE8F08FBD1B6D1CDEE74A460F
:1048F00000DA694206A800F07DFA06AB93E80700EB
:1049000003AB83E8070050460A9900F05BFB8DE893
:104910000700A0F500501F3800900398002D0ADD15
:1049200042F21F014A460844002303A90390684647
:1049300000F0C4FD09E0A0F500504A461F380023EE
:1049400003A90390684600F0CEFD8DE8070000043F
:10495000000C03D04FF0FF30410800E01046B8F1E2
:10496000000F03D00022009215461EE0751E05D4EC
:1049700000F0A2F9303262556D1EF9D5B34601221E
:10498000084302D000227F1C04E02078302801D1A7
:1049900000227F1E002A099784D01DE0112D07DA1E
:1049A00000F08AF9303262556D1C50EA0102F5D1EF
:1049B000084302D00098C8B10EE00021681E05E04F
:1049C000235C625C63542254401E491C8142F7DB25
:1049D000AB46A81B401E0990002004F80B000B9862
:1049E000099AC0F80880C0E9002B7AE711264FF039
:1049F000000857E72DE9F04F88460446D21D22F003
:104A0000070191B0D1E90001CDE90A0100F0A2FE51
:104A100002460B98C00F01D02D2007E020688107C7
:104A200001D52B2002E0202101EAC000032A0990D1
:104A300001D0072A05DB03464146204600F09AF9DB
:104A40000BE12078800601D5E06900E00620B8F18E
:104A5000650F814606D0B8F1660F18D0B8F1670F20
:104A600070D131E00020B9F1110F009001DB11236A
:104A700001E009F101030AAA01A90CA8FFF7E2FE6F
:104A8000DDE90C70002609F10105834647E00120AD
:104A90004B4600904FF000470AAA01A90CA8FFF767
:104AA000D1FEDDE90DB00C995D46002610B909F183
:104AB00001000D18B9EB050003D4C0F1FF3609F170
:104AC0000105A5EB09002BE0B9F1010F01DA4FF068
:104AD00001090020B9F1110F0090484601DD1123B2
:104AE00000E003460AAA01A90CA8FFF7ABFEDDE926
:104AF0000C704D4600268346207800070AD4AB454B
:104B000000DA5D4601A8012D04DD411911F8011CF0
:104B1000302907D04F4502DA17F1040F04DA0120DB
:104B200082460FE06D1EEEE7002F02DCED1B3E44D7
:104B300003E0781CA84200DD7D1CB81B00F1010ACF
:104B40004FF000472078000703D4AA4501DB4FF05F
:104B5000FF3A0021B7F1004F0DF143088DF84310E3
:104B600024D002202B23002F01DA7F422D230A219B
:104B7000021EA0F1010000DC5FB197FBF1FC97FB86
:104B8000F1F201FB1C7C17460CF1300C08F801CD4A
:104B9000EEE7A8F1010003702188090501D5452140
:104BA00000E06521A0F1010800F8011C09980FA997
:104BB000A1EB0807FF1D00B10120411901EBEA70CC
:104BC000A1693844081A401EA0612078C00602D4AA
:104BD0002046FFF75DFC099828B1D4E901219047F0
:104BE000206A401C20622078C00622D52046FFF7AC
:104BF0004FFC1EE0002E04DBB34502DD01A8805D02
:104C000000E03020D4E901219047206A401C206256
:104C1000761CAAF101005FEA000A0AD100F048F808
:104C2000C0680168405CD4E901219047206A401CBB
:104C30002062281EA5F10105DCDC07E0D4E9012192
:104C400018F8010B9047206A401C2062381EA7F11B
:104C50000107F3DC2046FFF731FC032011B041E6E9
:104C600010B5436913B1AFF3008001E0FFF737FCE3
:104C7000012010BD127800F124010A7000224A7050
:104C80000122EDE711684FF0FF32E9E7074B70B5FD
:104C90000D467B4400F05BF80446284600F01CF902
:104CA00010B14FF0FF3070BD204670BD25C8FFFF2A
:104CB000004870477406002030B5B0F10A024FEA90
:104CC000900E71F100034EEA817EB0EB0E0061EBB5
:104CD00091014FEA101E4EEA017E10EB0E0041EBEF
:104CE00011114FEA102E4EEA016E10EB0E0041EB4F
:104CF00011214FEA104E4EEA014E10EB0E0041EB2F
:104D00001141401841F100014FEAD00040EA4170E2
:104D10004FEAD10110EB80054FEA810444EA907418
:104D200044EB01046D1944EB0404521BA3414FF002
:104D3000000348BF0A3200D530BD401C41F10001DC
:104D400030BD000001694A1C02610878704700B557
:104D50008FB0CDE901310021059105497944CDE9B4
:104D6000031011466846FFF74BFC0FB000BD000072
:104D7000E5FFFFFF2DE9F0411F46044603260168C9
:104D8000072A01F4006004DB08B116A505E016A5AA
:104D900003E008B115A500E015A521F01000206082
:104DA000A069C01EA0610FB1401EA0612046FFF7A0
:104DB0006FFB4FB1D4E9012138469047206A401C6F
:104DC0002062C01C206206E0206AFAE7D4E90121D3
:104DD00015F8010B9047761EF8D22046FFF76EFBC0
:104DE000BDE8F0814E414E006E616E00494E4600B6
:104DF000696E66002DE9F047814616468AB035484F
:104E000078440DC88DE80D0032487844801C03AC0E
:104E10000DC884E80D0041F69B300844372190FB13
:104E2000F1F290FBF1F5A5F1800501FB12041B3CAA
:104E300002D56442012000E00020DFF898A08046FF
:104E40000027FA44AAF1BE0A0EE0E0070AD0324673
:104E5000684607EB470101230AEB810100F043FBA1
:104E60008DE8070064107F1C002CEED1194F7F44A1
:104E7000AE3F19E0E80715D007EB04100DF1180A52
:104E800090E80E008AE80E00C068F04201D198193F
:104E900008903246012306A903A800F024FB03ABC7
:104EA00083E807006D10641C002DE3D14FF001036F
:104EB00032466946B8F1000F03A802D000F0FEFAAE
:104EC00001E000F010FBC9E90001C9F808200AB0B0
:104ED000BDE8F087F0270000007B00F080007047FD
:104EE00000487047540600207546FFF7F9FFAE46AC
:104EF00005006946534620F00700854618B020B5E6
:104F0000FCF786FBBDE820404FF000064FF000079D
:104F10004FF000084FF0000B21F00701AC46ACE861
:104F2000C009ACE8C009ACE8C009ACE8C0098D46CE
:104F3000704710B50446AFF300802046BDE810402E
:104F4000FBF757B94FF0013C50F8042B51F8043BE4
:104F50009A4221D1A2EB0C03934313EACC1317D14D
:104F600050F8042B51F8043B9A4215D1A2EB0C03E4
:104F7000934313EACC130BD150F8042B51F8043BA4
:104F80009A4209D1A2EB0C03934313EACC13DBD072
:104F90004FF00000704700BFD01A01BAB1FA81F19A
:104FA00001F0180122FA01F0CB40C1F12001DBB27F
:104FB000C0B2C01A2CFA01F3D11A914311EAC311FD
:104FC000E6D170475FEA400C08BF91F0000F4FEA4E
:104FD0008C234FEAC12243EA51514FEA1C5018BFBB
:104FE00000F5F0404FEA300018BF41F000415FEAA1
:104FF0006C5C00F02980BCF1FF3F08BF40F08040AE
:105000007047130C06BF12044FF0100C4FF0000C49
:10501000130E04BF12020CF1080C130F04BF12018F
:105020000CF1040C930F04BF92000CF1020CD30F8F
:1050300004BF52000CF1010C11464FF00002A0F128
:105040001F00A0EB0C00704711F0004F08BF704725
:1050500031F000413FF4D5AF0B0C06BF09044FF00F
:10506000100C4FF0000C0B0E04BF09020CF1080CE1
:105070000B0F04BF09010CF1040C8B0F04BF890056
:105080000CF1020CCB0F04BF49000CF1010CCCF168
:105090002003A0EB0C0022FA03F302FA0CF241EA1F
:1050A000030100F10100704720F07F4C80EA03000B
:1050B00023F07F47ACEB070303F57C5300F000407F
:1050C00003F1FF032DE980494FEA154B09B44FEA7C
:1050D000144325EA0B4E24EA03480FF2042606EB9C
:1050E000132749083E785FEA320203FB0667C7F5DB
:1050F000000707FB06F64FEA54374FEAD64606F19B
:10510000020607FB066CCCF1005C4FEA1C472CEA58
:10511000074C07FB06F40CFB06F504EB15464FEABB
:10512000961634BF00204FF000404FEAD13706FBFF
:1051300007FC4FEA1C4C0CFB0BF7D21B03FB0CF7D4
:1051400061EB07010CFB0EF7B0EB074072EB174267
:105150000CFB08F734BFA2EB0742B2EB074261EB4E
:1051600017414FEA0C444FEA910706FB07FC4FEA50
:105170001C4C0CFB0BF7B0EBC74072EB573203FB38
:105180000CF734BFA2EBC742B2EBC74261EB573119
:105190000CFB0EF7B0EBC70072EB57720CFB08F775
:1051A00034BFA2EBC702B2EBC70261EB5771039F9A
:1051B0004FEA816141EA921104EBCC044FEAD13706
:1051C0004FEA826206FB07FC42EA90124FEA8060D7
:1051D0004FEA1C4C0CFB0BF7D21B03FB0CF761EBEB
:1051E00007010CFB0EF7B0EB074072EB17420CFB0C
:1051F00008F734BFA2EB0742B2EB074261EB17415D
:105200004FEA8C554FEA910704EB9C2406FB07FC00
:105210004FEA1C4C0CFB0BF7B0EBC74072EB57325C
:1052200003FB0CF734BFA2EBC742B2EBC74261EB02
:1052300057310CFB0EF7B0EBC70072EB57720CFB4B
:1052400008F734BFA2EBC702B2EBC70261EB57719C
:1052500015EB4C254FEA816141EA92114FEA8262D7
:105260004FEAD13742EA901206FB07FC44F10004F2
:105270004FEA80604FEA1C4C0CFB0BF7D21B03FB80
:105280000CF761EB07010CFB0EF7B0EB074072EB7C
:1052900017420CFB08F734BFA2EB0742B2EB074200
:1052A00061EB174115EB1C154FEA813141EA924140
:1052B0004FEA823242EA90424FEA80304FEA0C765F
:1052C00044F1000448EA03434EEA0B484FF0000E55
:1052D000B2EB080C71EB030724BF624639464EEB74
:1052E0000E0E4FF0000B0018524149414BEB0B0BD7
:1052F000B2EB080C71EB03077BF1000B24BF624695
:1053000039464EEB0E0E4FF0000B0018524149414A
:105310004BEB0B0BB2EB080C71EB03077BF1000BB3
:1053200024BF624639464EEB0E0E51EA020718BF03
:1053300046F0010616EB0E7655F1000254F100011D
:1053400003D5BDE88901BDE80088BDE88901BDE855
:105350000048B619524141EB0101A3F10103704726
:1053600080807F7E7D7C7B7A7978777676757473A2
:10537000727171706F6E6E6D6C6C6B6A6A69686861
:10538000676666656464636362616160605F5F5EF7
:105390005E5D5D5C5C5B5B5A5A595958585757566D
:1053A00056555555545453535252525151505050D2
:1053B0004F4F4F4E4E4D4D4D4C4C4C4B4B4B4A4A24
:1053C0004A49494948484847474747464646454568
:1053D00045444444444343434342424242414141A1
:1053E000002B9C4630D477002BD01CB54FEA3707F2
:1053F00003B44FF010004FF01001BAF1000F06D0C7
:10540000BCF1000FDCBF40F0080040F008014FF095
:1054100000000FBCBDE810400BF1010BBBF1010F08
:1054200008BF5FEA170722BF12F1010211F1010163
:105430004FF0004143F1000300F0004043EA000058
:105440007047F9D35708D0E746EA064613F1400FF4
:105450004FEA16461FDD13F1200FDFBF16430A4641
:10546000002120335B42BED0C3F1200746EA064646
:1054700002FA07F74FEA164646EA0706C3F1200785
:1054800022FA03F201FA07F721FA03F14FF00003C1
:1054900042EA0702A7E746EA020646EA06464FEA5C
:1054A000164646EA0106BCBF46EA0646360C4FF0F1
:1054B00000034FF000024FF0000194E72DE9804C0B
:1054C0009A46934670B491E8380007C831EA400C18
:1054D00048BF34EA430C03D5FFF7E6FDFFF780FF32
:1054E000F0BCBDE8008C2DE9804C9A46934670B420
:1054F00091E8380007C810F0804F08BF13F0804FC4
:1055000003D100F005F8FFF76BFFF0BCBDE8008C9D
:1055100020F07F4780EA030023F07F4C07EB0C0369
:10552000A3F57C5300F00040A3F1FE0392F0000FBE
:1055300000F0B38095F0000F00F077802DE901496D
:105540004FEA11404FEA144621EA004800FB06FCEE
:1055500024EA064708FB06F607FB08F800FB07F7F6
:1055600018EB06484CEB164C4FEA124B18EB074869
:105570004FEA15464CEB174022EA0B4E0BFB06FC9C
:1055800025EA06470EFB06F607FB0EFE0BFB07F7A8
:105590001EEB064E4CEB164C4FF000061EEB074E72
:1055A0004CEB174B18EB0B0840F1000018EB0E0BFF
:1055B00058EB000840F100008F1A4FF000013CBF8B
:1055C000C943661B14BFB5EB040C00213CBFC943A3
:1055D000F61B4FEA17444EEA8E0E27EA04454FEABF
:1055E0001C4704FB07622CEA074C05FB07F70CFB82
:1055F00005F604FB0CFC16EB074642EB174216EBD4
:105600000C4642EB1C421BEB060658EB02024141E2
:1056100046EA9E0601D5BDE80189B619524141EB23
:105620000101A3F10103BDE801894FEA14454FEAE6
:10563000114724EA054621EA074C05FB07F406FB5F
:1056400007F70CFB06F105FB0CFC11EB074144EBE3
:1056500017444FEA124711EB0C4144EB1C4422EA79
:10566000074C05FB07F206FB07F70CFB06F605FBEC
:105670000CFC16EB074642EB174216EB0C4642EBCE
:105680001C456A1854F1000148BF7047B6195241D1
:1056900041EB0101A3F10103704795F0000F37D0F2
:1056A0004FEA11424FEA144721EA024624EA074C26
:1056B00002FB07F106FB07F70CFB06F402FB0CFCF0
:1056C00014EB074441EB17414FEA154714EB0C4428
:1056D00041EB1C4125EA074C02FB07F506FB07F7E7
:1056E0000CFB06F602FB0CFC16EB074645EB1745D8
:1056F00016EB0C4645EB1C42121951F1000148BF54
:105700007047B619524141EB0101A3F10103704703
:105710004FEA14454FEA114724EA054621EA074CAF
:1057200005FB07F106FB07F70CFB06F24FF000063E
:1057300005FB0CFC12EB074241EB174112EB0C424C
:1057400051EB1C4148BF7047921841EB0101A3F196
:1057500001037047490050EAC12018BF04204A0DD8
:1057600018BF40F0010040F2FF72B2EB515F08BF7A
:1057700040F00200012808BF0520704730380A2891
:1057800001D20120704700207047000010B50029A9
:105790000AD00878002807D005487844FFF7D2FBE4
:1057A000002801D0002010BD0248784410BD000040
:1057B000661F00005E1F00000808A0F500114FEAF8
:1057C0003101704743004FEAD30C4FEA3C0C434091
:1057D0001FBF40070CF1605113F0FE4F70471CF0E3
:1057E000006F03D100200CF0004170470CF0004323
:1057F00043EA507010B540EACC0000F0E8F900BF71
:10580000000000924FEA0001FFF7D6BF4FF00041C1
:105810004FF00000A1F500217047000090EA010F51
:1058200048BF81F0004100F12E82421A3CBF801A2D
:1058300089184FEAD0524FF07F4C1CEA410FA2EB7F
:10584000D15318BF9CEA026F00F03B804FF0004C30
:105850004CEA00204CEA012121FA03FC10EB0C0C6D
:105860001ED202F1FF325FEA1C2040EBC25038BF6B
:1058700070471CF07F0F4FEA400C18BFBCF17F4F00
:1058800038BF7047C3F12003994008BF20F00100E2
:10589000BCF17F4F38BF7047A0F1C04000F0DDB9C8
:1058A0004FEA3C00000A40EBC25028BF1CF0FF0F3B
:1058B0004FEA400CE6D018BFBCF17F4F38BF7047AD
:1058C000EAE79CEA026F05D010EA5C0F08BF00F01F
:1058D0000040704710B500F07AF900BF64FBBE3E8F
:1058E0004FF47F0C1CEAD0121EBF1CEAD11392EABF
:1058F0000C0F93EA0C0F00F0858090EA010F48BF6F
:1059000042F4807240F4000C41F400002CF07F411E
:1059100020F07F4000B58142A2EB03020FF2081C89
:10592000ACEB504EC0F100009EF800E04FEA4E0E86
:1059300000FB0EFC38BF49004FEA2C1C02F5FA02AE
:105940000CFB0EF34FEACE1E4FEA112C4FEAC12199
:105950000EEB635E42EB22420EFB0CFC4FEA1C5343
:1059600000FB03114FEA112C4FEA01310EFB0CFC36
:105970004FEADC4C00FB0C11C14228BF09184CEB6C
:1059800003335DF804EB10EB410143EBC250B2F579
:105990007C0F38BF704729D512F0F00F1CBF00F103
:1059A000C04000F000407047008182838485868774
:1059B00088898B8C8D8E8F919293959697999A9CCE
:1059C0009D9FA0A2A3A5A7A8AAACAEB0B2B3B5B73D
:1059D000B9BCBEC0C2C5C7C9CCCED1D4D7D9DCDF13
:1059E000E2E6E9ECF0F3F7FAFE0000004FEA400CC3
:1059F0000CF1807CBCF17E4F28BF7047B0F1C040F5
:105A000000F02BB990EA010F0CEAD11348BF42F421
:105A10008072624538BF634507D213F47F0F16D0FA
:105A200080EA010000F00040704710B500F0CFF8A8
:105A3000097EFC3E00F005B880EA010000F000405D
:105A4000704780EA010000F0004000F006B912F44F
:105A50007F0F04BF0248704780EA010000F0FDB8E4
:105A60000000C07FC10DD1F19E0206DB4FEA00238A
:105A700043F0004323FA02F07047004207D54FEA93
:105A80004001B1F1FE4F02D24FF00000704710B557
:105A900000F09DF849922480002070476FEA2000B2
:105AA00070470000B0FA80F310FA03F2C3F19D03CF
:105AB0000AD0D90501EB1220530638BF704700F118
:105AC000010008BF20F00100704700004FF47F0C78
:105AD0001CEAD0121EBF1CEAD11392EA0C0F93EA03
