:020000040800F2
:10000000700B002015120008750300087703000824
:100010007B0300087F030008830300080000000042
:10002000000000000000000000000000870300083E
:1000300089030008000000008B0300088D030008FE
:100040002F1200082F1200082F1200082F1200088C
:100050002F1200082F1200082F1200082F1200087C
:100060002F1200082F1200082F1200082F1200086C
:100070002F1200082F1200082F1200082F1200085C
:100080002F1200082F1200082F1200082F1200084C
:100090002F1200082F1200082F1200082F1200083C
:1000A0002F1200082F1200082F1200082F1200082C
:1000B0002F1200082F1200082F1200082F1200081C
:1000C0002F1200082F1200082F1200082F1200080C
:1000D0002F1200088B1100082F1200082F120008A1
:1000E0002F1200082F1200082F12000800F002F84B
:1000F00000F047F80AA090E8000C82448344AAF17B
:100100000107DA4501D100F03CF8AFF2090EBAE878
:100110000F0013F0010F18BFFB1A43F0010318473B
:10012000704B0000904B0000103A24BF78C878C193
:10013000FAD8520724BF30C830C144BF04680C60ED
:10014000704700000023002400250026103A28BF35
:1001500078C1FBD8520728BF30C148BF0B60704739
:10016000662903F06881002070471FB502F01CF972
:1001700004000020002102F073FEE0601FBD10B5F6
:1001800010BD02F029FA1146FFF7EFFF00F0AEF8BC
:1001900002F047FA03B4FFF7F2FF03BC00F09AFF46
:1001A00038B500F0D2FE5E48006802F075FE0446E5
:1001B00022460B465BA001F041FE5E48006802F05B
:1001C0006BFE044622460B465BA001F037FE182367
:1001D0005DA20021084600F07FFB10235DA21821DC
:1001E000002000F079FB10235CA22821002000F001
:1001F00073FB10235BA21821602000F06DFB10231D
:1002000059A22821602000F067FB4548006802F0F1
:1002100093FF564908801020032300900846028867
:100220001821282000F00EFB5048008802F0A4FF9F
:1002300004463B480168204603F07EF838490860D0
:100240004B493748006802F0ABFF35490860012090
:1002500010232E2218210090402000F069FA304827
:10026000006802F069FF044610200323224618218B
:100270000090482000F0E6FA2E48006802F05CFF8B
:100280003A4908801020032300900846028828215C
:10029000084600F0D7FA3548008802F06DFF0446A2
:1002A00024480168204603F047F822490860304995
:1002B0002048006802F074FF1E49086001201023E6
:1002C0002E2228210090402000F032FA19480068C0
:1002D00002F032FF0446102003232246282100901A
:1002E000482000F0AFFA00F080F938BD00BF00F000
:1002F00087FE4FF4A06001F031FD4FF4E13000F0D3
:10030000F8FE00F0CBFB00F0C2FD00F014FB05E0AE
:100310004FF47A7000F0B1FEFFF742FFF8E70000FB
:100320001800002074656D3A252E32662043202087
:10033000202000001C00002072683A252E32662022
:1003400052480D0A000000005348543330205445F1
:100350005354000054656D703A00000048756D6993
:100360003A000000202043002052480000000020F6
:1003700000007A44704700BFFEE700BFFEE700BF01
:10038000FEE700BFFEE77047704770477047000008
:100390000CB50020019000906C48006840F480305B
:1003A0006A49086000BF6948006800F400300090A6
:1003B0000198401C0190009818B90198B0F5A06F01
:1003C000F1D16248006800F4003010B101200090C3
:1003D00001E0002000900098012843D15C480068AB
:1003E00040F010005A4908600846006820F00300F9
:1003F00008600846006840F0020008605348406802
:10040000524948600846406848600846406840F4E1
:10041000806048600846406820F47C1048600846C8
:10042000406840F4E81048600846006840F080707A
:10043000086000BF4548006800F000700028F9D04F
:100440004248406820F00300404948600846406840
:1004500040F00200486000BF3C48406800F00C00DB
:100460000828F9D10CBD10B5FFF792FF10BD10B5EB
:100470003648006840F0010034490860084640688A
:10048000344908403149486008460068324908400C
:100490002E4908600846006820F48020086008465D
:1004A000406820F4FE0048604FF41F008860FFF7AA
:1004B000DAFF4FF000602949086010BD10B5002137
:1004C00000200022214B5B6803F00C0121B10429BC
:1004D00006D0082928D107E0214B224C236027E0D1
:1004E0001F4B204C236023E0184B5B6803F4701013
:1004F000164B5B6803F48032022303EB904022B971
:10050000194B4343174C23600DE0104B5B6803F419
:10051000003323B1144B4343124C236003E0104BD0
:100520004343104C236003E00D4B0E4C236000BF8F
:1005300000BF064B5B68C3F303130C4CE15C094B33
:100540001B68CB40074C236010BD00000010024028
:10055000002002400000FFF8FFFFF6FE08ED00E07B
:1005600000127A000400002000093D00080000206D
:1005700000F00101FE4A1160C0F34001FD4AC2F8DB
:100580008411C0F38001FA4A08321160C0F3C0013F
:10059000F74A28321160C0F30011121D1160C0F338
:1005A0004011F34A14321160C0F38011121D116022
:1005B000C109F04AC2F89C11704710B504460B46B9
:1005C0002046FFF7D5FFEC4803600020EB49C1F857
:1005D0009401E9490C31086001200860E649091DD1
:1005E0000860E649C1F8900110BD30B500241CE058
:1005F00004F1B001C8B20021FFF7DFFF0021084677
:10060000FFF7DBFF00211020FFF7D7FF002508E0F0
:10061000DB4901EBC501085D0121FFF7CEFF681C36
:10062000C5B2802DF4DB601CC4B2082CE0DB30BD09
:1006300000B500218D20FFF7C0FF00211420FFF737
:10064000BCFF0021AF20FFF7B8FF00BD00B50021BF
:100650008D20FFF7B2FF00211020FFF7AEFF002131
:10066000AE20FFF7AAFF00BD30B500240CE0002546
:1006700006E00020C24901EBC5010855681CC5B25F
:10068000802DF6DB601CC4B2082CF0DBFFF7ADFF59
:1006900030BDF0B5144600267F2801DC3F2900DD7F
:1006A000F0BD0B46CF1701EB5777FF10C7F10707D7
:1006B000FAB2CF1701EB5777FF10A1EBC707FDB2D6
:1006C000C5F107070123BB40DEB24CB1AC4B03EBD5
:1006D000C0039B5C3343AA4F07EBC007BB5408E041
:1006E000A74B03EBC0039B5CB343A54F07EBC007CD
:1006F000BB5400BFD4E72DE9F04706460F469046AD
:100700009946DDF820A034460CE03D4606E052460E
:1007100029462046FFF7BDFF681CC5B24D45F6DDF2
:10072000601CC4B24445F0DDFFF75FFFBDE8F08711
:100730002DE9F84F80460F4616461C46BA4620461D
:10074000E31704EB5373DB1021464FEAE47C04EB20
:100750005C7C4FEAEC0CA4EBCC0CBCF1000F02D09B
:100760004FF0010C01E04FF0000C6344224604EB13
:10077000D27C4FEA6C0C03FB0CF303F0FF0BA6F1E9
:100780002000C6B200254EE00C2C07D106EB460037
:100790007C4901EB8000405D009013E0102C05D1F6
:1007A000794800EB0610405D00900BE0182C07D153
:1007B00006EBC600754901EB8000405D009001E04A
:1007C000BDE8F88F4FF0000927E0009800F08000A6
:1007D00028B1394640460A9AFFF75BFF09E00A98BC
:1007E00008B9012000E00020024639464046FFF7E4
:1007F00050FF00984006000E0090781CC7B2A7EB8F
:100800000A00A04205D1574608F1010000F0FF0898
:1008100006E009F1010000F0FF09B9F1080FD4DB8F
:1008200000BF681CC5B25D45AEDB00BFC8E710B5B0
:100830000246012000E050430B1EA1F10104E1B289
:10084000F9D110BD2DE9FF4F81B0074691461E46F4
:100850000E9D4FF0000A002439E0301B401EC1B24B
:100860000A20FFF7E4FFB9FBF0F00A21B0FBF1F238
:1008700001FB1208BAF1000F16D1701EA04213DD61
:10088000B8F1000F0ED10120AB4605EBDB7149102A
:1008900001FB04710090C8B22B4620220299FFF799
:1008A00047FF12E04FF0010A0120AB4605EBDB7178
:1008B000491001FB04710090C8B208F13001CAB2BE
:1008C0002B460299FFF734FF00BF601CC4B2B4424C
:1008D000C3DB05B0BDE8F08FF8B506460F461546F8
:1008E0001C4621E004EBD4714910C1F18001B142F2
:1008F00002DA00263819C7B2C4F14000B84204DA5F
:10090000002006460746FFF7AFFE012000902A7838
:10091000234639463046FFF70BFF204604EBD071E3
:1009200006EB6101CEB26D1C28787E2802DC2878A7
:100930002028D7DAF8BD08B501210C2000F0A6FF69
:100940000121084600F0A2FF0121114800F0B3FD8B
:1009500040F6E740ADF8000010208DF803000320BA
:100960008DF8020069460B4800F0D4FC14E000004A
:1009700080812142008021429001214200002142D9
:10098000480000203A340008AE3800089E3E0008B7
:1009900000023000000C01404FF6FF713D4800F0AE
:1009A0006FFDF020ADF8000010208DF8030003204B
:1009B0008DF802006946384800F0ACFCF02136485A
:1009C00000F055FD0021AE20FFF7F7FD0021D520F6
:1009D000FFF7F3FD00215020FFF7EFFD0021A820D5
:1009E000FFF7EBFD00213F20FFF7E7FD0021D320BB
:1009F000FFF7E3FD00210846FFF7DFFD002140205F
:100A0000FFF7DBFD00218D20FFF7D7FD002114202B
:100A1000FFF7D3FD00212020FFF7CFFD00210220AA
:100A2000FFF7CBFD0021A120FFF7C7FD0021C0206B
:100A3000FFF7C3FD0021DA20FFF7BFFD00211220E0
:100A4000FFF7BBFD00218120FFF7B7FD0021EF205C
:100A5000FFF7B3FD0021D920FFF7AFFD0021F12002
:100A6000FFF7ABFD0021DB20FFF7A7FD00213020C1
:100A7000FFF7A3FD0021A420FFF79FFD0021A62082
:100A8000FFF79BFD0021AF20FFF797FDFFF7ECFD7F
:100A900008BD0000000C01400008014008B501211C
:100AA000082000F0F3FE4FF45040ADF80000102095
:100AB0008DF8030003208DF802006946984800F085
:100AC00029FC4FF45041964800F0D1FC08BD10B508
:100AD0009348001D006820F070409149091D08608E
:100AE0000846006840F04050086001208D490860C9
:100AF0008D49C1F8B801042000F09BFA0020894913
:100B00000860042000F095FA00208749C1F8B80178
:100B100010BD10B58248001D006820F0704080496B
:100B2000091D08600846006840F040500860002039
:100B30007C49091F08607C49C1F8BC01042000F011
:100B400078FA01207749091F08607749C1F8BC018C
:100B5000042000F06EFA10BD10B500247048001D8E
:100B6000006820F070406E49091D08600846006862
:100B700040F00040086001206A49086000F059FA1E
:100B800001206949C1F8B80100F053FA09E0601C7E
:100B9000C4B2FA2C05DD00206249091F086001205B
:100BA00010BD6048803800680028F0D15D49091FF9
:100BB000086000BFF4E710B500205A49091F08601B
:100BC0005748001D006820F070405549091D086015
:100BD0000846006840F04050086000205249C1F8C3
:100BE000BC01022000F025FA01204E49091F0860CF
:100BF000022000F01EFA00204B49C1F8B80110BDD8
:100C000010B500204749091F08604548001D0068CD
:100C100020F070404249091D08600846006840F015
:100C20004050086001204049C1F8BC01022000F09A
:100C300000FA01203B49091F0860022000F0F9F981
:100C400000203949C1F8B80110BD70B504463448D8
:100C5000001D006820F070403149091D08600846F9
:100C6000006840F04050086000202E49091F0860CD
:100C700000251DE0E00918B101202A49086002E0C2
:100C80000020284908606006040E022000F0D1F917
:100C900001202449091F0860022000F0CAF9002041
:100CA0002149C1F8B801022000F0C3F9681CC5B29F
:100CB000082DDFDB70BD70B5054600241848001D07
:100CC000006820F070401649091D08600846006859
:100CD00040F000400860002617E000201149091F7D
:100CE0000860022000F0A5F901200F49C1F8B80101
:100CF0006006040E0B488038006808B1601CC4B25E
:100D0000012000F096F9701CC6B2082EE5DB15B97B
:100D1000FFF776FF01E0FFF74EFF204670BD0000B1
:100D2000000C0140BC8121420080214210B50446E4
:100D3000FFF7CDFE8820FFF788FFFFF70DFF201299
:100D4000FFF783FFFFF708FFE0B2FFF77EFFFFF733
:100D500003FFFFF7DEFE0A2000F08FF910BD10B58B
:100D600042F23620FFF7E2FF10BD10B50446FFF750
:100D7000AEFE8820FFF769FFFFF7EEFEF320FFF7D6
:100D800064FFFFF7E9FE2D20FFF75FFFFFF7E4FEAA
:100D9000642000F072F9FFF79AFE8920FFF755FFF3
:100DA000FFF7DAFE0120FFF786FF20700120FFF732
:100DB00082FF60700020FFF77EFFA070FFF7A9FEA2
:100DC00010BD70B505460C46FFF781FE8820FFF781
:100DD0003CFFFFF7C1FE2812FFF737FFFFF7BCFE0D
:100DE000E8B2FFF732FFFFF7B7FE642000F045F9E5
:100DF000FFF76DFE8920FFF728FFFFF7ADFE01200A
:100E0000FFF759FF20700120FFF755FF60700120A8
:100E1000FFF751FFA0700120FFF74DFFE0700120A8
:100E2000FFF749FF20710020FFF745FF6071FFF7D2
:100E300070FE642000F021F970BD70B50024664892
:100E4000006820F07040644908600846006840F07F
:100E500000400860002516E000206049086002207C
:100E600000F0E7F801205E49C1F8B8016006040E01
:100E70005A487C38006808B1601CC4B2012000F0F8
:100E8000D8F8681CC5B2082DE6DB204670BD10B549
:100E9000C82000F0F2F8FFF762FFC82000F0EDF87C
:100EA00010BD30B502460B46FF20002113E0555C13
:100EB000684008240BE000F0800525B1312585EA63
:100EC0004005E8B201E04506280E651EECB2002C94
:100ED000F1DC4D1CE9B29942E9DB30BDF0B50546C5
:100EE0000E46144631462846FFF7DBFF0746A74269
:100EF00001D00120F0BD0020FCE72DE9F0410446BF
:100F0000204602F039F98046364902F049F9074691
:100F1000354902F04FF80646344902F017FA054603
:100F20002846BDE8F0812DE9F0410446204602F054
:100F300023F907462E4902F033F906462A4902F002
:100F400039F805462846BDE8F08138B5002429491E
:100F50004FF46040FFF735FF264800788DF8000019
:100F6000244840788DF80100224880788DF80200EE
:100F70009DF8022002216846FFF7B0FF044654B9ED
:100F80001C4840781B49097840EA01252846FFF7AC
:100F9000B4FF194908601748C0788DF8000015485B
:100FA00000798DF80100134840798DF802009DF812
:100FB000022002216846FFF791FF044654B99DF8CC
:100FC00001009DF8001040EA01252846FFF7ABFF1D
:100FD0000A49086038BD0000040C0140B881214274
:100FE0000080214200002F4300FF7F470000344271
:100FF0000000C84220000020180000201C00002033
:1010000010B56FF0040000F0F8FE2E4800682E497D
:10101000B0FBF1F02D4908700846007800EB400164
:10102000C1EBC0104FF6FF7101EAC00028490880EB
:1010300010BD0146254A12784A434FF0E0235A6119
:1010400000229A611A46126942F001021A6100BF39
:101050004FF0E022106900F001021AB100F4803272
:10106000002AF5D04FF0E022126922F001024FF081
:10107000E0231A6100229A6170470146144A1288DF
:101080004A434FF0E0235A6100229A611A461269DE
:1010900042F001021A6100BF4FF0E022106900F037
:1010A00001021AB100F48032002AF5D04FF0E0229C
:1010B000126922F001024FF0E0231A6100229A61C6
:1010C000704700000400002000127A002600002073
:1010D00028000020014600BF704700BF494A12881F
:1010E00002F04002002AF9D0C2B2464B1B1D1A8002
:1010F000704710B586B00446012144F2040000F0A8
:10110000C5FB4FF40070ADF8140003208DF81600F5
:1011100018208DF8170005A93B4800F0FBF84FF4A4
:101120008060ADF8140004208DF8170005A936483A
:1011300000F0F0F825208DF8000003208DF8010064
:101140008DF8020001208DF80300684600F00BFEC8
:1011500001940020ADF80800ADF80A00ADF80C00CD
:10116000ADF810000C20ADF80E0001A9254800F0E4
:1011700034FC012240F22551224800F0C6FC012136
:10118000204800F0B6FC06B010BD10B540F2255165
:101190001C4800F09FFD10B31A4800F01BFDC4B2BC
:1011A0001A48008800F40040C8B91848008800F4C4
:1011B000804060B10A2C03D000201449088020E050
:1011C0001248008840F400401049088019E00D2CB6
:1011D00006D10E48008840F480400C49088010E099
:1011E0000A480088C0F30D0009490C5407480088DC
:1011F000401C0649088008460088C72801DD0020F9
:10120000088010BD00380140000801403000002077
:10121000480400200948804709480047FEE7FEE7E8
:10122000FEE7FEE7FEE7FEE7FEE7FEE7FEE7FEE796
:1012300004480549054A064B704700006F04000842
:10124000ED00000870050020700B002070070020E2
:101250007007002010B50446CC48844208D1012113
:10126000042000F02DFB0021042000F029FB46E0C3
:10127000C748844208D10121082000F021FB002149
:10128000082000F01DFB3AE0C248844208D1012149
:10129000102000F015FB0021102000F011FB2EE0C3
:1012A000BD48844208D10121202000F009FB002123
:1012B000202000F005FB22E0B848844208D101213B
:1012C000402000F0FDFA0021402000F0F9FA16E07D
:1012D000B348844208D10121802000F0F1FA0021B6
:1012E000802000F0EDFA0AE0AE48844207D10121E7
:1012F000801500F0E5FA0021A01500F0E1FA10BD1C
:1013000010B50121084600F0DBFA0021012000F0B1
:10131000D7FA10BD2DE9F041024600250026002035
:1013200000230024002791F803C00CF00F0591F86A
:1013300003C00CF0100CBCF1000F03D091F802C0F8
:101340004CEA050591F800C0BCF1000F31D01468DB
:1013500000202BE04FF0010C0CFA00F3B1F800C0B4
:101360000CEA03069E4220D183004FF00F0C0CFACA
:1013700003F7BC4305FA03FC4CEA040491F803C0EC
:10138000BCF1280F06D14FF0010C0CFA00FCC2F89A
:1013900014C00AE091F803C0BCF1480F05D14FF02A
:1013A000010C0CFA00FCC2F810C0401C0828D1D374
:1013B0001460B1F800C0BCF1FF0F34DD54680020A8
:1013C0002EE000F1080C4FF0010808FA0CF3B1F818
:1013D00000C00CEA03069E4221D183004FF00F0C9F
:1013E0000CFA03F7BC4305FA03FC4CEA040491F839
:1013F00003C0BCF1280F05D100F1080C08FA0CF865
:10140000C2F8148091F803C0BCF1480F07D100F175
:10141000080C4FF0010808FA0CF8C2F81080401CC4
:101420000828CED35460BDE8F0814FF6FF710180EB
:10143000022181700421C170704702460020936828
:101440000B400BB1012000E0002070470146886886
:1014500080B2704702460020D3680B400BB10120D8
:1014600000E0002070470146C86880B27047016103
:101470007047416170470AB1016100E04161704706
:10148000C16070474FF480320A438261816182619A
:1014900082698269704702460020434B18684FF604
:1014A0008073184040EA021008433F4B18607047B1
:1014B0003E49C8617047F0B50A4600230024002168
:1014C000002500F00046B6F1004F02D1364EF1691A
:1014D00001E0354E7168C0F3034583B200F4401655
:1014E000B6F5401F08D121F070612F4E766826F0C6
:1014F00070662D4F7E6012E000F48016B6F5801FF6
:1015000006D1032606FA05F4A14341F0706106E016
:10151000460D360103FA06F6B14341F0706122B17F
:10152000460D360103FA06F6314300F00046B6F1E7
:10153000004F02D11C4EF16101E01B4E7160F0BD05
:1015400030B500228B071C0F0F2303FA04F2164B51
:1015500008338C1053F824309343134C08348D1007
:1015600044F8253023468C1053F824308C07240F80
:1015700000FA04F423430C4C08348D1044F8253051
:1015800030BD0A49DC3108607047000000080140A6
:10159000000C0140001001400014014000180140FF
:1015A000001C0140002001400000014000002042DA
:1015B000DF48006840F00100DD49086008464068E7
:1015C000DC490840DA49486008460068DA490840C2
:1015D000D74908600846006820F480200860084663
:1015E000406820F4FE0048604FF41F008860704798
:1015F000CF49096821F48031CD4A1160114609684C
:1016000021F480211160B0F5803F03D0B0F5802F28
:101610000ED106E0C649096841F48031C44A116020
:1016200007E0C349096841F4A021C14A116000E004
:1016300000BF00BF704710B5014600220023002004
:101640004A11012A02D1BA4C236806E0022A02D1CB
:10165000B74C236A01E0B64C636A01F01F02012413
:1016600094401C400CB1012000E0002010BD38B5B2
:10167000002000900024002500BF3120FFF7DBFF91
:1016800005460098401C00900098B0F5A06F01D06E
:10169000002DF2D03120FFF7CEFF08B1012400E089
:1016A0000024204638BD01460020A14A106820F0E1
:1016B000F80040EAC10010607047A0490860704718
:1016C000024600209A4B586820F47C1042EA01033D
:1016D0001843974B58607047984908667047014611
:1016E0000020934A506820F0030008435060704780
:1016F0008F48406800F00C007047014600208C4A7B
:10170000506820F0F0000843506070470146002008
:10171000874A506820F4E0600843506070470146F3
:101720000020834A506820F4605040EAC1005060B5
:10173000704729B17E4A527A02437D4B5A7204E0C7
:101740007B4A527A82437A4B5A7270477B49D8312E
:101750000860704701460020754A506820F44040F8
:101760000843506070470021714A20321170704A5E
:1017700082F82010012802D004280AD104E00121B7
:101780006B4A2032117005E00521694A2032117040
:1017900000E000BF00BF70476949086070476449B6
:1017A000096A0143624A1162704765494439086019
:1017B000704730B500210022002400235C4D6D6885
:1017C00005F00C0121B1042905D0082923D105E039
:1017D0005C4D056022E05B4D05601FE0544D6D6877
:1017E00005F47012524D6D6805F48034022505EB46
:1017F00092421CB9544D554305600BE04C4D6D6849
:1018000005F400351DB1504D5543056002E04D4DC6
:101810005543056002E04B4D056000BF00BF444DDD
:101820006D6805F0F0010909484D6B5C0568DD4005
:1018300045603F4D6D6805F4E061090A434D6B5CFE
:101840004568DD4085603A4D6D6805F46051C90A10
:101850003E4D6B5C4568DD40C560354D6D6805F4F7
:101860004041890B3A4D6B5CC568B5FBF3F50561EA
:1018700030BD29B12E4A526902432D4B5A6104E012
:101880002B4A526982432A4B5A61704729B1284A30
:1018900092690243264B9A6104E0254A9269824389
:1018A000234B9A61704729B1214AD2690243204BE8
:1018B000DA6104E01E4AD26982431D4BDA61704747
:1018C00029B11B4AD2680243194BDA6004E0184A76
:1018D000D2688243164BDA60704729B1144A126904
:1018E0000243134B1A6104E0114A12698243104B00
:1018F0001A61704712494039086070470F49C8643F
:1019000070470B49C87170470948406A40F08070C1
:1019100007494862704701460020054A92680A401C
:101920000AB1012000E00020704701498872704729
:10193000001002400000FFF8FFFFF6FE00004242E8
:101940008004424200127A0000093D00320000206B
:101950004200002010B50446FB48844209D1012111
:101960008803FFF7ADFF00214FF48040FFF7A8FF89
:1019700032E0F648844209D101214804FFF7ADFF67
:1019800000214FF40030FFF7A8FF25E0F048844223
:1019900009D101218804FFF7A0FF00214FF4802026
:1019A000FFF79BFF18E0EB48844209D10121C804EE
:1019B000FFF793FF00214FF40020FFF78EFF0BE0AD
:1019C000E548844208D101210805FFF786FF002180
:1019D0004FF48010FFF781FF10BD2DE9F04786B06E
:1019E00005460E460024A24600BFA1460027B08946
:1019F00000B100BF2F462C8A4CF6FF700440F088DF
:101A000004432C82AC894EF6F3100440B08831892F
:101A10000843718908430443AC81AC8A4FF6FF4008
:101A20000440B0890443AC8201A8FFF7C2FEC64857
:101A3000874202D1DDF810A001E0DDF80CA0A889F2
:101A400000F4004040B10AEBCA0000EB0A10316814
:101A50004900B0FBF1F807E00AEBCA0000EB0A10FE
:101A600031688900B0FBF1F86420B8FBF0F00401A4
:101A70002009642101FB1089A88900F4004040B1CD
:101A8000322000EBC900B0FBF1F000F00700044386
:101A900008E0322000EB09106421B0FBF1F000F007
:101AA0000F0004432C8106B0BDE8F0874FF41651B7
:101AB000016000218180C18001810C2141810021D0
:101AC0008181704710B502460020108A4FF2FF0353
:101AD00018400B884C8823438C882343CC882343AD
:101AE0001843108210BD0021018041808180C18097
:101AF000704721B1828942F40052828104E08289D8
:101B00004DF6FF731A4082817047F0B503460024FA
:101B100000260025002040F66A17B94200D100BF18
:101B20001846C1F3421401F01F06012707FA06F513
:101B3000012C01D10C3004E0022C01D1103000E066
:101B400014301AB107682F43076002E00768AF43FB
:101B50000760F0BD1AB1838A0B43838202E0838A57
:101B60008B4383827047028A4FF6F0731A400282D9
:101B7000028A0A430282704782894FF2FF731A4039
:101B8000828182890A438281704721B1828942F031
:101B90000202828104E082894FF6FD731A4082813D
:101BA0007047028A4FF6DF731A400282028A0A43A4
:101BB0000282704721B1028A42F48042028204E02C
:101BC000028A4BF6FF731A4002827047C1F3080283
:101BD0008280704701468888C0F308007047818979
:101BE00041F0010181817047028BD2B20283028BE6
:101BF00042EA012202837047028B02F47F42028391
:101C0000028B0A430283704721B1828A42F020028C
:101C1000828204E0828A4FF6DF731A408282704724
:101C200021B1828A42F01002828204E0828A4FF659
:101C3000EF731A408282704721B1828A42F0080213
:101C4000828204E0828A4FF6F7731A4082827047DC
:101C500021B1828942F40042828103E08289C2F389
:101C60000E028281704721B1828A42F40062828230
:101C700004E0828A4FF2FF731A4082827047828AA0
:101C80004FF6FB731A408282828A0A43828270472F
:101C900021B1828A42F00202828204E0828A4FF6F7
:101CA000FD731A408282704702460020B1F5007F22
:101CB00000D100BF13880B400BB1012000E00020D1
:101CC000704701F40072B2F5007F00D100BFCA4333
:101CD0000280704770B502460024002300250020D2
:101CE00040F66A16B14200D100BFC1F3421501F0BF
:101CF0001F03012606FA03F3012D02D19689334012
:101D000006E0022D02D1168A334001E0968A334064
:101D10000C12012606FA04F41688344013B10CB1F3
:101D2000012000E0002070BD10B50022002340F625
:101D30006A14A14200D100BF0A1201249440A3B248
:101D4000DC43048010BD0000003801400044004026
:101D500000480040004C0040005000403149014321
:101D6000314A1160704770B5002100230F22C478FA
:101D700004B32D4C246804F4E064C4F5E064210A43
:101D8000C1F10403CA40447804FA03F18478144092
:101D900021430901254C0678A155047804F01F055C
:101DA0000124AC4005786D11AD0005F1E025C5F8C2
:101DB000004109E0047804F01F050124AC401C4DEB
:101DC0000678761145F8264070BD1A4A0A4002434B
:101DD000154B1B1F1A60704739B1134A121D126848
:101DE0000243114B1B1D1A6006E00F4A121D1268B8
:101DF00082430D4B1B1D1A607047042808D14FF019
:101E0000E021096941F004014FF0E022116107E08F
:101E10004FF0E021096921F004014FF0E022116147
:101E2000704700000000FA050CED00E000E400E05F
:101E300080E100E080FFFF1F704700000FB40449FD
:101E400010B503AA029800F09DFA10BC5DF814FBCF
:101E50002C0000202DE9F0474FF0000A8946044687
:101E6000C0F820A02046E1688847002876D02528C1
:101E700006D0D4E901219047206A401C2062F1E796
:101E8000E168204600258847C4F81CA006460027C4
:101E9000C4F818A02A2E09D0304600F0DAFF38B373
:101EA00004EB8708303EC8F8186019E059F8041BA5
:101EB000204604EB87029161E1688847012F0646BE
:101EC00018D1E069002820DA25F020051DE0D8F8B7
:101ED000180000EB800006EB40003038C8F818000E
:101EE0002046E1688847064600F0B3FF0028EED19F
:101EF000012F0AD02E2E08D12046E16888477F1C8A
:101F00000646022F45F02005C4DBA069002803DA4D
:101F1000404245F00105A061E80701D025F0100519
:101F2000B6B1A6F14100192802D8203645F4006563
:101F30004A463146204625604D46FEF711F958B114
:101F4000012806D0ED1D25F0070000F1080989E7FA
:101F500004E005F1040985E730468AE7206ABDE818
:101F6000F087704770477047704770472DE9FF4F03
:101F70000C461E464FF0FF378BB0D2E90001DDF86A
:101F800060800A908A46C1F30A5505B93D46002192
:101F900008464FF00000BAF1000F00F4400005DAE7
:101FA00000EB80004FF4400101EA50004FEA9059E5
:101FB000B9F1010F00DDB9460A9850EA4A000ED087
:101FC00044F61050A5F2FF3545432F14B8F1000F29
:101FD0001ED07542291E1EDDC9F100021CE0B8F1B9
:101FE000010F4FF0000001D0302103E0F24305E083
:101FF0002154401CB042FBDB30460022002121541A
:102000000B99C1F80880C1E900200FB0BDE8F08F3E
:10201000BD1B6D1CDEE74A4600DA694206A800F0E7
:1020200065FA06AB93E8070003AB83E80700504668
:102030000A9900F03FFB8DE80700A0F500501F381B
:1020400000900398002D09DD42F21F014A46084422
:1020500003A90390684600F09EFD08E0A0F500503B
:102060004A461F3803A90390684600F0A8FD8DE892
:1020700007000004000C03D04FF0FF30410800E0DF
:102080001046B8F1000F03D00022009215461EE062
:10209000751E05D400F08CF9303262556D1EF9D5ED
:1020A000B3460122084302D000227F1C04E02078BE
:1020B000302801D100227F1E002A099786D01DE01A
:1020C000112D07DA00F074F9303262556D1C50EAB8
:1020D0000102F5D1084302D00098C8B10EE00021FA
:1020E000681E05E0235C625C63542254401E491C58
:1020F0008142F7DBAB46A81B401E0990002004F884
:102100000B000B98099AC0F80880C0E9002B7CE707
:1021100011264FF0000859E72DE9F04F8846044694
:10212000D21D22F0070191B0D1E90001CDE90A01E9
:1021300000F07BFE02460B98C00F01D02D2007E077
:102140002068810701D52B2002E0202101EAC00090
:10215000032A099001D0072A05DB034641462046A1
:1021600000F084F90BE12078800601D5E06900E0F9
:102170000620B8F1650F814606D0B8F1660F18D079
:10218000B8F1670F70D131E00020B9F1110F009064
:1021900001DB112301E009F101030AAA01A90CA83E
:1021A000FFF7E4FEDDE90C70002609F10105834626
:1021B00047E001204B4600904FF000470AAA01A9D2
:1021C0000CA8FFF7D3FEDDE90DB00C995D460026A3
:1021D00010B909F101000D18B9EB050003D4C0F1E5
:1021E000FF3609F10105A5EB09002BE0B9F1010F5C
:1021F00001DA4FF001090020B9F1110F00904846B3
:1022000001DD112300E003460AAA01A90CA8FFF78B
:10221000ADFEDDE90C704D460026834620780007B0
:102220000AD4AB4500DA5D4601A8012D04DD411951
:1022300011F8011C302907D04F4502DA17F1040FBD
:1022400004DA012082460FE06D1EEEE7002F02DC6B
:10225000ED1B3E4403E0781CA84200DD7D1CB81B4A
:1022600000F1010A4FF000472078000703D4AA4587
:1022700001DB4FF0FF3A0021B7F1004F0DF14308A9
:102280008DF8431024D002202B23002F01DA7F4247
:102290002D230A21021EA0F1010000DC5FB197FB93
:1022A000F1FC97FBF1F201FB1C7C17460CF1300CA2
:1022B00008F801CDEEE7A8F10100037021880905B7
:1022C00001D5452100E06521A0F1010800F8011CBD
:1022D00009980FA9A1EB0807FF1D00B101204119C2
:1022E00001EBEA70A1693844081A401EA061207809
:1022F000C00602D42046AFF30080099828B1D4E983
:1023000001219047206A401C20622078C00622D517
:102310002046AFF300801EE0002E04DBB34502DD53
:1023200001A8805D00E03020D4E901219047206AB7
:10233000401C2062761CAAF101005FEA000A0AD163
:1023400000F032F8C0680168405CD4E90121904790
:10235000206A401C2062281EA5F10105DCDC07E094
:10236000D4E9012118F8010B9047206A401C206233
:10237000381EA7F10107F3DC2046AFF300800320ED
:1023800011B043E6074B70B50D467B4400F05BF897
:102390000446284600F018F910B14FF0FF3070BD28
:1023A000204670BD4DEDFFFF00487047300500200E
:1023B00030B5B0F10A024FEA900E71F100034EEA17
:1023C000817EB0EB0E0061EB91014FEA101E4EEAE8
:1023D000017E10EB0E0041EB11114FEA102E4EEA78
:1023E000016E10EB0E0041EB11214FEA104E4EEA48
:1023F000014E10EB0E0041EB1141401841F100017C
:102400004FEAD00040EA41704FEAD10110EB80055D
:102410004FEA810444EA907444EB01046D1944EBE3
:102420000404521BA3414FF0000348BF0A3200D5F9
:1024300030BD401C41F1000130BD000001694A1C63
:1024400002610878704700B58FB0CDE901310021F5
:10245000059105497944CDE9031011466846FFF717
:10246000F9FC0FB000BD0000E5FFFFFF2DE9F041D2
:102470001F46044603260168072A01F4006004DBB6
:1024800008B116A505E016A503E008B115A500E002
:1024900015A521F010002060A069C01EA0610FB139
:1024A000401EA0612046AFF300804FB1D4E9012166
:1024B00038469047206A401C2062C01C206206E01B
:1024C000206AFAE7D4E9012115F8010B9047761E3E
:1024D000F8D22046AFF30080BDE8F0814E414E00B7
:1024E0006E616E00494E4600696E66002DE9F04748
:1024F000814616468AB0334878440DC88DE80D00F1
:1025000030487844801C03AC0DC884E80D0041F6C7
:102510009B300844372190FBF1F290FBF1F5A5F1D7
:10252000800501FB12041B3C02D56442012000E03F
:102530000020DFF890A080460027FA44AAF1BE0AE6
:102540000DE0E00709D03246684607EB47010AEB89
:10255000810100F034FB8DE8070064107F1C002C23
:10256000EFD1184F7F44AC3F18E0E80714D007EBD9
:1025700004100DF1180A90E80E008AE80E00C068F9
:10258000F04201D198190890324606A903A800F03C
:1025900016FB03AB83E807006D10641C002DE4D12B
:1025A00032466946B8F1000F03A802D000F0F3FAF2
:1025B00001E000F004FBC9E90001C9F808200AB0F5
:1025C000BDE8F0877C270000007B00F080007047AA
:1025D00000487047100500207546FFF7F9FFAE462A
:1025E00005006946534620F00700854618B020B51F
:1025F000FEF71EFEBDE820404FF000064FF000073A
:102600004FF000084FF0000B21F00701AC46ACE89A
:10261000C009ACE8C009ACE8C009ACE8C0098D4607
:10262000704710B50446AFF300802046BDE8104067
:10263000FDF7B0BD4FF0013C50F8042B51F8043BBE
:102640009A4221D1A2EB0C03934313EACC1317D186
:1026500050F8042B51F8043B9A4215D1A2EB0C031D
:10266000934313EACC130BD150F8042B51F8043BDD
:102670009A4209D1A2EB0C03934313EACC13DBD0AB
:102680004FF00000704700BFD01A01BAB1FA81F1D3
:1026900001F0180122FA01F0CB40C1F12001DBB2B8
:1026A000C0B2C01A2CFA01F3D11A914311EAC31136
:1026B000E6D170475FEA400C08BF91F0000F4FEA87
:1026C0008C234FEAC12243EA51514FEA1C5018BFF4
:1026D00000F5F0404FEA300018BF41F000415FEADA
:1026E0006C5C00F02980BCF1FF3F08BF40F08040E7
:1026F0007047130C06BF12044FF0100C4FF0000C83
:10270000130E04BF12020CF1080C130F04BF1201C8
:102710000CF1040C930F04BF92000CF1020CD30FC8
:1027200004BF52000CF1010C11464FF00002A0F161
:102730001F00A0EB0C00704711F0004F08BF70475E
:1027400031F000413FF4D5AF0B0C06BF09044FF048
:10275000100C4FF0000C0B0E04BF09020CF1080C1A
:102760000B0F04BF09010CF1040C8B0F04BF89008F
:102770000CF1020CCB0F04BF49000CF1010CCCF1A1
:102780002003A0EB0C0022FA03F302FA0CF241EA58
:10279000030100F10100704720F07F4C80EA030044
:1027A00023F07F47ACEB070303F57C5300F00040B8
:1027B00003F1FF032DE980494FEA154B09B44FEAB5
:1027C000144325EA0B4E24EA03480FF2042606EBD5
:1027D000132749083E785FEA320203FB0667C7F514
:1027E000000707FB06F64FEA54374FEAD64606F1D4
:1027F000020607FB066CCCF1005C4FEA1C472CEA92
:10280000074C07FB06F40CFB06F504EB15464FEAF4
:10281000961634BF00204FF000404FEAD13706FB38
:1028200007FC4FEA1C4C0CFB0BF7D21B03FB0CF70D
:1028300061EB07010CFB0EF7B0EB074072EB1742A0
:102840000CFB08F734BFA2EB0742B2EB074261EB87
:1028500017414FEA0C444FEA910706FB07FC4FEA89
:102860001C4C0CFB0BF7B0EBC74072EB573203FB71
:102870000CF734BFA2EBC742B2EBC74261EB573152
:102880000CFB0EF7B0EBC70072EB57720CFB08F7AE
:1028900034BFA2EBC702B2EBC70261EB5771039FD3
:1028A0004FEA816141EA921104EBCC044FEAD1373F
:1028B0004FEA826206FB07FC42EA90124FEA806010
:1028C0004FEA1C4C0CFB0BF7D21B03FB0CF761EB24
:1028D00007010CFB0EF7B0EB074072EB17420CFB45
:1028E00008F734BFA2EB0742B2EB074261EB174196
:1028F0004FEA8C554FEA910704EB9C2406FB07FC3A
:102900004FEA1C4C0CFB0BF7B0EBC74072EB573295
:1029100003FB0CF734BFA2EBC742B2EBC74261EB3B
:1029200057310CFB0EF7B0EBC70072EB57720CFB84
:1029300008F734BFA2EBC702B2EBC70261EB5771D5
:1029400015EB4C254FEA816141EA92114FEA826210
:102950004FEAD13742EA901206FB07FC44F100042B
:102960004FEA80604FEA1C4C0CFB0BF7D21B03FBB9
:102970000CF761EB07010CFB0EF7B0EB074072EBB5
:1029800017420CFB08F734BFA2EB0742B2EB074239
:1029900061EB174115EB1C154FEA813141EA924179
:1029A0004FEA823242EA90424FEA80304FEA0C7698
:1029B00044F1000448EA03434EEA0B484FF0000E8E
:1029C000B2EB080C71EB030724BF624639464EEBAD
:1029D0000E0E4FF0000B0018524149414BEB0B0B10
:1029E000B2EB080C71EB03077BF1000B24BF6246CE
:1029F00039464EEB0E0E4FF0000B00185241494184
:102A00004BEB0B0BB2EB080C71EB03077BF1000BEC
:102A100024BF624639464EEB0E0E51EA020718BF3C
:102A200046F0010616EB0E7655F1000254F1000156
:102A300003D5BDE88901BDE80088BDE88901BDE88E
:102A40000048B619524141EB0101A3F1010370475F
:102A500080807F7E7D7C7B7A7978777676757473DB
:102A6000727171706F6E6E6D6C6C6B6A6A6968689A
:102A7000676666656464636362616160605F5F5E30
:102A80005E5D5D5C5C5B5B5A5A59595858575756A6
:102A9000565555555454535352525251515050500B
:102AA0004F4F4F4E4E4D4D4D4C4C4C4B4B4B4A4A5D
:102AB0004A494949484848474747474646464545A1
:102AC00045444444444343434342424242414141DA
:102AD000002B26D4770021D01CB54FEA370703B46A
:102AE0004FF010004FF010014FF000000FBCBDE898
:102AF00010400BF1010BBBF1010F08BF5FEA170794
:102B000022BF12F1010211F101014FF0004143F126
:102B1000000300F0004043EA00007047F9D3570873
:102B2000DAE746EA064613F1400F4FEA16461FDD84
:102B300013F1200FDFBF16430A46002120335B420A
:102B4000C8D0C3F1200746EA064602FA07F74FEA63
:102B5000164646EA0706C3F1200722FA03F201FAF5
:102B600007F721FA03F14FF0000342EA0702B1E749
:102B700046EA020646EA06464FEA164646EA0106D5
:102B8000BCBF46EA0646360C4FF000034FF0000289
:102B90004FF000019EE72DE9C048934630B491E81C
:102BA000380007C831EA400C48BF34EA430C03D56B
:102BB000FFF7F2FDFFF78CFFF0BCBDE800882DE9C0
:102BC000C048934630B491E8380007C810F0804FF1
:102BD00008BF13F0804F03D100F005F8FFF778FF2E
:102BE000F0BCBDE8008820F07F4780EA030023F0B6
:102BF0007F4C07EB0C03A3F57C5300F00040A3F1DE
:102C0000FE0392F0000F00F0B38095F0000F00F08B
:102C100077802DE901494FEA11404FEA144621EA35
:102C2000004800FB06FC24EA064708FB06F607FB03
:102C300008F800FB07F718EB06484CEB164C4FEA78
:102C4000124B18EB07484FEA15464CEB174022EAA7
:102C50000B4E0BFB06FC25EA06470EFB06F607FBB0
:102C60000EFE0BFB07F71EEB064E4CEB164C4FF01F
:102C700000061EEB074E4CEB174B18EB0B0840F110
:102C8000000018EB0E0B58EB000840F100008F1A03
:102C90004FF000013CBFC943661B14BFB5EB040CE9
:102CA00000213CBFC943F61B4FEA17444EEA8E0E83
:102CB00027EA04454FEA1C4704FB07622CEA074C4D
:102CC00005FB07F70CFB05F604FB0CFC16EB0746AF
:102CD00042EB174216EB0C4642EB1C421BEB06067E
:102CE00058EB0202414146EA9E0601D5BDE8018942
:102CF000B619524141EB0101A3F10103BDE801897D
:102D00004FEA14454FEA114724EA054621EA074CE9
:102D100005FB07F406FB07F70CFB06F105FB0CFCB3
:102D200011EB074144EB17444FEA124711EB0C41FA
:102D300044EB1C4422EA074C05FB07F206FB07F7AD
:102D40000CFB06F605FB0CFC16EB074642EB1742A4
:102D500016EB0C4642EB1C456A1854F1000148BFC3
:102D60007047B619524141EB0101A3F101037047CD
:102D700095F0000F37D04FEA11424FEA144721EA8D
:102D8000024624EA074C02FB07F106FB07F70CFB9F
:102D900006F402FB0CFC14EB074441EB17414FEA2D
:102DA000154714EB0C4441EB1C4125EA074C02FB90
:102DB00007F506FB07F70CFB06F602FB0CFC16EB0F
:102DC000074645EB174516EB0C4645EB1C4212191E
:102DD00051F1000148BF7047B619524141EB010162
:102DE000A3F1010370474FEA14454FEA114724EA63
:102DF000054621EA074C05FB07F106FB07F70CFB2C
:102E000006F24FF0000605FB0CFC12EB074241EB0B
:102E1000174112EB0C4251EB1C4148BF704792180E
:102E200041EB0101A3F101037047490050EAC120C1
:102E300018BF04204A0D18BF40F0010040F2FF7295
:102E4000B2EB515F08BF40F00200012808BF052027
:102E5000704730380A2801D201207047002070479F
:102E600010B500290AD00878002807D00548784412
:102E7000FFF7E0FB002801D0002010BD0248784495
:102E800010BD0000421E00003A1E00000808A0F518
:102E900000114FEA3101704743004FEAD30C4FEA6B
:102EA0003C0C43401FBF40070CF1605113F0FE4F34
:102EB00070471CF0006F03D100200CF000417047F8
:102EC0000CF0004343EA507010B540EACC0000F02B
:102ED000E8F900BF000000924FEA0001FFF7D6BFFB
:102EE0004FF000414FF00000A1F5002170470000B5
:102EF00090EA010F48BF81F0004100F12E82421A92
:102F00003CBF801A89184FEAD0524FF07F4C1CEA20
:102F1000410FA2EBD15318BF9CEA026F00F03B8037
:102F20004FF0004C4CEA00204CEA012121FA03FC4E
:102F300010EB0C0C1ED202F1FF325FEA1C2040EBBA
:102F4000C25038BF70471CF07F0F4FEA400C18BFCB
:102F5000BCF17F4F38BF7047C3F12003994008BFD1
:102F600020F00100BCF17F4F38BF7047A0F1C04096
:102F700000F0DDB94FEA3C00000A40EBC25028BF28
:102F80001CF0FF0F4FEA400CE6D018BFBCF17F4F9A
:102F900038BF7047EAE79CEA026F05D010EA5C0F81
:102FA00008BF00F00040704710B500F07AF900BF8C
:102FB00064FBBE3E4FF47F0C1CEAD0121EBF1CEA1D
:102FC000D11392EA0C0F93EA0C0F00F0858090EA7F
:102FD000010F48BF42F4807240F4000C41F400003D
:102FE0002CF07F4120F07F4000B58142A2EB03022C
:102FF0000FF2081CACEB504EC0F100009EF800E050
:103000004FEA4E0E00FB0EFC38BF49004FEA2C1C65
:1030100002F5FA020CFB0EF34FEACE1E4FEA112C1A
:103020004FEAC1210EEB635E42EB22420EFB0CFC29
:103030004FEA1C5300FB03114FEA112C4FEA0131F8
:103040000EFB0CFC4FEADC4C00FB0C11C14228BF0C
:1030500009184CEB03335DF804EB10EB410143EB33
:10306000C250B2F57C0F38BF704729D512F0F00F6F
:103070001CBF00F1C04000F0004070470081828317
:103080008485868788898B8C8D8E8F919293959677
:1030900097999A9C9D9FA0A2A3A5A7A8AAACAEB001
:1030A000B2B3B5B7B9BCBEC0C2C5C7C9CCCED1D406
:1030B000D7D9DCDFE2E6E9ECF0F3F7FAFE00000036
:1030C0004FEA400C0CF1807CBCF17E4F28BF70476A
:1030D000B0F1C04000F02BB990EA010F0CEAD11317
:1030E00048BF42F48072624538BF634507D213F48B
:1030F0007F0F16D080EA010000F00040704710B545
:1031000000F0CFF8097EFC3E00F005B880EA01002F
:1031100000F00040704780EA010000F0004000F03D
:1031200006B912F47F0F04BF0248704780EA01001D
:1031300000F0FDB80000C07FC10DD1F19E0206DB9A
:103140004FEA002343F0004323FA02F070470042A5
:1031500007D54FEA4001B1F1FE4F02D24FF0000017
:10316000704710B500F09DF8499224800020704708
:103170006FEA200070470000B0FA80F310FA03F203
:10318000C3F19D030AD0D90501EB1220530638BFC5
:10319000704700F1010008BF20F0010070470000F7
:1031A0004FF47F0C1CEAD0121EBF1CEAD11392EA26
:1031B0000C0F93EA0C0F00F0478090EA010F48BF14
:1031C00042F480724FF0004C4CEA00204CEA01219E
:1031D00002EB0302A0FB0113A2F50002002918BFB5
:1031E00043F001035B0028BF4FEA330342EB224266
:1031F0005FEA132C4CEBC2502EBFBCEB436FB2F511
:103200007C0F70474FEA036CBCF1004F08BF20F001
:103210000100B2F57C0F38BF70470BD582F0FF027A
:1032200012F5803FC8BF704700F1C040D8BF00F022
:103230000040704700F5000C5FEA4C0C48BF704737
:10324000B0F1C04000F073B890EA010F0CEAD1135E
:1032500048BF42F48072624538BF634504D280EAB9
:10326000010000F00040704710B500F01AF800BFF0
:103270008900013E00F007B800F009B85FEA410C90
:103280005FEA1C6C08D080EA010000F050B85FEAE9
:10329000400C5FEA1C6CF6D14FF00040A0F58000B6
:1032A00070470EF1020E2EF0030E5EF8044B24421E
:1032B00004D44FEA4102B2F17F4F11D84FEA4003E4
:1032C000B3F17F4F0CD80ED14FEAD07CB2F17F4FD3
:1032D0000CEB4C0C0CF1020C08BF4CEBD17C04E065
:1032E0004FF0080C01E04FEAD17C0CEB4C0324FAC0
:1032F00003F404F00704B4F1040C06D20EEB840CC2
:10330000BDE810404CF0010C6047DFE80CF0070806
:1033100002024FF00040A0F5800010BD08464200B8
:1033200018BFD2F1807288BF00F0004010BDFF21AD
:1033300041EAD050C005704780F0004090EA010F8C
:103340007FF5DDAD81F0004100F007B890EA010F94
:1033500048BF81F000413FF5D2AD421A04D882F057
:103360000042A0EB020011444FEAD0524FF07F4CD4
:103370001CEA410FA2EBD15318BF9CEA026F4AD05E
:103380004FF0004C4CEA00204CEA012121FA03FCEA
:10339000B0EB0C0C0FD412F0FE0F36D05FEA4C00ED
:1033A0001DD5001240EBC25038BF70471CF03F0FD4
:1033B00018BF70470BE0A2F101025FEA1C2040EB4E
:1033C000C25038BF70471CF07F0F18BF7047C3F161
:1033D0002003994014BF401E20F001007047800870
:1033E0004FEA122308BF7047B0FA80FCA2EB0C0230
:1033F000CCF1280C60FA0CF093EA122F04BF00EB1A
:10340000C25070474FEAC3707047130A5FEADC107E
:1034100008BF7047F6E79CEA026F04D010EA5C0F21
:1034200008BF0020704710B5FFF73BFF40DFF63EB6
:1034300081F000407047FEF76FBE00000000000002
:10344000000000000000000000003F4000000000FD
:103450000000000030004000300040000000090083
:103460000BC03D000BC03D00090018C024407FE0A8
:10347000224031800000180024C01B000D80324023
:10348000018003801C4027401C8007400040100042
:1034900060000000000000000000000000000000CC
:1034A0001F80204040200000402020401F8000005E
:1034B0000000090006001F8006000900000004004B
:1034C00004003F80040004000000001000600000C1
:1034D00000000000000004000400040004000400D8
:1034E000000000000040000000000000000000207C
:1034F00001C006003800400000001F80204020402E
:1035000020401F800000000010403FC0004000002D
:10351000000018C0214022402440184000001080C4
:103520002040244024401B80000002000D001100B8
:103530003FC0014000003C802440244024402380C0
:1035400000001F80244024403440038000003000ED
:10355000200027C03800200000001B8024402440A9
:1035600024401B8000001C0022C0224022401F80FB
:103570000000000000000840000000000000000003
:1035800000000460000000000000000004000A00C9
:1035900011002080404009000900090009000900CD
:1035A000000000004040208011000A0004001800C4
:1035B000200023402400180000001F8020402740E6
:1035C00029401F400000004007C039000F0001C023
:1035D000004020403FC0244024401B8000001F804A
:1035E0002040204020403080000020403FC020404C
:1035F00020401F80000020403FC024402E4030C0AB
:10360000000020403FC024402E00300000000F008A
:103610001080204022403380020020403FC0040040
:1036200004003FC02040204020403FC020402040B8
:1036300000000060202020203FC02000200020400B
:103640003FC024400B0030C0204020403FC02040FD
:103650000040004000C03FC03C0003C03C003FC0F1
:10366000000020403FC00C4023003FC020001F80CE
:103670002040204020401F80000020403FC02440C8
:103680002400180000001F802140214020E01FA0DE
:10369000000020403FC02440260019C0004018C050
:1036A00024402440224031800000300020403FC0B0
:1036B00020403000000020003F80004000403F805C
:1036C000200020003E0001C0070038002000380024
:1036D00007C03C0007C038000000204039C0060089
:1036E00039C0204000002000384007C0384020008A
:1036F0000000304021C02640384020C000000000BB
:1037000000007FE0402040200000000070000C001E
:103710000380004000000000402040207FE00000C7
:103720000000000020004000200000000000001009
:1037300000100010001000100010000000004000F9
:10374000000000000000000002800540054003C0AA
:10375000004020003FC004400440038000000000FF
:103760000380044004400640000000000380044041
:1037700024403FC000400000038005400540034056
:103780000000000004401FC024402440200000002E
:1037900002E0055005500650042020403FC0044080
:1037A000040003C000400000044027C000400000A7
:1037B000000000100010041027E00000000020406E
:1037C0003FC00140070004C00440204020403FC0EB
:1037D00000400040000007C0040007C0040003C010
:1037E0000000044007C00440040003C00040000083
:1037F00003800440044003800000041007F00450DC
:10380000044003800000000003800440045007F0DF
:103810000010044007C00240040004000000000043
:1038200006400540054004C00000000004001F8061
:10383000044000400000040007800040044007C02E
:1038400000400400070004C00180060004000600D8
:1038500001C0070001C006000000044006C00100CE
:1038600006C0044000000410071004E001800600B8
:1038700004000000044005C00640044000000000B1
:10388000000004007BE04020000000000000000079
:10389000FFF000000000000040207BE0040000007A
:1038A0000000400080004000200020004000000098
:1038B0000000000000000000000000000000000008
:1038C000000000001FCC000C000000000000000001
:1038D0000800300060000800300060000000022096
:1038E00003FC1E20022003FC1E200220000000001A
:1038F0000E1811043FFF10840C78000000000F0028
:1039000010840F3800C00778188400780000007811
:103910000F8410C411240E9800E4008400080800ED
:1039200068007000000000000000000000000000BF
:103930000000000007E0181820044002000000000A
:1039400040022004181807E00000000000000240B8
:10395000024001800FF00180024002400000008020
:10396000008000800FF800800080008000000001CF
:10397000000D000E0000000000000000000000002C
:1039800000800080008000800080008000800000B7
:10399000000C000C0000000000000000000000000F
:1039A00000060018006001800600180020000000DA
:1039B00007F0080810041004080807F000000000D1
:1039C000080408041FFC00040004000000000000BC
:1039D0000E0C10141024104411840E0C0000000072
:1039E0000C1810041104110412880C70000000005F
:1039F00000E00320042408241FFC00240000000031
:103A00001F98108411041104108810700000000029
:103A100007F00888110411041888007000000000E5
:103A20001C00100010FC13001C001000000000001F
:103A30000E3811441084108411440E380000000028
:103A40000700088C10441044088807F000000000AC
:103A500000000000030C030C000000000000000048
:103A6000000000010106000000000000000000004E
:103A70000080014002200410080810040000022009
:103A8000022002200220022002200220000000006A
:103A9000100408080410022001400080000000000B
:103AA0000E001200100C106C10800F00000003E0DC
:103AB0000C1813E4142417C4082807D000000004CD
:103AC000003C03C41C40074000E4001C0004100438
:103AD0001FFC1104110411040E880070000003E0A3
:103AE0000C1810041004100410081C10000010041E
:103AF0001FFC100410041004080807F00000100454
:103B00001FFC1104110417C410040818000010044D
:103B10001FFC1104110017C010000800000003E092
:103B20000C181004100410441C780040000010040D
:103B30001FFC10840080008010841FFC1004000013
:103B4000100410041FFC1004100400000000000307
:103B50000001100110011FFE1000100000001004F1
:103B60001FFC110403801464181C100400001004CE
:103B70001FFC1004000400040004000C00001004EA
:103B80001FFC1F0000FC1F001FFC1004000010049D
:103B90001FFC0C04030000E010181FFC100007F0CD
:103BA0000808100410041004080807F000001004AE
:103BB0001FFC10841080108010800F00000007F0A0
:103BC000081810241024101C080A07F20000100422
:103BD0001FFC1104110011C011300E0C0004000074
:103BE0000E1C11041084108410441C3800001800AE
:103BF000100010041FFC100410001800000010003A
:103C00001FF810040004000410041FF81000100036
:103C10001E0011E0001C007013801C0010001FC06B
:103C2000103C00E01F0000E0103C1FC0000010042A
:103C3000180C163401C001C01634180C1004100002
:103C40001C00130400FC13041C00100000000804F6
:103C5000101C1064108413041C04101800000000D1
:103C6000000000007FFE4002400240020000000011
:103C700030000C0003800060001C00030000000006
:103C80004002400240027FFE0000000000000000F1
:103C90000000200040004000400020000000000123
:103CA000000100010001000100010001000100000D
:103CB0004000400020000000000000000000000064
:103CC0000098012401440144014400FC0004100058
:103CD0001FFC00880104010400880070000000003F
:103CE0000070008801040104010400880000000045
:103CF000007000880104010411081FFC000400008A
:103D000000F8014401440144014400C800000000DF
:103D1000010401040FFC110411041100180000003B
:103D200000D601290129012901C90106000010045A
:103D30001FFC008401000100010400FC00040000DD
:103D40000104190419FC0004000400000000000034
:103D5000000300010101190119FE00000000100418
:103D60001FFC0024004001B4010C0104000000000D
:103D7000100410041FFC00040004000000000104F3
:103D800001FC0104010001FC0104010000FC01042C
:103D900001FC008401000100010400FC000400009B
:103DA00000F8010401040104010400F8000001010D
:103DB00001FF00850104010400880070000000007C
:103DC0000070008801040104010501FF00010104E5
:103DD000010401FC008401040100018000000000D6
:103DE00000CC0124012401240124019800000000DA
:103DF0000100010007F801040104000000000100B7
:103E000001F8000400040004010801FC00040100A2
:103E100001800170000C001001600180010001F0C0
:103E2000010C003001C00030010C01F00100000065
:103E30000104018C00740170018C01040000010177
:103E400001810171000E0018016001800100000075
:103E50000184010C013401440184010C00000000C4
:103E600000000000000001003EFC40024002000093
:103E7000000000000000FFFF000000000000000044
:103E8000400240023EFC0100000000000000000073
:103E90006000800080004000400020002000000002
:103EA0000000000000000000000000000000000012
:103EB0000000000000000000000000000000000002
:103EC00000000000000000000000000000000000F2
:103ED000000F80380FFE380F80380000000000000F
:103EE00000000000000000000000000001000006CB
:103EF00000000C00003800003100000600000C003B
:103F00000038000030000000000000000000618068
:103F10000067F807F980006180006180006180001F
:103F200061800067F807F9800061800000000000F0
:103F30000000000001C0E003E0F0063008041808AB
:103F40001FFFFE040E080787F00381E00000000059
:103F5000000001F000060C00040408060C7001F9D2
:103F6000C0000E00003BE000EC18070808040C1825
:103F70000003E00000000001E00007F003F818046F
:103F80001C0804170807E1D003C0E00023B0003C80
:103F900008002008000010000000000000010000E0
:103FA0003100003200001C00000000000000000092
:103FB0000000000000000000000000000000000001
:103FC00000000000000000000000000000007F0072
:103FD00001FFC00780F00C00181000042000020050
:103FE00000000000002000021000040C00180780F0
:103FF000F001FFC0007F0000000000000000000092
:104000000000000000000000000042000066000008
:104010006600003C0000180003FFC0001800003CD0
:10402000000066000066000042000000000008007A
:1040300000080000080000080000080001FFC000A0
:104040000800000800000800000800000800000048
:104050000000000100003100003200001C000000E0
:104060000000000000000000000000000000000050
:104070000000000000000800000800000800000820
:104080000000080000080000080000080000080008
:1040900000080000000000000000000000003800E0
:1040A00000380000380000000000000000000000A0
:1040B00000000000000000000000000000000006FA
:1040C00000001C000070000180000E00003800009D
:1040D000C0000700001C00003000000000000000CD
:1040E00000007F8001FFE0038070060018040008D4
:1040F00004000806001803807001FFE0007F8000C4
:10410000000000000000000001000801000801009C
:104110000803FFF807FFF800000800000800000887
:1041200000000000000000000001C03802C0580478
:104130000098040118040218040418061C1803F857
:104140001801E0F800000000000000000001C0E0DD
:1041500003C0F0040008040808040808061808034F
:10416000F41801E7F00001E000000000000000008A
:1041700000000300000D0000110000610000810834
:1041800003010807FFF80FFFF8000108000108000D
:1041900000000000000000E007FCD0060808061040
:1041A00008061008061008061838060FF00607C0A3
:1041B000000000000000000000003F8001FFE0035D
:1041C00084300208180410080410080410080718A6
:1041D00010030FF00007C000000000000000000006
:1041E00003C0000700000600000600F80607F806F6
:1041F000180006E0000700000600000000000000B4
:104200000001E1E003F7F006341004180804180870
:10421000040C08040C0806161803F3F001C1E000B2
:10422000000000000000F80003FC30030638040220
:10423000080402080402080404100308F001FFC087
:10424000007F0000000000000000000000000000EF
:104250000000000000007038007038007038000066
:10426000000000000000000000000000000000004E
:1042700000000000000000000000301A00301C00A8
:10428000000000000000000000000000000000002E
:10429000000000000008000014000022000041009F
:1042A0000080800100400200200400100800080087
:1042B000000000000000210000210000210000217A
:1042C0000000210000210000210000210000210049
:1042D00000210000000000000000000008000804A9
:1042E00000100200200100400080800041000022F8
:1042F0000000140000080000000000000003C000DF
:1043000004C000040000080038080F380808380806
:1043100010000C300007E00003C0000000000000A7
:1043200000003F8000FFE0038070020F10067088DD
:1043300004C088048308047F8802C0900301200021
:10434000FE400000080000180001F8003E0801C20D
:104350000007020007E20000FE00001FC80001F88D
:1043600000003800000804000807FFF807FFF80401
:10437000080804080804080804080806180803F4D4
:104380001801E7F00001E0000000000000003F809D
:1043900001FFE00380700200180400080400080414
:1043A00000080400100600200780C0000000040080
:1043B0000807FFF807FFF8040008040008040008D5
:1043C00004001802001003807001FFE0007F8000ED
:1043D000000004000807FFF807FFF80408080408B5
:1043E00008040808040808043E0804000806001829
:1043F00001006000000004000807FFF807FFF80450
:104400000808040800040800040800043E00060030
:1044100000060000018000000000000000003F8056
:1044200001FFE0038070060018040008040208047D
:1044300002080203F00783F00002000002000400FB
:104440000807FFF807FFF804080800080000080044
:1044500000080000080004080807FFF807FFF80438
:104460000008000000000000040008040008040028
:104470000807FFF807FFF804000804000804000814
:10448000000000000000000000000006000007001F
:10449000000104000104000104000307FFFE07FF00
:1044A000FC04000004000004000004000807FFF8FA
:1044B00007FFF8040C08001800003E0004C7800540
:1044C00003C80600F80400380400180000080400BF
:1044D0000807FFF807FFF8040008000008000008BC
:1044E000000008000008000008000018000060003C
:1044F000000004000807FFF807800807FC00007FA1
:10450000C00003F80007C000780007800807FFF824
:1045100007FFF804000804000807FFF80700080375
:10452000C00000E000003800001E0000070000018D
:10453000C00400F007FFF8040000000000007F80C6
:1045400001FFE0038070060018040008040008065C
:10455000001803003001FFE0007F8000000004002D
:104560000807FFF807FFF804040804040004040027
:10457000040400040400060C0003F80001F000002D
:104580000000000000007F8001FFE0038070060053
:10459000880400880400C806003C03003E01FFE6D2
:1045A000007F8400000004000807FFF807FFF804FC
:1045B0000808040800040C00040F00040BC00610D7
:1045C000F003F03801E00800000800000001E0F806
:1045D00003F030063010041808041808040C08040E
:1045E0000C080206180207F00781E00000000180B5
:1045F0000006000004000004000004000807FFF8A3
:1046000007FFF80400080400000400000600000191
:10461000800004000007FFE007FFF004001800001E
:10462000080000080000080000080000080400104E
:1046300007FFE004000004000006000007E0000798
:10464000FE00041FE00001F80000380001E0043E15
:104650000007C00006000004000004000007E0009E
:1046600007FFC0041FF80007C007F80007FF800419
:104670003FF80007C004F800070000040000000035
:104680000004000806001807C07805F1C8003E00C5
:10469000001F800463E80780F80600180400080083
:1046A000000004000006000007800007E008047C0A
:1046B00008001FF80007F800180804E008070000C9
:1046C0000600000400000000000100080600380495
:1046D00000F80403E8040F08047C0805F00807C08C
:1046E000080700180400600000000000000000003F
:1046F0000000000000000000003FFFFE200002203C
:104700000002200002200002200002000000000041
:104710000000000008000007000000C00000380092
:104720000006000001C000003000000E0000010083
:104730000000000000000000200002200002200015
:10474000022000022000023FFFFE000000000000E7
:104750000000000000000000000000000000000851
:1047600000001000003000002000003000001000A9
:10477000000800000000000000000000010000012F
:104780000000010000010000010000010000010024
:104790000001000001000001000001000001000014
:1047A00000000000000000200000200000100000B9
:1047B00010000000000000000000000000000000E9
:1047C00000000000000000F00019F8001B18002293
:1047D00008002608002408002410003FF8001FF8F5
:1047E00000000800001800000004000007FFF80F98
:1047F000FFF0001818001008002008002008003002
:1048000018001FF0000FC00000000000000007C0EB
:10481000001FF000183000200800200800200800C9
:104820003C08001C100000600000000000000000B8
:10483000000007C0001FF000381800200800200802
:1048400000200804101007FFF80FFFF00000100010
:1048500000000000000000000007C0001FF0001270
:1048600030002218002208002208003208001E1022
:10487000000E2000000000000000200000200800C2
:10488000200801FFF803FFF8062008042008042090
:104890000807200003000000000000000000000ED8
:1048A000000E6E001FF30031B10020B10020B100F6
:1048B0003191001F13002E1E00200E00300000005A
:1048C0000004000807FFF80FFFF8001008002000A0
:1048D000002000002008003FF8001FF8000008003A
:1048E0000000000000000000002008002008002058
:1048F00008063FF8063FF80000080000080000081E
:1049000000000000000000000000000000000300A4
:104910000003002001002001002003063FFE063FA7
:10492000FC0000000000000000000000000400087F
:1049300007FFF80FFFF8000188000300002FC000F8
:1049400038F80020380020080000080000000000AF
:104950000000000004000804000804000807FFF835
:104960000FFFF80000080000080000080000000029
:104970000000002008003FF8003FF8001008002069
:1049800000003FF8003FF8001008002000003FF84A
:10499000003FF8000008000000002008003FF80079
:1049A0003FF8001008001000002000002008003F21
:1049B000F8001FF80000080000000000000007C019
:1049C000000FF00018300030080020080020080018
:1049D0003008001830000FF00007C0000000000091
:1049E00000002001003FFF003FFF001011002009E0
:1049F000002008002008003038001FF0000FC00021
:104A000000000000000007C0001FF0003818002060
:104A100008002008002009001011001FFF003FFFC0
:104A2000000001000000002008002008002008000D
:104A30003FF8003FF8000808001008002008002098
:104A40000000300000300000000000000000000006
:104A5000000C78001E18003308002308002108000D
:104A600021880021980030F000386000000000002C
:104A70000000200000200000200000FFF003FFF8ED
:104A8000002008002008002008000030000000007E
:104A90000000000000002000003FF0007FF8000050
:104AA00018000008000008002010003FF8007FF008
:104AB0000000100000000000000020000030000096
:104AC0003C00003F800023F00000780000700023CD
:104AD00080003C00003000002000002000003C006E
:104AE000003FE00023F80000E0002700003E000047
:104AF0003FE00021F80001E0003E0000200000003F
:104B000000002008002008003838003E6800278098
:104B10000003C8002CF800383800201800200800D6
:104B20000000000000002000003003003C01003FB6
:104B3000830023EC000070002380003C0000200074
:104B40000020000000000000000000000038080005
:104B500020380020F80023E8002F88003E080038A5
:104B60000800201800007000000000000000000095
:104B70000000000000000000000008000014001FFA
:104B8000F7FC3000062000020000000000000000DA
:104B90000000000000000000000000000000000015
:104BA000FFFFFF0000000000000000000000000008
:104BB00000000000000000002000023000061FF787
:104BC000FC001400000800000000000000000000CD
:104BD000000000000000000000180000600000401D
:104BE0000000400000200000100000080000040049
:104BF000000400000C000010000000000240000053
:104C0000000000A00000000005400000000000C8F7
:104C1000000000000C4000000000409C000000006C
:104C2000194000000020BCBE00000000344000001D
:104C3000BFC91B8E00000004B5400000504BCFD010
:104C40006607E2CF010000006C4100003E8251AADD
:104C5000DFEEA73401000000D9420000DCB5A0E27D
:104C60003A301F97FFFFFFFFB4450000FD25A0C8A5
:104C7000E9A3C14FFFFFFFFFFF3F000000000080DE
:104C800000000000FF3F0000000000800000000066
:104C9000CC4C00080000002048000000280100085B
:104CA000144D000848000020280B000044010008B3
:104CB0001C00000043000000F8FFFFFF0C00000094
:104CC0000E0000000F0000002E0000000000000099
:104CD00000A24A04000000000000000001020304DA
:104CE00006070809000000000000000000000000A6
:104CF00000000000000000000000000000000000B4
:104D0000000001020304010203040607080902046B
:044D10000608000091
:04000005080000ED02
:00000001FF
